:020000040800F2
:10000000700800204D020008A91B0008BD19000857
:10001000A51B000845040008691F00080000000037
:10002000000000000000000000000000DD1B0008D0
:100030002505000800000000D91B0008111C00085D
:1000400067020008670200086702000867020008EC
:1000500067020008670200086702000867020008DC
:1000600067020008670200086702000867020008CC
:1000700069040008670200087904000867020008A4
:1000800067020008670200086702000867020008AC
:1000900049040008670200086702000867020008B8
:1000A000670200086702000867020008670200088C
:1000B000670200086702000867020008670200087C
:1000C000670200086702000867020008670200086C
:1000D00067020008491F000867020008591F00084E
:1000E000670200086702000867020008670200084C
:1000F000670200086702000867020008670200083C
:10010000670200086702000867020008670200082B
:10011000670200086702000867020008670200081B
:1001200067020008670200088904000867020008E7
:1001300067020008670200086702000867020008FB
:1001400059040008670200086702000867020008F7
:1001500067020008670200086702000867020008DB
:1001600067020008670200086702000867020008CB
:10017000670200086702000867020008000000002C
:1001800067020008670200086702000867020008AB
:10019000670200086702000867020008670200089B
:1001A00000000000000000006702000800F002F8F4
:1001B00000F03CF80AA090E8000C82448344AAF1C5
:1001C0000107DA4501D100F031F8AFF2090EBAE8C3
:1001D0000F0013F0010F18BFFB1A43F0010318477B
:1001E000541E0000741E0000103A24BF78C878C165
:1001F000FAD8520724BF30C830C144BF04680C602D
:10020000704700000023002400250026103A28BF74
:1002100078C1FBD8520728BF30C148BF0B60704778
:100220001FB501F0EEFE1FBD10B510BD00F0D5F8F2
:100230001146FFF7F5FF01F0D3FE00F0F3F803B429
:10024000FFF7F2FF03BC00F0F7F800000948804711
:1002500009480047FEE7FEE7FEE7FEE7FEE7FEE7A8
:10026000FEE7FEE7FEE7FEE704480549054A064BC0
:1002700070470000C91C0008AD0100087002002092
:1002800070080020700400207004002053EA020C63
:1002900000F069802DE9F04B4FF00006002B1FBFE6
:1002A000B3FA83F503FA05F424FA05F65E4012BFAB
:1002B0001643B2FA82F502FA05F4C5F120051EBF15
:1002C00022FA05FC44EA0C04203556EA044C4FEAB5
:1002D000144418BF641C4FF000084FF0000990420E
:1002E00071EB030C39D3002919BFB1FA81F701FA78
:1002F00007F6B0FA80F700FA07F6C7F120071EBF2D
:1003000020FA07FC46EA0C062037B6FBF4FCA7EB04
:100310000507103F07F01F0BCBF120062CFA06F65D
:100320000CFA0BFB44BFB3460026202FA4BF5E4649
:100330004FF0000B5BEA060C08BF4FF0010B19EB06
:100340000B0948EB0608ABFB027C06FB02CC0BFB5F
:1003500003CCC01B71EB0C01C1E70B4602464146C2
:100360004846BDE8F08B13B5084318BF4FF0FF3087
:100370000146AFF30080BDE81C4070474FF000021B
:1003800000B5134694469646203922BFA0E80C508B
:10039000A0E80C50B1F12001BFF4F7AF090728BF66
:1003A000A0E80C5048BF0CC05DF804EB890028BFE2
:1003B00040F8042B08BF704748BF20F8022B11F00B
:1003C000804F18BF00F8012B704770477047704787
:1003D000004870471000002070477546FFF7F8FF8F
:1003E000AE4605006946534620F00700854618B022
:1003F00020B5FFF739FFBDE820404FF000064FF071
:1004000000074FF000084FF0000BAC46ACE8C00905
:10041000ACE8C009ACE8C009ACE8C00921F00701AC
:100420008D46704710B50446AFF300802046BDE806
:100430001040FFF704BF000001491820ABBEFEE7E3
:1004400026000200FEE7000080B540F27400C2F210
:10045000000000F071F880BD80B540F29C00C2F24F
:10046000000000F069F880BD80B540F22410C2F2AF
:10047000000000F0F3FA80BD80B540F28410C2F2B3
:10048000000000F0EBFA80BD80B540F2C400C2F27B
:10049000000000F0E3FA80BDD0F800C06FF00F025A
:1004A0004AF6AB2352FA8CF2CAF6AA230146A2FB03
:1004B0000330000905A31B5C40F2FF302CEA00006A
:1004C0005F2A88BF0430C1E9160370470006101682
:1004D000000610168269816AB2F5005F06D06AB91B
:1004E000022912D0012914D0D1B90EE0032917D85E
:1004F000DFE801F0020B020F0120704703293CBF27
:10050000012070471CBF00207047C06AC0F3006024
:100510007047C06AA0F1C070B0FA80F0400970471F
:100520000020704770470000EFF3108072B600BFE4
:10053000FEE70000704700002DE9F04F81B004464F
:1005400000684669D0F804908768D0F80CB0D0F8FD
:1005500010A0D0F81880F10703D1002530071CD473
:1005600023E0F90710D00121BA07816009D4780788
:1005700000F1AA80380700F1B080204600F00EFAA2
:1005800002E0204600F00CFA0025F80500F1848016
:10059000F80300F1AA80300707D51BF0100004D043
:1005A000206845F400751021C160700708D51BF064
:1005B000080005D020680821C160204600F0E4F959
:1005C000B00706D52068C068800702D0204600F03A
:1005D000DDF9700607D51AF0100004D0206845F444
:1005E000806510210161B00608D51AF0080005D019
:1005F000206808210161204600F0CAF9F00606D5FE
:1006000020680069800702D0204600F0C3F9B003DB
:1006100008D519F0100005D020681021416020464F
:1006200000F0BAF9F00308D519F0080005D02068E9
:1006300008214160204600F0BDF9300440F18F8070
:100640005FEA497040F1888006F4807008EA102063
:1006500028435FEA8871014648BF41F00201B205B4
:1006600058BF01465FEA48700D4648BF45F0040593
:10067000700558BF0D4630056ED518F070006BD070
:1006800010380009052862D8DFE800F003535659F6
:100690005C5F45F008055AE020684FF48071BA05A8
:1006A00081600AD4780512D4380519D4204600F0A8
:1006B00079F9F8037FF56FAF17E0204600F074F981
:1006C000F8037FF568AF10E04FF400655DE705F5CE
:1006D0000055F8037FF55FAF07E04FF4805554E70E
:1006E00005F58045F8037FF556AF20684FF480315B
:1006F000BA0381600AD478030FD4380313D4204698
:1007000000F054F930073FF548AF4EE7204600F0BF
:100710004FF930073FF541AF47E705F50045300792
:100720003FF53BAF41E705F5803530073FF535AF85
:100730003BE745F010050AE045F0200507E045F0ED
:10074000400504E045F0800501E045F4807520682F
:10075000816921F0700181612068042141602DB11F
:10076000606A284360622046FFF7E4FE01B0BDE8FE
:10077000F08F0000B0B5C8B1044690F8200010B961
:10078000204600F071F82068016841F00101016025
:1007900000F05EFB054600BF20684168C90707D12D
:1007A00000F056FB401B0B28F6D312E00120B0BD31
:1007B000016821F00201016000F04AFB054600BF1C
:1007C0002068416889070DD500F042FB401B0B28CB
:1007D000F6D3606A052140F400306062012084F89D
:1007E0002010B0BD217E0268012922F0800208BFDE
:1007F00080320260617E0268012922F0400208BF57
:1008000040320260A17E0268012922F0200208BF66
:1008100020320260E17E0268012922F0100218BF36
:1008200010320260217F0268012922F0080208BF0D
:1008300008320260617F0268012922F0040208BFC9
:1008400004320260D4E901C2D4E9033561691A4374
:100850002A431143ACF101021143C161002001217F
:10086000606284F82010B0BD10B586B0006846F60E
:100870000002C4F2000200219042CDE90411CDE94A
:100880000211019134D046F20041C4F200018842C5
:1008900078D140F27001C2F200010A6843F64000CC
:1008A000C4F20200531C0B6052B900210091016890
:1008B00041F000710160016801F000710091009940
:1008C0000021009150F8101C142441F0080140F858
:1008D000101C50F8100C00F0080000900098032045
:1008E000019040F20040C4F2020000F5006036E0E2
:1008F00043F64000C4F202000091016841F08061BB
:100900000160016801F080610091009940F270017E
:10091000C2F200010A68531C0B6052B90021009119
:10092000016841F000710160016801F000710091FF
:1009300000990021009150F8101C402441F0020160
:1009400040F8101C50F8100C00F0020000900098C5
:100950004FF44050019040F20040C4F202000221E6
:10096000029100210391032104910921059101A91C
:1009700000F0A2F920460021002200F0E1FA204612
:1009800000F0DAFA06B010BD7047000070470000B2
:10099000704700007047000070470000704700007B
:1009A000704700007047000070470000704700006B
:1009B000704700007047000070B5866D044600F077
:1009C00047FA94F83510022925D105462068216C94
:1009D000026822F016020260426922F0800242613F
:1009E00009B9A16C19B1016821F008010160016821
:1009F00021F00101016000BF20680068C0070ED02F
:100A000000F026FA401B0628F6D32020606503205C
:100A100084F835000CE080206065012008E0E06D7E
:100A20003F2101FA00F0B060012084F83500002079
:100A3000002184F8341070BD90F83510022909D1D6
:100A4000052180F835100068016821F0010101607E
:100A5000002070478021416501207047F0B581B0CA
:100A600004460020009040F20000C2F2000002683C
:100A7000D4E9166048F2B51337680821C1F64E3341
:100A800081403942A2FB03250CD0226813685B0722
:100A900008D5136823F004031360B160616D41F061
:100AA0000101616501218140394208D02268526903
:100AB000120604D5B160616D41F002016165042147
:100AC0008140394208D022681268920704D5B1608B
:100AD000616D41F00401616510218140394215D0FA
:100AE00020680268120711D5B160026801685203DC
:100AF00006D4C90506D4016821F00801016001E0AF
:100B0000080342D4216C09B120468847E16D2020BA
:100B100000FA01F23A4244D020680368DB0640D56F
:100B2000B26094F835300268052B1ED122F016020F
:100B30000260426922F080024261226C0AB9A26C12
:100B40001AB1026822F0080202603F208840B060BB
:100B5000012084F83500216D0020002984F834003C
:100B600040D02046884701B0F0BD0168520310D440
:100B7000C90512D4016821F010010160012084F838
:100B80003500002084F8340007E0A16C0029BBD1B7
:100B9000BCE7080301D4616C00E0E16B09B12046B9
:100BA0008847606DF0B1606DC00717D0052084F8EC
:100BB00035002068A90A026822F00102026000BF25
:100BC000009A01328A42009202D80268D207F7D115
:100BD000012084F83500002084F83400E16C09B16C
:100BE0002046884701B0F0BD2DE9F041044600F0F1
:100BF0002FF9C4B10546022084F835000020216891
:100C000084F83400086820F0010008602668306825
:100C1000C0070BD000F01CF9401B0528F6D90321B2
:100C20002022032042E00120BDE8F081306848F234
:100C30003F01CFF21001251D00EA010C2ECDD4E9B1
:100C4000050E41EA0C01114319432943D4E9077801
:100C5000084340EA0E01606A3943042841EA08016A
:100C600003D1D4E90B23114319433160716904287E
:100C700021F0070141EA00050CD1D4E90A1045EA48
:100C8000010538B12046FFF725FC18B101214022AB
:100C900001200BE020467561FFF7FEFBE16D3F226E
:100CA00002FA01F18160002201210020626584F8CE
:100CB0003510BDE8F08100002DE9F04F83B000F160
:100CC0003E4202F1FF724FEAB22242F20047019225
:100CD000C4F202070A224FF0010E00254FF0000A6D
:100CE0004FF00008B84208BF092200920AE000BF96
:100CF00008F101080AF1040AB8F1100F05F1020524
:100D000000F0A2800C680EFA08FB14EA0B09EFD081
:100D10004C6804F0030CACF1010EBEF1010F11D8C8
:100D20000322876802FA05F6CA68B743AA403A4325
:100D300082604268C4F3001722EA0B0207FA08F740
:100D40003A434260BCF1030F1CD0C26803238E6893
:100D500003FA05F7BA4306FA05F73A43BCF1020F66
:100D6000C2600FD16FF0030202EA580202440AF097
:100D70001C060F23176A03FA06F40B69A743B34056
:100D80003B431362026803234F68AB409A4307F06A
:100D90000303AB401A4317F4403F4FF0010E0260CB
:100DA000A6D0002243F644030292C4F202031A685A
:100DB00043F6004442F480421A601A68C4F2010407
:100DC00002F480420292029A28F003024FF6084B86
:100DD0002244CFF6FF7B52F80B300AF00C070F26A7
:100DE000BE4023EA060C019B009E092B38BF1E461D
:100DF00006FA07F747EA0C0342F80B3022684B6803
:100E000042EA0907DE0358BF22EA09072760626841
:100E10009E0342EA090758BF22EA09076760A268F1
:100E2000DE0242EA090758BF22EA0907A76043F633
:100E30000C47C4F201073A689B0242EA090358BF13
:100E400022EA09033B6053E703B0BDE8F08F0000DE
:100E500040F26C20C2F200000068704740F20400CB
:100E600040F26C21C2F20000C2F2000100780A6870
:100E7000104408607047000080B543F60040C4F29B
:100E80000200016841F400710160016841F4806171
:100E90000160016841F480710160032000F060F896
:100EA0000F2000F005F800F02BF8002080BD0000B6
:100EB000B0B540F20402C2F2000240F20001127822
:100EC000C2F200014FF47A730968B3FBF2F20446F0
:100ED000B1FBF2F1084600F037FB0F2C4FF0010593
:100EE0000CD858B94FF0FF3021460022002500F001
:100EF00027F840F20800C2F2000004602846B0BDA6
:100F000082B0002043F640010190C4F202014A6819
:100F100042F480424A604A6802F480420192019A97
:100F20000090086840F080500860086800F0805029
:100F30000090009802B0704780B501F017F880BDAE
:100F400070B514460D46064601F020F829462246A3
:100F500000F02CFE0146304601F020F870BD000084
:100F600080B501F02DF880BD70B582B000200190F1
:100F700043F64000C4F202000168402641F080516F
:100F800001600068C4F20E2600F0805001900198C4
:100F900047F204050120C4F200053060FFF758FF56
:100FA000044600BF2868C00306D4FFF751FF001BAA
:100FB000B0F57A7FF6D90EE001207060FFF748FFA8
:100FC000044600BF2868800308D4FFF741FF001BD8
:100FD000B0F57A7FF6D9032002B070BD002002B0D0
:100FE00070BD00002DE9F041002800F08B8043F631
:100FF0000808C4F202080446D8F8F8030D4600F0C9
:101000000F00884207D288F8F853D8F8F80300F0A8
:101010000F00A84276D12068810717D5410705D572
:10102000D8F8001041F4E051C8F80010010705D5C8
:10103000D8F8001041F46041C8F80010D8F800104A
:10104000A26821F0F0011143C8F80010C0073FD199
:10105000D8F8F80300F00F00A84207D988F8F85331
:10106000D8F8F80300F00F00A8424BD120684107E0
:1010700007D5D8F80010E26821F4E0511143C8F810
:101080000010000708D5D8F80000216920F460405E
:1010900040EAC100C8F8000000F07EF8D8F800105F
:1010A00042F21C02C1F30311C0F60002515C40F28F
:1010B000000220FA01F140F20800C2F200000068CC
:1010C000C2F200021160FFF7F3FE0020BDE8F081DC
:1010D0006068811E022907D258F8081C89015CBF8C
:1010E0000120BDE8F08110E0012807D158F8081C64
:1010F00089035CBF0120BDE8F08106E058F8081CB8
:10110000890702D40120BDE8F081D8F8001021F051
:1011100003010843C8F80000FFF79AFE064641F2B3
:10112000883700BFD8F80000616800F00C00B0EB11
:10113000810F8DD0FFF78CFE801BB842F2D90320BF
:10114000BDE8F08140F20000C2F200000068704784
:1011500080B5FFF7F7FF43F60801C4F20201096802
:1011600042F22C02C1F38221C0F60002515CC84059
:1011700080BD000080B5FFF7E5FF43F60801C4F22B
:101180000201096842F22C02C1F34231C0F60002AA
:10119000515CC84080BD000010B543F60404C4F2A1
:1011A0000204606800F00C0008280AD0042819BF67
:1011B00042F20040C0F2F40041F60030C0F2B70045
:1011C00010BD206821682368490241F60031C0F251
:1011D000B70100F03F02C3F388105CBF42F2004148
:1011E000C0F2F401A1FB00010023FFF74FF82168D2
:1011F0000222C1F3014102EB4101B0FBF1F010BD4D
:101200002DE9F04182B0002800F0A2800446007869
:1012100043F60006C007C4F2020643D0B06800F0EF
:101220000C00042805D1306880033BD56068C8BB3A
:101230008EE0B06800F00C00082802D1706840020F
:10124000F1D46568B5F5A02F0AD0B5F5803F0BD075
:10125000306820F480303060306820F4802006E070
:10126000306840F480203060306840F48030306076
:10127000FFF7EEFD002D054611D000BF306880035A
:1012800010D4FFF7E5FD401B6428F7D922E100BF29
:10129000FFF7DEFD401B64284FF0030055D830688F
:1012A0008003F5D4207880071AD5B06810F00C0FB1
:1012B00009D0B06800F00C00082840F08A807068FF
:1012C000400200F186803068800702D5E06801287E
:1012D0003ED13068216920F0F80040EAC10030605A
:1012E0002078000738D4207840074CD4A5695DB336
:1012F000B06800F00C00082840F09E80012D27D037
:101300007068E16900F480028A4221D1216A00F00C
:101310003F028A421CD147F6C071626A0140B1EBBC
:10132000821F15D1A26A0023CFF6FF7303EBC232EE
:1013300000F440316FF30F02914209D1E16A00F0ED
:101340007060B0EB016F03D1002002B0BDE8F08106
:10135000012002B0BDE8F0816069002840F2000081
:10136000C4F2472057D00121C0F8801EFFF770FD5E
:10137000054600BF706F8007B5D4FFF769FD401BBD
:101380000228F7D9A6E0306C10F080580AD100206E
:101390000190306C40F080503064306C00F0805030
:1013A0000190019847F20007C4F200073868C005B1
:1013B00024D4386840F480703860FFF749FD054652
:1013C0003868C0051AD4FFF743FD401B0228F7D93F
:1013D00080E0E068002851D00020C4F247200121BD
:1013E0000160FFF735FD0546306880073FF571AFB6
:1013F000FFF72EFD401B0228F6D96BE0A568052DEE
:1014000050D0012D52D0306F20F001003067306F86
:1014100020F004004DE00021C0F8801EFFF718FD09
:10142000054600BF706F80077FF55DAFFFF710FDC9
:10143000401B0228F6D94DE00027C4F247270020C0
:101440003866FFF705FD022D05460BD13068800197
:1014500058D5FFF7FDFC401B02284FF00300F5D9DB
:1014600073E700BF306880017FF56EAFFFF7F0FCD7
:10147000401B02284FF00300F4D966E70020C4F2B5
:10148000472000210160FFF7E3FC05463068800734
:101490007FF526AFFFF7DCFC401B02284FF003006E
:1014A000F4D952E7306F40F004003067306F40F0FD
:1014B00001003067FFF7CCFC002D054641F288376C
:1014C00014D000BF306F800713D4FFF7C1FC401B5E
:1014D000B842F7D9032002B0BDE8F081FFF7B8FCAD
:1014E000401BB8424FF003003FF62FAF306F80072C
:1014F000F4D4B8F1000F7FF4F9AE306C20F08050D6
:101500003064F3E604F11C052FCD08430021CFF62B
:10151000FF7140EA821001EBC3316FF30F0140EA23
:1015200005600843706001203866FFF791FC0446AF
:10153000306880013FF508AFFFF78AFC001B0228E6
:101540004FF00300F4D900E780B500F049FB80BDFF
:101550007047000070470000B0B582B003680446D1
:101560001868D9685A6900F02F05202D01F0200570
:1015700005D125B1204600F0EDFB02B0B0BD5FEA19
:10158000007C1EBF02F0010E01F4907212EB0E02FD
:1015900048D1226B0840C1063BD5012A39D1002031
:1015A00001901868019058680190019858694006A8
:1015B00040D4A08DE18DE28D002A1CBF401A5FEA65
:1015C000004101D102B0B0BD216851E8031F22687B
:1015D00021F4907142E80313002BF5D1216851E802
:1015E000051F226821F0010142E80513002BF5D107
:1015F000202184F83E100021216300BF216851E8BA
:10160000031F226821F0100142E80313002BF5D1DB
:1016100052E0010656D44006D4D5204600F08EFB99
:1016200002B0B0BDC20718BF11F480724FD142079B
:1016300053D459E0A06B016849688AB2002AC1D02E
:10164000A38D9A42BED2E185C069B0F5807F30D0CB
:10165000206850E8030F216820F4807041E80302FD
:10166000002AF5D1206850E8050F216820F001001C
:1016700041E80502002AF5D1206850E8050F2168ED
:1016800020F0400041E80502002AF5D1202084F82E
:101690003E000020206300BF206850E8030F21684F
:1016A00020F0100041E80302002AF5D1A06BFFF7FB
:1016B00083F9A08DE18D401A81B22046FFF748FFE3
:1016C00002B0B0BD204600F015FC02B0B0BD226CE7
:1016D00042F001022264420706D5BEF1000F03D09A
:1016E000226C42F002022264820706D5BEF1000F8E
:1016F00003D0226C42F004022264BCF1000F06D534
:101700005EEA050203D0226C42F008022264226CD9
:10171000002A3FF457AF0840800602D5204600F06B
:1017200019FB20684069216C00F0400001F00801BD
:10173000401827D0204600F0D9FA206840694006BA
:101740001BD500BF206850E8050F216820F040003D
:1017500041E80502002AF5D1A06B70B141F6DD41E8
:10176000C0F600010165FFF767F900283FF42AAFD2
:10177000A06B016D884702B0B0BD2046FFF7EAFEBE
:1017800002B0B0BD2046FFF7E5FE0020206402B0A5
:10179000B0BD0000002804BF0120704710B504460A
:1017A00090F83D0028B9002084F83C00204600F065
:1017B00021F8242084F83D002068C16821F40051FC
:1017C000C160204600F028FB2068016921F49041A7
:1017D0000161416921F02A014161C16841F4005170
:1017E000C16000202021206484F83D1084F83E1060
:1017F00010BD00002DE9F04F87B00446006844F6A4
:101800000001C4F2000100268842CDE90566CDE959
:101810000366029656D041F20001C4F201018842EB
:1018200040F0C580002643F630000196C4F2020065
:10183000416941F010014161416901F010010191DC
:1018400001990196016841F002010160006802A956
:1018500000F0020001900198C02002900220CDE922
:101860000306032005900720069040F20040C4F2D2
:101870000200FFF721FA46F22800C4F2020040F20B
:10188000C40500F58360C2F200054FF0006185E8F1
:1018900043004FF440304FF480624FF48073C5E949
:1018A00008062846C5E90362C5E90566EB61FFF74E
:1018B0009BF9002818BFFEF737FEA56305F1380035
:1018C00025256BE043F630000196C4F20200016961
:1018D00046F2280841F4802101610169C4F202083E
:1018E00001F48021019101990196016841F00801FC
:1018F0000160006802A900F00800019001984FF40F
:10190000407002900220CDE90306032005900720D5
:10191000069040F20040C4F2020000F50060FFF7BC
:10192000CBF940F22415C2F200054FF0006B4FF4E2
:10193000806A4FF480794FF400372846C5E9008B60
:10194000C5E90266C5E904A6C5E90669C5E90876E0
:10195000FFF74AF9002818BFFEF7E6FDA563AC6360
:1019600040F2841508F13000C2F200054021C5E9BB
:10197000000B05F10800002280E806042846C5E9AE
:101980000522C5E907976A62FFF72EF9002818BFFC
:10199000FEF7CAFD656305F1380027250460284677
:1019A00000210022FFF7CCFA2846FFF7C5FA07B05E
:1019B000BDE8F08F7047000070470000FEE70000B0
:1019C00080B540F2740046F20041C2F20000C4F259
:1019D00000010522002380E80E0000F10C014FF405
:1019E000003C4FF4800E81E8085083618383FEF74A
:1019F000C1FE002818BFFEF797FD80BD80B540F2FC
:101A00009C0046F60001C2F20000C4F2000105226B
:101A1000002380E80E0000F10C014FF4003C4FF46D
:101A2000800E81E8085083618383FEF7A3FE0028BF
:101A300018BFFEF779FD80BD80B582B0002043F667
:101A400030010190C4F202010A6842F480020A6087
:101A50000A6802F480020192019A0090086800224C
:101A600040F4001008600868002100F400100090A5
:101A700000980C20FFF764FA0C20FFF75DFA0E20A7
:101A800000210022FFF75CFA0E20FFF755FA3A20FA
:101A900000210022FFF754FA3A20FFF74DFA02B076
:101AA00080BD000080B586B0002043F6300105906F
:101AB000CDE90300CDE901000090C4F202010A68FB
:101AC00042F001020A600A6802F001020092009AE4
:101AD00000900A6842F002020A600A6802F00202FC
:101AE0000092009A00900A6842F008020A600A68B0
:101AF00002F008020092009A0090086840F080000E
:101B00000860086801A900F08000009000984FF478
:101B1000805001904FF4441002900220039040F650
:101B20000040C4F20200FFF7C7F806B080BD000015
:101B300080B540F2E41041F20001C2F20000C4F2AC
:101B4000010148F2A06200234FF00C0CC0F2010228
:101B500080E80E00C0E90333C0E905C3C361FFF7A5
:101B600019FE002818BFFEF7DFFC80BD80B540F2EB
:101B7000282044F60001C2F20000C4F20001002354
:101B80004FF00C0C4FF4E13280E80E00C0E9033353
:101B9000C0E905C3C361FFF7FDFD002818BFFEF7CC
:101BA000C3FC80BDFEE70000FEE7000000F0070078
:101BB00080F00703042B28BF04234FF0FF3C0338B9
:101BC0000CFA03F338BF0020994381400CFA00F06F
:101BD00022EA000008437047704700007047000089
:101BE000B0B501380024B4EB106F1CBF0120B0BDAC
:101BF0004EF21005CEF2000568604FF0FF300F2165
:101C000000F0CCF90720AC6028602046B0BD000091
:101C100080B5FFF723F980BD10B592B006AC204621
:101C20003021FEF7ABFB002043F640010590CDE9E3
:101C30000300CDE901000090C4F202010A6842F0FD
:101C400080520A60096801F080510091009900906B
:101C500047F20000C4F20000016841F44041016015
:101C600000684FF4800100F440400090009801208B
:101C700006904FF480300D910621079002200E91BE
:101C8000B4210C90CDE90F10042011902046FFF7ED
:101C9000B7FAB0B9FFF768F998B90F2001900220A0
:101CA0000290002003904FF4A05004904FF4805015
:101CB000059001A80521FFF795F9002804BF12B08F
:101CC00010BDFEF731FC00004EF68850CEF2000049
:101CD000016841F4700101607047000080B5806BBD
:101CE0000021C185C184FFF735FC80BD016851E842
:101CF000031F026821F4907142E80313002BF5D111
:101D0000016851E8051F026821F0010142E805134E
:101D1000002BF5D1016B01290AD100BF016851E800
:101D2000031F026821F0100142E80313002BF5D1D4
:101D3000202180F83E1000210163704780B50168C2
:101D4000CA6822F04002CA60202180F83D10FFF7E7
:101D500033FE80BD80B582B090F83E1022291ED19E
:101D60008268B2F5805F02D10169002948D0816A9A
:101D7000B2F5805F07D00AB9026922B102685268E1
:101D800002F07F0201E0026852680A700121826A53
:101D900011448162C18D01390A04C18501D002B0AC
:101DA00080BD0168CA6822F02002CA60CA6822F4B5
:101DB0008072CA604A6922F001024A61202180F8DB
:101DC0003E10016B012923D100210163016851E814
:101DD000031F026821F0100142E80313002BF5D124
:101DE00001680A68D20606D5002201920A680192AB
:101DF000496801910199818DFFF7AAFB02B080BD6E
:101E00000168826A49686FF35F2111800221BEE791
:101E1000FFF7D0FD02B080BD10B504460068D4E9DC
:101E200002C22369016921F44051114301616269D1
:101E300043EA0C01E3691143C268194349F20C6398
:101E40009A431143C1604169A26921F4407141F292
:101E50000043114340F48062C4F201039A4241619D
:101E600002D1FFF787F901E0FFF772F9E1696368D2
:101E70001922B1F5004FA0FB02011CD15A00DB0F63
:101E8000FEF704FA48F21F51C5F2EB11A0FB012343
:101E90005A096FF0630302FB0300322303EBC00017
:101EA000A0FB01014FF4F87000EA111000EB0210E2
:101EB000C1F342111AE09A009B0FFEF7E7F948F2CE
:101EC0001F51C5F2EB11A0FB01235A096FF0630308
:101ED00002FB0300322303EB0010A0FB0101F02002
:101EE00000EA511000EB0210C1F3431122680843CD
:101EF000906010BD90F83D10212923D18168B1F583
:101F0000805F01D1016931B1016A02684B1C036233
:101F10000978516007E0016A036831F8022B6FF31A
:101F20005F225A600162C18C01390A04C18418BF62
:101F300070470068C16821F08001C160C16841F04C
:101F40004001C1607047000080B540F2E410C2F269
:101F50000000FFF701FB80BD80B540F22820C2F2EF
:101F60000000FFF7F9FA80BDFEE70000002848BF37
:101F7000704700F01F01012202FA01F14EF2001237
:101F80004009CEF2000242F8201070474EF60C5085
:101F9000CEF200000068C0F3022070474EF61453E2
:101FA00000F00F02CEF2000309011A4400F1604371
:101FB000B0F1FF3FC8BF03F56442117070470000E5
:101FC0004EF60C51CEF200010A684FF6FF031A409C
:101FD00060F30A2242F0806040F0FD7008607047B4
:101FE000FEF74AFFFFF718FEFFF75CFDFFF724FD41
:101FF000FFF7E6FCFFF702FDFFF79AFDFFF7B6FDDE
:10200000FEE7F1EE100A4FF6FF71C0F2C03120EA90
:10201000010040F04070E1EE100A7047000000003F
:102020000000000001020304060708090000000088
:1020300001020304582000080000002010000000E6
:10204000E801000868200008100000206008000077
:1020500004020008000000000024F4000100000059
:08206000100000000000000068
:04000005080001AD41
:00000001FF
