:020000040800F2
:1000000000000320BD580008954D0008974D0008DA
:10001000994D00089B4D00089D4D00080000000010
:10002000000000000000000000000000A105000822
:100030009F4D00080000000041060008A14D000887
:100040000D5900080D5900080D5900080D590008F8
:100050000D5900080D5900080D5900080D590008E8
:100060000D5900080D5900080D5900080D590008D8
:100070000D5900080D5900080D5900080D590008C8
:100080000D5900080D5900080D5900080D590008B8
:10009000B94D00080D5900080D5900080D59000808
:1000A0000D5900080D5900080D5900080D59000898
:1000B0000D5900080D5900080D5900080D59000888
:1000C0000D5900080D5900080D5900080D59000878
:1000D0000D590008D14000080D590008B15500081D
:1000E000C94D00080D5900080D5900080D590008A8
:1000F0000D5900080D5900080D5900080D59000848
:100100000D5900080D5900080D5900080D59000837
:100110000D5900080D5900080D5900080D59000827
:100120000D5900080D5900080D5900080D59000817
:100130000D5900080D5900080D5900080D59000807
:10014000D54D00080D5900080D5900080D5900083B
:100150000D5900080D5900080D5900080D590008E7
:100160000D5900080D5900080D5900080D590008D7
:100170000D5900080D5900080D5900080000000035
:100180000D5900080D5900080D5900080D590008B7
:100190000D5900080D5900080D5900080D590008A7
:0C01A00000000000000000000D590008E5
:1001B00010B5054C237833B9044B13B10448AFF3A1
:1001C00000800123237010BD5400002000000000B7
:1001D0008459000808B5034B1BB103490348AFF32A
:1001E000008008BD0000000058000020845900086D
:1001F00053B94AB9002908BF00281CBF4FF0FF318E
:100200004FF0FF3000F074B9ADF1080C6DE904CE89
:1002100000F006F8DDF804E0DDE9022304B07047E1
:100220002DE9F047089E04468846002B40F0858063
:100230008A42154648D9B2FA82F24AB1C2F1200781
:1002400001FA02F320FA07F7954047EA03089440C1
:100250004FEA154E230CB8FBFEF71FFA85FC0EFB88
:10026000178843EA084307FB0CF1994209D9EB18B8
:1002700007F1FF3080F0E380994240F2E080023FD6
:100280002B445B1AA4B2B3FBFEF00EFB103344EA1E
:10029000034400FB0CFCA44509D92C1900F1FF33E1
:1002A00080F0CB80A44540F2C88002382C4440EA5C
:1002B0000740A4EB0C0400271EB1D4400023C6E97C
:1002C00000433946BDE8F087002A53D0B2FA82F2E3
:1002D000002A40F0B680491B4FEA154E1FFA85F8F8
:1002E0000127B1FBFEFC230C0EFB1C1143EA01436A
:1002F00008FB0CF1994207D9EB180CF1FF3002D240
:10030000994200F2EC808446591AA3B2B1FBFEF088
:100310000EFB101443EA044408FB00F8A04507D97B
:100320002C1900F1FF3302D2A04500F2DC80184600
:10033000A4EB080440EA0C40BEE78B4208D9002E2B
:1003400078D00027C6E9000138463946BDE8F08775
:10035000B3FA83F77FB98B4202D3824200F2BD80A9
:10036000841A61EB030301209846002EA9D0C6E948
:100370000048A6E7FFDEC7F12005BB4022FA05FCD6
:100380004CEA030C01FA07F420FA05F821FA05F308
:100390004FEA1C4E48EA0404B3FBFEF9210C0EFBA5
:1003A00019331FFA8CF841EA034309FB08FA9A450E
:1003B00002FA07F200FA07F10BD91CEB030309F16B
:1003C000FF3080F088809A4540F28580A9F10209CB
:1003D0006344A3EB0A03A4B2B3FBFEF00EFB10339D
:1003E00044EA034400FB08F8A04508D91CEB0404C8
:1003F00000F1FF336BD2A04569D90238644440EA6A
:100400000940A4EB0804A0FB02894C45C6464B46B4
:1004100054D351D0002E69D0B1EB0E0264EB03042B
:1004200004FA05F522FA07F3FC401D43C6E900541F
:10043000002746E73746304643E7184637E7074682
:100440001FE7C2F1200320FA03F7954001FA02F0FA
:1004500021FA03F34FEA154E3843010CB3FBFEF7C4
:100460001FFA85F80EFB173341EA034107FB08F337
:100470008B4204FA02F407D9691807F1FF3C28D22D
:100480008B4226D9023F2944CB1A81B2B3FBFEF03E
:100490000EFB103341EA034100FB08F38B4207D9FE
:1004A000691800F1FF3C10D28B420ED90238294462
:1004B000C91A40EA074714E74145ABD2B8EB020E30
:1004C00069EB0C0201381346A4E76046F0E71846D2
:1004D00095E76746D8E781467BE7384645E7ACF1C4
:1004E000020C2B4410E702382C4421E73746E8E69B
:1004F000704700BF82B0002301930D4B1B68B3F11E
:10050000FF3F08D04FF0500383F31188BFF36F8F84
:10051000BFF34F8FFEE74FF0500383F31188BFF313
:100520006F8FBFF34F8F019B002BFCD002B0704741
:100530000000002008480068006880F308884FF039
:10054000000080F3148862B661B6BFF34F8FBFF32B
:100550006F8F00DF00BF000008ED00E0DFF80C0047
:10056000016841F4700101607047000088ED00E00F
:100570004FF0807340F8043C21F0010140F8081C62
:10058000054B40F80C3C40F8202C6FF0020340F87B
:10059000243C4438704700BFF50400080000000008
:1005A000074B19680868B0E8F04F80F30988BFF37B
:1005B0006F8F4FF0000080F311887047AFF3008019
:1005C000544300204FF0500383F31188BFF36F8F23
:1005D000BFF34F8F0A4A136801331360012B00D019
:1005E0007047084B1B6813F0FF0FF9D04FF0500312
:1005F00083F31188BFF36F8FBFF34F8FFEE700BF08
:100600000000002004ED00E0094B1B6843B94FF0E7
:10061000500383F31188BFF36F8FBFF34F8FFEE753
:10062000013B034A13600BB983F31188704700BF85
:10063000000000200000000000000000000000009A
:10064000EFF30980BFF36F8F154B1A681EF0100F80
:1006500008BF20ED108A20E9F04F10602DE9090055
:100660004FF0500080F31188BFF34F8FBFF36F8FAF
:1006700002F0C8FD4FF0000080F3118809BC196832
:100680000868B0E8F04F1EF0100F08BFB0EC108AF9
:1006900080F30988BFF36F8F704700BFAFF300800E
:1006A0005443002008B54FF0500383F31188BFF383
:1006B0006F8FBFF34F8F02F049FC18B1034B4FF01F
:1006C00080521A60002383F3118808BD04ED00E016
:1006D000084A0023136008490B60084B1B6808494F
:1006E000A1FB03139B09013B06490B600723136021
:1006F000704700BF10E000E018E000E010000020AC
:10070000D34D621014E000E03A4B1A683A4B9A421B
:1007100029D0384B1A68394B9A422DD010B582B087
:10072000374B1A78D2B20192FF221A701B78DBB2D3
:100730008DF803309DF8033003F05003314A1370F5
:10074000314B07221A609DF8033013F0800F1CD044
:100750002D4A1368013B13609DF803305B00DBB248
:100760008DF80330EFE74FF0500383F31188BFF3A8
:100770006F8FBFF34F8FFEE74FF0500383F3118865
:10078000BFF36F8FBFF34F8FFEE71F4B1B68032B29
:1007900008D04FF0500383F31188BFF36F8FBFF37E
:1007A0004F8FFEE71B0203F4E063174A1360019BBF
:1007B000DBB2134A1370154B1A6842F470021A60C8
:1007C0001A6842F070421A60FFF782FF0024104B53
:1007D0001C60FFF7C3FE0F4A136843F040431360E9
:1007E000FFF7A8FE02F00EFDFFF784FE204602B0E0
:1007F00010BD00BF00ED00E071C20F4170C20F419B
:1008000000E400E0700000207400002020ED00E013
:100810000000002034EF00E0EFF305830F2B0FD929
:10082000104A9B5CDBB2104A12789A4208D94FF00A
:10083000500383F31188BFF36F8FBFF34F8FFEE731
:100840000A4B1B6803F4E063094A1268934208D913
:100850004FF0500383F31188BFF36F8FBFF34F8FB7
:10086000FEE77047F0E300E0700000200CED00E0D0
:100870007400002010B504460E4B18784FF47A73BC
:10088000B3FBF0F30C4A1068B0FBF3F000F058FC37
:1008900068B90F2C01D901200AE0002221464FF04F
:1008A000FF3000F00BFC054B1C60002000E0012035
:1008B00010BD00BF04000020100000200800002030
:1008C00008B50B4B1A6842F400721A601A6842F4B9
:1008D00080621A601A6842F480721A60032000F085
:1008E000DBFB0F20FFF7C6FF04F032FA002008BD43
:1008F000003C0240034A1168034B1B780B44136011
:10090000704700BFB04A002004000020014B186867
:10091000704700BFB04A0020002800F0A18038B521
:10092000044690F82030D3B12268136843F00103E5
:100930001360FFF7EBFF054623685A6812F0010FBA
:1009400010D1FFF7E3FF401B0A28F5D9636A43F48F
:1009500000336362052384F82030012038BD03F0A2
:1009600089F9E1E71A6822F002021A60FFF7CEFF68
:10097000054623685A6812F0020F0DD0FFF7C6FF34
:10098000401B0A28F5D9636A43F4003363620523E8
:1009900084F820300120E1E7227E012A3DD01A6848
:1009A00022F080021A60637E012B3BD0226813681C
:1009B00023F040031360A37E012B39D02268136813
:1009C00023F020031360E37E012B37D022681368E5
:1009D00043F010031360237F012B35D02268136886
:1009E00023F008031360637F012B33D02268136860
:1009F00023F004031360A368E268134322691343DE
:100A0000626913436268013A21681343CB61002095
:100A10006062012384F82030A0E71A6842F0800267
:100A20001A60C0E72268136843F040031360C2E70E
:100A30002268136843F020031360C4E72268136838
:100A400023F010031360C6E72268136843F008031D
:100A50001360C8E72268136843F004031360CAE711
:100A60000120704790F82030013BDBB2012B05D903
:100A7000436A43F4802343620120704770B4434BC0
:100A8000D3F8002242F00102C3F80022D3F800227A
:100A900022F47C52C3F80022D3F80022486A42EACA
:100AA0000022C3F800224A6902F01F02012000FA66
:100AB00002F2D3F81C42D0430440C3F81C42CB6975
:100AC000B3B9324BD3F80C420440C3F80C42CE68A1
:100AD0008D884C6945EA0645483443F834508E68A1
:100AE0000C884D6944EA0644483503EBC5035C6055
:100AF000CB69012B1DD08B69002B32D1234CD4F84C
:100B000004320340C4F804320B698BBB1F4BD3F88B
:100B100014422040C3F814020B6A012B2FD01B4A49
:100B2000D2F8003223F00103C2F80032002070BC7A
:100B30007047164BD3F80C421443C3F80C420E68AE
:100B40008D884C6945EA0645483443F834508E6830
:100B50008C894D6944EA0644483503EBC5035C6063
:100B6000C9E70A4CD4F804321343C4F80432CBE783
:100B70000648D0F814321343C0F81432CCE70349C6
:100B8000D1F81C321A43C1F81C22C8E700640040A7
:100B900070B590F82050EDB2012D06D0436A43F4B1
:100BA000002343620125284670BD0446022380F8D5
:100BB00020300268136823F001031360FFF7A6FEDC
:100BC000064623685B6813F0010F0CD0FFF79EFE0A
:100BD000801B0A28F5D9636A43F400336362052356
:100BE00084F82030DFE700256562DCE770B490F818
:100BF00020400568AD68013CE4B2012C65D815F0D1
:100C0000E05F5CD0C5F30165022D05D9436A43F46A
:100C10000003436201205DE00124AC401C608B684E
:100C2000002B39D10E68CB68046843EA465605F1BB
:100C300018031B01E65003680C6905F1180603EB65
:100C400006135C600B7D012B31D0D17993791B04A5
:100C500043EA0163517943EA01231479016823438C
:100C60002C012144C1F88C31D17893781B0443EADC
:100C70000163517843EA0123117802680B4322444F
:100C8000C2F88831016805F118031B01CA5842F007
:100C90000102CA5000201DE04C6843EAC403CC683E
:100CA0000668234305F1180424013351C3E70368A0
:100CB00003EB0613596841F480715960C5E7436A34
:100CC00043F400134362012004E0436A43F48023A9
:100CD0004362012070BC704730B490F82040013C62
:100CE000E4B2012C00F28A8051B90468E46814F07F
:100CF000030F10D1436A43F400134362012082E0E2
:100D00000468246914F0030F05D1436A43F4001307
:100D10004362012077E0056801F11B0424012C598E
:100D200004F004049460002C5AD1056801F11B04FE
:100D300024012C59640D1460056801F11B04240181
:100D40002D5905F00205D560056825446D6805F04C
:100D50000F051561056825446D68C5F30725956184
:100D600005682C446468240C546104680A01144426
:100D7000D4F8B8411C7004681444D4F8B841C4F3E2
:100D800007245C7004681444D4F8B841C4F30744E1
:100D90009C7004681444D4F8B841240EDC700468D4
:100DA0001444D4F8BC411C7104681444D4F8BC4108
:100DB000C4F307245C7104681444D4F8BC41C4F340
:100DC00007449C7104682244D2F8BC21120EDA71E7
:100DD00071B90268D36843F02003D360002012E0A9
:100DE000056801F11B0424012C59E4085460A3E7B1
:100DF0000268136943F020031361EFE7436A43F489
:100E000080234362012030BC704790F82030013BC2
:100E1000DBB2012B05D9436A43F4802343620120EE
:100E20007047026853690B43536100207047704755
:100E300070477047704770477047704770477047FA
:100E40007047704770472DE9F84F054603685C69A5
:100E5000D3F804809F68D3F80CB0D3F810A0D3F86F
:100E6000189014F001063BD017F0010616D00122AD
:100E70009A6017F0020F08D117F0040F0CD117F089
:100E8000080606D04FF4805608E0FFF7D0FF002692
:100E900004E0FFF7CFFF01E04FF4006617F4807F16
:100EA0000DD02B684FF480729A6017F4007F40F0E9
:100EB000948017F4806F00F0948046F4005617F485
:100EC000803F0DD02B684FF480329A6017F4003FBA
:100ED00040F0918017F4802F00F0918046F4004696
:100EE00014F0080F07D01BF0100F04D046F4007662
:100EF0002B681022DA6014F0040F03D01BF0080FE7
:100F000040F0878014F0020F05D02B68DB6813F0E7
:100F1000030F40F0858014F0400F07D01AF0100F37
:100F200004D046F480662B6810221A6114F0200F5A
:100F300002D01AF0080F77D114F0100F04D02B68EC
:100F40001B6913F0030F76D114F4003F02D018F0A0
:100F5000100F74D114F4803F02D018F0080F75D12F
:100F600014F4004F35D018F0040F2FD014F4807F04
:100F700004D019F0010F01D046F0010614F4007FEF
:100F800004D019F0020F01D046F0020614F4806F6D
:100F900004D019F0040F01D046F0040614F4006FD9
:100FA00014D019F0700911D0B9F1300F61D054D9B3
:100FB000B9F1500F63D0B9F1600F63D0B9F1400FB0
:100FC0005AD02A68936923F0700393612B68042236
:100FD0005A60002E59D1BDE8F88F2846FFF728FF48
:100FE0006DE717F4006F02D046F4804667E72846A5
:100FF000FFF721FF63E72846FFF71BFF70E717F4B1
:10100000002F02D046F480366AE72846FFF714FF27
:1010100066E72B680822DA602846FFF70EFF71E7C3
:10102000284602F0B9FE76E72B6808221A612846A6
:10103000FFF705FF80E72846FFF700FF84E72B68EE
:1010400010225A602846FFF7FBFE83E72B68082230
:101050005A602846FFF7F5FE82E7B9F1100F05D078
:10106000B9F1200FADD146F01006AAE746F0080608
:10107000A7E746F02006A4E746F04006A1E746F0C1
:1010800080069EE746F480769BE76B6A1E436E629D
:101090002846FFF7D7FE9EE7074AD36823F4E063AC
:1010A0001B041B0C000200F4E060184340F0BF601A
:1010B00040F40030D060704700ED00E030B4174BD2
:1010C000DB68C3F30223C3F10704042C28BF042404
:1010D0001D1D062D01D9033B00E000234FF0FF3515
:1010E00005FA04F421EA0401994005FA03F322EA1F
:1010F00003031943002809DB0901C9B200F160406C
:1011000000F5614080F8001330BC704700F00F001C
:101110000901C9B2024B1954F6E700BF00ED00E027
:1011200014ED00E0002807DB00F01F024009012356
:101130009340024A42F82030704700BF00E100E0CF
:101140000138B0F1807F0AD2064B5860064AF02180
:1011500082F823100020986007221A60704701204F
:10116000704700BF10E000E000ED00E010B403683D
:10117000D9B210390C4AA2FB014212090B4CA25CF5
:10118000C2655F2909D923F47F7323F00303043375
:101190008365806D5DF8044B704723F47F7323F003
:1011A00003038365F5E700BFABAAAAAA985A000813
:1011B000836A826992B9012B0AD01BB1022B01D03C
:1011C00000207047C36A13F0807F28D10020704749
:1011D000C36AB3F1C07F24D000207047B2F5005F2E
:1011E00009D0022B25D9032B25D1C36A13F0807FA8
:1011F00023D100207047032B03D8DFE803F0140449
:10120000140A00207047C36A13F0807F0DD10020BC
:101210007047C36AB3F1C07F09D000207047012036
:10122000704701207047012070470120704701205E
:101230007047012070470020704701207047000070
:1012400070B50446FFF762FB002C5BD00546022315
:1012500084F83530002384F834302268136823F092
:101260000103136023681A6812F0010F0AD0FFF718
:101270004DFB401B0528F5D920236365032084F826
:10128000350070BD1A68204810406168A2680A43A2
:10129000E1680A4321690A4361690A43A1690A4373
:1012A000E1690A43216A0A430243616A04291ED0A4
:1012B0001A602668756925F00705636A1D43042BCB
:1012C00007D1A36A1D43E36A1BB12046FFF770FFF5
:1012D00090B975612046FFF749FFE26D3F239340C7
:1012E000836000206065012384F83530C9E7E16A36
:1012F000206B01430A43DBE740236365012084F848
:101300003500BEE70120BCE73F8010F010B40A4969
:101310000C6924F440740C610C6944F440740C6151
:101320000C6944F001040C610260BFF36F8F4360ED
:101330005DF8044B704700BF003C0240074B1A6940
:1013400022F440721A611A6942F400721A611A6931
:1013500042F001021A610160704700BF003C024088
:10136000074B1A6922F440721A611A6942F48072BA
:101370001A611A6942F001021A610180704700BFC8
:10138000003C0240064B1A6922F440721A611A6945
:101390001A611A6942F001021A610170704700BFB8
:1013A000003C0240274BDB6813F0100F07D0264AA1
:1013B000D36943F01003D361224B1022DA60214B32
:1013C000DB6813F0200F07D01F4AD36943F00803EE
:1013D000D3611C4B2022DA601A4BDB6813F0400FFC
:1013E00007D0194AD36943F00403D361154B402257
:1013F000DA60144BDB6813F0800F07D0124AD36910
:1014000043F00203D3610F4B8022DA600D4BDB689F
:1014100013F4807F08D00C4AD36943F00103D361F1
:10142000084B4FF48072DA60064BDB6813F0020F52
:1014300007D0054AD36943F02003D361014B022250
:10144000DA607047003C0240B44A0020094B1B6937
:10145000002B01DB00207047064B074A5A6002F15F
:1014600088325A601B69002B01DB00207047012085
:10147000704700BF003C024023016745034A1369DF
:1014800043F0004313610020704700BF003C02405E
:1014900038B50446144B0022DA61FFF737FA0546E7
:1014A000124BDB6813F4803F0AD0B4F1FF3FF7D052
:1014B00024B1FFF72BFA401BA042F1D903200DE025
:1014C0000A4BDB6813F0010F02D0084B0122DA60EF
:1014D000064BDB6813F4F97F01D1002038BDFFF71C
:1014E00061FF0120FAE700BFB44A0020003C02403F
:1014F000F8B51D4C247E012C34D01F4616460D46EF
:101500000446194B01221A764CF25030FFF7C0FF07
:10151000014698B9BCB1012C1AD0022C1DD032461C
:101520003B462846FFF7F2FE4CF25030FFF7B0FF83
:1015300001460E4A136923F0010313610A4B00228E
:101540001A760846F8BDF1B22846FFF71BFFEBE715
:10155000B1B22846FFF704FFE6E731462846FFF719
:10156000EDFEE1E70221ECE7B44A0020003C024036
:1015700000230F2B00F2E980F0B482B05EE08668B1
:101580005F000324BC4026EA0406CC68BC40344318
:101590008460466826EA02064C68C4F300129A404A
:1015A0003243426057E0DC08083450F8247003F0FE
:1015B000070296000F22B24027EA02070A69B240EA
:1015C0003A4340F824205AE0092200E00022B240C9
:1015D0003A4302345D4E46F824205D4A9468EA435B
:1015E00002EA04064F6817F4801F01D045EA04069A
:1015F000574CA660E46802EA04064F6817F4001F1F
:1016000001D045EA0406524CE660646802EA04062A
:101610004F6817F4003F01D045EA04064C4C666061
:10162000246822404E6816F4803F01D045EA040247
:10163000474C226001330F2B00F2848001229A4034
:101640000C6804EA0205AA42F4D14C6804F00304D1
:10165000013C012C93D94A6802F00302032A09D005
:10166000C4685E000322B24024EA02048A68B240E1
:101670002243C2604A6802F00302022A93D004683F
:101680005E000322B24024EA02044A6802F0030228
:10169000B240224302604A6812F4403FCAD000229E
:1016A00001922C4A546C44F480445464526C02F409
:1016B00080420192019A9C08A61C244A52F8267086
:1016C00003F0030296000F22B24027EA0207224AE3
:1016D00090423FF47BAF02F58062904222D002F547
:1016E0008062904220D002F5806290421ED002F5C6
:1016F000806290421CD002F5806290421AD002F5BE
:101700008062904218D002F58062904216D002F5B5
:101710008062904214D002F5806290423FF454AF50
:101720000A2254E7012252E7022250E703224EE741
:1017300004224CE705224AE7062248E7072246E74B
:10174000082244E702B0F0BC7047704700380140FF
:10175000003C014000380240000002400369194289
:1017600001D00120704700207047000008B5054BEC
:101770005B69034200D108BD024B586103F016FDBE
:10178000F9E700BF003C014010B582B0002301938F
:10179000194B1A6C42F080521A641B6C03F0805390
:1017A0000193019B154B01221A60FFF7AFF8044625
:1017B000134B5B6813F4803F08D1FFF7A7F8001BB9
:1017C000B0F57A7FF4D9032002B010BD0D4B012291
:1017D0001A60FFF79BF80446094B5B6813F4003F5F
:1017E00007D1FFF793F8001BB0F57A7FF4D90320F7
:1017F000EAE70020E8E700BF0038024040000E4260
:101800000070004044000E42002800F0DF8170B5F7
:1018100082B00446036813F0010F3BD0A64B9B68CF
:1018200003F00C03042B2CD0A34B9B6803F00C0398
:10183000082B21D06368B3F5803F4FD0B3F5A02FBC
:1018400052D09D4B1A6822F480321A601A6822F432
:1018500080221A606368002B50D0FFF757F80546C6
:10186000954B1B6813F4003F14D1FFF74FF8401B52
:101870006428F5D90320B0E18F4B5B6813F4800F27
:10188000D8D08D4B1B6813F4003F03D06368002B46
:1018900000F09E81236813F0020F54D0864B9B68A2
:1018A00013F00C0F3ED0844B9B6803F00C03082B05
:1018B00033D0E368002B67D0804B01221A60FFF71A
:1018C00025F805467C4B1B6813F0020F53D1FFF738
:1018D0001DF8401B0228F5D903207EE1764A1368E3
:1018E00043F480331360B5E7734B1A6842F48022E7
:1018F0001A601A6842F480321A60ABE7FFF706F804
:1019000005466D4B1B6813F4003FC3D0FEF7FEFF86
:10191000401B6428F5D903205FE1674B5B6813F433
:10192000800FC6D1644B1B6813F0020F03D0E3682D
:10193000012B40F04F81604A136823F0F8032169BE
:1019400043EAC1031360236813F0080F40D06369B2
:1019500063B35B4B01221A60FEF7D8FF0546564B76
:101960005B6F13F0020F33D1FEF7D0FF401B02284C
:10197000F5D9032031E1504A136823F0F8032169B7
:1019800043EAC1031360DEE74C4B00221A60FEF706
:10199000BDFF0546484B1B6813F0020FD3D0FEF77E
:1019A000B5FF401B0228F5D9032016E1444B002265
:1019B0001A60FEF7ABFF05463F4B5B6F13F0020F5B
:1019C00006D0FEF7A3FF401B0228F5D9032004E14F
:1019D000236813F0040F78D0374B1B6C13F0805F33
:1019E00033D100230193344B1A6C42F080521A64B5
:1019F0001B6C03F080530193019B0125314B1B6845
:101A000013F4807F23D0A368012B34D0052B38D06A
:101A1000294B1A6F22F001021A671A6F22F0040292
:101A20001A67A368002B36D0FEF770FF0646224BDC
:101A30001B6F13F0020F47D1FEF768FF801B41F2C6
:101A400088339842F3D90320C7E00025D6E71D4A22
:101A5000136843F480731360FEF758FF0646194B72
:101A60001B6813F4807FCED1FEF750FF801B022845
:101A7000F5D90320B1E0104A136F43F00103136757
:101A8000CFE70D4B1A6F42F004021A671A6F42F04B
:101A900001021A67C5E7FEF739FF0646064B1B6FC2
:101AA00013F0020F10D0FEF731FF801B41F2883394
:101AB0009842F3D9032090E00038024000004742EA
:101AC000800E474200700040EDB9A369002B00F082
:101AD0008380494A926802F00C02082A51D0022BF6
:101AE00017D0464B00221A60FEF710FF0446424B07
:101AF0001B6813F0007F42D0FEF708FF001B02288E
:101B0000F5D9032069E03C4A136C23F08053136439
:101B1000DBE73A4B00221A60FEF7F8FE0546364B2B
:101B20001B6813F0007F06D0FEF7F0FE401B022872
:101B3000F5D9032051E0E369226A1343626A43EA5C
:101B40008213A26A5208013A43EA0243E26A43EA74
:101B50000263294A5360294B01221A60FEF7D6FE20
:101B60000446254B1B6813F0007F06D1FEF7CEFE1E
:101B7000001B0228F5D903202FE000202DE00020D3
:101B80002BE0012B2BD01C4B5B6803F48001E26936
:101B9000914226D103F03F02216A8A4223D1616A31
:101BA00047F6C0721A40B2EB811F1ED103F44031D8
:101BB000A26A5208013AB1EB024F18D103F07063E8
:101BC000E26AB3EB026F14D1002006E001207047F7
:101BD000012002E0012000E0002002B070BD0120E1
:101BE000FBE70120F9E70120F7E70120F5E70120F5
:101BF000F3E70120F1E700BF0038024060004742F0
:101C0000254B9B6803F00C03042B40D0082B40D1DC
:101C100070B5214B5A6802F03F025B6813F4800FE5
:101C200012D01D4B5968C1F3881100231B48A1FB3A
:101C30000001FEF7DDFA184B5B68C3F30143013383
:101C40005B00B0FBF3F070BD134B5868C0F3881015
:101C50000546002643011B1A66EB0604A10141EA72
:101C600093619801C01A61EB0401CB0043EA507301
:101C7000C4001946601946EB01018B0243EA9053F8
:101C80008402204619463346FEF7B2FAD3E70348EA
:101C900070470348704700BF00380240001BB70080
:101CA0000024F400002800F09B8070B50446504BDF
:101CB0001B6803F00F038B4208D2CBB24C4A13705F
:101CC000136803F00F038B4240F08C80236813F0FD
:101CD000020F17D013F0040F04D0464A936843F460
:101CE000E0539360236813F0080F04D0414A9368CF
:101CF00043F4604393603F4A936823F0F003A06885
:101D0000034393600D46236813F0010F32D06368DC
:101D1000012B21D09A1E012A25D9364A126812F0C9
:101D2000020F61D033498A6822F0030213438B60AB
:101D3000FEF7ECFD06462F4B9B6803F00C03626830
:101D4000B3EB820F16D0FEF7E1FD801B41F2883322
:101D50009842F0D9032042E0264A126812F4003F6C
:101D6000E0D101203BE0234A126812F0007FD9D174
:101D7000012034E01E4B1B6803F00F03AB4207D970
:101D8000EAB21B4B1A701B6803F00F03AB422DD154
:101D9000236813F0040F06D0164A936823F4E05327
:101DA000E1680B439360236813F0080F07D0114AD2
:101DB000936823F46043216943EAC1039360FFF70A
:101DC0001FFF0C4B9B68C3F303130B4AD35CD84033
:101DD0000A4B18600A4B1868FEF74CFD002070BDD6
:101DE000012070470120FAE70120F8E70120F6E71B
:101DF000003C024000380240445F00081000002010
:101E000008000020014B1868704700BF1000002038
:101E100008B5FFF7F7FF044B9B68C3F38223034A1F
:101E2000D35CD84008BD00BF00380240545F0008B2
:101E300008B5FFF7E7FF044B9B68C3F34233034A3F
:101E4000D35CD84008BD00BF00380240545F000892
:101E500070B504460268136923F44053C1680B430C
:101E6000136183680269134342691343C2691A43C9
:101E70000168CB6823F4164323F00C031343CB60B3
:101E80000268536923F4407381690B43536103680B
:101E9000344A934206D002F58062934202D0FFF7A3
:101EA000B7FF01E0FFF7C4FFE369B3F5004F2AD0A5
:101EB0000026051846EB06012D1846EB0101CB0064
:101EC00043EA5573EA001546194663689A009B0F6A
:101ED000281846EB0101FEF78BF9234DA5FB0032D4
:101EE0005109642303FB11031B013233A5FB0323B8
:101EF0005B0903F0F00202EB011203F00F0321680B
:101F000013448B6070BD0026051846EB06012D18A2
:101F100046EB0101CB0043EA5573EA00154619462A
:101F200062683346921846EB0303281846EB01011A
:101F3000FEF75EF90C4DA5FB00325109642303FB4B
:101F40001103DB003233A5FB03235B095A0002F4C3
:101F5000F87202EB011203F00703216813448B604F
:101F6000D0E700BF001001401F85EB5158B310B5FA
:101F7000044690F83D300BB3242384F83D302268AA
:101F8000D36823F40053D3602046FFF761FF226833
:101F9000136923F4904313612268536923F02A03E1
:101FA00053612268D36843F40053D3600020206457
:101FB000202384F83D3084F83E3010BD80F83C305A
:101FC00003F0A4FBD8E7012070470000EFF305837E
:101FD0002BB9064B186828B901221A6070476FF0B8
:101FE000050070474FF0FF30704700BFD40200205B
:101FF000EFF3058373B90A4B1B68012B0DD110B5A4
:102000000024084BDC77064B02221A6000F046FFE2
:10201000204610BD6FF0050070474FF0FF3070474D
:10202000D402002000ED00E0F0B587B00024059454
:10203000EFF3058474BB68B322B31668946904B9DE
:102040001824631E372B49D8536813F0010F47D16A
:1020500055696DB14FEA950C93682BB1D7685B2F2A
:1020600002D9176907B1C5B92BB14FF0FF350EE0A2
:102070004FF0800CF0E7D3688BB9136993B14FF040
:10208000FF3504E01646002518244FF0800C012D82
:102090000AD0ADB1059807B0F0BD0125F7E74FF0C4
:1020A000FF35F4E70025F2E7136992680292019385
:1020B00000940B466246314600F082FE0590E9E747
:1020C00005AA019200940B461FFA8CF2314600F0EB
:1020D000B1FE0128DED000230593DBE70020DAE71C
:1020E0000020D8E7EFF3058373B910B582B004463A
:1020F00000F026FF0190211A002908DD01A801F057
:102100002FF8002002B010BD6FF0050070476FF08F
:102110000300F7E7034B0360034B0B60802313605E
:10212000704700BF7802002078000020034B036056
:10213000034B0B604FF4807313607047D806002088
:10214000D802002000F1080343604FF0FF328260A4
:10215000C36003610023036070470023036170477D
:1021600043684B609A688A605160996008610368AF
:1021700001330360704730B40D68B5F1FF3F02D002
:1021800000F1080202E0026904E01A4653681C6884
:10219000AC42FAD953684B6099608A60516008611B
:1021A00003680133036030BC70470369416882688B
:1021B0008A60416851605A68824206D000220261FA
:1021C0001A68013A1A601868704782685A60F5E721
:1021D000124A12F0070F07D0D11D21F00701C1F5F7
:1021E000705313440A4601E04FF470530C480260E8
:1021F000002141601344083B23F0070309480360B2
:1022000059601960991A51601360074B1960074BA8
:102210001960074B4FF000421A60704738070020E2
:102220004C43002034070020404300203C43002062
:102230003843002010B4134A00E01A461368834262
:10224000FBD35168541884420AD041684418A34211
:102250000BD00360904200D010605DF8044B7047D3
:102260004068014451601046EFE7074C2468A342E0
:1022700006D05B681944416013681B680360E9E796
:102280000460E7E74C4300203407002070B50446A3
:1022900000F04EFE3C4B1B68BBB13C4B1B681C4224
:1022A0005AD1ACB1083414F0070F11D024F0070450
:1022B000083404F007035BB14FF0500383F3118837
:1022C000BFF36F8FBFF34F8FFEE7FFF781FFE4E7A8
:1022D000002C43D02E4B1B68A3424ED32D4B1D68C0
:1022E00001E02B4615466A68A24202D22A68002AFB
:1022F000F7D1254A1268AA4241D01E6808362A68DA
:102300001A606B681B1B102B10D9281910F0070FCF
:1023100008D04FF0500383F31188BFF36F8FBFF3E2
:102320004F8FFEE743606C60FFF784FF6A681849CF
:102330000B689B1A0B60184909688B4201D2164939
:102340000B60124B1B6813436B6000232B60134A16
:1023500013680133136002E0002600E0002600F05D
:1023600083FE16F0070F0CD04FF0500383F3118853
:10237000BFF36F8FBFF34F8FFEE70026EFE7002616
:10238000EDE7304670BD00BF340700203843002021
:102390003C4300204C4300204043002044430020A5
:1023A000002834D038B50446A0F1080550F8042CB4
:1023B000174909680A4208D14FF0500383F3118886
:1023C000BFF36F8FBFF34F8FFEE750F8080C40B19B
:1023D0004FF0500383F31188BFF36F8FBFF34F8F1C
:1023E000FEE722EA010244F8042C00F0A1FD54F8B3
:1023F000041C084A13680B4413602846FFF71AFFB1
:10240000054A13680133136000F02EFE38BD704793
:10241000384300203C4300204843002010B50446C8
:10242000FEF7D0F8A26BE36B9A4204D00024FEF7CB
:10243000EBF8204610BD0124F9E710B50446FEF77D
:10244000C1F8A36B23B90124FEF7DEF8204610BDC6
:102450000024F9E770B504461646856B026C5AB93C
:1024600003681BB100200135A56370BD806800F0D2
:10247000F5FF0023A360F6E76EB9406803F06CFA3D
:10248000226C636813446360A268934219D3236883
:1024900063603046E7E7C06803F05EFA226C5242A0
:1024A000E3681344E36021688B4202D2A3681A44B4
:1024B000E260022E01D00020D5E725B1013D0020C9
:1024C000D1E73046CFE70020CDE7026C72B110B5FE
:1024D000C3681344C3608468A34201D30368C36024
:1024E0000C46C168204603F037FA10BD704738B576
:1024F0000546FEF767F895F8454064B203E000F042
:1025000097FF013C64B2002C08DD6B6A33B105F122
:10251000240000F0F9FE0028F3D0F0E7FF2385F84F
:102520004530FEF771F8FEF74DF895F8444064B277
:1025300003E000F07DFF013C64B2002C08DD2B6954
:1025400033B105F1100000F0DFFE0028F3D0F0E712
:10255000FF2385F84430FEF757F838BD38B5E0B1B1
:1025600004460D46FEF72EF82168E26B236C03FB50
:102570000210A0600020A0636160013A02FB031317
:10258000E360FF2384F8443084F84530EDB92369D3
:1025900063B9FEF739F8012038BD4FF0500383F3DB
:1025A0001188BFF36F8FBFF34F8FFEE704F1100068
:1025B00000F0AAFE0028ECD0084B4FF080521A60C1
:1025C000BFF34F8FBFF36F8FE3E704F11000FFF706
:1025D000B9FD04F12400FFF7B5FDDAE704ED00E0F2
:1025E00038B51D46049C0B4649B92460E06323645A
:1025F00001212046FFF7B2FF84F84C5038BD22601D
:10260000F4E740B94FF0500383F31188BFF36F8FA5
:10261000BFF34F8FFEE710B584B0044653B192B1BB
:1026200089B94FF0500383F31188BFF36F8FBFF365
:102630004F8FFEE74FF0500383F31188BFF36F8F86
:10264000BFF34F8FFEE76AB15020039003985028E4
:1026500013D04FF0500383F31188BFF36F8FBFF394
:102660004F8FFEE70029EFD04FF0500383F311881E
:10267000BFF36F8FBFF34F8FFEE720461C46039BCF
:10268000012384F8463000949DF81830FFF7A8FF26
:10269000204604B010BD0000F0B585B0019278B1BD
:1026A0000446B1B1022B20D1E26B012A1DD04FF0BC
:1026B000500383F31188BFF36F8FBFF34F8FFEE793
:1026C0004FF0500383F31188BFF36F8FBFF34F8F29
:1026D000FEE7026C002AE5D04FF0500383F3118827
:1026E000BFF36F8FBFF34F8FFEE71D460E4600F01E
:1026F000A5FE074658B9019B002B44D04FF050036C
:1027000083F31188BFF36F8FBFF34F8FFEE700276E
:1027100039E02A4631462046FFF79CFE636A6BB9D2
:1027200038B13C4B4FF080521A60BFF34F8FBFF36C
:102730006F8FFDF769FF012005B0F0BD04F12400A3
:1027400000F0E2FD0028F4D0324B4FF080521A60C6
:10275000BFF34F8FBFF36F8FEBE7FDF755FF0020FF
:10276000EAE702A800F016FE012719E0002384F82A
:10277000443021E0002384F8453023E02046FFF771
:10278000B6FE00F071FCFDF71DFFA26BE36B9A42F1
:10279000BFD3022DBDD0019B002BDED0002FE0D097
:1027A000FDF732FF00F0C4FBFDF70CFF94F8443056
:1027B0005BB2B3F1FF3FD9D094F845305BB2B3F1CF
:1027C000FF3FD7D0FDF720FF01A902A800F0EEFDE2
:1027D000C8B92046FFF722FE0028CFD0019904F1A6
:1027E000100000F05DFD2046FFF781FE00F03CFC8C
:1027F0000028C8D1074B4FF080521A60BFF34F8FAB
:10280000BFF36F8FBFE72046FFF771FE00F02CFC8F
:10281000002091E704ED00E02DE9F84378B104468B
:10282000B1B1022B20D1E06B01281DD04FF0500335
:1028300083F31188BFF36F8FBFF34F8FFEE74FF025
:10284000500383F31188BFF36F8FBFF34F8FFEE701
:10285000006C0028E5D04FF0500383F31188BFF3DC
:102860006F8FBFF34F8FFEE71F4690468946FDF7F7
:10287000D3FFEFF311864FF0500383F31188BFF3BA
:102880006F8FBFF34F8FA26BE36B9A4206D3022F79
:1028900004D0002086F31188BDE8F88394F84550F1
:1028A0006DB2A36B3A4649462046FFF7D3FDB5F11A
:1028B000FF3F05D06B1C5BB284F845300120E9E78F
:1028C000636A0BB90120E5E704F1240000F01CFD68
:1028D00030B1B8F1000F05D00120C8F80000D9E7E9
:1028E0000120D7E70120D5E7F0B585B0019290B17E
:1028F0000446C9B10E4600F0A1FD074600BB019B8E
:10290000002B5CD04FF0500383F31188BFF36F8F1F
:10291000BFF34F8FFEE74FF0500383F31188BFF3EF
:102920006F8FBFF34F8FFEE7036C002BE2D04FF0A9
:10293000500383F31188BFF36F8FBFF34F8FFEE710
:1029400000273CE031462046FFF7BFFD013DA5636F
:10295000236923B9FDF758FE012005B0F0BD04F14D
:10296000100000F0D1FC0028F4D0354B4FF080521D
:102970001A60BFF34F8FBFF36F8FEBE7FDF744FE95
:102980000020EAE702A800F005FD012721E000236E
:1029900084F8443029E0002384F845302BE02046B9
:1029A000FFF7A5FD00F060FB09E02046FFF79FFD63
:1029B00000F05AFB2046FFF740FD00283DD1FDF70F
:1029C00001FEA56B002DBDD1019B002BD6D0002FA1
:1029D000D8D0FDF719FE00F0ABFAFDF7F3FD94F83F
:1029E00044305BB2B3F1FF3FD1D094F845305BB2D5
:1029F000B3F1FF3FCFD0FDF707FE01A902A800F019
:102A0000D5FC0028D1D12046FFF717FD0028C6D0FD
:102A1000019904F1240000F043FC2046FFF767FD14
:102A200000F022FB0028CAD1054B4FF080521A60FB
:102A3000BFF34F8FBFF36F8FC1E700208DE700BF5B
:102A400004ED00E00023072B0CD8074A52F833208E
:102A50000AB10133F7E7044A42F8331002EBC3032B
:102A600058607047704700BFD44A002070B50446D4
:102A70000D461646FDF7A6FD94F844305BB2B3F15F
:102A8000FF3F0DD094F845305BB2B3F1FF3F0BD060
:102A9000FDF7BAFDA36B5BB12046FFF728FD70BDC3
:102AA000002384F84430EDE7002384F84530EFE755
:102AB0003246294604F1240000F00AFCECE700004D
:102AC000084B1B681B6823B9074B4FF0FF321A6095
:102AD0007047044B1B68DB68DB685A68024B1A605E
:102AE000704700BF58430020FC4700202DE9F04705
:102AF00081460D4617469A46089EDDF824800A9CBA
:102B00009200A521206B02F035FF236B07F1804274
:102B1000013A03EB820727F007077DB300230F2B51
:102B200006D8EA5CE11881F834200AB10133F6E7EF
:102B3000002384F84330372E00D93726E662E66456
:102B400000252565201DFFF708FB04F11800FFF79D
:102B500004FB2461C6F13806A6616462656584F8E9
:102B60005850524649463846FDF702FD2060B8F1FC
:102B7000000F01D0C8F80040BDE8F087002384F8BA
:102B80003430D8E738B50024372C08D804EB840259
:102B900093000E481844FFF7D5FA0134F4E70C4DC2
:102BA0002846FFF7CFFA0B4C2046FFF7CBFA0A482E
:102BB000FFF7C8FA0948FFF7C5FA0948FFF7C2FA54
:102BC000084B1D60084B1C6038BD00BF60430020EF
:102BD000D4470020E847002008480020344800205F
:102BE00020480020584300205C43002010B50446D4
:102BF000FDF7E8FC214A136801331360204B1B6882
:102C00005BB1204B1B686BB91D4B1B68DA6AE36A2A
:102C10009A4207D81A4B1C6004E0194B1C601368D9
:102C2000012B27D0184A1368013313606364E36AE9
:102C3000164A1268934201D9144A136003EB8303C6
:102C40009A00211D12481044FFF78AFAFDF7DCFCB8
:102C50000C4B1B686BB10A4B1B68DA6AE36A9A4239
:102C600007D20C4B4FF080521A60BFF34F8FBFF367
:102C70006F8F10BDFFF786FFD4E700BFC04700206D
:102C8000544300201C480020CC470020D04700209F
:102C90006043002004ED00E010B5044690F8593080
:102CA00063B1012B11D0022B0ED04FF0500383F3F0
:102CB0001188BFF36F8FBFF34F8FFEE7006BFFF7F5
:102CC0006FFB2046FFF76CFB10BDFFF769FBFBE7CE
:102CD0000F4B1B68D3B110B5FDF774FC0D4BDB68CF
:102CE000DC68201DFFF761FA0B4A1368013B136093
:102CF000074A1368013B1360FDF786FC2046FFF787
:102D0000CBFF034B1B68002BE6D110BD704700BF03
:102D1000C447002034480020C047002008B5FFF712
:102D2000D7FF064B1B68012BF9D9054B4FF080529A
:102D30001A60BFF34F8FBFF36F8FF0E7604300203F
:102D400004ED00E070B504460E46174B1D68174BA6
:102D500018680430FFF729FAB4F1FF3F0DD02C4476
:102D6000124B1B685C60A54210D9114B18680F4BC1
:102D700019680431FFF7FFF970BD002EEFD00B4B3F
:102D8000196804310B48FFF7EBF9F5E70A4B1868AF
:102D9000064B19680431FFF7EEF9084B1B68A34294
:102DA000EAD9064B1C60E7E748480020544300205E
:102DB0005C4300202048002058430020FC470020AE
:102DC00070B586B00B9D0C9C75B1B4B15C260496B1
:102DD000049E5C2E1AD04FF0500383F31188BFF38A
:102DE0006F8FBFF34F8FFEE74FF0500383F31188CF
:102DF000BFF36F8FBFF34F8FFEE74FF0500383F3A6
:102E00001188BFF36F8FBFF34F8FFEE7049E2563DA
:102E1000022584F8595000250395029405AD0195CB
:102E20000A9D0095FFF762FE2046FFF7DFFE05983A
:102E300006B070BD2DE9F04385B0074688461546BB
:102E400099469000FFF722FAF8B106465C20FFF79A
:102E50001DFA0446A8B10663E4B1002384F8593092
:102E6000039302940D9B01930C9B00934B462A46BF
:102E700041463846FFF73AFE2046FFF7B7FE0120ED
:102E800005E03046FFF78CFAE6E74FF0FF3005B07B
:102E9000BDE8F0834FF0FF30F9E7000010B588B0CF
:102EA00000240594069407AA06A905A8FFF732F99D
:102EB000059B0293069B019300942346079A1749AA
:102EC0001748FFF77DFF40B100F07CFB012806D0DA
:102ED000B0F1FF3F18D008B010BD0020F6E74FF06A
:102EE000500383F31188BFF36F8FBFF34F8F0D4BE8
:102EF0004FF0FF321A600C4B01221A600B4B00227C
:102F00001A60FDF701FCE6E74FF0500383F31188E8
:102F1000BFF36F8FBFF34F8FFEE700BFA05A0008CB
:102F20001D2D0008FC4700201C48002048480020B8
:102F3000024A136801331360704700BFC84700207E
:102F4000014B1868704700BF48480020F8B53B4B5C
:102F50001B68002B6AD13A4B1D6801351D60C5B94D
:102F6000384B1B681B6843B14FF0500383F3118843
:102F7000BFF36F8FBFF34F8FFEE7324A1168324BBA
:102F8000186810601960314A136801331360FFF745
:102F900097FD2F4B1B68AB4211D900242D4B1B68AA
:102FA000DB6A03EB83039A002B4B9B58012B00D960
:102FB00001242A4B1B68002B3DD001243BE0002458
:102FC00016E0234B4FF0FF321A60E7E7204A136008
:102FD000E4E703EB83039A0039461F481044FFF7E8
:102FE000BFF8F26A1B4B1B68DB6A9A4200D30124CC
:102FF000144B1B681B68002BE3D0124B1B68DB686B
:10300000DE6873689D42E1D3371D3846FFF7CDF87F
:10301000B36A1BB106F11800FFF7C7F8F36A104A4C
:1030200012689342D5D90E4A1360D2E70D4A13684D
:103030000133136000242046F8BD00BFC8470020BC
:1030400048480020584300205C43002000480020EE
:10305000FC47002054430020604300204C480020DF
:10306000D04700200448002038B5344B1B6843B9D2
:103070004FF0500383F31188BFF36F8FBFF34F8F6F
:10308000FEE7FDF79FFA2D4B1A68013A1A601B689C
:10309000002B4DD12A4B1B680BB9002449E00024BA
:1030A000284B1B681BB3274BDB68DC6804F1180056
:1030B000FFF77BF8251D2846FFF777F8E36A224AD9
:1030C0001268934201D9204A136003EB83039A00EC
:1030D00029461E481044FFF743F8E26A1C4B1B6860
:1030E000DB6A9A42DCD31B4B01221A60D8E70CB191
:1030F000FFF7E6FC184B1C6874B9164B1C68C4B18A
:10310000164B4FF080521A60BFF34F8FBFF36F8F93
:1031100001240EE0013C07D0FFF718FF0028F9D08A
:103120000C4B01221A60F5E70B4B00221A60E4E712
:103130000024FDF769FA204638BD00BFC8470020CB
:10314000C047002008480020D047002060430020EE
:10315000544300204C4800200448002004ED00E0C7
:1031600038B550B1054689B94FF0500383F3118843
:10317000BFF36F8FBFF34F8FFEE74FF0500383F322
:103180001188BFF36F8FBFF34F8FFEE71A4B1B6899
:1031900043B14FF0500383F31188BFF36F8FBFF338
:1031A0004F8FFEE70C46FFF7C3FE144B18682A68E2
:1031B0001444824209D9A24201D82C600EE0A042F8
:1031C00001D32C600AE02C6004E0A24201D8A042A6
:1031D00010D22C600021201AFFF7B4FDFFF744FF46
:1031E00038B9074B4FF080521A60BFF34F8FBFF3CF
:1031F0006F8F38BD2C60F1E7C84700204848002099
:1032000004ED00E0214B1B681BB1214B01221A6029
:1032100070471F4B00221A601E4B1B6803EB830193
:103220008A001D498A585AB90BB1013BF6E74FF0A5
:10323000500383F31188BFF36F8FBFF34F8FFEE707
:1032400010B408469A00D418A10001444C68646880
:103250004C601A4491000831084484420DD003EBBD
:10326000830291000C4A0A445268D1680B4A1160EB
:10327000084A13605DF8044B7047606803EB8302F3
:103280009100054A0A445060E9E700BFC8470020A2
:103290004C480020D04700206043002054430020C9
:1032A00058B110B50C46094B19681831FEF763FF89
:1032B00001212046FFF746FD10BD4FF0500383F378
:1032C0001188BFF36F8FBFF34F8FFEE75443002089
:1032D00038B570B10C4615460A4A11681831FEF728
:1032E0003FFF0DB14FF0FF3429462046FFF72AFD7E
:1032F00038BD4FF0500383F31188BFF36F8FBFF3D6
:103300004F8FFEE75443002038B5C368DC6824B310
:1033100004F118052846FEF748FF184B1B682BBB25
:10332000251D2846FEF741FFE36A154A12689342BD
:1033300001D9134A136003EB83039A00294611480D
:103340001044FEF70DFFE26A0F4B1B68DB6A9A42DE
:1033500011D901200D4B18600EE04FF0500383F39C
:103360001188BFF36F8FBFF34F8FFEE729460848E0
:10337000FEF7F6FEE7E7002038BD00BFC847002093
:10338000D047002060430020544300204C480020D8
:1033900008480020034B1B680360034B1B68436015
:1033A000704700BF0048002048480020F8B5C8B169
:1033B000054601B30C46FDF705F91B4B19686B6810
:1033C000C81A2268B2F1FF3F26D02F68174E366820
:1033D000B74201D08B4224D9824215D80023236002
:1033E00001241AE04FF0500383F31188BFF36F8F6D
:1033F000BFF34F8FFEE74FF0500383F31188BFF305
:103400006F8FBFF34F8FFEE75B1A1344236028468C
:10341000FFF7C0FF002400E00024FDF7F5F8204688
:10342000F8BD0124F9E700BF48480020004800200B
:10343000014B01221A6070474C480020054B1B6865
:1034400033B1054B1B680BB1002070470220704759
:10345000012070471C480020C847002000283BD0AE
:1034600038B504461E4A1268824208D04FF0500315
:1034700083F31188BFF36F8FBFF34F8FFEE7026DA9
:1034800042B94FF0500383F31188BFF36F8FBFF33E
:103490004F8FFEE7013A0265C06AE16C88421DD099
:1034A0000AB1002038BD251D2846FEF77EFEE36CDC
:1034B000E362C3F13802A2610A4A1268934201D959
:1034C000084A136003EB83039A0029460648104418
:1034D000FEF746FE0120E5E7002070470020E1E707
:1034E00054430020D047002060430020064B1A6858
:1034F00013682BB90123036023B9D3681868704798
:103500000023F8E7002070475048002008B54160CC
:10351000006191420CD8D21A83699A4201D30120EA
:1035200008BD011D094B1868FEF725FE0020F7E7CE
:103530009A4201D2994206D2011D054B1868FEF746
:103540001AFE0020ECE70120EAE700BF5448002003
:103550005048002030B583B0FDF734F8114B1B689C
:103560001BB1FDF751F803B030BD0F4D2846FEF7F3
:10357000E9FD0E4C2046FEF7E5FD0D4B1D600D4BA1
:103580001C60002300930C4B0C4A10210A20FFF70B
:1035900038F8044B18600028E3D00949FFF752FAC5
:1035A000DFE700BF74490020F84800200C490020E4
:1035B000504800205448002024490020584800204A
:1035C000A85A000810B588B0FFF7C4FF124B1B685B
:1035D000CBB100240594069407AA06A905A8FEF716
:1035E000A5FD059B0293069B0193022300932346AE
:1035F000079A0A490A48FFF7E3FB0A4B186010B123
:10360000012008B010BD4FF0500383F31188BFF3C1
:103610006F8FBFF34F8FFEE774490020B05A000848
:103620002D39000878490020C0B130B585B0154665
:103630000446174A106840B31A4600910195029457
:1036400005291CDCFFF7FAFE022810D000231A46D9
:1036500069460F480068FFF71FF814E04FF0500369
:1036600083F31188BFF36F8FBFF34F8FFEE7002303
:10367000089A694606480068FFF70EF803E0002341
:103680006946FFF7C9F805B030BD0020FBE700BF71
:103690007449002070B582B01B4B1B681A6862B376
:1036A000DB681E68DC68251D2846FEF77EFD236A60
:1036B0002046984794F8283013F0040FECD0A36903
:1036C00033449E4207D26360246129460E4B18683A
:1036D000FEF751FDE0E7002100910B4632462046FF
:1036E000FFF7A2FF0028D7D14FF0500383F31188D2
:1036F000BFF36F8FBFF34F8FFEE7044A1068024994
:103700000860136002B070BD50480020544800208B
:1037100038B50546FFF714FC0446074B1B68834287
:1037200005D800232B60044B1C60204638BDFFF7F2
:10373000B1FF01232B60F6E72049002070B582B06D
:1037400005460E46174B1B68DB68DC68201DFEF73C
:103750002CFD94F8283013F0040F08D123F0010356
:1037600084F82830236A2046984702B070BDA169CA
:103770002B46324629442046FFF7C8FE0028F1D0E8
:10378000002100910B462A462046FFF74DFF0028F6
:10379000E8D14FF0500383F31188BFF36F8FBFF36D
:1037A0004F8FFEE75048002070B582B006460C46A9
:1037B000FFF7BEFB01A8FFF7ABFF019B23BB05464C
:1037C0000CB9B04217D224B1114A12681268CAB9B2
:1037D00001242246711B0F4B1868FFF747F9FFF7CA
:1037E00043FC98B90C4B4FF080521A60BFF34F8FD7
:1037F000BFF36F8F0AE0FFF737FC29463046FFF72B
:103800009DFF03E01C46E4E7FFF72EFC02B070BD0D
:10381000544800207449002004ED00E030B589B020
:1038200006E007990698059B9847049B002B0BDA46
:10383000002204A93C4B1868FFF756F8002870D006
:10384000049B002BF1DAECE7069C636913B1201DA1
:10385000FEF7ABFC03A8FFF75BFF049B092BE7D83F
:10386000DFE803F00505053138510505313894F8D6
:10387000283043F0010384F828300599A5690B46E8
:10388000024629442046FFF741FE0028D0D0236A93
:103890002046984794F8283013F0040FC8D0A26946
:1038A000002100910B46059802442046FFF7BCFE1C
:1038B0000028BDD14FF0500383F31188BFF36F8F01
:1038C000BFF34F8FFEE794F8283023F0010384F80C
:1038D0002830ADE794F8283043F0010384F828300D
:1038E0000599A16131B10346024601442046FFF724
:1038F0000DFE9DE74FF0500383F31188BFF36F8FE8
:10390000BFF34F8FFEE794F8283013F0020F04D076
:1039100023F0010384F828308AE72046FEF740FDB3
:1039200086E709B030BD00BF7449002000B583B000
:1039300001A8FFF7DBFD0199FFF736FFFFF76EFFE8
:10394000F6E7000010B58AB0012208920023069322
:1039500007920093019302930393059304930E4CF3
:1039600069462046FDF77EF82046FDF711F9022151
:103970002046FDF74AFA0E2309930593074C694642
:103980002046FDF76FF82046FDF702F90221204698
:10399000FDF73BFA0AB010BD3C4B0020144B002051
:1039A00084B010B582B005AC84E80E000F9B1449BA
:1039B000086000228A60CA6008220A61114A93F9ED
:1039C00001001070B3F90000507093F9030090707B
:1039D000B3F90200D07093F905001071B3F9040037
:1039E000507193F907009071B3F90630D37101ABB0
:1039F0002046FDF7FBF802B0BDE8104004B0704768
:103A00007C4900209449002030B405686C6944F07A
:103A100040046C610568EC6844F01004EC60846B51
:103A200025682C6824F001042C600C68256815F0CA
:103A3000010F06D0846B25682C6824F001042C60EB
:103A4000F3E705680435A5600C68E2600A68136155
:103A50000B68BDF808205A600A68136843F4802395
:103A60001360836B1A68136843F00103136030BC62
:103A7000704708B50B4692000146184601F06CFFEE
:103A800008BD000000F17843B3F5804F45D3A3F59E
:103A90008043B3F5804F42D300F17843A3F5004350
:103AA000B3F5804F3DD300F17843A3F54043B3F520
:103AB000804F38D300F1774303F57F03B3F5803FA0
:103AC00033D300F1774303F57E03B3F5003F2ED3E4
:103AD00000F1774303F57C03B3F5003F29D300F1F0
:103AE000774303F57A03B3F5003F24D300F177431E
:103AF00003F57803B3F5003F1FD300F1774303F5D7
:103B00007603B3F5003F1AD300F1774000F5740057
:103B1000B0F5003F15D20C4870470C4870470C4870
:103B200070470C4870470C4870470C4870470C4869
:103B300070470C4870470C4870470C4870470C4859
:103B400070474FF00160704700000E080040000809
:103B50000080000800C00008000001080000020802
:103B600000000408000006080000080800000A0819
:103B700000000C0870B505460E461446FDF766FCBD
:103B8000184B1D602846FFF77DFF174B1860174B39
:103B90001E60174B00221A60124B1968124B1B68EB
:103BA000994215D8114B1B681A6800230220FDF7B3
:103BB0009FFC88B90B4A1368043313600B4A1368DF
:103BC000043313600A4A136801331360A342E3D13C
:103BD000FDF754FC002070BDFDF750FC4FF0FF30A6
:103BE000F9E700BFB0490020AC490020A4490020FB
:103BF000A849002008B50D480D4B0360052343601C
:103C000000238360C3604FF4003202614FF48002EE
:103C10004261037643768376C37603774377FCF776
:103C20007BFE00B908BD01F01DF8FBE73C4B00200E
:103C30000064004008B50D480D4B03600523436048
:103C400000238360C3604FF4003202614FF48002AE
:103C50004261037643768376C37603774377FCF736
:103C60005BFE00B908BD00F0FDFFFBE7144B002030
:103C70000068004010B58AB00023059306930793AF
:103C80000893099303683E4A934204D03D4A934205
:103C900034D00AB010BD3C4A136801331360012BC5
:103CA0001FD000240194394B1A6B42F008021A63AA
:103CB0001B6B03F008030193019B0323059302226E
:103CC000069208930923099305A93148FDF750FC92
:103CD000224605211420FDF7F1F91420FDF722FA00
:103CE000D7E700230093294B1A6C42F000721A6444
:103CF0001B6C03F000730093009BD2E70023029338
:103D0000224B1A6C42F080621A641B6C03F08063D1
:103D10000293029B1C4A136801331360012B21D0CC
:103D200000240494194B1A6B42F002021A631B6BB5
:103D300003F002030493049B4FF4405305930223C2
:103D40000693032308930923099305A91148FDF756
:103D50000FFC224605214020FDF7B0F94020FDF779
:103D6000E1F996E700230393084B1A6C42F00072C6
:103D70001A641B6C03F000730393039BD0E700BF2E
:103D80000064004000680040B44900200038024050
:103D9000000C02400004024010B58AB0044601AB9A
:103DA00003AA0021FCF798FF23684B4A934204D0F2
:103DB0004A4A934264D00AB010BD039B484A5268F5
:103DC000934221D0464A926D934229D0444AD2F878
:103DD000AC20934230D0424AD2F80021934237D0EF
:103DE000404A526893423FD03F4A52689342E2D1E0
:103DF0003D4C214601A800F06BFC3C49606801F095
:103E00008FF83B4B1870D6E7354C214601A800F0DF
:103E10005FFC3649606801F083F8354B1870CAE7DB
:103E2000344C214601A800F053FC3049606801F091
:103E300077F82F4B1870BEE72F4C214601A800F0F1
:103E400047FC2A49606801F06BF8294B1870B2E70B
:103E50002A4C214601A800F03BFC2449606801F08F
:103E60005FF8234B1870A6E71E4C214601A800F00E
:103E70002FFC1E49606801F053F81D4B18709AE73B
:103E8000039B40F21122934213D040F2222293422C
:103E900016D040F2333293428DD1194901A800F077
:103EA000E7FF184940F2333001F03AF8164B18702A
:103EB00081E71449104601F033F8134B18707AE784
:103EC0000F4901A800F0A7FF0E4940F2222001F09F
:103ED00027F80D4B18706EE7006400400068004042
:103EE000FC4D0020444D0020F04C00201400002028
:103EF000BD490020504E0020A44E0020F84E002066
:103F0000D04C002034000020BE49002000B583B012
:103F1000054A242300931346243A04490448FFF732
:103F200073FD03B05DF804FB884B0020F4580020BB
:103F300054590020002800F0C0800346002900F0FA
:103F4000BC80F0B45D485E4C2568D4F804C0A76816
:103F5000E6680560C0F804C08760C6602569056131
:103F6000A48A84825748584CD4F800C06768A66871
:103F7000E568C0F800C047608660C560247C0474B2
:103F80001F78587847EA0027C7F30A070F805E7842
:103F90009878F60846EA4016C6F30A064E809878E6
:103FA000DC78800940EA84001C7940EA8420C0F370
:103FB0000A0088801C795D79640844EAC514C4F35A
:103FC0000A04CC805D79C5F30115CD725D79AD0928
:103FD0008D729D7993F807C045EA0C258D811D7A75
:103FE00093F809C045EA0C25CD819D7A93F80BC062
:103FF00045EA0C250D821D7B8D745D7BCD7493F895
:104000000EC0DD7B4CEA052CA1F814C01D7C5B7C46
:1040100045EA03231BB2A7F580670F80A6F58066EB
:104020004E80A0F580608880A4F58064CC80A3F5E4
:1040300080630B810CF0010353708B8AC3F3400340
:10404000D3708B8AC3F3800393708B8AC3F3C0034E
:1040500013718B8AC3F3001313728B8AC3F340135B
:10406000D3718B8AC3F3801353718B8AC3F3C0134C
:1040700093718B8AC3F3002353728B8AC3F340235B
:1040800093728B8AC3F38023D3728B8AC3F3C023CA
:1040900013738B8AC3F3003353738B8AC3F3403398
:1040A00093738B8AC3F38033D3738B8ADB0B1374C4
:1040B000064B01221A70F0BC70477047D84B0020A5
:1040C000C04B0020AC4B0020F04B0020B849002032
:1040D00000B583B0274B1B681A6812F0200F09D077
:1040E000002200921A6800925B680093009B03B064
:1040F0005DF804FB1A6812F0100FF8D0002201924C
:104100001A6801925B680193019B1B4B1A68536804
:10411000C3F124039BB219490B802421516011681B
:1041200011F4002F11D1116841F400211160124ADD
:1041300011680A6842F001020A60122BD7D1104AB6
:1041400010491148FFF7F6FED1E7104A136823F42F
:1041500000231360084B1A68136843F001031360CF
:10416000064B1B88122BC2D1054A06490848FFF7A7
:10417000E1FEBCE754590020F4580020BA49002061
:10418000F04B0020C04B0020644B002040640240F4
:10419000884B002010B582B000240094164B1A6B97
:1041A00042F480021A631A6B02F480020092009AB1
:1041B00001941A6B42F400121A631B6B03F4001390
:1041C0000193019B224605210C20FCF777FF0C2070
:1041D000FCF7A8FF224605210E20FCF76FFF0E20FA
:1041E000FCF7A0FF224605213A20FCF767FF3A20A2
:1041F000FCF798FF02B010BD0038024008B51C4A19
:1042000000211C48FDF710FF1B4B18601B4A0021C2
:104210001B48FDF709FF1B4B18601B4A00211B4878
:10422000FDF702FF1A4B18601A4A00211A48FDF7E1
:10423000FBFE1A4B18601A4A00211A48FDF7F4FEDB
:10424000194B1860194A00211948FDF7EDFE194B6A
:104250001860194A00211948FDF7E6FE184B18604E
:10426000184A00211848FDF7DFFE184B186008BDFA
:10427000905B000875560008184C0020485B000849
:104280004D4F0008104C00206C5B000811510008D5
:104290000C4C0020245B00080D4E0008204C002030
:1042A000DC5A0008D94E00081C4C0020B85A0008FF
:1042B000F94D0008084C0020005B0008034E000880
:1042C000044C0020B45B000861530008144C00202B
:1042D00010B58AB0002407940894099401941E4BE9
:1042E0001A6B42F001021A631A6B02F0010201928A
:1042F000019A02941A6B42F002021A631A6B02F0DE
:1043000002020292029A03941A6B42F008021A63A4
:104310001A6B02F008020392039A04941A6B42F09B
:1043200080021A631B6B03F080030493049B4FF419
:10433000805305934FF44413069305A90748FDF7EE
:1043400017F9224605212820FCF7B8FE2820FCF7A3
:10435000E9FE0AB010BD00BF00380240000C024068
:1043600010B44C1E31B110F8013B5340034AD25CEB
:104370002146F6E710465DF8044B7047445C0008A0
:1043800070B138B5054602290CD94C1EFF222146D2
:10439000FFF7E6FF2B5D834214BF0020012038BDEC
:1043A000002070470020FAE7034678B110B44C1E95
:1043B00081B1184610F8013B5340DBB2074931F890
:1043C000133083EA122221460346F0E74FF6FF72CC
:1043D0001046704710465DF8044B7047445D000876
:1043E000D8B170B50446022919D90D468E1E0D4B61
:1043F0001A883146FFF7D8FFC2B2A35D9A4201D0B6
:10440000002070BDC0F30F20611911F8013C9842E3
:1044100001D00020F5E70120F3E7002070470020DD
:10442000EFE700BF0C00002003460160501E084467
:1044300058609A600020D8601961596170472DE971
:10444000F843EFF3108872B681B3856875B343699A
:104450004668B34201D9036843610F46044695425A
:10446000A8BF15464069361A0136B54210DC2A4607
:1044700001F072FA63692B446361A3685B1BA3605C
:10448000E3682B44E36088F310882846BDE8F8838E
:10449000A5EB0609324601F05FFA4A46B9192068D1
:1044A00001F05AFA22684A446261E6E788F310880C
:1044B0004FF0FF35E9E70346EFF3108172B600696C
:1044C0005A68904201D91A681A611A6912F8010BE8
:1044D0001A619A6801329A60DA68013ADA6081F307
:1044E00010887047C068704730B597B004460129FE
:1044F00024D04BB2A3B102292CD054252A46002146
:1045000001A801F037FA194B0493194B05934FF0AA
:104510007E5309932A4601A9204601F01DFA0AE0BC
:1045200054252A46134901A801F016FA2A4601A982
:10453000204601F011FA204617B030BD54252A4616
:104540000D4901A801F008FA2A4601A9204601F008
:1045500003FAF0E754252A46084901A801F0FCF9BE
:104560002A4601A9204601F0F7F9E4E7000034C328
:10457000000034439C590008F0590008445A0008D0
:1045800010B50C460E4B93F90030934207D0002B28
:104590000CDB93420ADA0133094A137009E0DFEDBC
:1045A000090AB7EE000A00F055F902E0044B0022B8
:1045B0001A70B7EE000A204600F0D0F810BD00BF18
:1045C000BC4900200000964370EE607AF4EEC10A08
:1045D000F1EE10FA04D8B4EEC10AF1EE10FA1DDAC9
:1045E000B4EEC10AF1EE10FA09D531EE671AB4EE55
:1045F000C10AF1EE10FAF8DCB0EE410A7047F4EEB1
:10460000C10AF1EE10FA0CDD31EE271AF4EEC10A00
:10461000F1EE10FAF8D4B0EE410A7047B0EE410A5C
:104620007047B0EE410A704710B52DED028B04467D
:1046300090ED0A8AD0ED097A78EE677AC0ED097AB2
:104640009FED1E7AF4EEC77AF1EE10FA1BDD9FEDB6
:104650001C7A77EEC77AC0ED097A94ED087AD4ED2A
:10466000096AC6EE877AC4ED097A6378012B18D1FE
:1046700094ED0E1A31EE271A84ED0E1A84ED098A94
:10468000BDEC028B10BD9FED0F7AF4EEC77AF1EE10
:1046900010FAE2D59FED0A7A77EE877AC0ED097AB3
:1046A000DBE794ED0E1A37EE811ADFED070A9FED76
:1046B000070AFFF789FF84ED0E0ADFE700001643C3
:1046C0000000B443000016C3000034C300003443AC
:1046D00070B52DED028B05460C468B7808EE103A2E
:1046E000B8EE488AF6EE007A38EE678A38EE088A25
:1046F0000278437843EA02231BB2174E86FB03126B
:104700001A44DB17C3EB22331BB207EE903AF8EEE4
:10471000E77A67EE887AC4ED0A7A2046FFF784FFCD
:10472000AA78EB7843EA02231BB2D4ED086A86FB31
:1047300003261E44DB17C3EB26331BB207EE903A69
:10474000F8EEE77A87EEA67A27EE088A84ED0F8ADC
:10475000BDEC028B70BD00BF21000480D0ED035A78
:10476000C0ED025AD0ED007A90ED017A77EEC77A6B
:10477000C0ED037A90ED046A27EE866A90ED057A23
:1047800027EE877A27EE007AD0ED086A37EE267A90
:10479000D0ED066A77EEE57A66EEA77A27EE800A14
:1047A000D0ED0A6AF1EE667AB4EEE76AF1EE10FA3D
:1047B00006D4B4EEE66AF1EE10FA3EDDF0EE667A6B
:1047C000C0ED077A90ED0B6AF1EE466AB4EEE67A38
:1047D000F1EE10FA06D4B4EEC67AF1EE10FA2FDD3F
:1047E000F0EE466AC0ED086A90ED0C6AB1EE467ACA
:1047F000B4EEC70AF1EE10FA06D4B4EEC60AF1EE32
:1048000010FA20DDB0EE467A80ED097A77EEA67ACE
:1048100077EE877AD0ED0E6AB1EE667AF4EEC77A5B
:10482000F1EE10FA06D4F4EEE67AF1EE10FA0DDDB0
:10483000B0EE667A80ED0D7A7047F0EE467ABFE70B
:10484000F0EE476ACEE7B0EE407ADDE7B0EE677A89
:10485000F0E70000D0ED035AC0ED025AD0ED007A27
:1048600090ED017A77EEC77AC0ED037AF4EEE07A44
:10487000F1EE10FA6ADD9FED427A77EEC77AC0ED6D
:10488000037A90ED046AD0ED036A26EE266A90ED75
:10489000057A26EE877A27EE007AD0ED087A37EE91
:1048A000277AD0ED067A76EEE56A67EEA67A27EEED
:1048B000800AD0ED0A6AF1EE667AB4EEE76AF1EEAC
:1048C00010FA06D4B4EEE66AF1EE10FA4CDDF0EE22
:1048D000667AC0ED077A90ED0B6AF1EE466AB4EEA7
:1048E000E67AF1EE10FA06D4B4EEC67AF1EE10FADA
:1048F0003DDDF0EE466AC0ED086A90ED0C6AB1EE5F
:10490000467AB4EEC70AF1EE10FA06D4B4EEC60A3F
:10491000F1EE10FA2EDDB0EE467A80ED097A77EEF0
:10492000A67A77EE877AD0ED0E6AB1EE667AF4EE6B
:10493000C77AF1EE10FA06D4F4EEE67AF1EE10FA48
:104940001BDDB0EE667A80ED0D7A7047F1EE600AFD
:10495000F4EEE07AF1EE10FA93D59FED097A77EE56
:10496000877AC0ED037A8CE7F0EE467AB1E7F0EE95
:10497000476AC0E7B0EE407ACFE7B0EE677AE2E789
:104980000000B4431F4A0023136013711E4A1360D2
:1049900013711E4A138093701D4A13701D4A1360D1
:1049A00053609360D3601361536193611A4A13603B
:1049B0001A4A13601A4A138093701A4A13801A4ACB
:1049C000136053609360D36013615361C2F8173072
:1049D000164A136053609360D360154A13605360A6
:1049E0009360D360134A1370134A1380134A1370F1
:1049F000134A13609380134A1370134A1360536071
:104A000093607047604C0020C04C0020544C002044
:104A1000984C0020744C00205C4C0020904C0020EE
:104A2000944C0020504C00209C4C0020284C00202E
:104A3000404C0020584C0020BC4C0020244C00204E
:104A4000384C0020B84C0020684C002030B45E4B3D
:104A500002681A6002791A71B0F8053040F201223A
:104A600093427BD01DD940F20522934200F09880FA
:104A700035D940F20722934200F09B80C0F0958028
:104A8000B3F5027F00F09C8040F20132934215D1D1
:104A90004E4B50F8074F416882681C6059609A601D
:104AA0000CE040F20112934247D0B3F5817F07D268
:104AB000022B2DD0032B2FD0012B22D030BC7047DE
:104AC00040F20312934242D0B3F5817F3AD9B3F555
:104AD000827FF3D1B0F807203D4B1A80EEE740F219
:104AE000032293424DD0B3F5017F55D2394B50F894
:104AF000075F44688168C2681D605C609960DA6025
:104B0000DCE7354B30F8071F827819809A70D5E7BB
:104B1000C279324B1A70D1E7314B50F8074F4168D8
:104B20008268C5681C6059609A60DD6004694169EB
:104B300082691C6159619A61C0E7D0F80720294B4E
:104B40001A60BBE7D0F80720274B1A60B6E7274B5F
:104B500030F8071F827819809A70AFE7244B50F81D
:104B6000071F42688568C46819605A609D60DC60F0
:104B70000169426919615A61018B827E19839A76B3
:104B80009CE71C4B50F8075F44688168C2681D6051
:104B90005C609960DA6091E7C279174B1A708DE713
:104BA000B0F80720154B1A8088E7C279144B1A70A9
:104BB00084E7144B50F8072F1A6082889A807DE7AB
:104BC000C279114B1A7079E7604C0020684C0020C4
:104BD000504C0020284C0020544C0020984C0020C1
:104BE000744C00205C4C0020904C0020944C002021
:104BF0009C4C0020404C0020584C0020BC4C002015
:104C0000244C0020384C0020B84C002010B40A4B33
:104C10005C6804601B8907EE903AF8EE677AC1ED94
:104C2000007A064B1B8B07EE903AF8EE677AC2EDDE
:104C3000007A5DF8044B7047284C00209C4C002003
:104C4000014B1878704700BF9C4C0020034B1B8918
:104C50000380034B5B890B80704700BF9C4C002096
:104C6000284C002072B6FEE700B595B03022002136
:104C700008A800F07FFE0023039304930593069396
:104C800007930193234A116C41F080511164126C17
:104C900002F080520192019A02931F4B1A6842F46B
:104CA00040421A601B6803F440430293029B0123B5
:104CB00008934FF48033099302230E934FF480023C
:104CC0000F9206221092B42211921293082313938A
:104CD00008A8FCF799FDB0B9FCF756FDA8B90F2359
:104CE000039302230493002305934FF4A0530693E8
:104CF0004FF480530793052103A8FCF7D3FF30B985
:104D000015B05DF804FBFFF7ADFFFFF7ABFFFFF752
:104D1000A9FF00BF003802400070004008B5FBF753
:104D2000CFFDFFF7A1FFFFF7D3FAFFF733FAFEF746
:104D300061FFFEF77FFF00F0B3FC00F0CDFC00F058
:104D400061FBFDF743F9FFF759FAFDF751F9FEE76B
:104D500000B583B0002200920D4B596C41F48041A4
:104D60005964596C01F48041009100990192196CC9
:104D700041F0805119641B6C03F080530193019B37
:104D80000F216FF00100FCF799F903B05DF804FB07
:104D900000380240FEE7FEE7FEE7FEE7FEE7704769
:104DA00008B5FBF7A7FDFEF749FB012800D108BDB8
:104DB000FBF778FCFBE7000008B50248FCF743F876
:104DC00008BD00BF3C4B002008B54FF48050FCF7F5
:104DD000CDFC08BD08B50248FCF735F808BD00BF9A
:104DE000144B0020034AD2F8883043F47003C2F811
:104DF0008830704700ED00E008B53220FDF772F909
:104E0000FBE708B56420FDF76DF9FBE708B5022064
:104E1000FDF768F9FBE70278437843EA02231BB207
:104E200007EE903AF8EEE77AC1ED007A8278C3781F
:104E300043EA02231BB207EE903AF8EEE77AC1ED9F
:104E4000017A0279437943EA02231BB207EE903AD2
:104E5000F8EEE77AC1ED027A8279C37943EA022358
:104E60001BB207EE903AF8EEE77AC1ED037A70478D
:104E70000278437843EA02231BB207EE903AF8EE39
:104E8000E77AC1ED047A8278C37843EA02231BB241
:104E900007EE903AF8EEE77AC1ED057A7047000028
:104EA0000346034A92E8030098611977704700BFF0
:104EB000F44D0020074B197E5A7E42EA01220280FF
:104EC000997EDA7E42EA012242801B7F1B028380A8
:104ED000704700BFD04C002000B589B00D48FFF7E7
:104EE000DFFF0D4C2046FFF7E5FF0C4E07946C46A4
:104EF00006F10C050FCD0FC495E8070084E8070004
:104F000096E80E0040F23320FEF74AFD0220FDF73E
:104F1000E9F8E3E7D04C0020C84C0020144B0020F7
:104F20000023072B0CDC51F82320824202D00133EE
:104F30005BB2F6E701229A4003490B7813430B70EA
:104F4000014B1878704700BFBF49002008B503E047
:104F50004FF47A70FDF7C6F80A4B1B78FF2BF7D198
:104F6000094B1B78062BF3D1084B93F90030012B2A
:104F7000EED10023034A1370034A1370034A1370DF
:104F8000E6E700BFBD490020BE490020B849002027
:104F900070B598B004460D4602216846FFF7A4FAA2
:104FA000542632466946284600F0D6FC40F20523D6
:104FB0006B60144B2B62012217A91348FEF759FDB1
:104FC0009DF85C209DF85D3043EA02231BB207EE9A
:104FD000903AF8EEE77AC5ED027A02216846FFF7CB
:104FE00083FA32466946204600F0B6FC40F20623BA
:104FF0006360064B2362064BE360064B236118B0E7
:1050000070BD00BFABAAAA3F00000E080000204000
:105010000000A0C10000F04130B4002404614461EC
:105020008461194DD5ED056A95ED087AC6EE877A4B
:10503000C0ED0E7AC0ED0A7AC0ED0B7AC0ED0C7AA5
:105040000C614C618C611148D0ED056A90ED087AD5
:10505000C6EE877AC1ED0E7AC1ED0A7AC1ED0B7A00
:10506000C1ED0C7A146154619461A96991639162F4
:10507000D16211631C615C619C6182699A639A626E
:10508000DA621A6330BC7047F04C0020444D0020B7
:1050900070B5064B1E6906609E6B4660446B0C60E3
:1050A000DB6B4B60FFF76CFA70BD00BFA84D0020B2
:1050B00070B5064B1E6906609E6B4660446B0C60C3
:1050C000DB6B4B60FFF75CFA70BD00BFA84D0020A2
:1050D0000C4B93F84F30012B03D000230380438007
:1050E0007047094BD3ED0D7AFDEEE77A17EE903A53
:1050F0000380064BD3ED0D7AFDEEE77A17EE903A7A
:1051000043807047A84D0020744A0020FC490020CD
:1051100000B589B014E01D4E1D4B07936C4606F197
:105120000C050FCD0FC495E8070084E8070096E84A
:105130000E0040F2FF20FEF733FC0220FCF7D2FF06
:10514000022214491448FFF7B3FF032213491448FD
:10515000FFF79EFF1348FFF7BBFF134B93F84F3049
:10516000002BD8D0094E0F4B07936C4606F10C0567
:105170000FCD0FC495E8070084E8070096E80E00FD
:1051800040F2FF20FEF70CFCD7E700BF3C4B0020AD
:105190009C490020744A0020384A0020FC49002025
:1051A000C0490020984D0020A84D002010B582B0C5
:1051B000044601461B48FCF7D1FA012819D11A4BC5
:1051C0009A6B1A4B1A6000225A60174BD3ED027A81
:1051D000FCEEE77A17EE903A9BB21A0A8DF804209B
:1051E0008DF80530012201A91148FEF7C3FC02B079
:1051F00010BD21460B48FCF7B1FA0028E5D10A4A58
:10520000D2ED0E7A094BC3ED017A93ED007A77EE79
:10521000877AB6EE007A67EE877AC2ED027A0022CC
:105220001A60D2E7000C0240444D0020A04D00203F
:1052300000000E0810B50446D4ED0E7AF5EE407A63
:10524000F1EE10FA03D10A20FCF74CFFF4E7C4EDAD
:10525000047A10BD10B50446021D00F1340130304F
:10526000FFF7D4FC04F12C0104F10800FFF7EEFC79
:1052700010BD0000294BB3F9002007EE102A284A80
:1052800092ED056AB8EEC77A27EE067A9FED255AA9
:10529000C7EE056AB3F90C2007EE902AF8EEE77A1C
:1052A00067EE867A9FED206A87EE867A36EE877AF9
:1052B000D0ED047A77EE877AC0ED047AB3F9022054
:1052C00006EE902A194AD2ED055AF8EEE66A66EE25
:1052D000A56AC6EE857AB3F90E3007EE103AB8EE3D
:1052E000C77A27EE257AC7EE066A77EEA67A90EDA2
:1052F000067A77EE877A92ED037AF4EEC77AF1EECA
:1053000010FA08D492ED047AF4EEC77AF1EE10FAAE
:1053100001DCB0EE677A80ED067A7047C04B002062
:10532000444D00200000254400FEFF46F04C0020C4
:10533000044B1A6882635A6802649A68C263DB6825
:1053400043647047D04C0020044BD3ED0E7A93EDAC
:10535000027A77EEC77AC0ED127A7047444D00208A
:1053600008B50B48FFF766FFFFF76AFC084C207092
:105370002046FFF76FFF2046FFF77CFF2046FFF730
:10538000D7FF2046FFF7E0FF0220FCF7ABFEEBE77C
:10539000A84D002070B596B010491148FFF7F8FDF0
:1053A000104B114A11491248FFF736FE002411E054
:1053B0005426104D06FB045500216846FFF794F86B
:1053C00032466946284600F0C7FA04F201236B60B2
:1053D000013464B2032CEBDD16B070BD444D0020E7
:1053E000F04C0020744A0020FC490020384A00207C
:1053F000C0490020FC4D002008B5FEF787FDFEF7F0
:10540000A1FA08BD08B5FFF7F7FFFFF7C3FF08BD16
:1054100010B520E0A52806D0574B002283F887203E
:1054200083F8882017E0544B012283F88620B3F8D4
:105430008720511CA3F88710134498710BE04E4B42
:105440009880B3F88720511CA3F887101A449071F4
:10545000022283F886204948FFF744F8002800F02C
:105460008A804648FFF727F8434B93F88630052B90
:1054700078D801A252F823F0155400083F540008D0
:1054800091540008CB540008E35400081F5500084D
:10549000394A938843EA00239BB29380B2F887107D
:1054A0004C1CA2F887400A449071762B04D8324BEA
:1054B000032283F88620CEE72F4B002283F8862034
:1054C00083F8872083F88820C5E72B4BB3F8872023
:1054D000511CA3F887101A449071042283F8862087
:1054E000B9E7254BB3F887104A1C92B2A3F887207E
:1054F0000B449871052AAED105212148FEF740FFE3
:1055000020B11D4B052283F88620A4E71A4B002208
:1055100083F8862083F8872083F888209BE7164B42
:10552000B3F88720998809318A4204D2541CA3F821
:1055300087401A449071104BB3F8873099428AD84B
:105540000D48002380F8863080F8873080F8883056
:105550000630FEF745FF00283FF47DAF0848FFF70F
:1055600075FA78E7044B002283F8862083F88720B9
:1055700083F888206FE710BD645700204C5300204B
:105580006A57002000B583B0064A4FF400730093B9
:105590001346A2F5007204490448FEF735FA03B039
:1055A0005DF804FB4C510020F057002050580020BB
:1055B0002B4B1B6813F0100F50D000B583B00023A5
:1055C0000193284B1A681168019152680192019A5F
:1055D0009B6B1B681A6812F4002F20D11A6822F006
:1055E00001021A601F4B9A6B11684A68C2F500727B
:1055F0004FF400704860996B0868016841F400211D
:1056000001609B6B19680B6843F001030B6092B259
:1056100015491648FEF713FF03B05DF804FB1A683E
:1056200022F001021A600F4B9A6B11684A68C2F5AA
:1056300000724FF400704860996B0868016821F4AB
:10564000002101609B6B19680B6843F001030B603C
:1056500092B207490548FEF7F2FEDDE7704700BF4A
:1056600000480040505800204C4F00204C53002070
:105670004C51002008B5FFF785F94FF480620649C8
:105680000648FEF7D1FEFFF77DFFFFF7C1FE0A20B7
:10569000FCF728FDF9E700BF645300204C530020BD
:1056A00008B50A480A4B03600A4B43600023836035
:1056B000C36003610C2242618361C361FCF756FC45
:1056C00000B908BDFFF7CEFAFBE700BF5459002030
:1056D00000100140A086010008B50A480A4B03608B
:1056E0004FF4E133436000238360C36003610C2205
:1056F00042618361C361FCF739FC00B908BDFFF763
:10570000B1FAFBE7505800200048004030B58BB09C
:1057100004460023059306930793089309930368AF
:105720005B4A934204D05B4A934249D00BB030BDF0
:1057300000250195584B5A6C42F010025A645A6C7D
:1057400002F010020192019A02951A6B42F00202D5
:105750001A631B6B03F002030293029BC0230593A1
:1057600002230693032308930723099305A94B48B3
:10577000FBF7FEFE4A484B4B03604FF0006343606B
:105780008560C5604FF480630361456185614FF4B6
:105790008073C3614FF4403303624562FBF750FDF1
:1057A00058B93F4BA3639C63002205212520FBF7DA
:1057B00085FC2520FBF7B6FCB8E7FFF753FAF0E7C6
:1057C00000250395344B1A6C42F480221A641A6C3B
:1057D00002F480220392039A04951A6B42F00802A5
:1057E0001A631B6B03F008030493049B4FF440738C
:1057F000059302230693032308930723099305A91E
:105800002948FBF7B5FE2948294B03604FF0006398
:1058100043608560C5604FF48063036145618561C5
:105820004FF48073C3614FF4003303624562FBF7AA
:1058300007FD38BB1D4BA3639C631E481E4B0360D2
:105840004FF000634360402383600023C3604FF444
:1058500080620261436183614FF48072C2614FF4E0
:10586000003202624362FBF7EBFC70B9114B6363D9
:105870009C63002205212720FBF720FC2720FBF753
:1058800051FC53E7FFF7EEF9D4E7FFF7EBF9EDE74B
:10589000001001400048004000380240000402406F
:1058A000F458002040640240000C0240F0570020F1
:1058B000286002409458002058600240DFF834D03D
:1058C0000D480E490E4A002302E0D458C450043358
:1058D000C4188C42F9D30B4A0B4C002301E013602F
:1058E0000432A242FBD3FFF77DFA00F011F8FFF774
:1058F00015FA70470000032000000020540000202B
:105900006C5F00085400002098590020FEE700005A
:1059100070B50D4D0D4C641BA4100026A64209D194
:105920000B4D0C4C00F02EF8641BA4100026A64270
:1059300005D170BD55F8043B98470136EEE755F8A0
:10594000043B98470136F2E7645F0008645F000893
:10595000645F0008685F00080A44914200F1FF3369
:1059600000D1704710B511F8014B03F8014F914277
:10597000F9D110BD02440346934200D1704703F8A9
:10598000011BF9E7F8B500BFF8BC08BC9E4670479C
:0C599000F8B500BFF8BC08BC9E4670478C
:10599C0000000000000000000000803F000034C345
:1059AC00000034430000164600FE9F460000000035
:1059BC002CA0994100000000000000000000000035
:1059CC0000000000000000000000000000000000CB
:1059DC0000000000000000000000000000000000BB
:1059EC0000000000010000000000000000000000AA
:1059FC00000034C30000344300A08C4600401C4619
:105A0C000000000000001042000000000000000038
:105A1C00000000000000000000000000000000007A
:105A2C00000000000000000000000000000000006A
:105A3C000000000000000000020000000000000058
:105A4C0000000000000034C3000034430000964303
:105A5C000060EA46000000000000803F00000000EB
:105A6C00000000000000000000000000000000002A
:105A7C00000000000000000000000000000000001A
:105A8C0000000000000000000000000000061016DE
:105A9C000006101649444C4500000000546D72512C
:105AAC0000000000546D722053766300F45B000814
:105ABC0000000000000000000000000000000000DA
:105ACC000002000030000000000000000000000098
