:020000040800F2
:1000000000000320756B0008E5540008E754000861
:10001000E9540008EB540008ED540008000000000B
:10002000000000000000000000000000410F000878
:10003000EF54000800000000E10F0008F154000830
:10004000C56B0008C56B0008C56B0008C56B0008D0
:10005000C56B0008C56B0008C56B0008C56B0008C0
:10006000C56B0008C56B0008C56B0008C56B0008B0
:10007000C56B0008C56B0008C56B0008C56B0008A0
:10008000C56B0008C56B0008C56B0008C56B000890
:1000900009550008C56B0008C56B0008C56B000852
:1000A000C56B0008C56B0008C56B0008C56B000870
:1000B000C56B0008C56B0008C56B0008C56B000860
:1000C000C56B0008C56B0008C56B0008C56B000850
:1000D000C56B00087D470008C56B000885680008EF
:1000E00019550008C56B0008C56B0008C56B0008F2
:1000F000C56B0008C56B0008C56B0008C56B000820
:10010000C56B0008C56B0008C56B0008C56B00080F
:10011000C56B0008C56B0008C56B0008C56B0008FF
:10012000C56B0008C56B0008C56B0008C56B0008EF
:10013000C56B0008C56B0008C56B0008C56B0008DF
:1001400025550008C56B0008C56B0008C56B000885
:10015000C56B0008C56B0008C56B0008C56B0008BF
:10016000C56B0008C56B0008C56B0008C56B0008AF
:10017000C56B0008C56B0008C56B000800000000D7
:10018000C56B0008C56B0008C56B0008C56B00088F
:10019000C56B0008C56B0008C56B0008C56B00087F
:0C01A0000000000000000000C56B00081B
:1001B00010B5054C237833B9044B13B10448AFF3A1
:1001C00000800123237010BD5400002000000000B7
:1001D000B880000808B5034B1BB103490348AFF3CF
:1001E000008008BD0000000058000020B880000812
:1001F00081F0004102E000BF83F0004330B54FEAD8
:1002000041044FEA430594EA050F08BF90EA020F44
:100210001FBF54EA000C55EA020C7FEA645C7FEAD7
:10022000655C00F0E2804FEA5454D4EB5555B8BFFA
:100230006D420CDD2C4480EA020281EA030382EA6B
:10024000000083EA010180EA020281EA0303362DFD
:1002500088BF30BD11F0004F4FEA01314FF4801CD0
:100260004CEA113102D0404261EB410113F0004FE2
:100270004FEA03334CEA133302D0524263EB430399
:1002800094EA050F00F0A780A4F10104D5F1200E37
:100290000DDB02FA0EFC22FA05F2801841F1000192
:1002A00003FA0EF2801843FA05F359410EE0A5F166
:1002B00020050EF1200E012A03FA0EFC28BF4CF097
:1002C000020C43FA05F3C01851EBE37101F000454D
:1002D00007D54FF0000EDCF1000C7EEB00006EEB5A
:1002E0000101B1F5801F1BD3B1F5001F0CD34908E4
:1002F0005FEA30004FEA3C0C04F101044FEA44523B
:1003000012F5800F80F09A80BCF1004F08BF5FEAC1
:10031000500C50F1000041EB045141EA050130BDA1
:100320005FEA4C0C404141EB0101013C28BFB1F5B3
:10033000801FE9D291F0000F04BF01460020B1FAFE
:1003400081F308BF2033A3F10B03B3F120020CDAD1
:100350000C3208DD02F1140CC2F10C0201FA0CF0AF
:1003600021FA02F10CE002F11402D8BFC2F1200C14
:1003700001FA02F120FA0CFCDCBF41EA0C019040CA
:10038000E41AA2BF01EB0451294330BD6FEA040413
:100390001F3C1CDA0C340EDC04F11404C4F12002FE
:1003A00020FA04F001FA02F340EA030021FA04F310
:1003B00045EA030130BDC4F10C04C4F1200220FA67
:1003C00002F001FA04F340EA0300294630BD21FAA5
:1003D00004F0294630BD94F0000F83F4801306BF6B
:1003E00081F480110134013D4EE77FEA645C18BF5F
:1003F0007FEA655C29D094EA050F08BF90EA020FF6
:1004000005D054EA000C04BF1946104630BD91EAED
:10041000030F1EBF0021002030BD5FEA545C05D1F0
:100420004000494128BF41F0004130BD14F580042F
:100430003CBF01F5801130BD01F0004545F0FE41A3
:1004400041F470014FF0000030BD7FEA645C1ABFD8
:10045000194610467FEA655C1CBF0B46024650EA0F
:10046000013406BF52EA033591EA030F41F400213B
:1004700030BD00BF90F0000F04BF0021704730B5C1
:100480004FF4806404F132044FF000054FF0000196
:1004900050E700BF90F0000F04BF0021704730B557
:1004A0004FF4806404F1320410F0004548BF40422C
:1004B0004FF000013EE700BF42004FEAE2014FEA81
:1004C00031014FEA02701FBF12F07F4393F07F4F5C
:1004D00081F06051704732F07F4208BF704793F05F
:1004E0007F4F04BF41F40021704730B54FF4607472
:1004F00001F0004521F000411CE700BF50EA010275
:1005000008BF704730B54FF000050AE050EA01021D
:1005100008BF704730B511F0004502D5404261EB8D
:1005200041014FF4806404F132045FEA915C3FF4CE
:10053000D8AE4FF003025FEADC0C18BF03325FEA6B
:10054000DC0C18BF033202EBDC02C2F1200300FA1C
:1005500003FC20FA02F001FA03FE40EA0E0021FA41
:1005600002F11444BDE600BF70B54FF0FF0C4CF42F
:10057000E06C1CEA11541DBF1CEA135594EA0C0FE1
:1005800095EA0C0F00F0DEF82C4481EA030621EA1C
:100590004C5123EA4C5350EA013518BF52EA033557
:1005A00041F4801143F4801338D0A0FB02CE4FF009
:1005B0000005E1FB02E506F00042E0FB03E54FF039
:1005C0000006E1FB03569CF0000F18BF4EF0010E31
:1005D000A4F1FF04B6F5007F64F5407404D25FEA2D
:1005E0004E0E6D4146EB060642EAC62141EA5551E0
:1005F0004FEAC52040EA5E504FEACE2EB4F1FD0C22
:1006000088BFBCF5E06F1ED8BEF1004F08BF5FEA9F
:10061000500E50F1000041EB045170BD06F0004651
:1006200046EA010140EA020081EA0301B4EB5C04FE
:10063000C2BFD4EB0C0541EA045170BD41F48011F6
:100640004FF0000E013C00F3AB8014F1360FDEBF1B
:10065000002001F0004170BDC4F10004203C35DAF7
:100660000C341BDC04F11404C4F1200500FA05F37A
:1006700020FA04F001FA05F240EA020001F000421B
:1006800021F0004110EBD37021FA04F642EB060191
:100690005EEA430E08BF20EAD37070BDC4F10C04BB
:1006A000C4F1200500FA04F320FA05F001FA04F27F
:1006B00040EA020001F0004110EBD37041F100016B
:1006C0005EEA430E08BF20EAD37070BDC4F1200576
:1006D00000FA05F24EEA020E20FA04F301FA05F2DE
:1006E00043EA020321FA04F001F0004121FA04F286
:1006F00020EA020000EBD3705EEA430E08BF20EA56
:10070000D37070BD94F0000F0FD101F0004640008F
:1007100041EB010111F4801F08BF013CF7D041EA11
:10072000060195F0000F18BF704703F00046520015
:1007300043EB030313F4801F08BF013DF7D043EAE6
:100740000603704794EA0C0F0CEA135518BF95EA9C
:100750000C0F0CD050EA410618BF52EA4306D1D123
:1007600081EA030101F000414FF0000070BD50EA42
:10077000410606BF1046194652EA430619D094EACC
:100780000C0F02D150EA013613D195EA0C0F05D1B6
:1007900052EA03361CBF104619460AD181EA03010A
:1007A00001F0004141F0FE4141F470014FF00000C2
:1007B00070BD41F0FE4141F4780170BD70B54FF05D
:1007C000FF0C4CF4E06C1CEA11541DBF1CEA1355DD
:1007D00094EA0C0F95EA0C0F00F0A7F8A4EB0504BF
:1007E00081EA030E52EA03354FEA013100F08880B6
:1007F0004FEA03334FF0805545EA131343EA12637F
:100800004FEA022245EA111545EA10654FEA002633
:100810000EF000419D4208BF964244F1FD0404F5EC
:10082000407402D25B084FEA3202B61A65EB030548
:100830005B084FEA32024FF480104FF4002CB6EB05
:10084000020E75EB030E22BFB61A754640EA0C0085
:100850005B084FEA3202B6EB020E75EB030E22BFC5
:10086000B61A754640EA5C005B084FEA3202B6EB06
:10087000020E75EB030E22BFB61A754640EA9C00C5
:100880005B084FEA3202B6EB020E75EB030E22BF95
:10089000B61A754640EADC0055EA060E18D04FEA53
:1008A000051545EA16754FEA06164FEAC30343EAF3
:1008B00052734FEAC2025FEA1C1CC0D111F4801FC0
:1008C0000BD141EA00014FF000004FF0004CB6E7B9
:1008D00011F4801F04BF01430020B4F1FD0C88BF58
:1008E000BCF5E06F3FF6AFAEB5EB030C04BFB6EB63
:1008F000020C5FEA500C50F1000041EB045170BD56
:100900000EF0004E4EEA113114EB5C04C2BFD4EB82
:100910000C0541EA045170BD41F480114FF0000E06
:10092000013C90E645EA060E8DE60CEA135594EA82
:100930000C0F08BF95EA0C0F3FF43BAF94EA0C0F85
:100940000AD150EA01347FF434AF95EA0C0F7FF4FA
:1009500025AF104619462CE795EA0C0F06D152EA4E
:1009600003353FF4FDAE1046194622E750EA410632
:1009700018BF52EA43067FF4C5AE50EA41047FF443
:100980000DAF52EA43057FF4EBAE12E74FF0FF3CA8
:1009900006E000BF4FF0010C02E000BF4FF0010C79
:1009A0004DF804CD4FEA410C7FEA6C5C4FEA430CF2
:1009B00018BF7FEA6C5C1BD001B050EA410C0CBF41
:1009C00052EA430C91EA030F02BF90EA020F0020A3
:1009D000704710F1000F91EA030F58BF994208BF0A
:1009E00090422CBFD8176FEAE37040F001007047C7
:1009F0004FEA410C7FEA6C5C02D150EA013C07D11E
:100A00004FEA430C7FEA6C5CD6D152EA033CD3D068
:100A10005DF8040B704700BF8446104662468C4662
:100A20001946634600E000BF01B5FFF7B7FF002895
:100A300048BF10F1000F01BD4DF808EDFFF7F4FFBE
:100A40000CBF012000205DF808FB00BF4DF808ED49
:100A5000FFF7EAFF34BF012000205DF808FB00BF6C
:100A60004DF808EDFFF7E0FF94BF012000205DF88E
:100A700008FB00BF4DF808EDFFF7CEFF94BF012043
:100A800000205DF808FB00BF4DF808EDFFF7C4FF3C
:100A900034BF012000205DF808FB00BF4FEA41028F
:100AA00012F5001215D211D56FF47873B3EB6252C0
:100AB00012D94FEAC12343F0004343EA505311F0E7
:100AC000004F23FA02F018BF404270474FF0000079
:100AD000704750EA013005D111F0004008BF6FF0B7
:100AE000004070474FF00000704700BF4FEA4102DE
:100AF000B2F1E04324BFB3F5001CDCF1FE5C0DD97C
:100B000001F0004C4FEAC0024CEA5070B2F1004FC5
:100B100040EB830008BF20F00100704711F0804FC8
:100B200021D113F13872BCBF01F00040704741F48D
:100B300080114FEA5252C2F11802C2F1200C10FA91
:100B40000CF320FA02F018BF40F001004FEAC12375
:100B50004FEAD32303FA0CFC40EA0C0023FA02F319
:100B60004FEA4303CCE77FEA625307D150EA0133EF
:100B70001EBF4FF0FE4040F44000704701F00040BF
:100B800040F0FE4040F40000704700BF53B94AB93E
:100B9000002908BF00281CBF4FF0FF314FF0FF3085
:100BA00000F074B9ADF1080C6DE904CE00F006F860
:100BB000DDF804E0DDE9022304B070472DE9F047D9
:100BC000089D04468E46002B4DD18A42944669D931
:100BD000B2FA82F252B101FA02F3C2F1200120FA14
:100BE00001F10CFA02FC41EA030E94404FEA1C4862
:100BF000210CBEFBF8F61FFA8CF708FB16E341EA5E
:100C0000034306FB07F199420AD91CEB030306F1E3
:100C1000FF3080F01F81994240F21C81023E634404
:100C20005B1AA4B2B3FBF8F008FB103344EA0344A8
:100C300000FB07F7A7420AD91CEB040400F1FF33BD
:100C400080F00A81A74240F207816444023840EAFA
:100C50000640E41B00261DB1D4400023C5E9004333
:100C60003146BDE8F0878B4209D9002D00F0EF80B6
:100C70000026C5E9000130463146BDE8F087B3FAE9
:100C800083F6002E4AD18B4202D3824200F2F980D1
:100C9000841A61EB030301209E46002DE0D0C5E9D4
:100CA000004EDDE702B9FFDEB2FA82F2002A40F020
:100CB0009280A1EB0C014FEA1C471FFA8CFE012623
:100CC000200CB1FBF7F307FB131140EA01410EFBC7
:100CD00003F0884208D91CEB010103F1FF3802D26E
:100CE000884200F2CB804346091AA4B2B1FBF7F068
:100CF00007FB101144EA01440EFB00FEA64508D98B
:100D00001CEB040400F1FF3102D2A64500F2BB80C7
:100D10000846A4EB0E0440EA03409CE7C6F1200716
:100D2000B34022FA07FC4CEA030C20FA07F401FA5C
:100D300006F31C43F9404FEA1C4900FA06F3B1FBE5
:100D4000F9F8200C1FFA8CFE09FB181140EA01414A
:100D500008FB0EF0884202FA06F20BD91CEB0101E7
:100D600008F1FF3A80F08880884240F28580A8F13F
:100D700002086144091AA4B2B1FBF9F009FB101191
:100D800044EA014100FB0EFE8E4508D91CEB01012F
:100D900000F1FF346CD28E456AD90238614440EAD2
:100DA0000840A0FB0294A1EB0E01A142C846A64652
:100DB00056D353D05DB1B3EB080261EB0E0101FADB
:100DC00007F722FA06F3F1401F43C5E90071002638
:100DD0003146BDE8F087C2F12003D8400CFA02FC8E
:100DE00021FA03F3914001434FEA1C471FFA8CFE9E
:100DF000B3FBF7F007FB10360B0C43EA064300FB8E
:100E00000EF69E4204FA02F408D91CEB030300F12B
:100E1000FF382FD29E422DD9023863449B1B89B2E2
:100E2000B3FBF7F607FB163341EA034106FB0EF36B
:100E30008B4208D91CEB010106F1FF3816D28B4218
:100E400014D9023E6144C91A46EA004638E72E46E4
:100E5000284605E70646E3E61846F8E64B45A9D2DC
:100E6000B9EB020864EB0C0E0138A3E74646EAE74B
:100E7000204694E74046D1E7D0467BE7023B6144F9
:100E800032E7304609E76444023842E7704700BF62
:100E900082B0002301930D4B1B68B3F1FF3F08D0D4
:100EA0004FF0500383F31188BFF36F8FBFF34F8F61
:100EB000FEE74FF0500383F31188BFF36F8FBFF34A
:100EC0004F8F019B002BFCD002B070470000002028
:100ED00008480068006880F308884FF0000080F33D
:100EE000148862B661B6BFF34F8FBFF36F8F00DF18
:100EF00000BF000008ED00E0DFF80C00016841F4DD
:100F0000700101607047000088ED00E04FF08073D1
:100F100040F8043C21F0010140F8081C054B40F862
:100F20000C3C40F8202C6FF0020340F8243C44387D
:100F3000704700BF910E0008000000000000000094
:100F4000074B19680868B0E8F04F80F30988BFF3D1
:100F50006F8F4FF0000080F311887047AFF300806F
:100F6000984300204FF0500383F31188BFF36F8F35
:100F7000BFF34F8F0B4A136801331360012B00D06E
:100F800070474FF0E023D3F8043D13F0FF0FF7D084
:100F90004FF0500383F31188BFF36F8FBFF34F8F70
:100FA000FEE700BF00000020094B1B6843B94FF06B
:100FB000500383F31188BFF36F8FBFF34F8FFEE7AA
:100FC000013B034A13600BB983F31188704700BFDC
:100FD00000000020000000000000000000000000F1
:100FE000EFF30980BFF36F8F154B1A681EF0100FD7
:100FF00008BF20ED108A20E9F04F10602DE90900AC
:101000004FF0500080F31188BFF34F8FBFF36F8F05
:1010100002F0FAFC4FF0000080F3118809BC196857
:101020000868B0E8F04F1EF0100F08BFB0EC108A4F
:1010300080F30988BFF36F8F704700BFAFF3008064
:101040009843002008B54FF0500383F31188BFF395
:101050006F8FBFF34F8F02F07DFB28B14FF0E0237D
:101060004FF08052C3F8042D002383F3118808BD8C
:101070004FF0E022002313619361054B1B68054983
:10108000A1FB03139B09013B5361072313617047C5
:1010900010000020D34D62104FF0E023D3F8002D54
:1010A0003D4B9A421CD04FF0E023D3F8002D3B4B30
:1010B0009A421ED030B583B0394B1A78D2B2019221
:1010C000FF221A701B78DBB28DF803309DF80330D5
:1010D00003F05003334A1370334B07221A601BE0AE
:1010E0004FF0500383F31188BFF36F8FBFF34F8F1F
:1010F000FEE74FF0500383F31188BFF36F8FBFF308
:101100004F8FFEE7284A1368013B13609DF80330B8
:101110005B00DBB28DF803309DF8033013F0800FD5
:10112000F0D1214B1B68032B08D04FF0500383F301
:101130001188BFF36F8FBFF34F8FFEE71B021A4A70
:10114000136003F4E0631360019BDBB2144A137075
:101150004FF0E024D4F8203D43F47003C4F8203D60
:10116000D4F8203D43F07043C4F8203DFFF780FFE2
:1011700000250E4B1D60FFF7BFFED4F8343F43F04F
:101180004043C4F8343FFFF7A3FE02F03DFCFFF7F5
:101190007FFE284603B030BD71C20F4170C20F41BF
:1011A00000E400E070000020740000200000002037
:1011B000EFF305830F2B0FD9114A9B5CDBB2114A69
:1011C00012789A4208D94FF0500383F31188BFF385
:1011D0006F8FBFF34F8FFEE74FF0E023D3F80C3D46
:1011E00003F4E063084A1268934208D94FF05003B1
:1011F00083F31188BFF36F8FBFF34F8FFEE7704704
:10120000F0E300E0700000207400002010B50446F8
:101210000E4B18784FF47A73B3FBF0F30C4A106856
:10122000B0FBF3F000F086FC68B90F2C01D9012067
:101230000AE0002221464FF0FF3000F035FC054B5C
:101240001C60002000E0012010BD00BF0400002051
:10125000100000200800002008B50B4B1A6842F46B
:1012600000721A601A6842F480621A601A6842F4C6
:1012700080721A60032000F005FC0F20FFF7C6FF04
:1012800004F00EF9002008BD003C0240034A11683A
:10129000034B1B780B441360704700BF780000209D
:1012A00004000020014B1868704700BF7800002040
:1012B00038B50446FFF7F6FF0546B4F1FF3F02D00C
:1012C000044B1B781C44FFF7EDFF401BA042FAD3F0
:1012D00038BD00BF04000020002800F0A18038B510
:1012E000044690F82030D3B12268136843F001031C
:1012F0001360FFF7D7FF054623685A6812F0010F05
:1013000010D1FFF7CFFF401B0A28F5D9636A43F4D9
:1013100000336362052384F82030012038BD02F0D9
:10132000EDFFE1E71A6822F002021A60FFF7BAFF48
:10133000054623685A6812F0020F0DD0FFF7B2FF7E
:10134000401B0A28F5D9636A43F40033636205231E
:1013500084F820300120E1E7227E012A3DD01A687E
:1013600022F080021A60637E012B3BD02268136852
:1013700023F040031360A37E012B39D02268136849
:1013800023F020031360E37E012B37D0226813681B
:1013900043F010031360237F012B35D022681368BC
:1013A00023F008031360637F012B33D02268136896
:1013B00023F004031360A368E26813432269134314
:1013C000626913436268013A21681343CB610020CC
:1013D0006062012384F82030A0E71A6842F080029E
:1013E0001A60C0E72268136843F040031360C2E745
:1013F0002268136843F020031360C4E7226813686F
:1014000023F010031360C6E72268136843F0080353
:101410001360C8E72268136843F004031360CAE747
:101420000120704790F82030013BDBB2012B05D939
:10143000436A43F4802343620120704730B5464B32
:10144000D3F8002242F00102C3F80022D3F80022B0
:1014500022F47C52C3F80022D3F80022486A42EA00
:101460000022C3F800224A6902F01F02012000FA9C
:1014700002F2D3F81C026FEA020C20EA0200C3F861
:101480001C02CB69C3B9344BD3F80C020CEA000040
:10149000C3F80C028C884869CD6844EA054448309A
:1014A00043F830408C68088840EA04404C6904F1F5
:1014B000480E03EBCE035860CB69012B1ED08B691D
:1014C000002B33D12448D0F804320CEA0303C0F8CF
:1014D00004320B698BBB2048D0F814320CEA0303AA
:1014E000C0F814320B6A012B2ED01B4AD2F80032FE
:1014F00023F00103C2F80032002030BD164BD3F8B0
:101500000C021043C3F80C028C8848690D6844EA49
:101510000544483043F8304088894C698D6840EA7A
:101520000540483403EBC4035860C8E70A48D0F8C4
:1015300004321343C0F80432CBE70748D0F8143222
:101540001343C0F81432CDE70349D1F81C321A43D3
:10155000C1F81C22C9E700BF0064004070B5044612
:1015600090F82050EDB2012D06D0436A43F40023D9
:1015700043620125284670BD022380F820300268AE
:10158000136823F001031360FFF78CFE06462368FF
:101590005B6813F0010F0CD0FFF784FE831B0A2B4E
:1015A000F5D9636A43F400336362052384F820307D
:1015B000E0E700256562DDE730B590F820C00468FB
:1015C000A4680CF1FF3C5FFA8CFCBCF1010F6BD8F6
:1015D00014F0E05F62D0C4F3016CBCF1020F05D9D6
:1015E000436A43F400034362012062E0012404FAE9
:1015F0000CF41C608B68002B3DD10D68CB6804682F
:1016000043EA45550CF118031B01E55003680C69CA
:101610000CF1180E03EB0E135C600B7D012B35D023
:10162000D17993791B0443EA0163517943EA012399
:1016300014790168234301EB0C11C1F88C31D17886
:1016400093781B0443EA0163517843EA012311783C
:1016500002680B4302EB0C12C2F8883102680CF1ED
:10166000180C4FEA0C1C52F80C3043F0010342F8FE
:101670000C3000201DE04C6843EAC403CC682343CF
:101680000CF11804240105682B51BFE7036803EB34
:101690000E13596841F480715960C1E7436A43F4FD
:1016A00000134362012004E0436A43F48023436251
:1016B000012030BD90F820C00CF1FF3C5FFA8CFC9B
:1016C000BCF1010F00F2958030B451B90468E468B0
:1016D00014F0030F10D1436A43F400134362012056
:1016E00077E00468246914F0030F05D1436A43F4DA
:1016F0000013436201206CE001F11B042401056822
:101700002C5904F004049460002C64D101F11B04F2
:10171000240105682C59640D1460046801F11B0C48
:101720004FEA0C1C54F80C4004F00204D460046826
:101730006444646804F00F041461046864446468D9
:10174000C4F307249461046864446468240C5461FD
:10175000026802EB0112D2F8B8211A70026802EB9B
:101760000112D2F8B821C2F307225A70026802EBC4
:101770000112D2F8B821C2F307429A70026802EB54
:101780000112D2F8B821120EDA70026802EB0112CF
:10179000D2F8BC211A71026802EB0112D2F8BC2106
:1017A000C2F307225A71026802EB0112D2F8BC217F
:1017B000C2F307429A71026802EB0112D2F8BC210F
:1017C000120EDA7179B90268D36843F02003D3604E
:1017D000002030BC704701F11B04240105682C591E
:1017E000E408546099E70268136943F02003136129
:1017F000EEE7436A43F4802343620120704790F888
:101800002030013BDBB2012B05D9436A43F480232E
:1018100043620120704702685369194351610020F7
:101820007047704770477047704770477047704700
:10183000704770477047704770472DE9F84F05466D
:1018400003685C69D3F804809F68D3F80CB0D3F8C0
:1018500010A0D3F8189014F001063BD017F0010641
:1018600016D001229A6017F0020F08D117F0040F6A
:101870000CD117F0080606D04FF4805608E0FFF7A9
:10188000D0FF002604E0FFF7CFFF01E04FF4006631
:1018900017F4807F0DD02B684FF480729A6017F494
:1018A000007F40F0868017F4806F00F0868046F459
:1018B000005617F4803F0DD02B684FF480329A60A9
:1018C00017F4003F40F0838017F4802F00F08380EE
:1018D00046F4004614F0080F07D01BF0100F04D098
:1018E00046F400762B681022DA6014F0040F02D060
:1018F0001BF0080F79D114F0020F04D02B68DB68BD
:1019000013F0030F78D114F0400F07D01AF0100F26
:1019100004D046F480662B6810221A6114F0200F60
:1019200002D01AF0080F6BD114F0100F04D02B68FE
:101930001B6913F0030F6AD114F4003F02D018F0B2
:10194000100F68D114F4803F02D018F0080F69D14D
:1019500014F4004F7AD018F0040F74D014F4807F80
:1019600004D019F0010F01D046F0010614F4007FF5
:1019700004D019F0020F01D046F0020614F4806F73
:1019800004D019F0040F01D046F0040614F4006FDF
:1019900059D019F0700956D0B9F1400F65D058D818
:1019A000B9F1200F5ED0B9F1300F42D146F02006D8
:1019B00044E02846FFF736FF7BE717F4006F02D0BC
:1019C00046F4804675E72846FFF72FFF71E7284663
:1019D000FFF729FF7EE717F4002F02D046F4803688
:1019E00078E72846FFF722FF74E72B680822DA60C1
:1019F0002846FFF71CFF7EE7284602F011FD82E72C
:101A00002B6808221A612846FFF713FF8CE7284647
:101A1000FFF70EFF90E72B6810225A602846FFF769
:101A200009FF8FE72B6808225A602846FFF703FF5B
:101A30008EE7B9F1100F01D146F008062A689369C4
:101A400023F0700393612B6804225A609EB9BDE8AD
:101A5000F88FB9F1500F0BD0B9F1600FEED146F409
:101A60008076EBE746F01006E8E746F04006E5E74B
:101A700046F08006E2E76B6A1E436E622846FFF777
:101A8000DBFEE4E7074AD36823F4E0631B041B0C86
:101A9000000200F4E060034343F0BF6343F400330B
:101AA000D360704700ED00E000B5194BDB68C3F36D
:101AB0000223C3F1070CBCF1040F28BF4FF0040C44
:101AC00003F1040EBEF1060F18D9033B4FF0FF3EA1
:101AD0000EFA0CFC21EA0C0199400EFA03F322EAFB
:101AE0000303194300280BDB0901C9B200F1604070
:101AF00000F5614080F800135DF804FB0023E5E782
:101B000000F00F000901C9B2024B1954F4E700BFFD
:101B100000ED00E014ED00E0002807DB00F01F02FC
:101B2000400901239340024A42F82030704700BF29
:101B300000E100E00138B0F1807F0BD24FF0E023EC
:101B40005861054AF02182F823100020986107228D
:101B50001A6170470120704700ED00E010B403687F
:101B6000D9B210390C4AA2FB014212090B4CA25CFB
:101B7000C2655F2909D923F47F7323F0030304337B
:101B80008365806D5DF8044B704723F47F7323F009
:101B900003038365F5E700BFABAAAAAA2C8100085E
:101BA000836A826992B9012B0AD0022B02D00BB151
:101BB00000207047C36A13F0807F28D1002070474F
:101BC000C36AB3F1C07F24D000207047B2F5005F34
:101BD00009D0022B25D9032B25D1C36A13F0807FAE
:101BE00023D100207047032B03D8DFE803F014044F
:101BF000140A00207047C36A13F0807F0DD10020C3
:101C00007047C36AB3F1C07F09D00020704701203C
:101C10007047012070470120704701207047012064
:101C20007047012070470020704701207047000076
:101C300070B50446FFF736FB002C5BD00546022347
:101C400084F83530002384F834302268136823F098
:101C50000103136023681A6812F0010F0AD0FFF71E
:101C600021FB431B052BF5D920236365032084F852
:101C7000350070BD1A68204810406168A2680A43A8
:101C8000E1680A4321690A4361690A43A1690A4379
:101C9000E1690A43216A0A430243616A04291ED0AA
:101CA0001A602668756925F00705636A1D43042BD1
:101CB00007D1A36A1D43E36A1BB12046FFF770FFFB
:101CC00090B975612046FFF749FFE26D3F239340CD
:101CD000836000206065012384F83530C9E7E16A3C
:101CE000206B01430A43DBE740236365012084F84E
:101CF0003500BEE70120BCE73F8010F000230F2B2A
:101D000000F2F18070B582B061E085685E00032466
:101D1000B44025EA0405CC68B4402C43846045688F
:101D200025EA02054C68C4F300129A402A43426037
:101D30005BE0DC08083450F8246003F007029500EB
:101D40000F22AA4026EA020E0A69AA4042EA0E02BF
:101D500040F824205DE0092200E0002202FA0EF2A1
:101D60002A430234604D45F82420604A94686FEAA3
:101D70000C0224EA0C054E6816F4801F01D04CEAD0
:101D800004055A4CA560E46802EA04054E6816F49E
:101D9000001F01D04CEA0405544CE560646802EA77
:101DA00004054E6816F4003F01D04CEA04054F4C80
:101DB0006560246822404D6815F4803F01D04CEAEC
:101DC00004024A4C226001330F2B00F28A80012268
:101DD0009A400C6804EA020C32EA0404F3D14C681D
:101DE00004F00304013C012C8FD94A6802F003027D
:101DF000032A09D0C4685D000322AA4024EA020431
:101E00008A68AA402243C2604A6802F00302022A9A
:101E10008FD004684FEA430E032202FA0EF224EA3E
:101E200002044A6802F0030202FA0EF22243026040
:101E30004A6812F4403FC6D0002201922C4A546CEA
:101E400044F480445464526C02F480420192019A3A
:101E50009C08A51C244A52F8255003F003024FEABF
:101E6000820E0F2202FA0EF225EA0205214A904262
:101E70003FF473AF02F58062904222D002F5806297
:101E8000904220D002F5806290421ED002F580621E
:101E900090421CD002F5806290421AD002F5806216
:101EA000904218D002F58062904216D002F580620E
:101EB000904214D002F5806290423FF44CAF0A2267
:101EC0004CE701224AE7022248E7032246E70422C0
:101ED00044E7052242E7062240E707223EE70822C0
:101EE0003CE702B070BD704700380140003C014043
:101EF00000380240000002400369194201D001206D
:101F0000704700207047000008B5054B5B6903422D
:101F100000D108BD024B586104F088F8F9E700BF12
:101F2000003C014040B338B5044603684CF6CC424F
:101F30001A60036845F255521A60036842685A6095
:101F4000036882689A60FFF7ADF905462368DA688E
:101F500012F0030F0BD0FFF7A5F9401B3128F5D97C
:101F60002368DB6813F0030FF0D0032003E04AF688
:101F7000AA221A60002038BD0120704703684AF683
:101F8000AA221A600020704710B582B00023019386
:101F9000194B1A6C42F080521A641B6C03F0805388
:101FA0000193019B154B01221A64FFF77BF904464C
:101FB000134B5B6813F4803F08D1FFF773F9001BE4
:101FC000B0F57A7FF4D9032002B010BD0B4B01228B
:101FD0005A64FFF767F90446094B5B6813F4003F46
:101FE00007D1FFF75FF9001BB0F57A7FF4D9032022
:101FF000EAE70020E8E700BF0038024000000E4298
:1020000000700040002800F0E08170B582B0044606
:10201000036813F0010F3BD09F4B9B6803F00C0348
:10202000042B2CD09C4B9B6803F00C03082B21D075
:102030006368B3F5803F4FD0B3F5A02F52D0964BD5
:102040001A6822F480321A601A6822F480221A6018
:102050006368002B50D0FFF725F905468E4B1B68AF
:1020600013F4003F14D1FFF71DF9401B6428F5D984
:102070000320B1E1884B5B6813F4800FD8D0864B06
:102080001B6813F4003F03D06368002B00F09F81AE
:10209000236813F0020F54D07F4B9B6813F00C0F92
:1020A0003ED07D4B9B6803F00C03082B33D0E368D4
:1020B000002B68D0794B01221A60FFF7F3F8054630
:1020C000754B1B6813F0020F54D1FFF7EBF8401B60
:1020D0000228F5D903207FE16F4A136843F4803367
:1020E0001360B5E76C4B1A6842F480221A601A68D4
:1020F00042F480321A60ABE7FFF7D4F80546664B2E
:102100001B6813F4003FC3D0FFF7CCF8401B6428D2
:10211000F5D9032060E1604B5B6813F4800FC6D1F2
:102120005D4B1B6813F0020F03D0E368012B40F0F6
:102130005081594A136823F0F803216943EAC10327
:102140001360236813F0080F42D063696BB3534BDD
:102150000122C3F8802EFFF7A5F805464E4B5B6FB2
:1021600013F0020F34D1FFF79DF8401B0228F5D978
:10217000032031E1484A136823F0F803216943EA58
:10218000C1031360DDE7454B00221A60FFF78AF8B0
:102190000546414B1B6813F0020FD2D0FFF782F8BF
:1021A000401B0228F5D9032016E13C4B0022C3F85E
:1021B000802EFFF777F80546374B5B6F13F0020F61
:1021C00006D0FFF76FF8401B0228F5D9032003E182
:1021D000236813F0040F77D02F4B1B6C13F0805F34
:1021E00033D1002301932C4B1A6C42F080521A64B5
:1021F0001B6C03F080530193019B0125284B1B6846
:1022000013F4807F23D0A368012B34D0052B38D062
:10221000214B1A6F22F001021A671A6F22F0040292
:102220001A67A368002B3DD0FFF73CF806461A4B0F
:102230001B6F13F0020F46D1FFF734F8801B41F2F9
:1022400088339842F3D90320C6E00025D6E7144A24
:10225000136843F480731360FFF724F80646104BAD
:102260001B6813F4807FCED1FFF71CF8801B022877
:10227000F5D90320B0E0084A136F43F00103136758
:10228000CFE7054B1A6F42F004021A671A6F42F04B
:1022900001021A67C5E700BF00380240000047424C
:1022A00000700040FEF7FEFF0646524B1B6F13F016
:1022B000020F08D0FEF7F6FF801B41F288339842E8
:1022C000F3D9032088E0EDB9A369002B00F08380E7
:1022D000484A926802F00C02082A51D0022B17D00B
:1022E000454B00221A66FEF7DDFF0446414B1B6892
:1022F00013F0007F42D0FEF7D5FF001B0228F5D96E
:10230000032069E03B4A136C23F080531364DBE73E
:10231000394B00221A66FEF7C5FF0546354B1B6890
:1023200013F0007F06D0FEF7BDFF401B0228F5D951
:10233000032051E0E369226A1343626A43EA82138D
:10234000A26A5208013A43EA0243E26A43EA02639C
:10235000284A5360284B01221A66FEF7A3FF044661
:10236000244B1B6813F0007F06D1FEF79BFF001B78
:102370000228F5D903202FE000202DE000202BE0DB
:10238000012B2BD01B4B5B6803F48001E269914267
:1023900026D103F03F02216A8A4223D1616A47F6BF
:1023A000C0721A40B2EB811F1ED103F44031A26A01
:1023B0005208013AB1EB024F18D103F07063E26AA0
:1023C000B3EB026F14D1002006E00120704701201A
:1023D00002E0012000E0002002B070BD0120FBE718
:1023E0000120F9E70120F7E70120F5E70120F3E7F5
:1023F0000120F1E7003802400000474208B5254BB4
:102400009B6803F00C03042B3FD0082B3FD1214BDA
:102410005A6802F03F025B6813F4800F12D01D4B24
:102420005968C1F388111C480023A1FB0001FEF785
:10243000ADFB184B5B68C3F3014301335B00B0FB9A
:10244000F3F025E0134B5968C1F3881C4FEA4C1197
:10245000B1EB0C006EEB0E0E4FEA8E1343EA906365
:102460008101091A63EB0E03DB0043EA5173C900D3
:1024700011EB0C0C43F10003990200234FEA8C206E
:1024800041EA9C51FEF782FBD3E7034800E0034892
:1024900008BD00BF00380240001BB7000024F40054
:1024A000002800F09B8070B50D4604464F4B1B681A
:1024B00003F00F038B4208D2CBB24C4A137013685F
:1024C00003F00F038B4240F08B80236813F0020F60
:1024D00017D013F0040F04D0454A936843F4E05337
:1024E0009360236813F0080F04D0414A936843F4C3
:1024F000604393603E4A936823F0F003A1680B4366
:102500009360236813F0010F32D06368012B21D050
:102510009A1E012A25D9364A126812F0020F61D09C
:1025200033498A6822F0030213438B60FEF7BAFE38
:1025300006462F4B9B6803F00C036268B3EB820FD7
:1025400016D0FEF7AFFE801B41F288339842F0D9D7
:10255000032042E0264A126812F4003FE0D1012035
:102560003BE0234A126812F0007FD9D1012034E009
:102570001E4B1B6803F00F03AB4207D9EAB21B4B9B
:102580001A701B6803F00F03AB422DD1236813F0C0
:10259000040F06D0164A936823F4E053E1680B4316
:1025A0009360236813F0080F07D0114A936823F44F
:1025B0006043216943EAC1039360FFF71FFF0C4B9F
:1025C0009B68C3F303130B4AD35CD8400A4B1860D3
:1025D0000A4B1868FEF71AFE002070BD01207047F4
:1025E0000120FAE70120F8E70120F6E7003C02406D
:1025F00000380240D88500081000002008000020A4
:10260000014B1868704700BF1000002008B5FFF7A5
:10261000F7FF044B9B68C3F38223034AD35CD84083
:1026200008BD00BF00380240E885000808B5FFF784
:10263000E7FF044B9B68C3F34233034AD35CD840A3
:1026400008BD00BF00380240E885000838B50446E0
:102650000268136923F44053C1680B431361836814
:102660000269134342691343C2691A430168CB6884
:1026700023F4164323F00C031343CB600268536921
:1026800023F4407381690B4353610368314A9342D9
:1026900006D002F58062934202D0FFF7B7FF01E057
:1026A000FFF7C4FFE369B3F5004F29D000210318F9
:1026B00049411B1841F10001C90041EA5371DB0097
:1026C000181863684FEA83024FEA937341F10001DF
:1026D000FEF75CFA204DA5FB00325109642303FB91
:1026E00011031B013233A5FB03235B0903F0F00246
:1026F00002EB011203F00F03216813448B6038BD15
:102700000023021843EB0301121841F10001C90034
:1027100041EA5271D200101841F10001626892182A
:102720005B41FEF733FA0C4DA5FB003251096423DF
:1027300003FB1103DB003233A5FB03235B095A00C3
:1027400002F4F87202EB011203F00703216813444C
:102750008B60D4E7001001401F85EB5158B310B5D2
:10276000044690F83D300BB3242384F83D302268B2
:10277000D36823F40053D3602046FFF767FF226835
:10278000136923F4904313612268536923F02A03E9
:1027900053612268D36843F40053D360002020645F
:1027A000202384F83D3084F83E3010BD80F83C3062
:1027B00004F00EF9D8E7012070470000EFF305831D
:1027C0002BB9064B186828B901221A6070476FF0C0
:1027D000050070474FF0FF30704700BFD80200205F
:1027E000EFF3058373B90A4B1B68012B0DD110B5AC
:1027F0000024084BDC77064B02221A6000F04EFFE3
:10280000204610BD6FF0050070474FF0FF30704755
:10281000D802002000ED00E0F0B587B00024059458
:10282000EFF3058474BB68B322B31568936903B9E9
:1028300018235C1E372C49D8546814F0010F47D177
:1028400056696EB14FEA960C94682CB1D7685B2F2D
:1028500002D9176907B1C6B92CB14FF0FF340EE0A9
:102860004FF0800CF0E7D4688CB9146994B14FF044
:10287000FF3404E01546002418234FF0800C012C8F
:102880000AD0ACB1059807B0F0BD0124F7E74FF0CE
:10289000FF34F4E70024F2E714699268029201948D
:1028A00000930B466246294600F088FE0590E9E752
:1028B00005AA019200930B461FFA8CF2294600F0FC
:1028C000B8FE0128DED000230593DBE70020DAE71D
:1028D0000020D8E7EFF3058373B910B582B0044642
:1028E00000F032FF0190211A002908DD01A801F053
:1028F00039F8002002B010BD6FF0050070476FF08E
:102900000300F7E7034B0360034B0B608023136066
:10291000704700BF7C0200207C000020034B036056
:10292000034B0B604FF4807313607047DC0600208C
:10293000DC02002000F1080343604FF0FF328260A8
:10294000C360036100230360704700230361704785
:1029500043684B609A688A605160996008610368B7
:1029600001330360704730B40D68B5F1FF3F11D0FB
:1029700000F108031C465B681A68AA42FAD963682A
:102980004B6099608C60616008610368013303608B
:1029900030BC70470469F2E70369416882688A6065
:1029A000416851605A68824206D0002202611A686A
:1029B000013A1A601868704782685A60F5E70000AB
:1029C000124A12F0070F1ED0D11D21F00701C1F5E8
:1029D000705313440A460E480260002141601344BC
:1029E000083B23F007030B48036059601960991AEC
:1029F00051601360084B1960084B1960084B4FF089
:102A000000421A6070474FF47053E4E73C0700201F
:102A1000504300203807002044430020404300205A
:102A20003C430020164B1A461B688342FBD3516877
:102A300002EB010C844509D0416800EB010C6345B1
:102A400009D00360904219D010607047406801447B
:102A500051601046F0E710B40A4C2468A3420BD032
:102A60005B681944416013681B680360904200D0A2
:102A700010605DF8044B70470460F7E7704700BFD3
:102A8000504300203807002070B5054600F054FE82
:102A9000364B1B68A3B1364B1B681D424ED135B176
:102AA000083515F0070F02D025F007050835002D71
:102AB00046D0304B1B68AB4251D32F4A146804E018
:102AC000FFF77EFFE7E722461C466368AB4202D26F
:102AD0002368002BF7D1254B1B68A34241D0166811
:102AE00008362368136063685B1B102B10D96019CC
:102AF00010F0070F08D04FF0500383F31188BFF395
:102B00006F8FBFF34F8FFEE743606560FFF78AFF6B
:102B1000626818490B689B1A0B60184909688B4258
:102B200001D216490B60124B1B68134363600023EC
:102B30002360134A13680133136002E0002600E0AB
:102B4000002600F093FE16F0070F0CD04FF0500354
:102B500083F31188BFF36F8FBFF34F8FFEE700261B
:102B6000EFE70026EDE7304670BD00BF38070020D4
:102B70003C430020404300205043002044430020B9
:102B800048430020002834D038B50446A0F1080599
:102B900050F8043C174A1268134208D14FF0500312
:102BA00083F31188BFF36F8FBFF34F8FFEE750F8A9
:102BB000081C41B14FF0500383F31188BFF36F8FAE
:102BC000BFF34F8FFEE723EA020340F8043C00F016
:102BD000B3FD54F8041C084A13680B4413602846DC
:102BE000FFF720FF054A13680133136000F03EFE33
:102BF00038BD70473C430020404300204C43002038
:102C000010B50446FEF7AEF9A26BE36B9A4204D00E
:102C10000024FEF7C9F9204610BD0124F9E710B5DC
:102C20000446FEF79FF9A36B23B90124FEF7BCF914
:102C3000204610BD0024F9E770B504461546866BA2
:102C4000026C5AB903681BB100200136A66370BD3F
:102C5000806801F001F80023A360F6E76DB94068D1
:102C600005F014FA226C636813446360A26893420F
:102C700019D3236863602846E7E7C06805F006FAC1
:102C8000226C5142E3689B1AE3602268934202D2AD
:102C9000A3680B44E360022D01D00020D5E726B1E4
:102CA000013E0020D1E72846CFE70020CDE70346CC
:102CB000026C6AB110B50846D9681144D9609C68A5
:102CC000A14201D31968D960D96805F0DFF910BDB8
:102CD000704738B50546FEF745F995F8454064B2AA
:102CE00001E0013C64B2002C0ADD6B6A43B105F1DE
:102CF000240000F007FF0028F3D000F097FFF0E772
:102D0000FF2385F84530FEF74FF9FEF72BF995F8CC
:102D1000444064B201E0013C64B2002C0ADD2B693E
:102D200043B105F1100000F0EDFE0028F3D000F0F3
:102D30007DFFF0E7FF2385F84430FEF735F938BD15
:102D400038B5E0B10D460446FEF70CF92368E26B96
:102D5000216C01FB0230A0600020A0636360013A97
:102D600002FB0133E360FF2384F8443084F84530EC
:102D7000FDB9236963B9FEF717F9012038BD4FF09B
:102D8000500383F31188BFF36F8FBFF34F8FFEE7BC
:102D900004F1100000F0B6FE0028ECD04FF0E02364
:102DA0004FF08052C3F8042DBFF34F8FBFF36F8FE6
:102DB000E1E704F11000FFF7BDFD04F12400FFF787
:102DC000B9FDD8E738B51D46049C0B4649B92460C7
:102DD000E063236401212046FFF7B2FF84F84C50E2
:102DE00038BD2260F4E740B94FF0500383F31188F7
:102DF000BFF36F8FBFF34F8FFEE710B584B01C4653
:102E0000844653B192B189B94FF0500383F31188CE
:102E1000BFF36F8FBFF34F8FFEE74FF0500383F385
:102E20001188BFF36F8FBFF34F8FFEE76AB1502356
:102E30000393039B502B13D04FF0500383F311885F
:102E4000BFF36F8FBFF34F8FFEE70029EFD04FF036
:102E5000500383F31188BFF36F8FBFF34F8FFEE7EB
:102E6000039B012384F8463000949DF81830604697
:102E7000FFF7A8FF204604B010BDF0B585B0019261
:102E800088B10F461D460446B1B1022D20D1E36B37
:102E9000012B1DD04FF0500383F31188BFF36F8FC8
:102EA000BFF34F8FFEE74FF0500383F31188BFF35A
:102EB0006F8FBFF34F8FFEE7036C002BE5D04FF011
:102EC000500383F31188BFF36F8FBFF34F8FFEE77B
:102ED00000F0B2FE064658B9019B002B48D04FF0D7
:102EE000500383F31188BFF36F8FBFF34F8FFEE75B
:102EF00000263DE02A4639462046FFF79DFE636ADC
:102F00007BB948B14FF0E0234FF08052C3F8042D55
:102F1000BFF34F8FBFF36F8FFEF746F8012005B068
:102F2000F0BD04F1240000F0EDFD0028F4D04FF0D6
:102F3000E0234FF08052C3F8042DBFF34F8FBFF34F
:102F40006F8FE9E7FEF730F80020E8E702A800F00D
:102F50001FFE012619E0002384F8443021E00023FD
:102F600084F8453023E02046FFF7B3FE00F07EFCF6
:102F7000FDF7F8FFA26BE36B9A42BBD3022DB9D0E9
:102F8000019B002BDED0002EE0D0FEF70DF800F004
:102F9000D3FBFDF7E7FF94F8442052B2B2F1FF3FB4
:102FA000D9D094F8452052B2B2F1FF3FD7D0FDF707
:102FB000FBFF01A902A800F0F7FDD8B92046FFF7F2
:102FC0001FFE0028CFD0019904F1100000F066FD2B
:102FD0002046FFF77EFE00F049FC0028C8D14FF0E4
:102FE000E0234FF08052C3F8042DBFF34F8FBFF39F
:102FF0006F8FBDE72046FFF76CFE00F037FC002026
:103000008DE72DE9F84390B10F4616461C4605465C
:10301000B1B1022C20D1EB6B012B1DD04FF050032E
:1030200083F31188BFF36F8FBFF34F8FFEE74FF02D
:10303000500383F31188BFF36F8FBFF34F8FFEE709
:10304000036C002BE5D04FF0500383F31188BFF3DE
:103050006F8FBFF34F8FFEE7FEF7AAF8EFF31189EA
:103060004FF0500383F31188BFF36F8FBFF34F8F7F
:10307000AA6BEB6B9A4206D3022C04D0002089F392
:103080001188BDE8F88395F845804FFA88F8AB6B56
:10309000224639462846FFF7CFFDB8F1FF3F06D05C
:1030A00008F101035BB285F845300120E7E76B6A60
:1030B0000BB90120E3E705F1240000F023FD18B16E
:1030C00026B101203060DAE70120D8E70120D6E7F9
:1030D000F0B585B0019290B10F460446C1B100F041
:1030E000ABFD064600BB019B002B5ED04FF05003AA
:1030F00083F31188BFF36F8FBFF34F8FFEE74FF05D
:10310000500383F31188BFF36F8FBFF34F8FFEE738
:10311000036C002BE3D04FF0500383F31188BFF30F
:103120006F8FBFF34F8FFEE700263EE03946204603
:10313000FFF7BDFD013DA563236923B9FDF734FF0A
:10314000012005B0F0BD04F1100000F0DBFC002808
:10315000F4D04FF0E0234FF08052C3F8042DBFF3BA
:103160004F8FBFF36F8FE9E7FDF71EFF0020E8E701
:1031700002A800F00DFD012621E0002384F8443070
:1031800029E0002384F845302BE02046FFF7A1FD1D
:1031900000F06CFB09E02046FFF79BFD00F066FBAA
:1031A0002046FFF73CFD00283FD1FDF7DBFEA56B75
:1031B000002DBBD1019B002BD6D0002ED8D0FDF71F
:1031C000F3FE00F0B9FAFDF7CDFE94F844305BB29F
:1031D000B3F1FF3FD1D094F845305BB2B3F1FF3F7C
:1031E000CFD0FDF7E1FE01A902A800F0DDFC002828
:1031F000D1D12046FFF713FD0028C6D0019904F174
:10320000240000F04BFC2046FFF763FD00F02EFB8E
:103210000028CAD14FF0E0234FF08052C3F8042DAC
:10322000BFF34F8FBFF36F8FBFE7002089E7000028
:103230000023072B0CD8074A52F833200AB1013378
:10324000F7E7044A42F8331002EBC30358607047B3
:10325000704700BF5843002070B504460D4616461F
:10326000FDF780FE94F844305BB2B3F1FF3F0DD020
:1032700094F845305BB2B3F1FF3F0BD0FDF794FEFD
:10328000A36B5BB12046FFF724FD70BD002384F8DB
:103290004430EDE7002384F84530EFE73246294615
:1032A00004F1240000F012FCECE70000084B1B685E
:1032B0001B6823B9074B4FF0FF321A607047044B6D
:1032C0001B68DB68DB685A68024B1A60704700BFF6
:1032D0009C430020444800202DE9F04780460D46DD
:1032E00017469946089EDDF824A00A9C9200A52165
:1032F000206B04F0D9FE236B07F18042013A03EB07
:10330000820727F00707B5B34FF0000CBCF10F0F91
:103310000BD815F80C2004EB0C0383F8342015F8B7
:103320000C3013B10CF1010CF0E7002384F84330AA
:10333000372E00D93726E662E66400252565201D74
:10334000FFF703FB04F11800FFF7FFFA2461C6F151
:103350003806A6616462656584F858504A4641465D
:103360003846FDF7D3FD2060BAF1000F01D0CAF84E
:103370000040BDE8F087002384F83430D8E700002F
:1033800038B5002407E004EB840293000E4818448B
:10339000FFF7D0FA0134372CF5D90C4D2846FFF74A
:1033A000C9FA0B4C2046FFF7C5FA0A48FFF7C2FAE4
:1033B0000948FFF7BFFA0948FFF7BCFA084B1D6040
:1033C000084B1C6038BD00BFA443002018480020F3
:1033D0002C480020504800207C48002068480020ED
:1033E0009C430020A043002010B50446FDF7BAFD21
:1033F000224A136801331360214B1B685BB1214BD8
:103400001B686BB91E4B1B68DA6AE36A9A4207D8DD
:103410001B4B1C6004E01A4B1C601368012B29D065
:10342000194A1368013313606364E06A174B1B6821
:10343000984201D9154B186000EB8000211D144BF8
:1034400003EB8000FFF784FAFDF7AEFD0D4B1B6820
:103450007BB10B4B1B68DA6AE36A9A4209D24FF0E0
:10346000E0234FF08052C3F8042DBFF34F8FBFF31A
:103470006F8F10BDFFF784FFD2E700BF0448002024
:103480009843002064480020104800201448002081
:10349000A443002010B5044690F8593063B1012BC5
:1034A00011D0022B0ED04FF0500383F31188BFF3DD
:1034B0006F8FBFF34F8FFEE7006BFFF763FB204674
:1034C000FFF760FB10BDFFF75DFBFBE70F4B1B68D1
:1034D000D3B110B5FDF746FD0D4BDB68DC68201D50
:1034E000FFF75AFA0B4A1368013B1360074A136847
:1034F000013B1360FDF758FD2046FFF7CBFF034B60
:103500001B68002BE6D110BD704700BF08480020A3
:103510007C4800200448002008B5FFF7D7FF074B80
:103520001B68012BF9D94FF0E0234FF08052C3F80C
:10353000042DBFF34F8FBFF36F8FEEE7A44300203E
:1035400070B504460D46174B1E68174B18680430BB
:10355000FFF722FAB4F1FF3F0DD03444124B1B6841
:103560005C60A64210D9114B18680F4B19680431E2
:10357000FFF7F9F970BD002DEFD00B4B196804313E
:103580000B48FFF7E5F9F5E70A4B1868064B196891
:103590000431FFF7E8F9084B1B68A342EAD9064B50
:1035A0001C60E7E79048002098430020A0430020DB
:1035B000684800209C4300204448002030B587B074
:1035C0000B9C7CB10C9DB5B15C250495049D5C2DD4
:1035D0001AD04FF0500383F31188BFF36F8FBFF3FE
:1035E0004F8FFEE74FF0500383F31188BFF36F8FC7
:1035F000BFF34F8FFEE74FF0500383F31188BFF303
:103600006F8FBFF34F8FFEE7049D0C9D2C63022448
:1036100085F8594000240394029505AC01940A9C56
:103620000094FFF759FE0C98FFF7DEFE059807B0EF
:1036300030BD2DE9F04385B00746884614461E4646
:103640009000FFF721FA00B381465C20FFF71CFAD7
:103650000546B0B1C0F83090E5B1002385F8593087
:10366000039302950D9B01930C9B009333462246D6
:1036700041463846FFF730FE2846FFF7B5FE0120E9
:1036800005E04846FFF77EFAE6E74FF0FF3005B069
:10369000BDE8F0834FF0FF30F9E7000010B588B0C7
:1036A00000240594069407AA06A905A8FFF72AF99D
:1036B000059B0293069B019300942346079A1849A1
:1036C0001848FFF77BFF184B186040B100F078FBFB
:1036D000012806D0B0F1FF3F18D008B010BD00207F
:1036E000F6E74FF0500383F31188BFF36F8FBFF3FA
:1036F0004F8F0E4B4FF0FF321A600D4B01221A60B4
:103700000C4B00221A60FDF7C7FCE6E74FF05003B0
:1037100083F31188BFF36F8FBFF34F8FFEE700BFB6
:103720003481000819350008404800204448002032
:103730006448002090480020024A13680133136057
:10374000704700BF0C480020014B1868704700BF4D
:1037500090480020F8B53A4B1B68002B69D1394BD3
:103760001D6801351D60C5B9374B1B681B6843B127
:103770004FF0500383F31188BFF36F8FBFF34F8F68
:10378000FEE7314A1168314B186810601960304A01
:10379000136801331360FFF789FD2E4B1B68AB42A2
:1037A0003DD900272C4B1B68DB6A03EB83039A008F
:1037B0002A4B9B58012B00D90127294B1B68002B52
:1037C0003CD001273AE001271F4B1B681B6843B31D
:1037D0001D4B1B68DB68DC6863689D4226D3261D91
:1037E0003046FFF7D9F8A36A1BB104F11800FFF7C0
:1037F000D3F8E36A1B4A1268934201D9194A13604D
:1038000003EB83039A00314614481044FFF7A0F8F5
:10381000E26A114B1B68DB6A9A42D4D2D4E70027D4
:10382000D2E70C4B4FF0FF321A60BBE7094A136036
:10383000B8E70D4A13680133136000273846F8BD16
:103840000C480020904800209C430020A04300200A
:10385000484800204448002098430020A44300200A
:1038600094480020144800204C48002038B5354BBF
:103870001B6843B94FF0500383F31188BFF36F8F78
:10388000BFF34F8FFEE7FDF76DFB2E4B1A68013A31
:103890001A601B68002B4FD12B4B1B680BB90024FF
:1038A0004BE00024294B1B681BB3284BDB68DC680A
:1038B00004F11800FFF770F8251D2846FFF76CF893
:1038C000E06A234B1B68984201D9214B186000EB3A
:1038D000800029461F4B03EB8000FFF739F8E26AAE
:1038E0001D4B1B68DB6A9A42DCD31C4B01221A6019
:1038F000D8E70CB1FFF7DAFC194B1C6884B9174BF9
:103900001C68D4B14FF0E0234FF08052C3F8042D6F
:10391000BFF34F8FBFF36F8F01240EE0013C07D040
:10392000FFF718FF0028F9D00C4B01221A60F5E7C9
:103930000B4B00221A60E2E70024FDF735FB20461E
:1039400038BD00BF0C48002004480020504800202B
:1039500014480020A44300209843002094480020ED
:103960004C48002038B558B10C46054689B94FF08F
:10397000500383F31188BFF36F8FBFF34F8FFEE7C0
:103980004FF0500383F31188BFF36F8FBFF34F8F56
:10399000FEE71B4B1B6843B14FF0500383F31188C4
:1039A000BFF36F8FBFF34F8FFEE7FFF7C5FE154BD9
:1039B00018682B681C44834209D9A34201D82C60A3
:1039C0000EE0A04201D32C600AE02C6004E0A34288
:1039D00001D8A04212D22C600021201AFFF7B0FDBE
:1039E000FFF744FF48B94FF0E0234FF08052C3F88F
:1039F000042DBFF34F8FBFF36F8F38BD2C60EFE7FF
:103A00000C480020904800201F4B1B681BB11F4B27
:103A100001221A6070471D4B00221A601C4B1B6864
:103A200003EB83018A001B498A585AB90BB1013B49
:103A3000F6E74FF0500383F31188BFF36F8FBFF3A6
:103A40004F8FFEE703EB830082000A445068406812
:103A5000506003EB830C4FEA8C0208321144884219
:103A60000BD003EB830291000A4A0A445268D168E2
:103A7000094A1160064A1360704740686246910027
:103A8000044A0A445060ECE70C48002094480020A7
:103A900014480020A44300209843002058B110B5DA
:103AA0000C46094A11681831FEF75DFF01212046D6
:103AB000FFF746FD10BD4FF0500383F31188BFF3AD
:103AC0006F8FBFF34F8FFEE79843002038B570B17A
:103AD0000D4614460A4A11681831FEF739FF0CB139
:103AE0004FF0FF3521462846FFF72AFD38BD4FF03D
:103AF000500383F31188BFF36F8FBFF34F8FFEE73F
:103B00009843002038B5C368DC6824B304F1180575
:103B10002846FEF741FF184B1B682BBB251D284686
:103B2000FEF73AFFE06A154B1B68984201D9134B28
:103B3000186000EB80002946114B03EB8000FEF774
:103B400007FFE26A0F4B1B68DB6A9A4211D901201A
:103B50000D4B186038BD4FF0500383F31188BFF34D
:103B60006F8FBFF34F8FFEE729460848FEF7F0FE40
:103B7000E7E70020EEE700BF0C48002014480020D3
:103B8000A44300209843002094480020504800207F
:103B9000034B1B680360034B1B684360704700BF07
:103BA0004848002090480020F8B5C8B10C460546AA
:103BB000F9B1FDF7D7F91B4B19686B68C81A226871
:103BC000B2F1FF3F26D0184E36682F68B74201D0B9
:103BD0008B4224D9824215D80023236001241AE0A5
:103BE0004FF0500383F31188BFF36F8FBFF34F8FF4
:103BF000FEE74FF0500383F31188BFF36F8FBFF3DD
:103C00004F8FFEE75B1A134423602846FFF7C0FF7F
:103C1000002400E00024FDF7C7F92046F8BD012488
:103C2000F9E700BF9048002048480020014B0122DE
:103C30001A60704794480020054B1B6833B1054B50
:103C40001B680BB1002070470220704701207047AD
:103C5000644800200C48002000283BD038B50446BA
:103C60001E4B1B68834208D04FF0500383F311882A
:103C7000BFF36F8FBFF34F8FFEE7036D43B94FF074
:103C8000500383F31188BFF36F8FBFF34F8FFEE7AD
:103C9000013B0365C16AC26C91421DD00BB100208B
:103CA00038BD051D2846FEF777FEE06CE062C0F1E6
:103CB0003803A3610A4B1B68984201D9084B18606E
:103CC00000EB80002946074B03EB8000FEF740FE27
:103CD0000120E5E7002070470020E1E7984300203D
:103CE00014480020A4430020064B1A6813682BB91F
:103CF0000123036023B9D368186870470023F8E7ED
:103D0000002070479848002008B54160006191424A
:103D10000CD8D21A83699A4201D3012008BD011D33
:103D2000094B1868FEF71FFE0020F7E79A4201D200
:103D3000994206D2011D054B1868FEF714FE0020BB
:103D4000ECE70120EAE700BF9C48002098480020EB
:103D500030B583B0FDF706F9114B1B681BB1FDF7B9
:103D600023F903B030BD0F4D2846FEF7E3FD0E4C9E
:103D70002046FEF7DFFD0D4B1D600D4B1C60002340
:103D800000930C4B0C4A10210A20FFF72CF8044B2F
:103D900018600028E3D00949FFF74AFADFE700BFBF
:103DA000BC49002040490020544900209848002088
:103DB0009C4800206C490020A04800203C8100085D
:103DC00010B588B0FFF7C4FF124B1B68CBB10024BD
:103DD0000594069407AA06A905A8FEF79FFD059B72
:103DE0000293069B0193022300932346079A0A49F4
:103DF0000A48FFF7E3FB0A4B186010B1012008B036
:103E000010BD4FF0500383F31188BFF36F8FBFF3E2
:103E10004F8FFEE7BC49002044810008254100087F
:103E2000C0490020B8B19C4603461848006858B302
:103E300000B585B000910192029305291CDCFFF7C3
:103E4000FBFE022810D000231A4669460F4800687E
:103E5000FFF713F815E04FF0500383F31188BFF319
:103E60006F8FBFF34F8FFEE70023069A694607481E
:103E70000068FFF702F804E0002362466946FFF796
:103E8000C0F805B05DF804FB00207047BC49002075
:103E900070B582B01B4B1B681A6862B3DB681E6882
:103EA000DC68251D2846FEF777FD236A20469847E3
:103EB00094F8283013F0040FECD0A36933449E42E9
:103EC00007D26360246129460E4B1868FEF74BFD4C
:103ED000E0E7002100910B4632462046FFF7A2FFA3
:103EE0000028D7D14FF0500383F31188BFF36F8FB1
:103EF000BFF34F8FFEE7044A106802490860136061
:103F000002B070BD984800209C48002038B5054696
:103F1000FFF71AFC0446074B1B68834205D80023B1
:103F20002B60044B1C60204638BDFFF7B1FF012316
:103F30002B60F6E76849002070B582B006460D4652
:103F400017490968C968CC68201DFEF725FD94F85B
:103F500028C01CF0040F08D12CF0010C84F828C0F4
:103F6000236A2046984702B070BDA16933462A46AD
:103F700031442046FFF7C8FE0028F1D0002100910F
:103F80000B4632462046FFF74DFF0028E8D14FF0A0
:103F9000500383F31188BFF36F8FBFF34F8FFEE79A
:103FA0009848002070B582B006460C46FFF7C4FB67
:103FB00001A8FFF7ABFF019B33BB05460CB9B0422C
:103FC00019D224B1124A12681268DAB901242246C1
:103FD000711B104B1868FFF73FF9FFF747FCA8B9B2
:103FE0004FF0E0234FF08052C3F8042DBFF34F8F02
:103FF000BFF36F8F0AE0FFF739FC29463046FFF721
:104000009BFF03E01C46E2E7FFF730FC02B070BD07
:104010009C480020BC49002010B588B002E0049BF9
:10402000002B0FDA002204A93D4B1868FFF750F867
:10403000002873D0049B002BF1DA07990698059BA2
:104040009847ECE7069C636913B1201DFEF7A4FCBA
:1040500003A8FFF75BFF049B092BE3D8DFE803F01D
:104060000505053037500505303794F8283043F002
:10407000010384F82830059BA169024619442046B3
:10408000FFF742FE0028CDD0236A2046984794F8D7
:10409000283013F0040FC5D0A269002100910B460F
:1040A000059802442046FFF7BDFE0028BAD14FF024
:1040B000500383F31188BFF36F8FBFF34F8FFEE779
:1040C00094F8283023F0010384F82830AAE794F804
:1040D000283043F0010384F828300599A16131B1FB
:1040E0000346024601442046FFF70EFE9AE74FF0D2
:1040F000500383F31188BFF36F8FBFF34F8FFEE739
:1041000094F8283013F0020F04D023F0010384F850
:10411000283087E72046FEF735FD83E708B010BD5D
:10412000BC49002000B583B001A8FFF7DDFD01996F
:10413000FFF738FFFFF770FFF6E7000010B58AB011
:1041400001220892002306930792009301930293A1
:104150000393059304930E4C69462046FDF762F9DC
:104160002046FDF7FBF902212046FDF748FB0E2310
:1041700009930593074C69462046FDF753F92046FD
:10418000FDF7ECF902212046FDF739FB0AB010BD1E
:10419000F0490020184A002084B010B582B00446CF
:1041A00005A880E80E000F9B17490C6000228A606A
:1041B000CA6008220A61154A93F901C082F800C05A
:1041C000B3F900C082F801C093F903C082F802C0BD
:1041D000B3F902C082F803C093F905C082F804C0A5
:1041E000B3F904C082F805C093F907C082F806C08D
:1041F000B3F90630D37101ABFDF7DEF902B0BDE8CB
:10420000104004B0704700BFC4490020DC490020C2
:1042100030B405686C6944F040046C610568EC6872
:1042200044F01004EC60846B25682C6824F00104D1
:104230002C6005E0846B25682C6824F001042C6058
:104240000C68256815F0010FF4D105680435A560E8
:104250000C68E2600A6813610B68BDF808205A60B8
:104260000A68136843F480231360836B1A68136829
:1042700043F00103136030BC7047000008B50D48DF
:104280000D4B03600523436000238360C3604FF43C
:10429000003202614FF480024261037643768376F6
:1042A000C37603774377FDF717F800B908BD01F02F
:1042B0007DF8FBE7F04900200064004008B50D4898
:1042C0000D4B03600523436000238360C3604FF4FC
:1042D000003202614FF480024261037643768376B6
:1042E000C37603774377FCF7F7FF00B908BD01F009
:1042F0005DF8FBE7184A00200068004010B58AB05E
:1043000000230593069307930893099303683E4A95
:10431000934204D03D4A934234D00AB010BD3C4A87
:10432000136801331360012B1FD000240194394B13
:104330001A6B42F008021A631B6B03F00803019327
:10434000019B0323059302220692089309230993F4
:1043500005A93148FDF7D2FC224605211420FDF7BE
:10436000A3FB1420FDF7D8FBD7E700230093294BCC
:104370001A6C42F000721A641B6C03F00073009315
:10438000009BD2E700230293224B1A6C42F080621A
:104390001A641B6C03F080630293029B1C4A13682F
:1043A00001331360012B21D000240494194B1A6BA4
:1043B00042F002021A631B6B03F002030493049B96
:1043C0004FF44053059302230693032308930923D4
:1043D000099305A91148FDF791FC224605214020CB
:1043E000FDF762FB4020FDF797FB96E70023039360
:1043F000084B1A6C42F000721A641B6C03F00073D5
:104400000393039BD0E700BF0064004000680040B6
:10441000EC49002000380240000C02400004024039
:1044200010B58AB0044601AB03AA0021FDF742F99A
:104430002368474A934204D0464A934264D00AB064
:1044400010BD039B444A5268934221D0424A126EE7
:10445000934229D0404AD2F8BC20934230D03E4A01
:10446000D2F81821934237D03C4A526893423FD049
:104470003B4A52689342E2D1394C214601A800F0F0
:10448000B9FC3849606801F0B1FB374B1870D6E7CA
:10449000314C214601A800F0ADFC3249606801F0C2
:1044A000A5FB314B1870CAE7304C214601A800F03B
:1044B000A1FC2C49606801F099FB2B4B1870BEE7FA
:1044C0002B4C214601A800F095FC2649606801F0BC
:1044D0008DFB254B1870B2E7264C214601A800F051
:1044E00089FC2049606801F081FB1F4B1870A6E72A
:1044F0001A4C214601A800F07DFC1A49606801F0C1
:1045000075FB194B18709AE7039B40F211229342F6
:1045100012D040F26662934291D1174901A801F08E
:104520007FFA164940F2666001F060FB144B187088
:10453000144B01221A7082E7134901A801F0A6F872
:104540000E4940F2112001F051FB0D4B187076E737
:104550000064004000680040004F0020D04D002063
:10456000FC4C002014000020F04C00205C4F002088
:10457000B84F002014500020D04C00203400002000
:10458000F14C0020404A0020C04B002000B583B011
:10459000054A24230093D31804490548FFF738FE41
:1045A00003B05DF804FB00BF9C4A002014590020B2
:1045B000345A0020002800F0D58070B50C4696468D
:1045C0008446002900F0CD80674D684E0FCE0FC5A0
:1045D00096E8030045F8040B2980654D654E0FCE23
:1045E0000FC533682B709CF800509CF8013045EAE9
:1045F0000325C5F30A0525809CF801009CF80230CC
:10460000C00840EA4310C0F30A0060809CF8023002
:104610009CF803209B0943EA82039CF8042043EAA8
:104620008223C3F30A03A3809CF804209CF805109E
:10463000520842EAC112C2F30A02E2809CF8051055
:10464000C1F30111E1729CF805108909A1729CF86F
:1046500006109CF8076041EA0621A1819CF8081029
:104660009CF8096041EA0621E1819CF80A109CF857
:104670000B6041EA062121829CF80C10A1749CF881
:104680000D10E1749CF80E609CF80F1046EA0126AC
:10469000A6829CF810109CF811C041EA0C2109B2C6
:1046A0002181A5F580652580A0F580606080A3F557
:1046B0008063A380A2F58062E280A1F58061218100
:1046C00006F001038EF80130A38AC3F340038EF88D
:1046D0000330A38AC3F380038EF80230A38AC3F3A6
:1046E000C0038EF80430A38AC3F300138EF8083099
:1046F000A38AC3F340138EF80730A38AC3F3801351
:104700008EF80530A38AC3F3C0138EF80630A38A4F
:10471000C3F300238EF80930A38AC3F340238EF835
:104720000A30A38AC3F380238EF80B30A38AC3F325
:10473000C0238EF80C30A38AC3F300338EF80D30FB
:10474000A38AC3F340338EF80E30A38AC3F38033B9
:104750008EF80F30A38ADB0B8EF81030064B012247
:104760001A7070BD704700BF844A00206C4A002058
:10477000584A0020444A00209A4A002000B583B0DD
:10478000284B1B681A6812F0200F09D000220092F3
:104790001A6800925B680093009B03B05DF804FB0D
:1047A0001A6812F0100FF8D0002201921A680192D4
:1047B0005B680193019B1C4B1A685368C3F1240387
:1047C0009BB21A490B8024215160116811F4002F0B
:1047D00012D1116841F400211160122B06D0124B46
:1047E0001A68136843F001031360D6E7104A1149B1
:1047F0001148FFF7DFFEF2E7104A136C23F40023A1
:1048000013640A4B1B88122B06D0074B1A681368D7
:1048100043F001031360C0E7054A06490848FFF763
:10482000C9FEF2E7345A002014590020E44A00205F
:10483000444A00206C4A00209C4A00200064024048
:10484000C04A002010B582B000240094164B1A6BA9
:1048500042F480021A631A6B02F480020092009AFA
:1048600001941A6B42F400121A631B6B03F40013D9
:104870000193019B224605210C20FDF715F90C2020
:10488000FDF74AF9224605210E20FDF70DF90E200D
:10489000FDF742F9224605213A20FDF705F93A20B5
:1048A000FDF73AF902B010BD0038024008B51C4AC5
:1048B00000211C48FDF7B0FF1B4B18601B4A00216C
:1048C0001B48FDF7A9FF1B4B18601B4A00211B4822
:1048D000FDF7A2FF1A4B18601A4A00211A48FDF78B
:1048E0009BFF1A4B18601A4A00211A48FDF794FFE3
:1048F000194B1860194A00211948FDF78DFF194B13
:104900001860194A00211948FDF786FF184B1860F6
:10491000184A00211848FDF77FFF184B186008BDA2
:10492000908200083D690008004B00204882000882
:10493000195C0008F84A00206C820008855F0008B6
:10494000FC4A00202482000875590008F44A00201F
:10495000DC810008A15B0008EC4A0020B881000857
:1049600049550008E84A002000820008E556000882
:10497000F04A0020B4820008E5650008044B0020DE
:1049800010B58AB0002405940694079408940994FD
:1049900001941F4B1A6B42F001021A631A6B02F06A
:1049A00001020192019A02941A6B42F002021A6308
:1049B0001A6B02F002020292029A03941A6B42F0FE
:1049C00008021A631A6B02F008020392039A049415
:1049D0001A6B42F080021A631B6B03F0800304938E
:1049E000049B4FF4805305934FF444130693022322
:1049F000079305A90748FDF781F9224605212820DC
:104A0000FDF752F82820FDF787F80AB010BD00BF67
:104A100000380240000C024008B50748074B03600D
:104A20000323436040F2E7338360FDF77BFA00B96C
:104A300008BD00F0BBFCFBE7084B00200030004045
:104A40000346104605E013F8011B41400348405C53
:104A500011464A1E0029F6D1704700BFD8820008CF
:104A600070B138B5054602290CD94C1EFF222146EB
:104A7000FFF7E6FF2B5D834214BF0020012038BD05
:104A8000002070470020FAE7034698B1481E99B10C
:104A900010B413F8011B5140C9B2084C34F811107E
:104AA00081EA1222014601380029F2D110465DF850
:104AB000044B70474FF6FF7210467047D8830008CA
:104AC000D8B170B50C460646022918D98D1E0D4B7B
:104AD0001A882946FFF7D8FFC2B2735D9A4201D007
:104AE000002070BDC0F30F20344414F8013C9842FC
:104AF00001D00020F5E70120F3E7002070470020F7
:104B0000EFE700BF0C00002003460160501E084480
:104B100058609A600020D8601961596170472DE98A
:104B2000F843EFF3108872B6002932D004460F46DE
:104B3000856875B343694668B34201D90368436128
:104B40009542A8BF15466069361A0136B54211DC98
:104B50002A46394603F09AFA63692B446361A368D5
:104B60005B1BA360E3682B44E36088F3108828464E
:104B7000BDE8F883A5EB06093246394603F086FA0C
:104B80004A46B919206803F081FA23684B446361EF
:104B9000E5E788F310884FF0FF35E8E70346EFF3C9
:104BA000108172B600695A68904201D91A681A6178
:104BB0001A6912F8010B1A619A6801329A60DA6870
:104BC000013ADA6081F310887047C06870470000CE
:104BD00030B599B00446012923D002293AD091B1C9
:104BE0005C252A46002101A803F05EFA264B0493B7
:104BF000264B05934FF07E5309932A4601A9204680
:104C000003F044FA0AE05C252A46214901A803F092
:104C10003DFA2A4601A9204603F038FA204619B089
:104C200030BD5C252A46002101A803F03DFA01238E
:104C30008DF80430144B0493144B0593154B0693D5
:104C4000154B0793154B09932A4601A9204603F0FB
:104C50001DFAE3E75C252A46002101A803F024FAA7
:104C600002238DF80430084B0493084B05930C4B3A
:104C700006930C4B07934FF07E5309932A4601A9E4
:104C8000204603F003FAC9E7000034C300003443B0
:104C9000D080000800A08C4600401C460000104256
:104CA000000096430060EA4610B50C4692F92830A1
:104CB00092F924108B4207D0002B0CDB8B420ADACE
:104CC000013382F8283009E0DFED070AB7EE000A69
:104CD00000F06EF902E0002382F82830B7EE000AF7
:104CE000204600F0E1F810BD0000964370EE607AB7
:104CF000F4EEC10AF1EE10FA04D8B4EEC10AF1EEF6
:104D000010FA1DDAB4EEC10AF1EE10FA09D531EE4F
:104D1000671AB4EEC10AF1EE10FAF8D4B0EE410A07
:104D20007047F4EEC10AF1EE10FA0CDD31EE271AED
:104D3000F4EEC10AF1EE10FAF8DCB0EE410A704769
:104D4000B0EE410A7047B0EE410A704710B52DED44
:104D5000028B044690ED0C8AD0ED0B7A78EE677AE0
:104D6000C0ED0B7A9FED1E7AF4EEC77AF1EE10FAE1
:104D70001BDD9FED1C7A77EEC77AC0ED0B7A94EDC0
:104D8000087AD4ED0B6AC6EE877AC4ED0B7A6378A5
:104D9000012B18D194ED107A77EE277AC4ED107AB2
:104DA00084ED0B8ABDEC028B10BD9FED0F7AF4EE03
:104DB000C77AF1EE10FAE2D59FED0A7A77EE877A9C
:104DC000C0ED0B7ADBE794ED101A37EE811ADFEDB8
:104DD000070A9FED070AFFF789FF84ED100ADFE756
:104DE000000016430000B443000016C3000034C3A3
:104DF0000000344338B52DED028B05460C468B7808
:104E000007EE903AF8EE677AB6EE008A77EEC87A47
:104E1000F1EE677A37EEA78A0278437843EA0223F5
:104E20001BB207EE903AF8EEE77A9FED1C7A67EE38
:104E3000877ADFED1B6A87EEA67A67EE087AC1ED06
:104E40000C7A0846FFF782FFAA78EB7843EA022340
:104E50001BB2D4ED086A07EE903AF8EEE77A87EED7
:104E6000A67A67EE087AC4ED117AAA78EB7843EA5D
:104E700002231BB20B4A82FB03121A44DB17C3EB5B
:104E800022331BB207EE903AF8EEE77A67EE887AA3
:104E9000C4ED167ABDEC028B38BD00BF0000B443F0
:104EA00000F8FF4521000480D0ED035AC0ED025AFE
:104EB000D0ED007A90ED017A77EEC77AC0ED037AF3
:104EC00090ED046A27EE866A80ED076A90ED057A18
:104ED00027EE877A27EE007AD0ED086A37EE267A39
:104EE00080ED087AD0ED066A77EEE57A66EEA77A6D
:104EF00027EE800A80ED090AD0ED0A6AF1EE667AA3
:104F0000B4EEE76AF1EE10FA06D4B4EEE66AF1EE1A
:104F100010FA40DDF0EE667AC0ED077A90ED0B6A8C
:104F2000F1EE466AB4EEE67AF1EE10FA06D4B4EE8B
:104F3000C67AF1EE10FA31DDF0EE466AC0ED086A8D
:104F400090ED0C6AB1EE467AB4EEC70AF1EE10FAB3
:104F500006D4B4EEC60AF1EE10FA22DDB0EE467ABF
:104F600080ED097A77EEA67A77EE877AC0ED0D7A32
:104F7000D0ED0E6AB1EE667AF4EEC77AF1EE10FA71
:104F800006D4F4EEE67AF1EE10FA0DDDB0EE667AB4
:104F900080ED0D7A7047F0EE467ABDE7F0EE476A95
:104FA000CCE7B0EE407ADBE7B0EE677AF0E70000DE
:104FB000D0ED035AC0ED025A90ED007AD0ED017A9F
:104FC00037EE677A80ED037AB4EEE07AF1EE10FA0C
:104FD00072DDDFED467A37EE677A80ED037A90ED89
:104FE000046AD0ED036A26EE266A80ED076A90ED2A
:104FF000057A26EE877A27EE007AD0ED087A37EE2A
:10500000277A80ED087AD0ED067A76EEE56A67EECB
:10501000A67A27EE800A80ED090AD0ED0A6AF1EE41
:10502000667AB4EEE76AF1EE10FA06D4B4EEE66AF8
:10503000F1EE10FA4EDDF0EE667AC0ED077A90EDF3
:105040000B6AF1EE466AB4EEE67AF1EE10FA06D497
:10505000B4EEC67AF1EE10FA3FDDF0EE466AC0ED2E
:10506000086A90ED0C6AB1EE467AB4EEC70AF1EE2A
:1050700010FA06D4B4EEC60AF1EE10FA30DDB0EE46
:10508000467A80ED097A77EEA67A77EE877AC0EDD8
:105090000D7AD0ED0E6AB1EE667AF4EEC77AF1EED3
:1050A00010FA06D4F4EEE67AF1EE10FA1BDDB0EE5B
:1050B000667A80ED0D7A7047F1EE600AB4EEE07A20
:1050C000F1EE10FA8BD5DFED097A37EE277A80ED15
:1050D000037A84E7F0EE467AAFE7F0EE476ABEE780
:1050E000B0EE407ACDE7B0EE677AE2E70000B44375
:1050F00010B51E4B00241C601C711D4B1C601C71E4
:105100001C4B1C605C60C3F807401B4B1C702022CA
:1051100021461A4802F0C8FF194B1C60194B1C604D
:10512000194B1C605C609C60DC601C615C61C3F8B6
:105130001740164B1C605C609C60DC60144B1C606C
:105140005C609C60DC60134B1C70134B1C70134B39
:105150001C70134B1C60C3F80340124B1C609C80F6
:10516000114B1C605C609C6010BD00BF744B002044
:105170007C4B0020584B0020244B0020284B002063
:10518000204B0020BC4B00208C4B0020644B0020A7
:10519000484B0020144B0020844B0020884B0020FB
:1051A000A84B0020184B0020B04B002084465A4BDF
:1051B000006818609CF804201A71BCF80530B3F53B
:1051C000027F25D810B4B3F5007F09D9A3F20123DB
:1051D000072B37D8DFE803F05268737E83888D98F9
:1051E000032B32D00BD940F20112934241D0B3F5D8
:1051F000817F27D1DCF80720484B1A6022E0012B81
:1052000014D0022B1ED19CF80720454B1A7019E0D0
:1052100040F20132934208D1424BDCF80700DCF83F
:105220000B10DCF80F2007C3704770473E4BDCF8CB
:105230000700DCF80B1003C3BCF80F109CF811201A
:1052400019809A705DF8044B7047384CDCF8070001
:10525000DCF80B10DCF80F20DCF813300FC4DCF89E
:105260001700DCF81B10DCF81F20DCF823300FC41B
:10527000E8E7DCF807202E4B1A60E3E72D4CDCF85A
:105280000700DCF80B10DCF80F20DCF813300FC43B
:10529000DCF81700DCF81B1003C4BCF81F209CF8D6
:1052A00021302280A370CDE7234CDCF80700DCF826
:1052B0000B10DCF80F20DCF813300FC4C2E71F4CD2
:1052C000DCF80700DCF80B10DCF80F20DCF81330FA
:1052D0000FC4B7E79CF80720194B1A70B2E79CF887
:1052E0000720184B1A70ADE79CF80720164B1A7070
:1052F000A8E7164BDCF807001860BCF80B109CF808
:105300000D2099809A719DE7114BDCF80700186019
:10531000BCF80B209A8095E7744B0020BC4B002012
:10532000244B0020B04B0020584B0020284B00207D
:10533000204B00208C4B0020644B0020484B002069
:10534000144B0020844B0020884B0020A84B0020E9
:10535000184B00200A4BD3F804C0C0F800C01B89CA
:1053600007EE903AF8EE677AC1ED007A054B1B8B99
:1053700007EE903AF8EE677AC2ED007A704700BF08
:10538000644B00208C4B0020014B1878704700BF05
:105390008C4B0020034B1B890380034B5B890B80E4
:1053A000704700BF8C4B0020644B002072B6FEE7B4
:1053B00000B595B03022002108A802F075FE002348
:1053C000039304930593069307930193244A116C66
:1053D00041F080511164126C02F080520192019AE6
:1053E0000293204B1A6842F440421A601B6803F48F
:1053F00040430293029B092308934FF4803309939F
:1054000001230D9302230E934FF480020F92062284
:105410001092B422119212930823139308A8FCF758
:10542000F1FDB0B9FCF7B0FDA8B90F230393022337
:105430000493002305934FF4A05306934FF4805335
:105440000793052103A8FDF72BF830B915B05DF8D7
:1054500004FBFFF7ABFFFFF7A9FFFFF7A7FF00BFB4
:10546000003802400070004008B5FBF7F5FEFFF77A
:105470009FFFFFF785FAFFF7E5F9FEF7FFFEFEF75E
:105480001DFF01F06FFA01F089FAFFF7C5FA01F08C
:105490001BF9FDF793F9FFF709FAFDF7A1F9FEE70C
:1054A00000B583B0002200920D4B596C41F480414D
:1054B0005964596C01F48041009100990192196C72
:1054C00041F0805119641B6C03F080530193019BE0
:1054D0000F216FF00100FCF7E7FA03B05DF804FB61
:1054E00000380240FEE7FEE7FEE7FEE7FEE7704712
:1054F00008B5FBF7CBFEFEF79FFB012800D108BDE6
:10550000FBF7A0FDFBE7000008B50248FCF795F9A2
:1055100008BD00BFF049002008B54FF48050FCF7EB
:10552000F3FC08BD08B50248FCF787F908BD00BFC9
:10553000184A0020034AD2F8883043F47003C2F8B6
:105540008830704700ED00E008B53220FDF7C2F961
:10555000FBE7000091ED017AB5EE407AF1EE10FA2A
:1055600020D190ED017ADFED2E6A37EE267AD0ED6C
:105570000D5A9FED2C6AC5EE867A77EEA67A37EE45
:10558000277AF3EE086AC7EE267AB5EE007A77EE50
:10559000877AB3EE047A87EE870ADFED237A20EE6E
:1055A000270A7047F2EE0A7AB4EEE77AF1EE10FAC3
:1055B0000CD8D0ED016ADFED1A7A76EEA76AC6EE56
:1055C000877AB5EE007A77EE877AE2E7F3EE027A31
:1055D000B4EEE77AF1EE10FA18D5D0ED016ADFEDFE
:1055E000137A77EEE67AB2EE0A6A37EE466A67EE2B
:1055F000867AF1EE045A87EEA56A76EE866AC6EEE2
:10560000877AB5EE007A77EE877AC2E7DFED076A30
:10561000C6EE877AB5EE007A77EE877AB9E700BFF3
:10562000000000009A99193E00FE9F460000F042DB
:1056300000239FED157A0BE0C3EB031201EB82020E
:10564000D2ED0D7AF0EEE77A37EE277A0133DBB24E
:105650008342F1D3B4EEC07AF1EE10FA00DC704769
:10566000002383420ED2C3EB031201EB8202D2ED80
:105670000D6AC6EE877A67EE807AC2ED0D7A013345
:10568000DBB2EEE7704700BF00000000427803780D
:1056900043EA02231BB207EE903AF8EEE77A9FED59
:1056A000107AC7EE876AC1ED006AC278837843EA50
:1056B00002231BB207EE903AF8EEE77AC7EE876A4C
:1056C000C1ED016A4279037943EA02231BB207EE76
:1056D000903AF8EEE77AC7EE876AC1ED026A704742
:1056E0000000C84200B58BB01C4BD3ED010A9FED02
:1056F0001C7A70EE870A93ED0D6ADFED1A6AC6EE2A
:10570000267A77EE877A70EEA70A9FED170A01F0E6
:10571000EBFA164B83ED030ADFED157A20EE270A2C
:10572000BDEEC00A10EE103AADF82030114C08ABB7
:105730000793EC4604F10C0EBEE80F00ACE80F0036
:105740009EE807008CE8070094E80E004FF4047010
:10575000FEF722FD6420FDF7BDF8C5E7A44E00204A
:10576000000000009A99193E0000F042C04B002052
:105770000000C842184A00202DE9F04F2DED028BA1
:1057800087B00446002304930593424DD5F820804A
:105790004046FAF791FE06460F46D5ED126A9FED98
:1057A0003E7AC6EE877A77EEA77A9FED3C7A67EE6F
:1057B000877A17EE900AFAF77FFE41EC180B41EC5E
:1057C000100B01F001FA5BEC10AB10EE102A5B46F7
:1057D00030463946FAF7C8FECDE90201686AFAF7A1
:1057E0006BFE06460F46B0EE480AF0EE680A01F07E
:1057F00033FA53EC102B8DED000B30463946FAF797
:10580000B3FE02460B46DDE90201FAF7F7FCFBF7AF
:105810006DF908EE100A049088F00040FAF74CFE8B
:1058200002460B46DDE90001FAF79EFE80468946F6
:1058300032463B4650465946FAF796FE02460B461C
:1058400040464946FAF7DAFCFBF750F907EE900AB2
:105850000590F1EE486A76EEE76A95ED0A7A76EE03
:10586000876AC4ED0E6A77EEC86A77EE266AC4EDE1
:10587000256A78EE276A77EE266AC4ED3C6A38EE30
:10588000678A37EE088A84ED538A07B0BDEC028B35
:10589000BDE8F08FA44E00200000B443560E4940EE
:1058A000002214E0C2EB021300EB830309491961E3
:1058B0004FF07C515961084999610849996208493A
:1058C000D9620849196308499963013252B2032A1F
:1058D000E8DD70470000C8420000204100401C463F
:1058E00000803B4500409C450080BB4538B50546DF
:1058F000002411E0C4EB041005EB8000084B5C228F
:1059000002FB04339A6B02605B6C4360B7EE000AE3
:10591000FFF7CAFA013464B2032CEBDD38BD00BFD7
:10592000004F0020114B93F84F30012B13D0002370
:1059300018E0C3EB03110E4A02EB8102D2ED0D7A9F
:10594000FDEEE77A17EE902A20F8132001335BB2C0
:10595000032BEEDD70470023FAE7002220F8132026
:1059600001335BB2032BF8DD704700BFA44E00206B
:10597000D84B002000B589B02248FFF791FF16E010
:10598000214C224B0793EC4604F10C0EBEE80F00AD
:10599000ACE80F009EE807008CE8070094E80E00D2
:1059A0004FF40070FEF7F8FB0220FCF793FF184855
:1059B000FFF7E2FE134D2846FFF798FF154C1649F6
:1059C0002046FFF7C7FD29460420FFF731FE0F48A8
:1059D000FFF7A8FF94F84F30002BD1D10A4D0F4BA1
:1059E00007936C4605F10C0CBCE80F000FC49CE853
:1059F000070084E8070095E80E004FF40070FEF7FA
:105A0000CBFBD1E7D84B0020F0490020D04B002041
:105A1000004F0020A44E0020C04B0020E44900208D
:105A200010B52DED048B84B00C4600230093019338
:105A3000029303930278437843EA02231BB207EEF2
:105A4000903AF8EEE77ACDED007A8278C37843EAAF
:105A500002231BB25B4207EE103AB8EEC78A8DED07
:105A6000018A0279437943EA02231BB207EE103A16
:105A7000B8EEC79A8DED029A8279C37943EA022380
:105A80001BB207EE103AF8EEC78ACDED038A91ED0E
:105A9000001AB5EE401AF1EE10FA20D1DFED286AB7
:105AA00087EEA67A81ED007A94ED011AB5EE401AE0
:105AB000F1EE10FA2BD19FED227AC8EE077AC4EDF1
:105AC000017ADFED1F7A89EE277A84ED047A88EE79
:105AD000A77A84ED057A04B0BDEC048B10BD9FED70
