:020000040800F2
:1000000000000320D56900087154000873540008EB
:100010007554000877540008795400080000000067
:10002000000000000000000000000000310F000888
:100030007B54000800000000D10F00087D54000828
:10004000256A0008256A0008256A0008256A000854
:10005000256A0008256A0008256A0008256A000844
:10006000256A0008256A0008256A0008256A000834
:10007000256A0008256A0008256A0008256A000824
:10008000256A0008256A0008256A0008256A000814
:1000900095540008256A0008256A0008256A0008AA
:1000A000256A0008256A0008256A0008256A0008F4
:1000B000256A0008256A0008256A0008256A0008E4
:1000C000256A0008256A0008256A0008256A0008D4
:1000D000256A000859470008256A0008E1660008FB
:1000E000A5540008256A0008256A0008256A00084A
:1000F000256A0008256A0008256A0008256A0008A4
:10010000256A0008256A0008256A0008256A000893
:10011000256A0008256A0008256A0008256A000883
:10012000256A0008256A0008256A0008256A000873
:10013000256A0008256A0008256A0008256A000863
:10014000B1540008256A0008256A0008256A0008DD
:10015000256A0008256A0008256A0008256A000843
:10016000256A0008256A0008256A0008256A000833
:10017000256A0008256A0008256A000800000000BA
:10018000256A0008256A0008256A0008256A000813
:10019000256A0008256A0008256A0008256A000803
:0C01A0000000000000000000256A0008BC
:1001B00010B5054C237833B9044B13B10448AFF3A1
:1001C00000800123237010BD5400002000000000B7
:1001D000687F000808B5034B1BB103490348AFF320
:1001E000008008BD0000000058000020687F000863
:1001F00081F0004102E000BF83F0004330B54FEAD8
:1002000041044FEA430594EA050F08BF90EA020F44
:100210001FBF54EA000C55EA020C7FEA645C7FEAD7
:10022000655C00F0E2804FEA5454D4EB5555B8BFFA
:100230006D420CDD2C4480EA020281EA030382EA6B
:10024000000083EA010180EA020281EA0303362DFD
:1002500088BF30BD11F0004F4FEA01314FF4801CD0
:100260004CEA113102D0404261EB410113F0004FE2
:100270004FEA03334CEA133302D0524263EB430399
:1002800094EA050F00F0A780A4F10104D5F1200E37
:100290000DDB02FA0EFC22FA05F2801841F1000192
:1002A00003FA0EF2801843FA05F359410EE0A5F166
:1002B00020050EF1200E012A03FA0EFC28BF4CF097
:1002C000020C43FA05F3C01851EBE37101F000454D
:1002D00007D54FF0000EDCF1000C7EEB00006EEB5A
:1002E0000101B1F5801F1BD3B1F5001F0CD34908E4
:1002F0005FEA30004FEA3C0C04F101044FEA44523B
:1003000012F5800F80F09A80BCF1004F08BF5FEAC1
:10031000500C50F1000041EB045141EA050130BDA1
:100320005FEA4C0C404141EB0101013C28BFB1F5B3
:10033000801FE9D291F0000F04BF01460020B1FAFE
:1003400081F308BF2033A3F10B03B3F120020CDAD1
:100350000C3208DD02F1140CC2F10C0201FA0CF0AF
:1003600021FA02F10CE002F11402D8BFC2F1200C14
:1003700001FA02F120FA0CFCDCBF41EA0C019040CA
:10038000E41AA2BF01EB0451294330BD6FEA040413
:100390001F3C1CDA0C340EDC04F11404C4F12002FE
:1003A00020FA04F001FA02F340EA030021FA04F310
:1003B00045EA030130BDC4F10C04C4F1200220FA67
:1003C00002F001FA04F340EA0300294630BD21FAA5
:1003D00004F0294630BD94F0000F83F4801306BF6B
:1003E00081F480110134013D4EE77FEA645C18BF5F
:1003F0007FEA655C29D094EA050F08BF90EA020FF6
:1004000005D054EA000C04BF1946104630BD91EAED
:10041000030F1EBF0021002030BD5FEA545C05D1F0
:100420004000494128BF41F0004130BD14F580042F
:100430003CBF01F5801130BD01F0004545F0FE41A3
:1004400041F470014FF0000030BD7FEA645C1ABFD8
:10045000194610467FEA655C1CBF0B46024650EA0F
:10046000013406BF52EA033591EA030F41F400213B
:1004700030BD00BF90F0000F04BF0021704730B5C1
:100480004FF4806404F132044FF000054FF0000196
:1004900050E700BF90F0000F04BF0021704730B557
:1004A0004FF4806404F1320410F0004548BF40422C
:1004B0004FF000013EE700BF42004FEAE2014FEA81
:1004C00031014FEA02701FBF12F07F4393F07F4F5C
:1004D00081F06051704732F07F4208BF704793F05F
:1004E0007F4F04BF41F40021704730B54FF4607472
:1004F00001F0004521F000411CE700BF50EA010275
:1005000008BF704730B54FF000050AE050EA01021D
:1005100008BF704730B511F0004502D5404261EB8D
:1005200041014FF4806404F132045FEA915C3FF4CE
:10053000D8AE4FF003025FEADC0C18BF03325FEA6B
:10054000DC0C18BF033202EBDC02C2F1200300FA1C
:1005500003FC20FA02F001FA03FE40EA0E0021FA41
:1005600002F11444BDE600BF70B54FF0FF0C4CF42F
:10057000E06C1CEA11541DBF1CEA135594EA0C0FE1
:1005800095EA0C0F00F0DEF82C4481EA030621EA1C
:100590004C5123EA4C5350EA013518BF52EA033557
:1005A00041F4801143F4801338D0A0FB02CE4FF009
:1005B0000005E1FB02E506F00042E0FB03E54FF039
:1005C0000006E1FB03569CF0000F18BF4EF0010E31
:1005D000A4F1FF04B6F5007F64F5407404D25FEA2D
:1005E0004E0E6D4146EB060642EAC62141EA5551E0
:1005F0004FEAC52040EA5E504FEACE2EB4F1FD0C22
:1006000088BFBCF5E06F1ED8BEF1004F08BF5FEA9F
:10061000500E50F1000041EB045170BD06F0004651
:1006200046EA010140EA020081EA0301B4EB5C04FE
:10063000C2BFD4EB0C0541EA045170BD41F48011F6
:100640004FF0000E013C00F3AB8014F1360FDEBF1B
:10065000002001F0004170BDC4F10004203C35DAF7
:100660000C341BDC04F11404C4F1200500FA05F37A
:1006700020FA04F001FA05F240EA020001F000421B
:1006800021F0004110EBD37021FA04F642EB060191
:100690005EEA430E08BF20EAD37070BDC4F10C04BB
:1006A000C4F1200500FA04F320FA05F001FA04F27F
:1006B00040EA020001F0004110EBD37041F100016B
:1006C0005EEA430E08BF20EAD37070BDC4F1200576
:1006D00000FA05F24EEA020E20FA04F301FA05F2DE
:1006E00043EA020321FA04F001F0004121FA04F286
:1006F00020EA020000EBD3705EEA430E08BF20EA56
:10070000D37070BD94F0000F0FD101F0004640008F
:1007100041EB010111F4801F08BF013CF7D041EA11
:10072000060195F0000F18BF704703F00046520015
:1007300043EB030313F4801F08BF013DF7D043EAE6
:100740000603704794EA0C0F0CEA135518BF95EA9C
:100750000C0F0CD050EA410618BF52EA4306D1D123
:1007600081EA030101F000414FF0000070BD50EA42
:10077000410606BF1046194652EA430619D094EACC
:100780000C0F02D150EA013613D195EA0C0F05D1B6
:1007900052EA03361CBF104619460AD181EA03010A
:1007A00001F0004141F0FE4141F470014FF00000C2
:1007B00070BD41F0FE4141F4780170BD70B54FF05D
:1007C000FF0C4CF4E06C1CEA11541DBF1CEA1355DD
:1007D00094EA0C0F95EA0C0F00F0A7F8A4EB0504BF
:1007E00081EA030E52EA03354FEA013100F08880B6
:1007F0004FEA03334FF0805545EA131343EA12637F
:100800004FEA022245EA111545EA10654FEA002633
:100810000EF000419D4208BF964244F1FD0404F5EC
:10082000407402D25B084FEA3202B61A65EB030548
:100830005B084FEA32024FF480104FF4002CB6EB05
:10084000020E75EB030E22BFB61A754640EA0C0085
:100850005B084FEA3202B6EB020E75EB030E22BFC5
:10086000B61A754640EA5C005B084FEA3202B6EB06
:10087000020E75EB030E22BFB61A754640EA9C00C5
:100880005B084FEA3202B6EB020E75EB030E22BF95
:10089000B61A754640EADC0055EA060E18D04FEA53
:1008A000051545EA16754FEA06164FEAC30343EAF3
:1008B00052734FEAC2025FEA1C1CC0D111F4801FC0
:1008C0000BD141EA00014FF000004FF0004CB6E7B9
:1008D00011F4801F04BF01430020B4F1FD0C88BF58
:1008E000BCF5E06F3FF6AFAEB5EB030C04BFB6EB63
:1008F000020C5FEA500C50F1000041EB045170BD56
:100900000EF0004E4EEA113114EB5C04C2BFD4EB82
:100910000C0541EA045170BD41F480114FF0000E06
:10092000013C90E645EA060E8DE60CEA135594EA82
:100930000C0F08BF95EA0C0F3FF43BAF94EA0C0F85
:100940000AD150EA01347FF434AF95EA0C0F7FF4FA
:1009500025AF104619462CE795EA0C0F06D152EA4E
:1009600003353FF4FDAE1046194622E750EA410632
:1009700018BF52EA43067FF4C5AE50EA41047FF443
:100980000DAF52EA43057FF4EBAE12E74FF0FF3CA8
:1009900006E000BF4FF0010C02E000BF4FF0010C79
:1009A0004DF804CD4FEA410C7FEA6C5C4FEA430CF2
:1009B00018BF7FEA6C5C1BD001B050EA410C0CBF41
:1009C00052EA430C91EA030F02BF90EA020F0020A3
:1009D000704710F1000F91EA030F58BF994208BF0A
:1009E00090422CBFD8176FEAE37040F001007047C7
:1009F0004FEA410C7FEA6C5C02D150EA013C07D11E
:100A00004FEA430C7FEA6C5CD6D152EA033CD3D068
:100A10005DF8040B704700BF8446104662468C4662
:100A20001946634600E000BF01B5FFF7B7FF002895
:100A300048BF10F1000F01BD4DF808EDFFF7F4FFBE
:100A40000CBF012000205DF808FB00BF4DF808ED49
:100A5000FFF7EAFF34BF012000205DF808FB00BF6C
:100A60004DF808EDFFF7E0FF94BF012000205DF88E
:100A700008FB00BF4DF808EDFFF7CEFF94BF012043
:100A800000205DF808FB00BF4DF808EDFFF7C4FF3C
:100A900034BF012000205DF808FB00BF4FEA41028F
:100AA00012F5001215D211D56FF47873B3EB6252C0
:100AB00012D94FEAC12343F0004343EA505311F0E7
:100AC000004F23FA02F018BF404270474FF0000079
:100AD000704750EA013005D111F0004008BF6FF0B7
:100AE000004070474FF00000704700BF4FEA4102DE
:100AF000B2F1E04324BFB3F5001CDCF1FE5C0DD97C
:100B000001F0004C4FEAC0024CEA5070B2F1004FC5
:100B100040EB830008BF20F00100704711F0804FC8
:100B200021D113F13872BCBF01F00040704741F48D
:100B300080114FEA5252C2F11802C2F1200C10FA91
:100B40000CF320FA02F018BF40F001004FEAC12375
:100B50004FEAD32303FA0CFC40EA0C0023FA02F319
:100B60004FEA4303CCE77FEA625307D150EA0133EF
:100B70001EBF4FF0FE4040F44000704701F00040BF
:100B800040F0FE4040F40000704700BF53B94AB93E
:100B9000002908BF00281CBF4FF0FF314FF0FF3085
:100BA00000F06EB9ADF1080C6DE904CE00F006F866
:100BB000DDF804E0DDE9022304B070472DE9F047D9
:100BC000089D04468C46002B40F083808A421746DD
:100BD00047D9B2FA82F242B1C2F1200024FA00F001
:100BE0009140974040EA010C94404FEA1748230C8B
:100BF000BCFBF8F61FFA87FE08FB16C143EA014367
:100C000006FB0EF1994209D9FB1806F1FF3080F07E
:100C10001981994240F21681023E3B445B1AA4B20C
:100C2000B3FBF8F008FB103344EA034400FB0EFE6C
:100C3000A64509D93C1900F1FF3380F00581A6458E
:100C400040F2028102383C4440EA0640A4EB0E0424
:100C500000261DB1D4400023C5E900433146BDE85C
:100C6000F08702B9FFDEB2FA82F2002A50D1CB1B24
:100C70004FEA174E1FFA87F80126B3FBFEFC210C42
:100C80000EFB1C3341EA034108FB0CF38B4207D9EE
:100C900079180CF1FF3002D28B4200F2E9808446D1
:100CA000C91AA3B2B1FBFEF00EFB101143EA0144D6
:100CB00008FB00F8A04507D93C1900F1FF3302D228
:100CC000A04500F2D9801846A4EB080440EA0C4085
:100CD000BFE78B4209D9002D00F0B1800026C5E99D
:100CE000000130463146BDE8F087B3FA83F6002EA6
:100CF0004AD18B4202D3824200F2B880841A61EB5F
:100D0000030101208C46002DA8D0C5E9004CA5E7C1
:100D1000C2F1200320FA03F6974001FA02F04FEAED
:100D2000174ED9403043030CB1FBFEF61FFA87F88B
:100D30000EFB161143EA014306FB08F1994204FA3F
:100D400002F409D9FB1806F1FF3C80F08D8099422E
:100D500040F28A80023E3B445B1A81B2B3FBFEF054
:100D60000EFB103341EA034100FB08F38B4207D925
:100D7000791800F1FF3C73D28B4271D902383944A3
:100D8000CB1A40EA064678E7C6F1200C03FA06F4CF
:100D900022FA0CF31C4320FA0CF701FA06F34FEA8F
:100DA000144E21FA0CF11F433B0CB1FBFEF91FFA64
:100DB00084F80EFB191143EA014109FB08FA8A4540
:100DC00002FA06F200FA06F308D9611809F1FF30B9
:100DD00048D28A4546D9A9F102092144A1EB0A016A
:100DE000BFB2B1FBFEF00EFB101147EA014700FB5A
:100DF00008F8B84507D9E71900F1FF312ED2B845F8
:100E00002CD90238274440EA0940A7EB0807A0FB89
:100E100002894F45C64649461AD317D05DB1B3EB98
:100E20000E0267EB010707FA0CFCF2404CEA0202E3
:100E3000F740C5E9002700263146BDE8F0872E4679
:100E400028460BE70646E9E61846FDE64345E5D2A7
:100E5000B8EB020E69EB04010138DFE70846D2E780
:100E600060468DE78146B9E7664675E730464AE752
:100E7000ACF1020C394413E702383C4424E700BFCC
:100E8000704700BF82B0002301930D4B1B68B3F184
:100E9000FF3F08D04FF0500383F31188BFF36F8FEB
:100EA000BFF34F8FFEE74FF0500383F31188BFF37A
:100EB0006F8FBFF34F8F019B002BFCD002B07047A8
:100EC0000000002008480068006880F308884FF0A0
:100ED000000080F3148862B661B6BFF34F8FBFF392
:100EE0006F8F00DF00BF000008ED00E0DFF80C00AE
:100EF000016841F4700101607047000088ED00E076
:100F00004FF0807340F8043C21F0010140F8081CC8
:100F1000054B40F80C3C40F8202C6FF0020340F8E1
:100F2000243C4438704700BF850E000800000000D4
:100F3000074B19680868B0E8F04F80F30988BFF3E1
:100F40006F8F4FF0000080F311887047AFF300807F
:100F5000544300204FF0500383F31188BFF36F8F89
:100F6000BFF34F8F0A4A136801331360012B00D07F
:100F70007047084B1B6813F0FF0FF9D04FF0500378
:100F800083F31188BFF36F8FBFF34F8FFEE700BF6E
:100F90000000002004ED00E0094B1B6843B94FF04E
:100FA000500383F31188BFF36F8FBFF34F8FFEE7BA
:100FB000013B034A13600BB983F31188704700BFEC
:100FC0000000002000000000000000000000000001
:100FD000EFF30980BFF36F8F154B1A681EF0100FE7
:100FE00008BF20ED108A20E9F04F10602DE90900BC
:100FF0004FF0500080F31188BFF34F8FBFF36F8F16
:1010000002F0FCFC4FF0000080F3118809BC196865
:101010000868B0E8F04F1EF0100F08BFB0EC108A5F
:1010200080F30988BFF36F8F704700BFAFF3008074
:101030005443002008B54FF0500383F31188BFF3E9
:101040006F8FBFF34F8F02F07DFB18B1034B4FF052
:1010500080521A60002383F3118808BD04ED00E07C
:10106000084A0023136008490B60084B1B680849B5
:10107000A1FB03139B09013B06490B600723136087
:10108000704700BF10E000E018E000E01000002012
:10109000D34D621014E000E03A4B1A683A4B9A4282
:1010A00029D0384B1A68394B9A422DD010B582B0EE
:1010B000374B1A78D2B20192FF221A701B78DBB23A
:1010C0008DF803309DF8033003F05003314A13705C
:1010D000314B07221A609DF8033013F0800F1CD0AB
:1010E0002D4A1368013B13609DF803305B00DBB2AF
:1010F0008DF80330EFE74FF0500383F31188BFF30F
:101100006F8FBFF34F8FFEE74FF0500383F31188CB
:10111000BFF36F8FBFF34F8FFEE71F4B1B68032B8F
:1011200008D04FF0500383F31188BFF36F8FBFF3E4
:101130004F8FFEE71B0203F4E063174A1360019B25
:10114000DBB2134A1370154B1A6842F470021A602E
:101150001A6842F070421A60FFF782FF0024104BB9
:101160001C60FFF7C3FE0F4A136843F0404313604F
:10117000FFF7A8FE02F042FCFFF784FE204602B013
:1011800010BD00BF00ED00E071C20F4170C20F4101
:1011900000E400E0700000207400002020ED00E07A
:1011A0000000002034EF00E0EFF305830F2B0FD990
:1011B000104A9B5CDBB2104A12789A4208D94FF071
:1011C000500383F31188BFF36F8FBFF34F8FFEE798
:1011D0000A4B1B6803F4E063094A1268934208D97A
:1011E0004FF0500383F31188BFF36F8FBFF34F8F1E
:1011F000FEE77047F0E300E0700000200CED00E037
:101200007400002010B504460E4B18784FF47A7322
:10121000B3FBF0F30C4A1068B0FBF3F000F072FC83
:1012200068B90F2C01D901200AE0002221464FF0B5
:10123000FF3000F025FC054B1C60002000E0012081
:1012400010BD00BF04000020100000200800002096
:1012500008B50B4B1A6842F400721A601A6842F41F
:1012600080621A601A6842F480721A60032000F0EB
:10127000F5FB0F20FFF7C6FF04F0D8F8002008BDEB
:10128000003C0240034A1168034B1B780B44136077
:10129000704700BFB44A002004000020014B1868CA
:1012A000704700BFB44A002038B50446FFF7F6FF88
:1012B0000546B4F1FF3F02D0044B1B781C44FFF7F6
:1012C000EDFF401BA042FAD338BD00BF0400002050
:1012D000002800F0A18038B5044690F82030D3B142
:1012E0002268136843F001031360FFF7D7FF054638
:1012F00023685A6812F0010F10D1FFF7CFFF401B8F
:101300000A28F5D9636A43F400336362052384F83D
:101310002030012038BD02F0EDFFE1E71A6822F02D
:1013200002021A60FFF7BAFF054623685A6812F0F6
:10133000020F0DD0FFF7B2FF401B0A28F5D9636AF0
:1013400043F400336362052384F820300120E1E791
:10135000227E012A3DD01A6822F080021A60637E44
:10136000012B3BD02268136823F040031360A37E57
:10137000012B39D02268136823F020031360E37E29
:10138000012B37D02268136843F010031360237FCA
:10139000012B35D02268136823F008031360637FA4
:1013A000012B33D02268136823F004031360A36871
:1013B000E268134322691343626913436268013A86
:1013C00021681343CB6100206062012384F8203040
:1013D000A0E71A6842F080021A60C0E7226813682A
:1013E00043F040031360C2E72268136843F0200310
:1013F0001360C4E72268136823F010031360C6E784
:101400002268136843F008031360C8E72268136872
:1014100043F004031360CAE70120704790F82030BE
:10142000013BDBB2012B05D9436A43F480234362BD
:101430000120704770B4444BD3F8002242F00102FF
:10144000C3F80022D3F8002222F47C52C3F8002211
:10145000D3F80022486A42EA0022C3F800224A690F
:1014600002F01F02012000FA02F2D3F81C02D4435A
:1014700020EA0200C3F81C02CB69B3B9324BD3F89F
:101480000C022040C3F80C02CE688D88486945EAFA
:101490000645483043F830508E6808884D6940EA68
:1014A0000640483503EBC5035860CB69012B1DD0BE
:1014B0008B69002B32D12448D0F804322340C0F885
:1014C00004320B698BBB204BD3F814020440C3F8E1
:1014D00014420B6A012B2FD01B4AD2F8003223F0A2
:1014E0000103C2F80032002070BC7047164BD3F8DD
:1014F0000C021043C3F80C020E688D88486945EA57
:101500000645483043F830508E6888894D6940EA76
:101510000640483503EBC5035860C9E70A48D0F8D0
:1015200004321343C0F80432CBE70748D0F8143232
:101530001343C0F81432CCE70349D1F81C321A43E4
:10154000C1F81C22C8E700BF0064004070B5044623
:1015500090F82050EDB2012D06D0436A43F40023E9
:1015600043620125284670BD022380F820300268BE
:10157000136823F001031360FFF790FE064623680B
:101580005B6813F0010F0CD0FFF788FE831B0A2B5A
:10159000F5D9636A43F400336362052384F820308D
:1015A000E0E700256562DDE770B490F8204005684B
:1015B000AD68013CE4B2012C65D815F0E05F5CD069
:1015C000C5F30164022C05D9436A43F40003436266
:1015D00001205DE00125A5401D608B68002B39D1FD
:1015E0000E68CB68056843EA465604F118031B01F0
:1015F000EE5003680D6904F1180603EB06135D60F5
:101600000B7D012B31D0D17993791B0443EA01631F
:10161000517943EA0123157901682B4301EB041149
:10162000C1F88C31D17893781B0443EA0163517877
:1016300043EA0123117802680B4302EB0412C2F85B
:101640008831026818342401135943F001031351FF
:1016500000201DE04D6843EAC503CD6806682B43B2
:1016600004F118052D017351C3E7036803EB06135A
:10167000596841F480715960C5E7436A43F4001327
:101680004362012004E0436A43F480234362012063
:1016900070BC704730B490F82040013CE4B2012C9B
:1016A00000F2918051B90468E46814F0030F10D17E
:1016B000436A43F400134362012089E0046824690B
:1016C00014F0030F05D1436A43F400134362012071
:1016D0007EE0056801F11B0424012C5904F0040488
:1016E0009460002C61D1056801F11B0424012C5980
:1016F000640D1460056801F11B0424012D5905F0E7
:101700000205D560056825446D6805F00F05156173
:10171000056825446D68C5F30725956105682C4467
:101720006468240C5461026802EB0112D2F8B821FB
:101730001A70026802EB0112D2F8B821C2F3072234
:101740005A70026802EB0112D2F8B821C2F30742C4
:101750009A70026802EB0112D2F8B821120EDA7008
:10176000026802EB0112D2F8BC211A71026802EB86
:101770000112D2F8BC21C2F307225A71026802EBAF
:101780000112D2F8BC21C2F307429A71026802EB3F
:101790000112D2F8BC21120EDA7171B90268D36855
:1017A00043F02003D360002012E0056801F11B0420
:1017B00024012C59E40854609CE70268136943F043
:1017C00020031361EFE7436A43F48023436201205F
:1017D00030BC704790F82030013BDBB2012B05D9BB
:1017E000436A43F4802343620120704702685369CF
:1017F0001943516100207047704770477047704728
:101800007047704770477047704770477047704720
:101810002DE9F84F054603685C69D3F804809F689A
:10182000D3F80CB0D3F810A0D3F8189014F0010638
:101830003BD017F0010616D001229A6017F0020F74
:1018400008D117F0040F0CD117F0080606D04FF49A
:10185000805608E0FFF7D0FF002604E0FFF7CFFF37
:1018600001E04FF4006617F4807F0DD02B684FF431
:1018700080729A6017F4007F40F0868017F4806FC2
:1018800000F0868046F4005617F4803F0DD02B6898
:101890004FF480329A6017F4003F40F0838017F4D1
:1018A000802F00F0838046F4004614F0080F07D024
:1018B0001BF0100F04D046F400762B681022DA607B
:1018C00014F0040F02D01BF0080F79D114F0020FAE
:1018D00004D02B68DB6813F0030F78D114F0400FAD
:1018E00007D01AF0100F04D046F480662B6810223F
:1018F0001A6114F0200F02D01AF0080F6BD114F007
:10190000100F04D02B681B6913F0030F6AD114F475
:10191000003F02D018F0100F68D114F4803F02D0BD
:1019200018F0080F69D114F4004F7AD018F0040FA2
:1019300074D014F4807F04D019F0010F01D046F068
:10194000010614F4007F04D019F0020F01D046F014
:10195000020614F4806F04D019F0040F01D046F091
:10196000040614F4006F59D019F0700956D0B9F17B
:10197000400F65D058D8B9F1200F5ED0B9F1300FC3
:1019800042D146F0200644E02846FFF736FF7BE7C9
:1019900017F4006F02D046F4804675E72846FFF73B
:1019A0002FFF71E72846FFF729FF7EE717F4002F86
:1019B00002D046F4803678E72846FFF722FF74E726
:1019C0002B680822DA602846FFF71CFF7EE72846CE
:1019D00002F024FD82E72B6808221A612846FFF7EF
:1019E00013FF8CE72846FFF70EFF90E72B681022C5
:1019F0005A602846FFF709FF8FE72B6808225A60D4
:101A00002846FFF703FF8EE7B9F1100F01D146F02A
:101A100008062A68936923F0700393612B680422F7
:101A20005A609EB9BDE8F88FB9F1500F0BD0B9F1EB
:101A3000600FEED146F48076EBE746F01006E8E75B
:101A400046F04006E5E746F08006E2E76B6A1E4393
:101A50006E622846FFF7DBFEE4E70000074AD36822
:101A600023F4E0631B041B0C000200F4E06003435A
:101A700043F0BF6343F40033D360704700ED00E0F0
:101A800030B4174BDB68C3F30223C3F10704042C03
:101A900028BF04241D1D062D18D9033B4FF0FF3528
:101AA00005FA04F421EA0401994005FA03F322EA55
:101AB0000303194300280BDB0901C9B200F16040A0
:101AC00000F5614080F8001330BC70470023E5E763
:101AD00000F00F000901C9B2024B1954F4E700BF2E
:101AE00000ED00E014ED00E0002807DB00F01F022D
:101AF000400901239340024A42F82030704700BF5A
:101B000000E100E00138B0F1807F0AD2064B586056
:101B1000064AF02182F823100020986007221A60FC
:101B200070470120704700BF10E000E000ED00E0CA
:101B300010B40368D9B210390C4AA2FB0142120951
:101B40000B4CA25CC2655F2909D923F47F7323F093
:101B5000030304338365806D5DF8044B704723F401
:101B60007F7323F003038365F5E700BFABAAAAAA3E
:101B7000DC7F0008836A826992B9012B0AD0022BAC
:101B800002D00BB100207047C36A13F0807F28D1C8
:101B900000207047C36AB3F1C07F24D00020704793
:101BA000B2F5005F09D0022B25D9032B25D1C36ADA
:101BB00013F0807F23D100207047032B03D8DFE888
:101BC00003F01404140A00207047C36A13F0807FE6
:101BD0000DD100207047C36AB3F1C07F09D0002047
:101BE0007047012070470120704701207047012095
:101BF0007047012070470120704700207047012086
:101C00007047000070B50446FFF748FB002C5BD01E
:101C10000546022384F83530002384F834302268E6
:101C2000136823F00103136023681A6812F0010F90
:101C30000AD0FFF733FB431B052BF5D9202363653F
:101C4000032084F8350070BD1A6820481040616890
:101C5000A2680A43E1680A4321690A4361690A43A9
:101C6000A1690A43E1690A43216A0A430243616A9E
:101C700004291ED01A602668756925F00705636A75
:101C80001D43042B07D1A36A1D43E36A1BB1204601
:101C9000FFF770FF90B975612046FFF749FFE26DCD
:101CA0003F239340836000206065012384F8353032
:101CB000C9E7E16A206B01430A43DBE74023636520
:101CC000012084F83500BEE70120BCE73F8010F01A
:101CD00000230F2B00F2EA80F0B482B05EE0866849
:101CE0005F000324BC4026EA0406CC68BC403443B1
:101CF0008460466826EA02064C68C4F300129A40E3
:101D00003243426058E0DC08083450F8247003F095
:101D1000070296000F22B24027EA02070A69B24082
:101D20003A4340F824205BE0092200E00022B24060
:101D30003A4302345E4E46F824205E4A9468EA43F1
:101D400024EA05064F6817F4801F01D045EA04060F
:101D5000584CA660E46802EA04064F6817F4001FB6
:101D600001D045EA0406534CE660646802EA0406C2
:101D70004F6817F4003F01D045EA04064D4C6660F9
:101D8000246822404E6816F4803F01D045EA0402E0
:101D9000484C226001330F2B00F2858001229A40CB
:101DA0000C6804EA020532EA0404F3D14C6804F03A
:101DB0000304013C012C92D94A6802F00302032A71
:101DC00009D0C4685E000322B24024EA02048A6893
:101DD000B2402243C2604A6802F00302022A92D053
:101DE00004685E000322B24024EA02044A6802F05A
:101DF0000302B240224302604A6812F4403FC9D055
:101E0000002201922C4A546C44F480445464526C75
:101E100002F480420192019A9C08A61C244A52F8BE
:101E2000267003F0030296000F22B24027EA020751
:101E3000224A90423FF47AAF02F58062904222D06B
:101E400002F58062904220D002F5806290421ED05E
:101E500002F5806290421CD002F5806290421AD056
:101E600002F58062904218D002F58062904216D04E
:101E700002F58062904214D002F5806290423FF4F5
:101E800053AF0A2253E7012251E702224FE7032210
:101E90004DE704224BE7052249E7062247E70722E0
:101EA00045E7082243E702B0F0BC7047704700BF27
:101EB00000380140003C0140003802400000024070
:101EC0000369194201D001207047002070470000CB
:101ED00008B5054B5B69034200D108BD024B586150
:101EE00003F0E6FFF9E700BF003C014040B338B51E
:101EF000044603684CF6CC421A60036845F255521A
:101F00001A60036842685A60036882689A60FFF743
:101F1000C5F905462368DA6812F0030F0BD0FFF706
:101F2000BDF9401B3128F5D92368DB6813F0030F96
:101F3000F0D0032003E04AF6AA221A60002038BD40
:101F40000120704703684AF6AA221A6000207047F1
:101F500010B582B000230193194B1A6C42F08052E5
:101F60001A641B6C03F080530193019B154B0122F3
:101F70001A60FFF793F90446134B5B6813F4803F34
:101F800008D1FFF78BF9001BB0F57A7FF4D9032055
:101F900002B010BD0D4B01221A60FFF77FF9044615
:101FA000094B5B6813F4003F07D1FFF777F9001B7B
:101FB000B0F57A7FF4D90320EAE70020E8E700BF14
:101FC0000038024040000E420070004044000E42C3
:101FD000002800F0DF8170B582B00446036813F07A
:101FE000010F3BD0A64B9B6803F00C03042B2CD0B5
:101FF000A34B9B6803F00C03082B21D06368B3F557
:10200000803F4FD0B3F5A02F52D09D4B1A6822F4D9
:1020100080321A601A6822F480221A606368002BEA
:1020200050D0FFF73BF90546954B1B6813F4003F72
:1020300014D1FFF733F9401B6428F5D90320B0E130
:102040008F4B5B6813F4800FD8D08D4B1B6813F453
:10205000003F03D06368002B00F09E81236813F0DB
:10206000020F54D0864B9B6813F00C0F3ED0844B6C
:102070009B6803F00C03082B33D0E368002B67D078
:10208000804B01221A60FFF709F905467C4B1B685B
:1020900013F0020F53D1FFF701F9401B0228F5D9C5
:1020A00003207EE1764A136843F480331360B5E77A
:1020B000734B1A6842F480221A601A6842F4803224
:1020C0001A60ABE7FFF7EAF805466D4B1B6813F49F
:1020D000003FC3D0FFF7E2F8401B6428F5D9032086
:1020E0005FE1674B5B6813F4800FC6D1644B1B68DC
:1020F00013F0020F03D0E368012B40F04F81604AD8
:10210000136823F0F803216943EAC10313602368CD
:1021100013F0080F40D0636963B35B4B01221A6070
:10212000FFF7BCF80546564B5B6F13F0020F33D137
:10213000FFF7B4F8401B0228F5D9032031E1504ADB
:10214000136823F0F803216943EAC1031360DEE753
:102150004C4B00221A60FFF7A1F80546484B1B685C
:1021600013F0020FD3D0FFF799F8401B0228F5D9DE
:10217000032016E1444B00221A60FFF78FF8054652
:102180003F4B5B6F13F0020F06D0FFF787F8401B41
:102190000228F5D9032004E1236813F0040F78D056
:1021A000374B1B6C13F0805F0DD100230193344B30
:1021B0001A6C42F080521A641B6C03F08053019336
:1021C000019B012500E00025304B1B6813F4807F44
:1021D00021D0A368012B32D0052B36D0284B1A6FA3
:1021E00022F001021A671A6F22F004021A67A3682C
:1021F000002B34D0FFF752F80646214B1B6F13F02B
:10220000020F45D1FFF74AF8801B41F2883398420C
:10221000F3D90320C5E01D4A136843F480731360AB
:10222000FFF73CF80646194B1B6813F4807FD0D1AA
:10223000FFF734F8801B0228F5D90320B1E0104ADB
:10224000136F43F001031367D1E70D4B1A6F42F090
:1022500004021A671A6F42F001021A67C7E7FFF714
:102260001DF80646064B1B6F13F0020F10D0FFF748
:1022700015F8801B41F288339842F3D9032090E08F
:102280000038024000004742800E47420070004084
:10229000EDB9A369002B00F08380494A926802F0EF
:1022A0000C02082A51D0022B17D0464B00221A608C
:1022B000FEF7F4FF0446424B1B6813F0007F42D048
:1022C000FEF7ECFF001B0228F5D9032069E03C4A29
:1022D000136C23F080531364DBE73A4B00221A603F
:1022E000FEF7DCFF0546364B1B6813F0007F06D077
:1022F000FEF7D4FF401B0228F5D9032051E0E36923
:10230000226A1343626A43EA8213A26A5208013ABC
:1023100043EA0243E26A43EA0263294A5360294BD3
:1023200001221A60FEF7BAFF0446254B1B6813F022
:10233000007F06D1FEF7B2FF001B0228F5D903206B
:102340002FE000202DE000202BE0012B2BD01C4B98
:102350005B6803F48001E269914226D103F03F02F9
:10236000216A8A4223D1616A47F6C0721A40B2EBF1
:10237000811F1ED103F44031A26A5208013AB1EB29
:10238000024F18D103F07063E26AB3EB026F14D10D
:10239000002006E001207047012002E0012000E05B
:1023A000002002B070BD0120FBE70120F9E7012009
:1023B000F7E70120F5E70120F3E70120F1E700BF8F
:1023C0000038024060004742F8B5244B9B6803F098
:1023D0000C03042B3DD0082B3DD1204B5A6802F052
:1023E0003F025B6813F4800F12D01C4B5968C1F395
:1023F000881100231A48A1FB0001FEF7C7FB174B09
:102400005B68C3F3014301335B00B0FBF3F023E0EF
:10241000124B5B68C3F388135C010025E41A65F175
:102420000005AE0146EA9466A701381B66EB05017C
:10243000CC0044EA5074C500E81844F100018B0256
:1024400043EA90538402204619460023FEF79EFB80
:10245000D5E7034800E00348F8BD00BF003802405C
:10246000001BB7000024F400002800F09B8070B52A
:102470000D4604464F4B1B6803F00F038B4208D2F6
:10248000CBB24C4A1370136803F00F038B4240F039
:102490008B80236813F0020F17D013F0040F04D0C1
:1024A000454A936843F4E0539360236813F0080FA0
:1024B00004D0414A936843F4604393603E4A936872
:1024C00023F0F003A1680B439360236813F0010F1E
:1024D00032D06368012B21D09A1E012A25D9364AB1
:1024E000126812F0020F61D033498A6822F00302A9
:1024F00013438B60FEF7D2FE06462F4B9B6803F01A
:102500000C036268B3EB820F16D0FEF7C7FE801B88
:1025100041F288339842F0D9032042E0264A1268FB
:1025200012F4003FE0D101203BE0234A126812F090
:10253000007FD9D1012034E01E4B1B6803F00F034C
:10254000AB4207D9EAB21B4B1A701B6803F00F03AA
:10255000AB422DD1236813F0040F06D0164A9368BE
:1025600023F4E053E1680B439360236813F0080FF2
:1025700007D0114A936823F46043216943EAC103F9
:102580009360FFF721FF0C4B9B68C3F303130B4AC7
:10259000D35CD8400A4B18600A4B1868FEF732FE2D
:1025A000002070BD012070470120FAE70120F8E704
:1025B0000120F6E7003C0240003802408884000811
:1025C0001000002008000020014B1868704700BF71
:1025D0001000002008B5FFF7F7FF044B9B68C3F31A
:1025E0008223034AD35CD84008BD00BF00380240B4
:1025F0009884000808B5FFF7E7FF044B9B68C3F316
:102600004233034AD35CD84008BD00BF00380240C3
:102610009884000870B504460268136923F4405397
:10262000C1680B4313618368026913434269134312
:10263000C2691A430168CB6823F4164323F00C03E4
:102640001343CB600268536923F4407381690B43E1
:1026500053610368344A934206D002F58062934284
:1026600002D0FFF7B7FF01E0FFF7C4FFE369B3F55E
:10267000004F2AD00026051846EB06012D1846EB20
:102680000101CB0043EA5573EA0015461946636819
:102690009A009B0F281846EB0101FEF777FA234DAD
:1026A000A5FB00325109642303FB11031B013233E4
:1026B000A5FB03235B0903F0F00202EB011203F018
:1026C0000F03216813448B6070BD0026051846EB8C
:1026D00006012D1846EB0101CB0043EA5573EA00D1
:1026E0001546194662683346921846EB03032818CC
:1026F00046EB0101FEF74AFA0C4DA5FB00325109E9
:10270000642303FB1103DB003233A5FB03235B09C6
:102710005A0002F4F87202EB011203F00703216879
:1027200013448B60D0E700BF001001401F85EB51C0
:1027300058B310B5044690F83D300BB3242384F809
:102740003D302268D36823F40053D3602046FFF75E
:1027500061FF2268136923F490431361226853696F
:1027600023F02A0353612268D36843F40053D360F3
:1027700000202064202384F83D3084F83E3010BDD2
:1027800080F83C3004F052F8D8E70120704790F808
:102790003D30DBB2202B16D1B9B1C2B190F83C303C
:1027A000012B16D001628284C2840023036421229B
:1027B00080F83D2080F83C300168CA6842F0800211
:1027C000CA601846704702207047012070470120F8
:1027D0007047022070470000EFF305832BB9064BCA
:1027E000186828B901221A6070476FF00500704719
:1027F0004FF0FF30704700BFD4020020EFF3058395
:1028000073B90A4B1B68012B0DD110B50024084B7E
:10281000DC77064B02221A6000F03CFF204610BD18
:102820006FF0050070474FF0FF307047D402002072
:1028300000ED00E0F0B587B000240594EFF30584C7
:1028400074BB68B322B31568936903B918235C1E7F
:10285000372C49D8546814F0010F47D156696EB12E
:102860004FEA960C94682CB1D7685B2F02D9176990
:1028700007B1C6B92CB14FF0FF340EE04FF0800C19
:10288000F0E7D4688CB9146994B14FF0FF3404E0D8
:102890001546002418234FF0800C012C0AD0ACB14F
:1028A000059807B0F0BD0124F7E74FF0FF34F4E7D7
:1028B0000024F2E7146992680292019400930B4697
:1028C0006246294600F078FE0590E9E705AA0192E4
:1028D00000930B461FFA8CF2294600F0A7FE012850
:1028E000DED000230593DBE70020DAE70020D8E7FD
:1028F000EFF3058373B910B582B0044600F01CFFF6
:102900000190211A002908DD01A801F025F8002016
:1029100002B010BD6FF0050070476FF00300F7E7DD
:10292000034B0360034B0B6080231360704700BFB1
:102930007802002078000020034B0360034B0B60FB
:102940004FF4807313607047D8060020D80200202F
:1029500000F1080343604FF0FF328260C3600361FF
:1029600000230360704700230361704743684B6096
:102970009A688A6051609960086103680133036056
:10298000704730B40D68B5F1FF3F11D000F1080376
:102990001C465B681A68AA42FAD963684B60996062
:1029A0008C606160086103680133036030BC70476C
:1029B0000469F2E70369416882688A60416851608E
:1029C0005A68824206D0002202611A68013A1A60EF
:1029D0001868704782685A60F5E70000124A12F0E2
:1029E000070F1ED0D11D21F00701C1F5705313440C
:1029F0000A460E480260002141601344083B23F060
:102A000007030B48036059601960991A51601360FD
:102A1000084B1960084B1960084B4FF000421A60D0
:102A200070474FF47053E4E7380700204C43002010
:102A300034070020404300203C430020384300205E
:102A400010B4134B1A461B688342FBD351685418C9
:102A500084420AD041684418A3420BD003609042DC
:102A600000D010605DF8044B70474068014451602D
:102A70001046EFE7074C2468A34206D05B68194470
:102A8000416013681B680360E9E70460E7E700BF83
:102A90004C4300203407002070B5044600F044FE8B
:102AA000364B1B68A3B1364B1B681C424ED134B168
:102AB000083414F0070F02D024F007040834002C67
:102AC00046D0304B1B68A34251D32F4B1D6804E006
:102AD000FFF784FFE7E72B4615466A68A24202D259
:102AE0002A68002AF7D1254A1268AA4241D01E68F6
:102AF00008362A681A606B681B1B102B10D928191E
:102B000010F0070F08D04FF0500383F31188BFF384
:102B10006F8FBFF34F8FFEE743606C60FFF790FF4E
:102B20006A6818490B689B1A0B60184909688B4240
:102B300001D216490B60124B1B6813436B600023D4
:102B40002B60134A13680133136002E0002600E093
:102B5000002600F085FE16F0070F0CD04FF0500352
:102B600083F31188BFF36F8FBFF34F8FFEE700260B
:102B7000EFE70026EDE7304670BD00BF34070020C8
:102B8000384300203C4300204C43002040430020B9
:102B900044430020002834D038B50446A0F108058D
:102BA00050F8043C174A1268134208D14FF0500302
:102BB00083F31188BFF36F8FBFF34F8FFEE750F899
:102BC000081C41B14FF0500383F31188BFF36F8F9E
:102BD000BFF34F8FFEE723EA020340F8043C00F006
:102BE000A3FD54F8041C084A13680B4413602846DC
:102BF000FFF726FF054A13680133136000F030FE2B
:102C000038BD7047384300203C4300204843002033
:102C100010B50446FEF79EF9A26BE36B9A4204D00E
:102C20000024FEF7B9F9204610BD0124F9E710B5DC
:102C30000446FEF78FF9A36B23B90124FEF7ACF924
:102C4000204610BD0024F9E770B504461546866B92
:102C5000026C5AB903681BB100200136A66370BD2F
:102C6000806800F0F5FF0023A360F6E76DB94068C7
:102C700005F064F9226C636813446360A2689342B0
:102C800019D3236863602846E7E7C06805F056F962
:102C9000226C5142E3689B1AE3602268934202D29D
:102CA000A3680B44E360022D01D00020D5E726B1D4
:102CB000013E0020D1E72846CFE70020CDE70346BC
:102CC000026C6AB110B50846D9681144D9609C6895
:102CD000A14201D31968D960D96805F02FF910BD58
:102CE000704738B50546FEF735F995F8454064B2AA
:102CF00003E000F097FF013C64B2002C08DD6B6A32
:102D000033B105F1240000F0F9FE0028F3D0F0E71C
:102D1000FF2385F84530FEF73FF9FEF71BF995F8DC
:102D2000444064B203E000F07DFF013C64B2002C3B
:102D300008DD2B6933B105F1100000F0DFFE00283B
:102D4000F3D0F0E7FF2385F84430FEF725F938BDCE
:102D500038B5E0B10D460446FEF7FCF82168E26B99
:102D6000236C03FB0210A0600020A0636160013AA5
:102D700002FB0313E360FF2384F8443084F84530FA
:102D8000EDB9236963B9FEF707F9012038BD4FF0AB
:102D9000500383F31188BFF36F8FBFF34F8FFEE7AC
:102DA00004F1100000F0AAFE0028ECD0084B4FF010
:102DB00080521A60BFF34F8FBFF36F8FE3E704F1C8
:102DC0001000FFF7C5FD04F12400FFF7C1FDDAE7AD
:102DD00004ED00E038B51D46049C0B4649B924605B
:102DE000E063236401212046FFF7B2FF84F84C50D2
:102DF00038BD2260F4E740B94FF0500383F31188E7
:102E0000BFF36F8FBFF34F8FFEE730B585B01C4621
:102E1000054653B192B189B94FF0500383F311883D
:102E2000BFF36F8FBFF34F8FFEE74FF0500383F375
:102E30001188BFF36F8FBFF34F8FFEE76AB1502346
:102E40000393039B502B13D04FF0500383F311884F
:102E5000BFF36F8FBFF34F8FFEE70029EFD04FF026
:102E6000500383F31188BFF36F8FBFF34F8FFEE7DB
:102E7000039B012384F8463000949DF820302846B7
:102E8000FFF7A8FF204605B030BD0000F0B585B0C3
:102E9000019288B10E461D460446B1B1022D20D1E3
:102EA000E36B012B1DD04FF0500383F31188BFF368
:102EB0006F8FBFF34F8FFEE74FF0500383F31188FE
:102EC000BFF36F8FBFF34F8FFEE7036C002BE5D08E
:102ED0004FF0500383F31188BFF36F8FBFF34F8F11
:102EE000FEE700F0A5FE074658B9019B002B44D031
:102EF0004FF0500383F31188BFF36F8FBFF34F8FF1
:102F0000FEE7002739E02A4631462046FFF79CFEBF
:102F1000626A6AB938B13C4B4FF080521A60BFF315
:102F20004F8FBFF36F8FFEF737F8012005B0F0BD6C
:102F300004F1240000F0E2FD0028F4D0324B4FF001
:102F400080521A60BFF34F8FBFF36F8FEBE7FEF72E
:102F500023F80020EAE702A800F016FE012719E096
:102F6000002384F8443021E0002384F8453023E036
:102F70002046FFF7B6FE00F073FCFDF7EBFFA26BF7
:102F8000E36B9A42BFD3022DBDD0019B002BDED054
:102F9000002FE0D0FEF700F800F0C6FBFDF7DAFFE7
:102FA00094F844305BB2B3F1FF3FD9D094F8453088
:102FB0005BB2B3F1FF3FD7D0FDF7EEFF01A902A846
:102FC00000F0EEFDC8B92046FFF722FE0028CFD062
:102FD000019904F1100000F05DFD2046FFF781FE2D
:102FE00000F03EFC0028C8D1074B4FF080521A6019
:102FF000BFF34F8FBFF36F8FBFE72046FFF771FE20
:1030000000F02EFC002091E704ED00E02DE9F843EC
:1030100090B1894690461F460446B1B1022F20D197
:10302000E36B012B1DD04FF0500383F31188BFF3E6
:103030006F8FBFF34F8FFEE74FF0500383F311887C
:10304000BFF36F8FBFF34F8FFEE7036C002BE5D00C
:103050004FF0500383F31188BFF36F8FBFF34F8F8F
:10306000FEE7FEF7A1F8EFF311864FF0500383F36C
:103070001188BFF36F8FBFF34F8FA26BE36B9A4240
:1030800006D3022F04D0002086F31188BDE8F88310
:1030900094F845506DB2A36B3A4649462046FFF777
:1030A000D3FDB5F1FF3F05D06B1C5BB284F8453012
:1030B0000120E9E7636A0BB90120E5E704F1240088
:1030C00000F01CFD30B1B8F1000F05D00120C8F8A8
:1030D0000000D9E70120D7E70120D5E7F0B585B09A
:1030E000019290B10E460446C1B100F0A1FD074621
:1030F00000BB019B002B5CD04FF0500383F3118881
:10310000BFF36F8FBFF34F8FFEE74FF0500383F392
:103110001188BFF36F8FBFF34F8FFEE7036C002B57
:10312000E3D04FF0500383F31188BFF36F8FBFF3E9
:103130004F8FFEE700273CE031462046FFF7BFFDFA
:10314000013DA563236923B9FDF726FF012005B0E2
:10315000F0BD04F1100000F0D1FC0028F4D0354B94
:103160004FF080521A60BFF34F8FBFF36F8FEBE7C2
:10317000FDF712FF0020EAE702A800F005FD012795
:1031800021E0002384F8443029E0002384F845300E
:103190002BE02046FFF7A5FD00F062FB09E020468A
:1031A000FFF79FFD00F05CFB2046FFF740FD002885
:1031B0003DD1FDF7CFFEA56B002DBDD1019B002BAE
:1031C000D6D0002FD8D0FDF7E7FE00F0ADFAFDF71E
:1031D000C1FE94F844305BB2B3F1FF3FD1D094F814
:1031E00045305BB2B3F1FF3FCFD0FDF7D5FE01A96B
:1031F00002A800F0D5FC0028D1D12046FFF717FD2A
:103200000028C6D0019904F1240000F043FC2046B8
:10321000FFF767FD00F024FB0028CAD1054B4FF0F3
:1032200080521A60BFF34F8FBFF36F8FC1E700204A
:103230008DE700BF04ED00E0002300E00133072B21
:103240000BD8064A52F83320002AF7D1034A42F835
:10325000331002EBC303586070477047B84A002030
:1032600070B504460D461646FDF774FE94F84430DA
:103270005BB2B3F1FF3F0DD094F845305BB2B3F1D0
:10328000FF3F0BD0FDF788FEA36B5BB12046FFF735
:1032900028FD70BD002384F84430EDE7002384F856
:1032A0004530EFE73246294604F1240000F00AFCDD
:1032B000ECE70000084B1B681B6823B9074B4FF075
:1032C000FF321A607047044B1B68DB68DB685A6882
:1032D000024B1A60704700BF58430020FC47002093
:1032E0002DE9F04780460D4617469946089EDDF8C1
:1032F00024A00A9C9200A521206B04F02DFE236BD4
:1033000007F18042013A03EB820727F0070785B3F4
:1033100000220F2A07D8A95CA31883F83410AB5CED
:103320000BB10132F5E7002384F84330372E00D982
:103330003726E662E66400252565201DFFF713FBAE
:1033400004F11800FFF70FFB2461C6F13806A661EF
:103350006462656584F858504A4641463846FDF730
:10336000CFFD2060BAF1000F01D0CAF80040BDE8DF
:10337000F087002384F83430D8E7000038B5002403
:10338000372C08D804EB840293000E481844FFF74A
:10339000DFFA0134F4E70C4D2846FFF7D9FA0B4C5D
:1033A0002046FFF7D5FA0A48FFF7D2FA0948FFF797
:1033B000CFFA0948FFF7CCFA084B1D60084B1C6098
:1033C00038BD00BF60430020D4470020E8470020FC
:1033D000084800203448002020480020584300209E
:1033E0005C43002010B50446FDF7B4FD214A136884
:1033F00001331360204B1B685BB1204B1B686BB91A
:103400001D4B1B68DA6AE36A9A4207D81A4B1C60A4
:1034100004E0194B1C601368012B27D0184A13686D
:10342000013313606364E06A164B1B68984201D94C
:10343000144B186000EB8000211D134B03EB800040
:10344000FFF794FAFDF7A8FD0C4B1B686BB10A4B14
:103450001B68DA6AE36A9A4207D20C4B4FF080523B
:103460001A60BFF34F8FBFF36F8F10BDFFF786FF5A
:10347000D4E700BFC0470020544300201C48002070
:10348000CC470020D04700206043002004ED00E03E
:1034900010B5044690F8593063B1012B11D0022BBE
:1034A0000ED04FF0500383F31188BFF36F8FBFF33B
:1034B0004F8FFEE7006BFFF76DFB2046FFF76AFBBF
:1034C00010BDFFF767FBFBE70F4B1B68D3B110B5CF
:1034D000FDF740FD0D4BDB68DC68201DFFF76AFA45
:1034E0000B4A1368013B1360074A1368013B1360E2
:1034F000FDF752FD2046FFF7CBFF034B1B68002B67
:10350000E6D110BD704700BFC447002034480020FA
:10351000C047002008B5FFF7D7FF064B1B68012BFB
:10352000F9D9054B4FF080521A60BFF34F8FBFF3AC
:103530006F8FF0E76043002004ED00E070B50446B3
:103540000D46174B1E68174B18680430FFF732FA08
:10355000B4F1FF3F0DD03444124B1B685C60A642AF
:1035600010D9114B18680F4B19680431FFF709FA8D
:1035700070BD002DEFD00B4B196804310B48FFF7DD
:10358000F5F9F5E70A4B1868064B19680431FFF79F
:10359000F8F9084B1B68A342EAD9064B1C60E7E721
:1035A00048480020544300205C430020204800206D
:1035B00058430020FC47002070B586B00B9D0C9C42
:1035C00075B1B4B15C260496049E5C2E1AD04FF0FF
:1035D000500383F31188BFF36F8FBFF34F8FFEE764
:1035E0004FF0500383F31188BFF36F8FBFF34F8FFA
:1035F000FEE74FF0500383F31188BFF36F8FBFF3E3
:103600004F8FFEE7049E2563022584F8595000255C
:103610000395029405AD01950A9D0095FFF760FEA4
:103620002046FFF7DFFE059806B070BD2DE9F04398
:1036300085B00746884614461E469000FFF72CFAD0
:1036400000B381465C20FFF727FA0546B0B1C0F809
:103650003090E5B1002385F85930039302950D9B16
:1036600001930C9B00933346224641463846FFF7B0
:1036700037FE2846FFF7B6FE012005E04846FFF773
:1036800089FAE6E74FF0FF3005B0BDE8F0834FF070
:10369000FF30F9E710B588B000240594069407AA16
:1036A00006A905A8FFF73CF9059B0293069B019329
:1036B00000942346079A17491748FFF77DFF48B142
:1036C00000F07AFB0346012B06D0B3F1FF3F18D080
:1036D00008B010BD0023F6E74FF0500383F31188C4
:1036E000BFF36F8FBFF34F8F0C4B4FF0FF321A6059
:1036F0000B4B01221A600B4B00221A60FDF7CCFC29
:10370000E6E74FF0500383F31188BFF36F8FBFF3E9
:103710004F8FFEE7E47F000815350008FC470020C6
:103720001C48002048480020024A136801331360F7
:10373000704700BFC8470020014B1868704700BFA2
:1037400048480020F8B53B4B1B68002B6AD13A4B28
:103750001D6801351D60C5B9384B1B681B6843B136
:103760004FF0500383F31188BFF36F8FBFF34F8F78
:10377000FEE7324A1168324B186810601960314A0E
:10378000136801331360FFF795FD2F4B1B68AB42A5
:1037900011D900242D4B1B68DB6A03EB83039A00CD
:1037A0002B4B9B58012B00D901242A4B1B68002B63
:1037B0003DD001243BE0002416E0234B4FF0FF32C4
:1037C0001A60E7E7204A1360E4E703EB83039A00FB
:1037D00039461F481044FFF7C9F8F26A1B4B1B68B3
:1037E000DB6A9A4200D30124144B1B681B68002B30
:1037F000E3D0124B1B68DB68DE6873689D42E1D33F
:10380000371D3846FFF7D6F8B36A1BB106F118002A
:10381000FFF7D0F8F36A104A12689342D5D90E4ADE
:103820001360D2E70D4A1368013313600024204669
:10383000F8BD00BFC847002048480020584300207A
:103840005C43002000480020FC4700205443002037
:10385000604300204C480020D0470020044800204E
:1038600038B5344B1B6843B94FF0500383F31188CC
:10387000BFF36F8FBFF34F8FFEE7FDF76BFB2D4B51
:103880001A68013A1A601B68002B4DD12A4B1B683D
:103890000BB9002449E00024284B1B681BB3274BBD
:1038A000DB68DC6804F11800FFF784F8251D284662
:1038B000FFF780F8E06A224B1B68984201D9204B41
:1038C000186000EB800029461E4B03EB8000FFF7D9
:1038D0004DF8E26A1C4B1B68DB6A9A42DCD31B4B37
:1038E00001221A60D8E70CB1FFF7E4FC184B1C6802
:1038F00074B9164B1C68C4B1164B4FF080521A6055
:10390000BFF34F8FBFF36F8F01240EE0013C07D050
:10391000FFF718FF0028F9D00C4B01221A60F5E7D9
:103920000B4B00221A60E4E70024FDF735FB20462C
:1039300038BD00BFC8470020C0470020084800200D
:10394000D047002060430020544300204C48002012
:103950000448002004ED00E038B558B10C46054697
:1039600089B94FF0500383F31188BFF36F8FBFF312
:103970004F8FFEE74FF0500383F31188BFF36F8F33
:10398000BFF34F8FFEE71A4B1B6843B14FF0500354
:1039900083F31188BFF36F8FBFF34F8FFEE7FFF7FD
:1039A000C3FE144B18682A681444824209D9A24203
:1039B00001D82C600EE0A04201D32C600AE02C60FC
:1039C00004E0A24201D8A04210D22C600021201AAB
:1039D000FFF7B4FDFFF744FF38B9074B4FF08052B3
:1039E0001A60BFF34F8FBFF36F8F38BD2C60F1E7C4
:1039F000C84700204848002004ED00E0204B1B6829
:103A00001BB1204B01221A6070471E4B00221A6026
:103A10001D4B1B6803EB83018A001C498A585AB965
:103A20000BB1013BF6E74FF0500383F31188BFF36E
:103A30006F8FBFF34F8FFEE710B403EB830082005C
:103A40000A4450684068506003EB8304A2001446A7
:103A50000832114488420DD003EB830291000B4AD7
:103A60000A445268D1680A4A1160074A13605DF837
:103A7000044B70474068054A22445060ECE700BFA1
:103A8000C84700204C480020D04700206043002059
:103A90005443002058B110B50C46094B1968183131
:103AA000FEF76FFF01212046FFF748FD10BD4FF0E4
:103AB000500383F31188BFF36F8FBFF34F8FFEE77F
:103AC0005443002038B570B10C4615460A4B1968AE
:103AD0001831FEF74BFF0DB14FF0FF342946204659
:103AE000FFF72CFD38BD4FF0500383F31188BFF36F
:103AF0006F8FBFF34F8FFEE75443002038B5C36884
:103B0000DC6824B304F118052846FEF753FF184B70
:103B10001B682BBB251D2846FEF74CFFE06A154BA2
:103B20001B68984201D9134B186000EB80002946AE
:103B3000114B03EB8000FEF719FFE26A0F4B1B6885
:103B4000DB6A9A4211D901200D4B18600EE04FF04C
:103B5000500383F31188BFF36F8FBFF34F8FFEE7DE
:103B600029460848FEF702FFE7E7002038BD00BFFE
:103B7000C8470020D0470020604300205443002065
:103B80004C48002008480020034B1B680360034B8F
:103B90001B684360704700BF004800204848002071
:103BA000F8B5C8B10C460546F9B1FDF7D3F91B4B82
:103BB00019686B68C81A2268B2F1FF3F26D02F68D7
:103BC000174E3668B74201D08B4224D9824215D8AD
:103BD0000023236001241AE04FF0500383F311887F
:103BE000BFF36F8FBFF34F8FFEE74FF0500383F3A8
:103BF0001188BFF36F8FBFF34F8FFEE75B1A13443B
:103C000023602846FFF7C0FF002400E00024FDF7F2
:103C1000C3F92046F8BD0124F9E700BF4848002059
:103C200000480020014B01221A6070474C480020D8
:103C3000054B1B6833B1054B1B680BB10020704767
:103C400002207047012070471C480020C847002010
:103C500000283BD038B504461E4B1B68834208D071
:103C60004FF0500383F31188BFF36F8FBFF34F8F73
:103C7000FEE7036D43B94FF0500383F31188BFF3A0
:103C80006F8FBFF34F8FFEE7013B0365C16AC26CC4
:103C900091421DD00BB1002038BD051D2846FEF70E
:103CA00089FEE06CE062C0F13803A3610A4B1B6837
:103CB000984201D9084B186000EB80002946074B59
:103CC00003EB8000FEF752FE0120E5E7002070477D
:103CD0000020E1E754430020D0470020604300204B
:103CE000064B1A6813682BB90123036023B9D36804
:103CF000186870470023F8E70020704750480020FC
:103D000008B54160006191420CD8D21A83699A4289
:103D100001D3012008BD011D094B1868FEF731FED3
:103D20000020F7E79A4201D2994206D2011D054BC5
:103D30001868FEF726FE0020ECE70120EAE700BF46
:103D4000544800205048002030B583B0FDF702F9F8
:103D5000114B1B681BB1FDF71FF903B030BD0F4DB0
:103D60002846FEF7F5FD0E4C2046FEF7F1FD0D4B03
:103D70001D600D4B1C60002300930C4B0C4A10215E
:103D80000A20FFF738F8044B18600028E3D00949EF
:103D9000FFF752FADFE700BF74490020F84800201F
:103DA0000C4900205048002054480020244900209D
:103DB00058480020EC7F000810B588B0FFF7C4FF1A
:103DC000124B1B68CBB100240594069407AA06A9E0
:103DD00005A8FEF7B1FD059B0293069B0193022304
:103DE00000932346079A0A490A48FFF7E5FB0A4A67
:103DF000106010B1012008B010BD4FF0500383F3E4
:103E00001188BFF36F8FBFF34F8FFEE77449002017
:103E1000F47F00081D41000878490020C0B110B5AA
:103E200084B014461A4603461648006838B3009119
:103E30000194029305291CDCFFF7FAFE022810D03A
:103E400000231A4669460F480068FFF71FF814E080
:103E50004FF0500383F31188BFF36F8FBFF34F8F81
:103E6000FEE70023069A694606480068FFF70EF849
:103E700003E000236946FFF7C9F804B010BD002035
:103E8000FBE700BF7449002070B582B01B4B1B6874
:103E90001A6862B3DB681E68DC68251D2846FEF7D9
:103EA00089FD236A2046984794F8283013F0040FC0
:103EB000ECD0A36933449E4207D263602461294653
:103EC0000E4B1868FEF75DFDE0E7002100910B4600
:103ED00032462046FFF7A2FF0028D7D14FF050030B
:103EE00083F31188BFF36F8FBFF34F8FFEE7044A50
:103EF000106802490860136002B070BD504800208D
:103F00005448002038B50546FFF716FC0446074B19
:103F10001B68834205D800232B60044B1C6020469D
:103F200038BDFFF7B1FF01232B60F6E720490020E1
:103F300070B582B005460E46174B1B68DB68DC681F
:103F4000201DFEF737FD94F8283013F0040F08D138
:103F500023F0010384F82830236A2046984702B0F2
:103F600070BDA1692B46324629442046FFF7C8FEA2
:103F70000028F1D0002100910B462A462046FFF789
:103F80004DFF0028E8D14FF0500383F31188BFF3B1
:103F90006F8FBFF34F8FFEE75048002070B582B09F
:103FA00006460C46FFF7C0FB01A8FFF7ABFF019BDD
:103FB00023BB05460CB9B04217D224B1114A12688E
:103FC0001268CAB901242246711B0F4B1868FFF70B
:103FD00047F9FFF745FC98B90C4B4FF080521A6037
:103FE000BFF34F8FBFF36F8F0AE0FFF739FC29460D
:103FF0003046FFF79DFF03E01C46E4E7FFF730FC87
:1040000002B070BD544800207449002004ED00E067
:1040100010B588B006E007990698059B9847049B61
:10402000002B0BDA002204A93B4B1868FFF756F867
:1040300000286FD0049B002BF1DAECE7069C636943
:1040400013B1201DFEF7B6FC03A8FFF75BFF049B2E
:10405000092BE7D8DFE803F00505053037500505E3
:10406000303794F8283043F0010384F82830059B5A
:10407000A169024619442046FFF742FE0028D1D02C
:10408000236A2046984794F8283013F0040FC9D0CB
:10409000A269002100910B46059802442046FFF7D3
:1040A000BDFE0028BED14FF0500383F31188BFF34B
:1040B0006F8FBFF34F8FFEE794F8283023F0010392
:1040C00084F82830AEE794F8283043F0010384F8F0
:1040D00028300599A16131B10346024601442046CA
:1040E000FFF70EFE9EE74FF0500383F31188BFF3F6
:1040F0006F8FBFF34F8FFEE794F8283013F0020F55
:1041000004D023F0010384F828308BE72046FEF723
:1041100041FD87E708B010BD7449002000B583B0A9
:1041200001A8FFF7DDFD0199FFF738FFFFF770FFEA
:10413000F6E7000010B58AB001220892002306932A
:1041400007920093019302930393059304930E4CFB
:1041500069462046FDF762F92046FDF7F7F902218E
:104160002046FDF737FB0E2309930593074C69465C
:104170002046FDF753F92046FDF7E8F902212046D5
:10418000FDF728FB0AB010BD204B0020F84A0020A4
:1041900084B010B582B0044605A880E80E000F9BDD
:1041A00013490C6000228A60CA6008220A61114A21
:1041B00093F901401470B3F90040547093F903402F
:1041C0009470B3F90240D47093F905401471B3F9B7
:1041D0000440547193F907409471B3F90630D371D8
:1041E00001ABFDF7E1F902B0BDE8104004B0704743
:1041F0007C4900209449002030B405686C6944F083
:1042000040046C610568EC6844F01004EC60846B59
:1042100025682C6824F001042C600C68256815F0D2
:10422000010F06D0846B25682C6824F001042C60F3
:10423000F3E705680435A5600C68E2600A6813615D
:104240000B68BDF808205A600A68136843F480239D
:104250001360836B1A68136843F00103136030BC6A
:10426000704708B50B4692000146184603F066FEFB
:1042700008BD000008B50D480D4B036005234360E1
:1042800000238360C3604FF4003202614FF4800268
:104290004261037643768376C37603774377FDF7EF
:1042A00017F800B908BD01F049F8FBE7204B0020E2
:1042B0000064004008B50D480D4B036005234360C2
:1042C00000238360C3604FF4003202614FF4800228
:1042D0004261037643768376C37603774377FCF7B0
:1042E000F7FF00B908BD01F029F8FBE7F84A002004
:1042F0000068004010B58AB0002305930693079329
:104300000893099303683F4A934204D03E4A93427C
:1043100035D00AB010BD3D4A136801331360012B3C
:1043200020D0002401943A4B1A6B42F008021A6321
:104330001B6B03F008030193019B032305930222E7
:104340000692079408930923099305A93148FDF7BC
:10435000BFFC224605211420FDF792FB1420FDF737
:10436000C3FBD6E700230093294B1A6C42F000727E
:104370001A641B6C03F000730093009BD1E70023C9
:104380000293234B1A6C42F080621A641B6C03F098
:1043900080630293029B1D4A136801331360012B53
:1043A00022D0002404941A4B1A6B42F002021A63C2
:1043B0001B6B03F002030493049B4FF440530593DB
:1043C000022306930794032308930923099305A95D
:1043D0001148FDF77DFC224605214020FDF750FBEA
:1043E0004020FDF781FB94E700230393084B1A6CF0
:1043F00042F000721A641B6C03F000730393039B7A
:10440000CFE700BF0064004000680040A4490020DE
:1044100000380240000C02400004024010B58AB08F
:10442000044601AB03AA0021FDF734F92368494A89
:10443000934204D0484A934264D00AB010BD039B13
:10444000464A5268934221D0444A126E934229D080
:10445000424AD2F8BC20934230D0404AD2F81821C8
:10446000934237D03E4A526893423FD03D4A526809
:104470009342E2D13B4C214601A800F0A3FC3A490B
:10448000606801F0F9FA394B1870D6E7334C2146D1
:1044900001A800F097FC3449606801F0EDFA334B55
:1044A0001870CAE7324C214601A800F08BFC2E4957
:1044B000606801F0E1FA2D4B1870BEE72D4C2146E3
:1044C00001A800F07FFC2849606801F0D5FA274B6D
:1044D0001870B2E7284C214601A800F073FC22496D
:1044E000606801F0C9FA214B1870A6E71C4C214600
:1044F00001A800F067FC1C49606801F0BDFA1B4B85
:1045000018709AE7039B40F21122934215D040F2B3
:104510006662934291D11948FDF714FD184901A82C
:1045200001F022FA174940F2666001F0A5FA164B35
:104530001870164B01221A707FE7154901A801F087
:104540005DF8104940F2112001F096FA0E4B1870F8
:1045500073E700BF0064004000680040FC4E00208C
:104560003C4E0020E04D002014000020BC490020FB
:10457000584F0020B44F002010500020084C00205D
:10458000C04D002034000020BD490020A849002073
:10459000AC49002000B583B0054B24220092A3F162
:1045A000240204490448FFF727FE03B05DF804FB2A
:1045B0006C4B0020145A0020745A0020002800F090
:1045C000C0800346002900F0BC80F0B45D485E4C1A
:1045D0002568D4F804C0A768E6680560C0F804C080
:1045E0008760C66025690561A48A84825748584C53
:1045F000D4F800C06768A668E568C0F800C04760E6
:104600008660C560247C04741F78587847EA0027C8
:10461000C7F30A070F805E789878F60846EA4016D6
:10462000C6F30A064E809878DC78800940EA840058
:104630001C7940EA8420C0F30A0088801C795D79E7
:10464000640844EAC514C4F30A04CC805D79C5F358
:104650000115CD725D79AD098D729D7993F807C012
:1046600045EA0C258D811D7A93F809C045EA0C2591
:10467000CD819D7A93F80BC045EA0C250D821D7BF8
:104680008D745D7BCD7493F80EC0DD7B4CEA052CF8
:10469000A1F814C01D7C5B7C45EA03231BB2A7F57F
:1046A00080670F80A6F580664E80A0F580608880C8
:1046B000A4F58064CC80A3F580630B810CF001032A
:1046C00053708B8AC3F34003D3708B8AC3F3800388
:1046D00093708B8AC3F3C00313718B8AC3F30013E7
:1046E00013728B8AC3F34013D3718B8AC3F3801385
:1046F00053718B8AC3F3C01393718B8AC3F3002366
:1047000053728B8AC3F3402393728B8AC3F3802343
:10471000D3728B8AC3F3C02313738B8AC3F3003322
:1047200053738B8AC3F3403393738B8AC3F3803301
:10473000D3738B8ADB0B1374064B01221A70F0BC07
:1047400070477047BC4B0020A44B0020904B0020CA
:10475000D44B0020A949002000B583B0284B1B682A
:104760001A6812F0200F09D0002200921A680092F5
:104770005B680093009B03B05DF804FB1A6812F0BD
:10478000100FF8D0002201921A6801925B68019321
:10479000019B1C4B1A685368C3F124039BB21A494E
:1047A0000B8024215160116811F4002F12D111687F
:1047B00041F400211160122B06D0124B1A681368C5
:1047C00043F001031360D6E7104A11491148FFF77F
:1047D000F5FEF2E7104A136823F4002313600A4B36
:1047E0001B88122B06D0074B1A68136843F001038D
:1047F0001360C0E7054A06490848FFF7DFFEF2E705
:10480000745A0020145A0020AA490020D44B0020DA
:10481000A44B0020484B0020406402406C4B002019
:1048200010B582B000240094164B1A6B42F480023B
:104830001A631A6B02F480020092009A01941A6BB8
:1048400042F400121A631B6B03F400130193019BE3
:10485000224605210C20FDF713F90C20FDF744F941
:10486000224605210E20FDF70BF90E20FDF73CF93D
:10487000224605213A20FDF703F93A20FDF734F9E5
:1048800002B010BD0038024008B51C4A00211C4887
:10489000FDF7D0FF1B4B18601B4A00211B48FDF79A
:1048A000C9FF1B4B18601B4A00211B48FDF7C2FFC4
:1048B0001A4B18601A4A00211A48FDF7BBFF1A4B21
:1048C00018601A4A00211A48FDF7B4FF194B186006
:1048D000194A00211948FDF7ADFF194B1860194A14
:1048E00000211948FDF7A6FF184B1860184A00214F
:1048F0001848FDF79FFF184B186008BD408100085D
:1049000099670008FC4B0020F8800008A55A0008B1
:10491000F44B00201C8100080D5E0008F04B0020C5
:10492000D4800008C1580008044C00208C80000886
:10493000315A0008004C002068800008D554000857
:10494000EC4B0020B080000855560008E84B0020D2
:10495000648100082D640008F84B002010B58AB06F
:1049600000240894099401941E4B1A6B42F0010232
:104970001A631A6B02F001020192019A02941A6BF7
:1049800042F002021A631A6B02F002020292029AC9
:1049900003941A6B42F008021A631A6B02F00802C1
:1049A0000392039A04941A6B42F080021A631B6B01
:1049B00003F080030493049B4FF4805305934FF45A
:1049C000441306930223079305A90748FDF780F9CE
:1049D000224605212820FDF753F82820FDF784F80A
:1049E0000AB010BD00380240000C024008B507486C
:1049F000074B03600323436040F2E7338360FDF716
:104A000075FA00B908BD00F099FCFBE7084C0020DE
:104A100000300040034610464A1E31B113F8011B16
:104A200041400248405C1146F6E770478881000823
:104A300070B138B5054602290CD94C1EFF2221461B
:104A4000FFF7E8FF2B5D834214BF0020012038BD33
:104A5000002070470020FAE7034698B1481E99B13C
:104A600010B413F8011B5140C9B2084C34F81110AE
:104A700081EA1222014601380029F2D110465DF880
:104A8000044B70474FF6FF7210467047888200084B
:104A9000D8B170B50C460646022918D98D1E0D4BAB
:104AA0001A882946FFF7D8FFC2B2735D9A4201D037
:104AB000002070BDC0F30F20344414F8013C98422C
:104AC00001D00020F5E70120F3E700207047002027
:104AD000EFE700BF0C00002003460160501E0844B1
:104AE00058609A600020D8601961596170472DE9BB
:104AF000F843EFF3108872B6002932D004460F460F
:104B0000856875B343694668B34201D90368436158
:104B10009542A8BF15466069361A0136B54211DCC8
:104B20002A46394603F00AFA63692B446361A36895
:104B30005B1BA360E3682B44E36088F3108828467E
:104B4000BDE8F883A5EB06093246394603F0F6F9CD
:104B50004A46B919206803F0F1F922684A446261B3
:104B6000E5E788F310884FF0FF35E8E70346EFF3F9
:104B7000108172B600695A68904201D91A681A61A8
:104B80001A6912F8010B1A619A6801329A60DA68A0
:104B9000013ADA6081F310887047C06870470000FE
:104BA00030B599B00446012923D002293AD091B1F9
:104BB0005C252A46002101A803F0CEF9264B049378
:104BC000264B05934FF07E5309932A4601A92046B0
:104BD00003F0B4F90AE05C252A46214901A803F054
:104BE000ADF92A4601A9204603F0A8F9204619B0DC
:104BF00030BD5C252A46002101A803F0ADF9012350
:104C00008DF80430144B0493144B0593154B069305
:104C1000154B0793154B09932A4601A9204603F02B
:104C20008DF9E3E75C252A46002101A803F094F9F9
:104C300002238DF80430084B0493084B05930C4B6A
:104C400006930C4B07934FF07E5309932A4601A914
:104C5000204603F073F9C9E7000034C30000344371
:104C6000807F000800A08C4600401C4600001042D7
:104C7000000096430060EA4610B50C4692F92830D1
:104C800092F924108B4207D0002B0CDB8B420ADAFE
:104C9000013382F8283009E0DFED070AB7EE000A99
:104CA00000F066F902E0002382F82830B7EE000A2F
:104CB000204600F0E1F810BD0000964370EE607AE7
:104CC000F4EEC10AF1EE10FA04D8B4EEC10AF1EE26
:104CD00010FA1DDAB4EEC10AF1EE10FA09D531EE80
:104CE000671AB4EEC10AF1EE10FAF8D4B0EE410A38
:104CF0007047F4EEC10AF1EE10FA0CDD31EE271A1E
:104D0000F4EEC10AF1EE10FAF8DCB0EE410A704799
:104D1000B0EE410A7047B0EE410A704710B52DED74
:104D2000028B044690ED0C8AD0ED0B7A78EE677A10
:104D3000C0ED0B7A9FED1E7AF4EEC77AF1EE10FA11
:104D40001BDD9FED1C7A77EEC77AC0ED0B7A94EDF0
:104D5000087AD4ED0B6AC6EE877AC4ED0B7A6378D5
:104D6000012B18D194ED101A31EE271A84ED101A88
:104D700084ED0B8ABDEC028B10BD9FED0F7AF4EE33
:104D8000C77AF1EE10FAE2D59FED0A7A77EE877ACC
:104D9000C0ED0B7ADBE794ED101A37EE811ADFEDE8
:104DA000070A9FED070AFFF789FF84ED100ADFE786
:104DB000000016430000B443000016C3000034C3D3
:104DC0000000344338B52DED028B05460C468B7838
:104DD00007EE903AF8EE677AB6EE008A77EEC87A78
:104DE000F1EE677A37EEA78A0278437843EA022326
:104DF0001BB207EE903AF8EEE77A9FED1C7A67EE69
:104E0000877ADFED1B6A87EEA67A67EE087AC1ED36
:104E10000C7A0846FFF782FFAA78EB7843EA022370
:104E20001BB2D4ED086A07EE903AF8EEE77A87EE07
:104E3000A67A67EE087AC4ED117AAA78EB7843EA8D
:104E400002231BB20B4A82FB03121A44DB17C3EB8B
:104E500022331BB207EE903AF8EEE77A67EE887AD3
:104E6000C4ED167ABDEC028B38BD00BF0000B44320
:104E700000F8FF4521000480D0ED035AC0ED025A2E
:104E8000D0ED007A90ED017A77EEC77AC0ED037A23
:104E900090ED046A27EE866A90ED057A27EE877A10
:104EA00027EE007AD0ED086A37EE267AD0ED066A52
:104EB00077EEE57A66EEA77A27EE800AD0ED0A6AE9
:104EC000F1EE667AB4EEE76AF1EE10FA06D4B4EECB
:104ED000E66AF1EE10FA3EDDF0EE667AC0ED077A92
:104EE00090ED0B6AF1EE466AB4EEE67AF1EE10FA56
:104EF00006D4B4EEC67AF1EE10FA2FDDF0EE466A73
:104F0000C0ED086A90ED0C6AB1EE467AB4EEC70ABD
:104F1000F1EE10FA06D4B4EEC60AF1EE10FA20DD76
:104F2000B0EE467A80ED097A77EEA67A77EE877A48
:104F3000D0ED0E6AB1EE667AF4EEC77AF1EE10FAB1
:104F400006D4F4EEE67AF1EE10FA0DDDB0EE667AF4
:104F500080ED0D7A7047F0EE467ABFE7F0EE476AD3
:104F6000CEE7B0EE407ADDE7B0EE677AF0E700001A
:104F7000D0ED035AC0ED025AD0ED007A90ED017ADF
:104F800077EEC77AC0ED037AF4EEE07AF1EE10FA2C
:104F90006ADD9FED427A77EEC77AC0ED037A90ED35
:104FA000046AD0ED036A26EE266A90ED057A26EEB5
:104FB000877A27EE007AD0ED087A37EE277AD0ED9F
:104FC000067A76EEE56A67EEA67A27EE800AD0EDDD
:104FD0000A6AF1EE667AB4EEE76AF1EE10FA06D4E8
:104FE000B4EEE66AF1EE10FA4CDDF0EE667AC0ED52
:104FF000077A90ED0B6AF1EE466AB4EEE67AF1EECE
:1050000010FA06D4B4EEC67AF1EE10FA3DDDF0EEF9
:10501000466AC0ED086A90ED0C6AB1EE467AB4EECD
:10502000C70AF1EE10FA06D4B4EEC60AF1EE10FA91
:105030002EDDB0EE467A80ED097A77EEA67A77EE2D
:10504000877AD0ED0E6AB1EE667AF4EEC77AF1EEA9
:1050500010FA06D4F4EEE67AF1EE10FA1BDDB0EEAB
:10506000667A80ED0D7A7047F1EE600AF4EEE07A30
:10507000F1EE10FA93D59FED097A77EE877AC0EDBD
:10508000037A8CE7F0EE467AB1E7F0EE476AC0E7C4
:10509000B0EE407ACFE7B0EE677AE2E70000B443C3
:1050A00010B51E4B00241C601C711D4B1C601C7134
:1050B0001C4B1C605C60C3F807401B4B1C7020221B
:1050C00021461A4802F048FF194B1C60194B1C601E
:1050D000194B1C605C609C60DC601C615C61C3F807
:1050E0001740164B1C605C609C60DC60144B1C60BD
:1050F0005C609C60DC60134B1C70134B1C70134B8A
:105100001C70134B1C60C3F80340124B1C609C8046
:10511000114B1C605C609C6010BD00BF544C0020B3
:10512000B84C0020404C00208C4C0020684C0020E3
:10513000504C0020884C0020904C0020184C00203F
:10514000304C00204C4C0020B44C0020144C00206B
:10515000284C0020AC4C00205C4C002030B4524B5A
:1051600002681A6002791A71B0F80530B3F5027F4F
:1051700023D8B3F5007F09D9A3F20123072B33D835
:10518000DFE803F04C5F6A75797D818A032B2DD0AF
:105190000BD940F2011293423BD0B3F5817F23D16A
:1051A000D0F80720414B1A601EE0012B12D0022BD1
:1051B0001AD1C2793E4B1A7016E040F20132934286
:1051C00012D13C4B50F8074F416882681C6059600F
:1051D0009A6009E0384B50F8071F426819605A601E
:1051E0000189827A19819A7230BC7047334B50F82A
:1051F000075F44688168C2681D605C609960DA601E
:10520000056944698169C2691D615C619961DA61FE
:10521000EAE7D0F807202A4B1A60E5E7294B50F857
:10522000071F42688568C46819605A609D60DC6029
:105230000169426919615A61018B827E19839A76EC
:10524000D2E7214B50F8075F44688168C2681D604F
:105250005C609960DA60C7E71C4B50F8075F4468F0
:105260008168C2681D605C609960DA60BCE7C279E1
:10527000174B1A70B8E7C279164B1A70B4E7C279A7
:10528000154B1A70B0E7154B50F8072F1A6081883C
:10529000827999809A71A7E7114B50F8072F1A600D
:1052A00082889A80A0E700BF544C0020884C0020E0
:1052B0008C4C00205C4C0020404C0020684C0020AE
:1052C000504C0020904C0020184C0020304C002006
:1052D0004C4C0020B44C0020144C0020284C0020E2
:1052E000AC4C002010B40A4B5C6804601B8907EECC
:1052F000903AF8EE677AC1ED007A064B1B8B07EE09
:10530000903AF8EE677AC2ED007A5DF8044B704788
:10531000184C0020904C0020014B1878704700BFBB
:10532000904C0020034B1B890380034B5B890B804F
:10533000704700BF904C0020184C002072B6FEE76A
:1053400000B595B03022002108A802F005FE002328
:10535000039304930593069307930193244A116CD6
:1053600041F080511164126C02F080520192019A56
:105370000293204B1A6842F440421A601B6803F4FF
:1053800040430293029B092308934FF4803309930F
:1053900001230D9302230E934FF480020F920622F5
:1053A0001092B422119212930823139308A8FCF7C9
:1053B0000FFEB0B9FCF7CCFDA8B90F23039302236D
:1053C0000493002305934FF4A05306934FF48053A6
:1053D0000793052103A8FDF747F830B915B05DF82C
:1053E00004FBFFF7ABFFFFF7A9FFFFF7A7FF00BF25
:1053F000003802400070004008B5FBF729FFFFF7B6
:105400009FFFFFF7ABFAFFF70BFAFEF733FFFEF74C
:1054100051FF01F0D5F901F0EFF901F083F8FDF744
:10542000DBF9FFF731FAFDF7E9F9FEE700B583B0E4
:10543000002200920D4B596C41F480415964596C23
:1054400001F48041009100990192196C41F0805162
:1054500019641B6C03F080530193019B0F216FF0C3
:105460000100FCF70DFB03B05DF804FB00380240BF
:10547000FEE7FEE7FEE7FEE7FEE7704708B5FBF74D
:1054800001FFFEF7D5FB012800D108BDFBF7D2FDD7
:10549000FBE7000008B50248FCF7BAF908BD00BFF9
:1054A000204B002008B54FF48050FCF711FD08BDDB
:1054B00008B50248FCF7ACF908BD00BFF84A002067
:1054C000034AD2F8883043F47003C2F8883070473A
:1054D00000ED00E008B53220FDF70AFAFBE7000016
:1054E00091ED017AB5EE407AF1EE10FA1AD190ED15
:1054F000017AD0ED0D7A37EE277AF2EE047A37EEA4
:10550000677AF3EE086AC7EE267AB6EE007A77EE8F
:10551000877AB3EE047A87EE870ADFED1F7A20EEF2
:10552000270A7047F2EE0A7AB4EEE77AF1EE10FA43
:1055300008D8D0ED016AC6EE877AB6EE007A77EE2B
:10554000877AE6E7F3EE027AB4EEE77AF1EE10FA44
:1055500018D5D0ED016ADFED117A77EEE67AB2EE7A
:105560000A6A37EE466A67EE867AF1EE045A87EEEB
:10557000A56A76EE866AC6EE877AB6EE007A77EE90
:10558000877AC6E7DFED056AC6EE877AB6EE007A5F
:1055900077EE877ABDE700BF00FE9F460000C84255
:1055A00000239FED157A83420CD2C3EB031201EB6B
:1055B0008202D2ED0D7AF0EEE77A37EE277A0133E8
:1055C000DBB2F0E7B4EEC07AF1EE10FA00DC70471F
:1055D000002383420ED2C3EB031201EB8202D2ED11
:1055E0000D6AC6EE877A67EE807AC2ED0D7A0133D6
:1055F000DBB2EEE7704700BF00000000427803789E
:1056000043EA02231BB207EE903AF8EEE77A9FEDE9
:10561000107AC7EE876AC1ED006AC278837843EAE0
:1056200002231BB207EE903AF8EEE77AC7EE876ADC
:10563000C1ED016A4279037943EA02231BB207EE06
:10564000903AF8EEE77AC7EE876AC1ED026A7047D2
:105650000000C84200B58BB0184BD3ED017AD3EDF2
:105660000D0A77EEA07A9FED168AF2EE040A77EE25
:10567000E00AB0EE480A01F083FA124B83ED030A08
:1056800020EE080ABDEEC00A10EE103AADF8203048
:105690000D4E08AB07936C4606F10C050FCD0FC4F9
:1056A00095E8070084E8070096E80E004FF40470C0
:1056B000FEF76EFD6420FDF71BF9CDE7A84E002034
:1056C0000000C842AC490020F84A00202DE9F04F04
:1056D0002DED028B85B00446414DD5F82080404623
:1056E000FAF7EAFE06460F46D5ED126A9FED3D7ABF
:1056F000C6EE877A77EEA77A9FED3B7A67EE877AD8
:1057000017EE900AFAF7D8FE41EC180B41EC100B9B
:1057100001F08AF95BEC10AB10EE102A5B463046C4
:105720003946FAF721FFCDE90201686AFAF7C4FEAB
:1057300006460F46B0EE480AF0EE680A01F0C8F9D6
:1057400053EC102B8DED000B30463946FAF70CFF69
:1057500002460B46DDE90201FAF750FDFBF7C6F9F8
:1057600008EE100A88F00040FAF7A6FE02460B4643
:10577000DDE90001FAF7F8FE8046894632463B46ED
:1057800050465946FAF7F0FE02460B464046494657
:10579000FAF734FDFBF7AAF907EE100AF1EE486AB2
:1057A00076EEC76AD5ED0A7A76EEA76AC4ED0E6A80
:1057B00077EE486A77EEA66AC4ED256A78EE076A46
:1057C00077EEA66AC4ED3C6A38EE478A37EE888ADF
:1057D00084ED538A05B0BDEC028BBDE8F08F00BFAD
:1057E000A84E00200000B443560E4940002214E0A9
:1057F000C2EB021300EB8303094919614FF07C519E
:10580000596108499961084999620849D96208496A
:10581000196308499963013252B2032AE8DD7047DF
:105820000000C8420000204100401C4600803B456B
:1058300000409C4500007A4538B50546002411E03B
:10584000C4EB041005EB8000084A5C2303FB04232F
:105850009A6B02605B6C4360B7EE000AFFF70CFBCB
:10586000013464B2032CEBDD38BD00BFFC4E0020D8
:10587000114B93F84F30012B13D0002318E0C3EBEA
:1058800003110E4A02EB8102D2ED0D7AFDEEE77AAA
:1058900017EE902A20F8132001335BB2032BEEDDC4
:1058A00070470023FAE7002220F8132001335BB28F
:1058B000032BF8DD704700BFA84E0020C04C00202D
:1058C00000B589B02148FFF791FF14E0204E214B2D
:1058D00007936C4606F10C050FCD0FC495E8070041
:1058E00084E8070096E80E004FF40070FEF750FCC5
:1058F0000220FCF7FDFF1848FFF7E8FE134D28468D
:10590000FFF79AFF1548FFF7B3FF154C15492046DE
:10591000FFF7E6FD29460420FFF742FE94F84F30DA
:10592000002BD3D00A4E0D4B07936C4606F10C05A5
:105930000FCD0FC495E8070084E8070096E80E0035
:105940004FF40070FEF724FCD2E700BFC04C0020EB
:10595000204B00209C490020FC4E0020B04D002030
:10596000A84E0020AC4900200278437843EA022385
:105970001BB207EE903AB8EEE76A8278C37843EA42
:1059800002231BB25B4207EE903AF8EEE77A027907
:10599000437943EA02231BB207EE103AF8EEC76AD6
:1059A0008279C37943EA02231BB207EE103AB8EEBC
:1059B000C77ADFED095A86EE255A81ED005A87EE47
:1059C000A56A81ED016AC6EEA57AC1ED047AC7EE3B
:1059D000257AC1ED057A70470000C8420346034AA4
:1059E00092E8030098619983704700BFF44E00204D
:1059F0000E4A137E43F408530380517E937E43EA9C
:105A000001234380D17E137F43EA01238380137EE9
:105A1000517E0B44917E0B44D17E0B44127F134484
:105A20001B0243F03303C380704700BFC04D00200A
:105A300000B589B00D48FFF7D1FF0D4C2046FFF7A8
:105A4000D7FF0C4E07946C4606F10C050FCD0FC422
:105A500095E8070084E8070096E80E0040F233203E
:105A6000FEF796FB3220FCF743FFE3E7C04D002032
:105A7000B84D0020F84A0020002301E001335BB25A
:105A8000072B09DC51F823208242F7D101229A40EA
:105A900003490B7813430B70014B1878704700BF14
:105AA000BE49002008B503E04FF47A70FCF720FFF0
:105AB0000B4B1B78FF2BF7D10A4B1B78062BF3D12E
:105AC000094B93F90030012BEED10848FCF73AFA64
:105AD0000023034A1370034A1370034A1370E3E769
