:020000040800F2
:100000000000032005650008A9550008AB5500084D
:10001000AD550008AF550008B155000800000000BC
:10002000000000000000000000000000610D00085A
:10003000B355000800000000010E0008B555000887
:1000400055650008556500085565000855650008A8
:100050005565000855650008556500085565000898
:100060005565000855650008556500085565000888
:100070005565000855650008556500085565000878
:100080005565000855650008556500085565000868
:10009000CD550008556500085565000855650008F0
:1000A0005565000855650008556500085565000848
:1000B0005565000855650008556500085565000838
:1000C0005565000855650008556500085565000828
:1000D00055650008CD48000855650008F561000821
:1000E000DD55000855650008556500085565000890
:1000F00055650008556500085565000855650008F8
:1001000055650008556500085565000855650008E7
:1001100055650008556500085565000855650008D7
:1001200055650008556500085565000855650008C7
:1001300055650008556500085565000855650008B7
:10014000E955000855650008556500085565000823
:100150005565000855650008556500085565000897
:100160005565000855650008556500085565000887
:100170005565000855650008556500080000000039
:100180005565000855650008556500085565000867
:100190005565000855650008556500085565000857
:0C01A00000000000000000005565000891
:1001B00010B5054C237833B9044B13B10448AFF3A1
:1001C00000800123237010BD5400002000000000B7
:1001D0007879000808B5034B1BB103490348AFF316
:1001E000008008BD00000000580000207879000859
:1001F00070B54FF0FF0C4CF4E06C1CEA11541DBFBD
:100200001CEA135594EA0C0F95EA0C0F00F0DEF887
:100210002C4481EA030621EA4C5123EA4C5350EA6C
:10022000013518BF52EA033541F4801143F48013BD
:1002300038D0A0FB02CE4FF00005E1FB02E506F04E
:100240000042E0FB03E54FF00006E1FB03569CF0A3
:10025000000F18BF4EF0010EA4F1FF04B6F5007FA9
:1002600064F5407404D25FEA4E0E6D4146EB06061B
:1002700042EAC62141EA55514FEAC52040EA5E50A4
:100280004FEACE2EB4F1FD0C88BFBCF5E06F1ED84E
:10029000BEF1004F08BF5FEA500E50F1000041EB85
:1002A000045170BD06F0004646EA010140EA020032
:1002B00081EA0301B4EB5C04C2BFD4EB0C0541EA54
:1002C000045170BD41F480114FF0000E013C00F369
:1002D000AB8014F1360FDEBF002001F0004170BD8D
:1002E000C4F10004203C35DA0C341BDC04F11404A6
:1002F000C4F1200500FA05F320FA04F001FA05F232
:1003000040EA020001F0004221F0004110EBD370FE
:1003100021FA04F642EB06015EEA430E08BF20EA2A
:10032000D37070BDC4F10C04C4F1200500FA04F3CD
:1003300020FA05F001FA04F240EA020001F000415F
:1003400010EBD37041F100015EEA430E08BF20EAD2
:10035000D37070BDC4F1200500FA05F24EEA020E1A
:1003600020FA04F301FA05F243EA020321FA04F049
:1003700001F0004121FA04F220EA020000EBD37000
:100380005EEA430E08BF20EAD37070BD94F0000F00
:100390000FD101F00046400041EB010111F4801F34
:1003A00008BF013CF7D041EA060195F0000F18BFE5
:1003B000704703F00046520043EB030313F4801F21
:1003C00008BF013DF7D043EA0603704794EA0C0FDB
:1003D0000CEA135518BF95EA0C0F0CD050EA4106F1
:1003E00018BF52EA4306D1D181EA030101F000416E
:1003F0004FF0000070BD50EA410606BF1046194696
:1004000052EA430619D094EA0C0F02D150EA0136A1
:1004100013D195EA0C0F05D152EA03361CBF1046E2
:1004200019460AD181EA030101F0004141F0FE4181
:1004300041F470014FF0000070BD41F0FE4141F405
:10044000780170BD81F0004102E000BF83F00043FD
:1004500030B54FEA41044FEA430594EA050F08BF5F
:1004600090EA020F1FBF54EA000C55EA020C7FEA23
:10047000645C7FEA655C00F0E2804FEA5454D4EBA0
:100480005555B8BF6D420CDD2C4480EA020281EA6A
:10049000030382EA000083EA010180EA020281EAA2
:1004A0000303362D88BF30BD11F0004F4FEA0131F4
:1004B0004FF4801C4CEA113102D0404261EB410103
:1004C00013F0004F4FEA03334CEA133302D0524289
:1004D00063EB430394EA050F00F0A780A4F1010445
:1004E000D5F1200E0DDB02FA0EFC22FA05F280187F
:1004F00041F1000103FA0EF2801843FA05F3594165
:100500000EE0A5F120050EF1200E012A03FA0EFCE3
:1005100028BF4CF0020C43FA05F3C01851EBE3710D
:1005200001F0004507D54FF0000EDCF1000C7EEB2A
:1005300000006EEB0101B1F5801F1BD3B1F5001F68
:100540000CD349085FEA30004FEA3C0C04F1010487
:100550004FEA445212F5800F80F09A80BCF1004FB0
:1005600008BF5FEA500C50F1000041EB045141EA32
:10057000050130BD5FEA4C0C404141EB0101013CFB
:1005800028BFB1F5801FE9D291F0000F04BF0146EA
:100590000020B1FA81F308BF2033A3F10B03B3F1BC
:1005A00020020CDA0C3208DD02F1140CC2F10C024C
:1005B00001FA0CF021FA02F10CE002F11402D8BFAA
:1005C000C2F1200C01FA02F120FA0CFCDCBF41EA76
:1005D0000C019040E41AA2BF01EB0451294330BD45
:1005E0006FEA04041F3C1CDA0C340EDC04F1140422
:1005F000C4F1200220FA04F001FA02F340EA0300F9
:1006000021FA04F345EA030130BDC4F10C04C4F13E
:10061000200220FA02F001FA04F340EA030029461E
:1006200030BD21FA04F0294630BD94F0000F83F468
:10063000801306BF81F480110134013D4EE77FEA4B
:10064000645C18BF7FEA655C29D094EA050F08BF97
:1006500090EA020F05D054EA000C04BF1946104678
:1006600030BD91EA030F1EBF0021002030BD5FEABC
:10067000545C05D14000494128BF41F0004130BDE4
:1006800014F580043CBF01F5801130BD01F0004538
:1006900045F0FE4141F470014FF0000030BD7FEAAB
:1006A000645C1ABF194610467FEA655C1CBF0B46A6
:1006B000024650EA013406BF52EA033591EA030FBD
:1006C00041F4002130BD00BF90F0000F04BF0021B5
:1006D000704730B54FF4806404F132044FF00005E8
:1006E0004FF0000150E700BF90F0000F04BF002161
:1006F000704730B54FF4806404F1320410F00045C7
:1007000048BF40424FF000013EE700BF42004FEAC1
:10071000E2014FEA31014FEA02701FBF12F07F433E
:1007200093F07F4F81F06051704732F07F4208BFF5
:10073000704793F07F4F04BF41F40021704730B5FC
:100740004FF4607401F0004521F000411CE700BF48
:1007500050EA010208BF704730B54FF000050AE0CB
:1007600050EA010208BF704730B511F0004502D5CC
:10077000404261EB41014FF4806404F132045FEACE
:10078000915C3FF4D8AE4FF003025FEADC0C18BF77
:1007900003325FEADC0C18BF033202EBDC02C2F169
:1007A000200300FA03FC20FA02F001FA03FE40EAFB
:1007B0000E0021FA02F11444BDE600BF4FF0FF3CE9
:1007C00006E000BF4FF0010C02E000BF4FF0010C4B
:1007D0004DF804CD4FEA410C7FEA6C5C4FEA430CC4
:1007E00018BF7FEA6C5C1BD001B050EA410C0CBF13
:1007F00052EA430C91EA030F02BF90EA020F002075
:10080000704710F1000F91EA030F58BF994208BFDB
:1008100090422CBFD8176FEAE37040F00100704798
:100820004FEA410C7FEA6C5C02D150EA013C07D1EF
:100830004FEA430C7FEA6C5CD6D152EA033CD3D03A
:100840005DF8040B704700BF8446104662468C4634
:100850001946634600E000BF01B5FFF7B7FF002867
:1008600048BF10F1000F01BD4DF808EDFFF7F4FF90
:100870000CBF012000205DF808FB00BF4DF808ED1B
:10088000FFF7EAFF34BF012000205DF808FB00BF3E
:100890004DF808EDFFF7E0FF94BF012000205DF860
:1008A00008FB00BF4DF808EDFFF7CEFF94BF012015
:1008B00000205DF808FB00BF4DF808EDFFF7C4FF0E
:1008C00034BF012000205DF808FB00BF4FEA410261
:1008D00012F5001215D211D56FF47873B3EB625292
:1008E00012D94FEAC12343F0004343EA505311F0B9
:1008F000004F23FA02F018BF404270474FF000004B
:10090000704750EA013005D111F0004008BF6FF088
:10091000004070474FF00000704700BF4FEA4102AF
:10092000B2F1E04324BFB3F5001CDCF1FE5C0DD94D
:1009300001F0004C4FEAC0024CEA5070B2F1004F97
:1009400040EB830008BF20F00100704711F0804F9A
:1009500021D113F13872BCBF01F00040704741F45F
:1009600080114FEA5252C2F11802C2F1200C10FA63
:100970000CF320FA02F018BF40F001004FEAC12347
:100980004FEAD32303FA0CFC40EA0C0023FA02F3EB
:100990004FEA4303CCE77FEA625307D150EA0133C1
:1009A0001EBF4FF0FE4040F44000704701F0004091
:1009B00040F0FE4040F40000704700BF53B94AB910
:1009C000002908BF00281CBF4FF0FF314FF0FF3057
:1009D00000F06EB9ADF1080C6DE904CE00F006F838
:1009E000DDF804E0DDE9022304B070472DE9F047AB
:1009F000089D04468C46002B40F083808A421746AF
:100A000047D9B2FA82F242B1C2F1200024FA00F0D2
:100A10009140974040EA010C94404FEA1748230C5C
:100A2000BCFBF8F61FFA87FE08FB16C143EA014338
:100A300006FB0EF1994209D9FB1806F1FF3080F050
:100A40001981994240F21681023E3B445B1AA4B2DE
:100A5000B3FBF8F008FB103344EA034400FB0EFE3E
:100A6000A64509D93C1900F1FF3380F00581A64560
:100A700040F2028102383C4440EA0640A4EB0E04F6
:100A800000261DB1D4400023C5E900433146BDE82E
:100A9000F08702B9FFDEB2FA82F2002A50D1CB1BF6
:100AA0004FEA174E1FFA87F80126B3FBFEFC210C14
:100AB0000EFB1C3341EA034108FB0CF38B4207D9C0
:100AC00079180CF1FF3002D28B4200F2E9808446A3
:100AD000C91AA3B2B1FBFEF00EFB101143EA0144A8
:100AE00008FB00F8A04507D93C1900F1FF3302D2FA
:100AF000A04500F2D9801846A4EB080440EA0C4057
:100B0000BFE78B4209D9002D00F0B1800026C5E96E
:100B1000000130463146BDE8F087B3FA83F6002E77
:100B20004AD18B4202D3824200F2B880841A61EB30
:100B3000030101208C46002DA8D0C5E9004CA5E793
:100B4000C2F1200320FA03F6974001FA02F04FEABF
:100B5000174ED9403043030CB1FBFEF61FFA87F85D
:100B60000EFB161143EA014306FB08F1994204FA11
:100B700002F409D9FB1806F1FF3C80F08D80994200
:100B800040F28A80023E3B445B1A81B2B3FBFEF026
:100B90000EFB103341EA034100FB08F38B4207D9F7
:100BA000791800F1FF3C73D28B4271D90238394475
:100BB000CB1A40EA064678E7C6F1200C03FA06F4A1
:100BC00022FA0CF31C4320FA0CF701FA06F34FEA61
:100BD000144E21FA0CF11F433B0CB1FBFEF91FFA36
:100BE00084F80EFB191143EA014109FB08FA8A4512
:100BF00002FA06F200FA06F308D9611809F1FF308B
:100C000048D28A4546D9A9F102092144A1EB0A013B
:100C1000BFB2B1FBFEF00EFB101147EA014700FB2B
:100C200008F8B84507D9E71900F1FF312ED2B845C9
:100C30002CD90238274440EA0940A7EB0807A0FB5B
:100C400002894F45C64649461AD317D05DB1B3EB6A
:100C50000E0267EB010707FA0CFCF2404CEA0202B5
:100C6000F740C5E9002700263146BDE8F0872E464B
:100C700028460BE70646E9E61846FDE64345E5D279
:100C8000B8EB020E69EB04010138DFE70846D2E752
:100C900060468DE78146B9E7664675E730464AE724
:100CA000ACF1020C394413E702383C4424E700BF9E
:100CB000704700BF82B0002301930D4B1B68B3F156
:100CC000FF3F08D04FF0500383F31188BFF36F8FBD
:100CD000BFF34F8FFEE74FF0500383F31188BFF34C
:100CE0006F8FBFF34F8F019B002BFCD002B070477A
:100CF0000000002008480068006880F308884FF072
:100D0000000080F3148862B661B6BFF34F8FBFF363
:100D10006F8F00DF00BF000008ED00E0DFF80C007F
:100D2000016841F4700101607047000088ED00E047
:100D30004FF0807340F8043C21F0010140F8081C9A
:100D4000054B40F80C3C40F8202C6FF0020340F8B3
:100D5000243C4438704700BFB50C00080000000078
:100D6000074B19680868B0E8F04F80F30988BFF3B3
:100D70006F8F4FF0000080F311887047AFF3008051
:100D8000B84300204FF0500383F31188BFF36F8FF7
:100D9000BFF34F8F0B4A136801331360012B00D050
:100DA00070474FF0E023D3F8043D13F0FF0FF7D066
:100DB0004FF0500383F31188BFF36F8FBFF34F8F52
:100DC000FEE700BF00000020094B1B6843B94FF04D
:100DD000500383F31188BFF36F8FBFF34F8FFEE78C
:100DE000013B034A13600BB983F31188704700BFBE
:100DF00000000020000000000000000000000000D3
:100E0000EFF30980BFF36F8F154B1A681EF0100FB8
:100E100008BF20ED108A20E9F04F10602DE909008D
:100E20004FF0500080F31188BFF34F8FBFF36F8FE7
:100E300002F0EAFD4FF0000080F3118809BC196848
:100E40000868B0E8F04F1EF0100F08BFB0EC108A31
:100E500080F30988BFF36F8F704700BFAFF3008046
:100E6000B843002008B54FF0500383F31188BFF357
:100E70006F8FBFF34F8F02F06DFC28B14FF0E0236E
:100E80004FF08052C3F8042D002383F3118808BD6E
:100E90004FF0E022002313619361054B1B68054965
:100EA000A1FB03139B09013B5361072313617047A7
:100EB00010000020D34D62104FF0E023D3F8002D36
:100EC0003D4B9A421CD04FF0E023D3F8002D3B4B12
:100ED0009A421ED030B583B0394B1A78D2B2019203
:100EE000FF221A701B78DBB28DF803309DF80330B7
:100EF00003F05003334A1370334B07221A601BE090
:100F00004FF0500383F31188BFF36F8FBFF34F8F00
:100F1000FEE74FF0500383F31188BFF36F8FBFF3E9
:100F20004F8FFEE7284A1368013B13609DF803309A
:100F30005B00DBB28DF803309DF8033013F0800FB7
:100F4000F0D1214B1B68032B08D04FF0500383F3E3
:100F50001188BFF36F8FBFF34F8FFEE71B021A4A52
:100F6000136003F4E0631360019BDBB2144A137057
:100F70004FF0E024D4F8203D43F47003C4F8203D42
:100F8000D4F8203D43F07043C4F8203DFFF780FFC4
:100F900000250E4B1D60FFF7C1FED4F8343F43F02F
:100FA0004043C4F8343FFFF7A5FE02F02DFDFFF7E4
:100FB00081FE284603B030BD71C20F4170C20F419F
:100FC00000E400E070000020740000200000002019
:100FD000EFF305830F2B0FD9114A9B5CDBB2114A4B
:100FE00012789A4208D94FF0500383F31188BFF367
:100FF0006F8FBFF34F8FFEE74FF0E023D3F80C3D28
:1010000003F4E063084A1268934208D94FF0500392
:1010100083F31188BFF36F8FBFF34F8FFEE77047E5
:10102000F0E300E0700000207400002010B50446DA
:101030000E4B1A784FF47A73B3FBF2F30C4A106834
:10104000B0FBF3F000F072FC68B90F2C01D901205D
:101050000AE0002221464FF0FF3000F021FC054B52
:101060001C60002000E0012010BD00BF0400002033
:10107000100000200800002008B50B4B1A6842F44D
:1010800000721A601A6842F480621A601A6842F4A8
:1010900080721A60032000F0F1FB0F20FFF7C6FFFB
:1010A00004F060FA002008BD003C0240034A1168C9
:1010B000034B1B780B441360704700BF780000207F
:1010C00004000020014B1868704700BF7800002022
:1010D000002800F0A18038B5044690F82030D3B144
:1010E0002268136843F001031360FFF7EBFF054626
:1010F00023685A6812F0010F10D1FFF7E3FF401B7D
:101100000A28F5D9636A43F400336362052384F83F
:101110002030012038BD03F0A9F9E1E71A6822F078
:1011200002021A60FFF7CEFF054623685A6812F0E4
:10113000020F0DD0FFF7C6FF401B0A28F5D9636ADE
:1011400043F400336362052384F820300120E1E793
:10115000227E012A3DD01A6822F080021A60637E46
:10116000012B3BD02268136823F040031360A37E59
:10117000012B39D02268136823F020031360E37E2B
:10118000012B37D02268136843F010031360237FCC
:10119000012B35D02268136823F008031360637FA6
:1011A000012B33D02268136823F004031360A36873
:1011B000E268134322691343626913436268013A88
:1011C00021681343CB6100206062012384F8203042
:1011D000A0E71A6842F080021A60C0E7226813682C
:1011E00043F040031360C2E72268136843F0200312
:1011F0001360C4E72268136823F010031360C6E786
:101200002268136843F008031360C8E72268136874
:1012100043F004031360CAE70120704790F82030C0
:10122000013BDBB2012B05D9436A43F480234362BF
:101230000120704730B5464BD3F8002242F001023E
:10124000C3F80022D3F8002222F47C52C3F8002213
:10125000D3F80022486A42EA0022C3F800224A6911
:1012600002F01F02012000FA02F2D3F81C026FEA1A
:10127000020C20EA0200C3F81C02CB69C3B9344B4C
:10128000D3F80C020CEA0000C3F80C028C88486901
:10129000CD6844EA0544483043F830408C680888FB
:1012A00040EA04404C6904F1480E03EBCE03586059
:1012B000CB69012B1ED08B69002B33D12448D0F889
:1012C00004320CEA0303C0F804320B698BBB2048DC
:1012D000D0F814320CEA0303C0F814320B6A012B65
:1012E0002ED01B4AD2F8003223F00103C2F800329C
:1012F000002030BD164BD3F80C021043C3F80C028B
:101300008C8848690D6844EA0544483043F8304009
:1013100088894C698D6840EA0540483403EBC40372
:101320005860C8E70A48D0F804321343C0F80432C2
:10133000CBE70748D0F814321343C0F81432CDE796
:101340000349D1F81C321343C1F81C32C9E700BF6E
:101350000064004070B5044690F82050EDB2012DB5
:1013600006D0436A43F4002343620125284670BD3A
:10137000022380F820300268136823F00103136011
:10138000FFF7A0FE064623685B6813F0010F0CD040
:10139000FFF798FE831B0A2BF5D9636A43F40033E9
:1013A0006362052384F82030E0E700256562DDE70D
:1013B00030B590F820C00468A4680CF1FF3C5FFAD7
:1013C0008CFCBCF1010F6BD814F0E05F62D0C4F369
:1013D000016CBCF1020F05D9436A43F40003436278
:1013E000012062E0012404FA0CF41C608B68002BDD
:1013F0003DD10D68CB68046843EA45550CF11803EC
:101400001B01E55003680C690CF1180E03EB0E1379
:101410005C600B7D012B35D0D17993791B0443EAB5
:101420000163517943EA012314790168234301EBF5
:101430000C11C1F88C31D17893781B0443EA016315
:10144000517843EA0123117802680B4302EB0C1236
:10145000C2F8883102680CF1180C4FEA0C1C52F8E3
:101460000C3043F0010342F80C3000201DE04C68C2
:1014700043EAC403CC6823430CF118042401056833
:101480002B51BFE7036803EB0E13596841F48071D9
:101490005960C1E7436A43F400134362012004E04A
:1014A000436A43F480234362012030BD90F820C09A
:1014B0000CF1FF3C5FFA8CFCBCF1010F00F295804F
:1014C00030B451B90468E46814F0030F10D1436AD2
:1014D00043F400134362012077E00468246914F0A8
:1014E000030F05D1436A43F40013436201206CE00B
:1014F00001F11B04240105682C5904F004049460D4
:10150000002C64D101F11B04240105682C59640DE1
:101510001460046801F11B0C4FEA0C1C54F80C40D9
:1015200004F00204D46004686444646804F00F04A6
:101530001461046864446468C4F307249461046813
:1015400064446468240C5461026802EB0112D2F80E
:10155000B8211A70026802EB0112D2F8B821C2F366
:1015600007225A70026802EB0112D2F8B821C2F3C6
:1015700007429A70026802EB0112D2F8B821120EEB
:10158000DA70026802EB0112D2F8BC211A7102680B
:1015900002EB0112D2F8BC21C2F307225A71026891
:1015A00002EB0112D2F8BC21C2F307429A71026821
:1015B00002EB0112D2F8BC21120EDA7179B902687D
:1015C000D36843F02003D360002030BC704701F1A2
:1015D0001B04240105682C59E408546099E702684B
:1015E000136943F020031361EEE7436A43F4802359
:1015F00043620120704790F82030013BDBB2012BA1
:1016000005D9436A43F4802343620120704702688E
:1016100053690B4353610020704770477047704710
:101620007047704770477047704770477047704702
:1016300070472DE9F84F054603685C69D3F80480CC
:101640009F68D3F80CB0D3F810A0D3F8189014F01A
:1016500001063BD017F0010616D001229A6017F060
:10166000020F08D117F0040F0CD117F0080606D0AE
:101670004FF4805608E0FFF7D0FF002604E0FFF7A4
:10168000CFFF01E04FF4006617F4807F0DD02B6888
:101690004FF480729A6017F4007F40F0868017F450
:1016A000806F00F0868046F4005617F4803F0DD01E
:1016B0002B684FF480329A6017F4003F40F083802B
:1016C00017F4802F00F0838046F4004614F0080FD2
:1016D00007D01BF0100F04D046F400762B681022C0
:1016E000DA6014F0040F02D01BF0080F79D114F067
:1016F000020F04D02B68DB6813F0030F78D114F0CD
:10170000400F07D01AF0100F04D046F480662B6803
:1017100010221A6114F0200F02D01AF0080F6BD1BA
:1017200014F0100F04D02B681B6913F0030F6AD15B
:1017300014F4003F02D018F0100F68D114F4803F69
:1017400002D018F0080F69D114F4004F7AD018F0C5
:10175000040F74D014F4807F04D019F0010F01D06D
:1017600046F0010614F4007F04D019F0020F01D0F6
:1017700046F0020614F4806F04D019F0040F01D073
:1017800046F0040614F4006F59D019F0700956D0D1
:10179000B9F1400F65D058D8B9F1200F5ED0B9F13A
:1017A000300F42D146F0200644E02846FFF736FFCE
:1017B0007BE717F4006F02D046F4804675E72846B1
:1017C000FFF72FFF71E72846FFF729FF7EE717F4A1
:1017D000002F02D046F4803678E72846FFF722FF34
:1017E00074E72B680822DA602846FFF71CFF7EE7C3
:1017F000284602F0CFFE82E72B6808221A612846AD
:10180000FFF713FF8CE72846FFF70EFF90E72B68E2
:1018100010225A602846FFF709FF8FE72B6808223D
:101820005A602846FFF703FF8EE7B9F1100F01D188
:1018300046F008062A68936923F0700393612B68C9
:1018400004225A609EB9BDE8F88FB9F1500F0BD051
:10185000B9F1600FEED146F48076EBE746F0100662
:10186000E8E746F04006E5E746F08006E2E76B6A07
:1018700033436B622846FFF7DBFEE4E7074AD36891
:1018800023F4E0631B041B0C000200F4E06003433C
:1018900043F0BF6343F40033D360704700ED00E0D2
:1018A00000B5194BDB68C3F30223C3F1070CBCF18D
:1018B000040F28BF4FF0040C03F1040EBEF1060F15
:1018C00018D9033B4FF0FF3E0EFA0CFC21EA0C0145
:1018D00099400EFA03FE22EA0E020A4300280BDBAF
:1018E0001201D2B200F1604000F5614080F800239F
:1018F0005DF804FB0023E5E700F00F001201D2B20F
:10190000024B1A54F4E700BF00ED00E014ED00E0D4
:10191000002807DB00F01F02400901239340024A20
:1019200042F82030704700BF00E100E00138B0F11C
:10193000807F0BD24FF0E0235861054AF02182F8F6
:1019400023100020986107221A6170470120704718
:1019500000ED00E010B40368D9B210390C4AA2FBC4
:10196000014212090B4CA25CC2655F2909D923F41C
:101970007F7323F0030304338365806D5DF8044BAC
:10198000704723F47F7323F003038365F5E700BFFB
:10199000ABAAAAAAEC790008836A826992B9012BE2
:1019A0000AD0022B02D00BB100207047C36A13F09B
:1019B000807F28D100207047C36AB3F1C07F24D054
:1019C00000207047B2F5005F09D0022B25D9032B08
:1019D00025D1C36A13F0807F23D100207047032BE9
:1019E00003D8DFE803F01404140A00207047C36A28
:1019F00013F0807F0DD100207047C36AB3F1C07F20
:101A000009D0002070470120704701207047012055
:101A10007047012070470120704701207047002067
:101A2000704701207047000070B50446FFF74AFB7D
:101A3000002C5BD00546022384F83530002384F85F
:101A400034302268136823F00103136023681A6896
:101A500012F0010F0AD0FFF735FB431B052BF5D918
:101A600020236365032084F8350070BD1A6820497F
:101A700011406268A0680243E068024320690243A3
:101A800060690243A0690243E0690243206A02439D
:101A90000A43616A04291ED01A602668756925F018
:101AA0000705636A1D43042B07D1A36A1D43E36A3C
:101AB0001BB12046FFF770FF90B975612046FFF714
:101AC00049FFE26D3F23934083600020606501235E
:101AD00084F83530C9E7E16A206B01430A43DBE74C
:101AE00040236365012084F83500BEE70120BCE790
:101AF0003F8010F010B40A490C6924F440740C6162
:101B00000C6944F440740C610C6944F001040C61EC
:101B10000260BFF36F8F43605DF8044B704700BFF6
:101B2000003C0240074B1A6922F440721A611A699C
:101B300042F400721A611A6942F001021A610160EE
:101B4000704700BF003C0240074B1A6922F4407204
:101B50001A611A6942F480721A611A6942F001022C
:101B60001A610180704700BF003C0240064B1A69B1
:101B700022F440721A611A691A611A6942F001026C
:101B80001A610170704700BF003C0240274BDB68C0
:101B900013F0100F07D0264AD36943F01003D36126
:101BA000224B1022DA60214BDB6813F0200F07D0A4
:101BB0001F4AD36943F00803D3611C4B2022DA602B
:101BC0001A4BDB6813F0400F07D0194AD36943F072
:101BD0000403D361154B4022DA60144BDB6813F029
:101BE000800F07D0124AD36943F00203D3610F4B31
:101BF0008022DA600D4BDB6813F4807F08D00C4A3A
:101C0000D36943F00103D361084B4FF48072DA606B
:101C1000064BDB6813F0020F07D0054AD36943F087
:101C20002003D361014B0222DA607047003C02407E
:101C30007C000020094B1B69002B01DB0020704752
:101C4000064B074A5A6002F188325A601B69002B22
:101C500001DB002070470120704700BF003C0240BC
:101C600023016745034A136943F0004313610020D1
:101C7000704700BF003C024038B50446144B0022B8
:101C8000DA61FFF71FFA0546124BDB6813F4803F59
:101C90000AD0B4F1FF3FF7D024B1FFF713FA401B8D
:101CA000A042F1D903200DE00A4BDB6813F0010FCD
:101CB00002D0084B0122DA60064BDB6813F4F97F8F
:101CC00001D1002038BDFFF761FF0120FAE700BF16
:101CD0007C000020003C0240F8B516461B4A127EEC
:101CE000012A30D004460D461F46184B01221A76B1
:101CF0004CF25030FFF7C0FF90B9ACB1012C18D0B6
:101D0000022C1BD032463B462846FFF7F3FE4CF22E
:101D10005030FFF7B1FF0E4A136923F0010313613E
:101D20000A4B00221A76F8BDF1B22846FFF71EFFD3
:101D3000EDE7B1B22846FFF707FFE8E7314628464E
:101D4000FFF7F0FEE3E70220EDE700BF7C00002094
:101D5000003C024000230F2B00F2F68070B582B0E9
:101D600066E085684FEA430E032404FA0EF425EA80
:101D70000405CC6804FA0EF42C438460446824EA19
:101D800002044A68C2F300129A40224342605DE0B6
:101D9000DC08083450F8242003F00705AD004FF0AC
:101DA0000F0E0EFA05FE22EA0E0E0A69AA4042EA5A
:101DB0000E0240F824205DE0092200E0002202FA31
:101DC0000EF22A430234614D45F82420604A94689B
:101DD0006FEA0C0224EA0C054E6816F4801F01D04D
:101DE0004CEA04055A4CA560E46802EA04054E6812
:101DF00016F4001F01D04CEA0405554CE5606468F8
:101E000002EA04054E6816F4003F01D04CEA0405CE
:101E10004F4C6560246822404D6815F4803F01D026
:101E20004CEA04024A4C226001330F2B00F28A80F4
:101E300001229A400C6804EA020C32EA0404F3D14D
:101E40004C6804F00304013C012C8AD94A6802F072
:101E50000302032A09D0C4685D000322AA4024EAD1
:101E600002048A68AA402243C2604A6802F0030260
:101E7000022A8DD004684FEA430E032202FA0EF2C2
:101E800024EA02044A6802F0030202FA0EF2224334
:101E900002604A6812F4403FC6D0002201922D4AE7
:101EA000546C44F480445464526C02F480420192B5
:101EB000019A9C08A51C254A52F8255003F0030EF0
:101EC0004FEA8E0E0F2202FA0EF225EA0205224A8E
:101ED00090423FF473AF02F58062904222D002F547
:101EE0008062904220D002F5806290421ED002F5BE
:101EF000806290421CD002F5806290421AD002F5B6
:101F00008062904218D002F58062904216D002F5AD
:101F10008062904214D002F5806290423FF44CAF50
:101F20000A224CE701224AE7022248E7032246E759
:101F3000042244E7052242E7062240E707223EE763
:101F400008223CE702B070BD704700BF0038014076
:101F5000003C014000380240000002400369194281
:101F600001D00120704700207047000008B5054BE4
:101F70005B69034200D108BD024B586103F0CAFD02
:101F8000F9E700BF003C014010B582B00023019387
:101F9000194B1A6C42F080521A641B6C03F0805388
:101FA0000193019B154B01221A64FFF78BF804463D
:101FB000134B5B6813F4803F08D1FFF783F8001BD5
:101FC000B0F57A7FF4D9032002B010BD0B4B01228B
:101FD0005A64FFF777F80446094B5B6813F4003F37
:101FE00007D1FFF76FF8001BB0F57A7FF4D9032013
:101FF000EAE70020E8E700BF0038024000000E4298
:1020000000700040002800F0E08170B582B0044606
:10201000036813F0010F3BD09F4B9B6803F00C0348
:10202000042B2CD09C4B9B6803F00C03082B21D075
:102030006368B3F5803F4FD0B3F5A02F52D0964BD5
:102040001A6822F480321A601A6822F480221A6018
:102050006368002B50D0FFF735F805468E4B1B68A0
:1020600013F4003F14D1FFF72DF8401B6428F5D975
:102070000320B1E1884B5B6813F4800FD8D0864B06
:102080001B6813F4003F03D06368002B00F09F81AE
:10209000236813F0020F54D07F4B9B6813F00C0F92
:1020A0003ED07D4B9B6803F00C03082B33D0E368D4
:1020B000002B68D0794B01221A60FFF703F8054620
:1020C000754B1B6813F0020F54D1FEF7FBFF401B4A
:1020D0000228F5D903207FE16F4A136843F4803367
:1020E0001360B5E76C4B1A6842F480221A601A68D4
:1020F00042F480321A60ABE7FEF7E4FF0546664B18
:102100001B6813F4003FC3D0FEF7DCFF401B6428BC
:10211000F5D9032060E1604B5B6813F4800FC6D1F2
:102120005D4B1B6813F0020F03D0E368012B40F0F6
:102130005081594A136823F0F803216943EAC10327
:102140001360236813F0080F42D063696BB3534BDD
:102150000122C3F8802EFEF7B5FF05464E4B5B6F9C
:1021600013F0020F34D1FEF7ADFF401B0228F5D962
:10217000032031E1484A136823F0F803216943EA58
:10218000C1031360DDE7454B00221A60FEF79AFF9A
:102190000546414B1B6813F0020FD2D0FEF792FFA9
:1021A000401B0228F5D9032016E13C4B0022C3F85E
:1021B000802EFEF787FF0546374B5B6F13F0020F4B
:1021C00006D0FEF77FFF401B0228F5D9032003E16C
:1021D000236813F0040F77D02F4B1B6C13F0805F34
:1021E00033D1002301932C4B1A6C42F080521A64B5
:1021F0001B6C03F080530193019B0125284B1B6846
:1022000013F4807F23D0A368012B34D0052B38D062
:10221000214B1A6F22F001021A671A6F22F0040292
:102220001A67A368002B3DD0FEF74CFF06461A4BF9
:102230001B6F13F0020F46D1FEF744FF801B41F2E3
:1022400088339842F3D90320C6E00025D6E7144A24
:10225000136843F480731360FEF734FF0646104B97
:102260001B6813F4807FCED1FEF72CFF801B022861
:10227000F5D90320B0E0084A136F43F00103136758
:10228000CFE7054B1A6F42F004021A671A6F42F04B
:1022900001021A67C5E700BF00380240000047424C
:1022A00000700040FEF70EFF0646524B1B6F13F006
:1022B000020F08D0FEF706FF801B41F288339842D8
:1022C000F3D9032088E0EDB9A369002B00F08380E7
:1022D000484A926802F00C02082A51D0022B17D00B
:1022E000454B00221A66FEF7EDFE0446414B1B6883
:1022F00013F0007F42D0FEF7E5FE001B0228F5D95F
:10230000032069E03B4A136C23F080531364DBE73E
:10231000394B00221A66FEF7D5FE0546354B1B6881
:1023200013F0007F06D0FEF7CDFE401B0228F5D942
:10233000032051E0E369226A1343626A43EA82138D
:10234000A26A5208013A43EA0243E26A43EA02639C
:10235000284A5360284B01221A66FEF7B3FE044652
:10236000244B1B6813F0007F06D1FEF7ABFE001B69
:102370000228F5D903202FE000202DE000202BE0DB
:10238000012B2BD01B4B5B6803F48001E269914267
:1023900026D103F03F02216A8A4223D1616A47F6BF
:1023A000C0721A40B2EB811F1ED103F44031A26A01
:1023B0005208013AB1EB024F18D103F07063E26AA0
:1023C000B3EB026F14D1002006E00120704701201A
:1023D00002E0012000E0002002B070BD0120FBE718
:1023E0000120F9E70120F7E70120F5E70120F3E7F5
:1023F0000120F1E7003802400000474208B5264BB3
:102400009B6803F00C03042B41D0082B41D1224BD5
:102410005A6802F03F025B6813F4800F12D01E4B23
:102420005968C1F388111D480023A1FB0001FEF784
:10243000C5FA194B5B68C3F3014301335B00B0FB82
:10244000F3F027E0144B5868C0F388104FEA401CA3
:10245000BCEB000C6EEB0E0E4FEA8E1343EA9C634E
:102460004FEA8C11B1EB0C0163EB0E03DB0043EA86
:102470005173C90011EB000C43F1000399020023D2
:102480004FEA8C2041EA9C51FEF798FAD1E70348C5
:1024900000E0034808BD00BF00380240001BB70041
:1024A0000024F400002800F09B8070B50D4604461F
:1024B0004F4B1B6803F00F038B4208D2CBB24C4A40
:1024C0001370136803F00F038B4240F08B80236876
:1024D00013F0020F17D013F0040F04D0454A93688D
:1024E00043F4E0539360236813F0080F04D0414A8B
:1024F000936843F4604393603E4A936823F0F0038B
:10250000A1680B439360236813F0010F32D0636816
:10251000012B21D09A1E012A25D9364A126812F0C1
:10252000020F61D033498A6822F0030213438B60A3
:10253000FEF7C8FD06462F4B9B6803F00C0362684C
:10254000B3EB820F16D0FEF7BDFD801B41F288333E
:102550009842F0D9032042E0264A126812F4003F64
:10256000E0D101203BE0234A126812F0007FD9D16C
:10257000012034E01E4B1B6803F00F03AB4207D968
:10258000EAB21B4B1A701B6803F00F03AB422DD14C
:10259000236813F0040F06D0164A936823F4E0531F
:1025A000E1680B439360236813F0080F07D0114ACA
:1025B000936823F46043216943EAC1039360FFF702
:1025C0001DFF0C4B9B68C3F303130B4AD35CD8402D
:1025D0000A4B18600A4B1868FEF728FD002070BDF2
:1025E000012070470120FAE70120F8E70120F6E713
:1025F000003C024000380240987E00081000002095
:1026000008000020014B1868704700BF1000002030
:1026100008B5FFF7F7FF044B9B68C3F38223034A17
:10262000D35CD84008BD00BF00380240A87E000837
:1026300008B5FFF7E7FF044B9B68C3F34233034A37
:10264000D35CD84008BD00BF00380240A87E000817
:1026500010B504460268136923F44053C1680B4364
:102660001361836802691A4343691A43C3691A43B1
:102670000168CB6823F4164323F00C031343CB60AB
:102680000268536923F4407381690B435361036803
:10269000314A934206D002F58062934202D0FFF79E
:1026A000B7FF01E0FFF7C4FFE369B3F5004F29D09E
:1026B0000021031849411B1841F10001C90041EAFA
:1026C0005371DB00181863684FEA83024FEA937373
:1026D00041F10001FEF772F9204AA2FB00314909DD
:1026E000642303FB11031B013233A2FB03235B09A9
:1026F00003F0F00202EB011203F00F032168134410
:102700008B6010BD0023021843EB0301121841F146
:102710000001C90041EA5271D200101841F10001D4
:10272000626892185B41FEF749F90C4AA2FB00313E
:102730004909642303FB1103DB003233A2FB0323AB
:102740005B095A0002F4F87202EB011203F007036E
:10275000216813448B60D4E7001001401F85EB51C2
:1027600058B310B5044690F83D300BB3242384F8D9
:102770003D302268D36823F40053D3602046FFF72E
:1027800067FF2268136923F4904313612268536939
:1027900023F02A0353612268D36843F40053D360C3
:1027A00000202064202384F83D3084F83E3010BDA2
:1027B00080F83C3003F0CCFDD8E7012070470000E2
:1027C000EFF305832BB9064B186828B901221A606C
:1027D00070476FF0050070474FF0FF30704700BF43
:1027E000F8020020EFF3058373B90A4B1B68012B35
:1027F0000DD110B50024084BDC77064B02221A607D
:1028000000F04CFF204610BD6FF0050070474FF000
:10281000FF307047F802002000ED00E0F0B587B00F
:1028200000240594EFF3058474BB68B322B31568E4
:10283000936903B918235C1E372C49D8546814F0E7
:10284000010F47D156696EB14FEA960C94682CB1CE
:10285000D7685B2F02D9176907B1C6B92CB14FF001
:10286000FF340EE04FF0800CF0E7D4688CB91469A7
:1028700094B14FF0FF3404E01546002418234FF0C4
:10288000800C012C0AD0ACB1059807B0F0BD012432
:10289000F7E74FF0FF34F4E70024F2E71469926899
:1028A0000292019400930B466246294600F086FE90
:1028B0000590E9E705AA019200930B461FFA8CF2F6
:1028C000294600F0B6FE0128DED000230593DBE7A1
:1028D0000020DAE70020D8E7EFF3058373B910B5DD
:1028E00082B0044600F030FF0190211A002908DD73
:1028F00001A801F037F8002002B010BD6FF005000C
:1029000070476FF00300F7E7034B0360034B0B6066
:1029100080231360704700BF9C0200209C000020B1
:10292000034B0360034B0B604FF4807313607047DD
:10293000FC060020FC02002000F1080343604FF079
:10294000FF328260C360036100230360704700238D
:102950000361704743684B609A688A605160996070
:102960000861036801330360704730B40D68B5F146
:10297000FF3F11D000F108031C465B681A68AA42A9
:10298000FAD963684B6099608C6061600861036884
:102990000133036030BC70470469F2E703694168A2
:1029A00082688A60416851605A68824206D000227B
:1029B00002611A68013A1A601868704782685A60A2
:1029C000F5E70000124A12F0070F1ED0D11D21F0CA
:1029D0000701C1F5705313440A460E4802600021F6
:1029E00041601344083B23F007030B480360596020
:1029F0001960991A51601360084B1960084B1960EF
:102A0000084B4FF000421A6070474FF47053E4E7F0
:102A10005C0700207043002058070020644300201A
:102A2000604300205C430020164B1A461B6883421B
:102A3000FBD3516802EB010C844509D0416800EBDF
:102A4000010C634509D00360904219D010607047B3
:102A50004068014451601046F0E710B40A4C246805
:102A6000A3420BD05B681944416013681B68036084
:102A7000904200D010605DF8044B70470460F7E7A7
:102A8000704700BF704300205807002070B505460E
:102A900000F052FE364B1B68A3B1364B1B681D423B
:102AA0004ED135B1083515F0070F02D025F00705D6
:102AB0000835002D46D0304B1B68AB4251D32F4A0E
:102AC000146804E0FFF77EFFE7E722461C466368D0
:102AD000AB4202D22368002BF7D1254B1B68A342DF
:102AE00041D0166808362368136063685B1B102B9F
:102AF00010D9601910F0070F08D04FF0500383F37E
:102B00001188BFF36F8FBFF34F8FFEE7436065609F
:102B1000FFF78AFF626818490B689B1A0B60184917
:102B200009688B4201D216490B60124B1B68134394
:102B3000636000232360134A13680133136002E0CB
:102B4000002600E0002600F091FE16F0070F0CD0E2
:102B50004FF0500383F31188BFF36F8FBFF34F8F94
:102B6000FEE70026EFE70026EDE7304670BD00BF28
:102B7000580700205C430020604300207043002081
:102B80006443002068430020002834D038B5044650
:102B9000A0F1080550F8043C174A1268134208D106
:102BA0004FF0500383F31188BFF36F8FBFF34F8F44
:102BB000FEE750F8081C41B14FF0500383F3118831
:102BC000BFF36F8FBFF34F8FFEE723EA020340F896
:102BD000043C00F0B1FD54F8041C084A13680B448F
:102BE00013602846FFF720FF054A1368013313607E
:102BF00000F03CFE38BD70475C430020604300207D
:102C00006C43002010B50446FEF7BCF8A26BE36BE2
:102C10009A4204D00024FEF7D7F8204610BD0124C4
:102C2000F9E710B50446FEF7ADF8A36B23B901240C
:102C3000FEF7CAF8204610BD0024F9E770B5044637
:102C40001546866B026C5AB903681BB10020013629
:102C5000A66370BD806800F0FFFF0023A360F6E765
:102C60006DB9406804F072FE226C636813446360BF
:102C7000A268934219D3236863602846E7E7C068D7
:102C800004F064FE226C5142E3689B1AE360226800
:102C9000934202D2A3680B44E360022D01D00020CE
:102CA000D5E726B1013E0020D1E72846CFE7002036
:102CB000CDE70346026C6AB110B50846D9681144E5
:102CC000D9609C68A14201D31968D960D96804F021
:102CD0003DFE10BD704738B50546FEF753F895F830
:102CE000454064B201E0013C64B2002C0ADD6B6A2D
:102CF00043B105F1240000F005FF0028F3D000F0F7
:102D000095FFF0E7FF2385F84530FEF75DF8FEF705
:102D100039F895F8444064B201E0013C64B2002CFB
:102D20000ADD2B6943B105F1100000F0EBFE00282D
:102D3000F3D000F07BFFF0E7FF2385F84430FEF787
:102D400043F838BD38B5E0B10D460446FEF71AF831
:102D50002368E26B216C01FB0230A0600020A063BD
:102D60006360013A02FB0133E360FF2384F84430DF
:102D700084F84530FDB9236963B9FEF725F80120D1
:102D800038BD4FF0500383F31188BFF36F8FBFF34B
:102D90004F8FFEE704F1100000F0B4FE0028ECD0E5
:102DA0004FF0E0234FF08052C3F8042DBFF34F8F54
:102DB000BFF36F8FE1E704F11000FFF7BDFD04F1F1
:102DC0002400FFF7B9FDD8E738B51D46049C0B4633
:102DD00049B92460E063236401212046FFF7B2FF74
:102DE00084F84C5038BD2260F4E740B94FF05003EE
:102DF00083F31188BFF36F8FBFF34F8FFEE710B5DA
:102E000084B01C46844653B192B189B94FF0500347
:102E100083F31188BFF36F8FBFF34F8FFEE74FF03F
:102E2000500383F31188BFF36F8FBFF34F8FFEE71B
:102E30006AB150230393039B502B13D04FF05003E0
:102E400083F31188BFF36F8FBFF34F8FFEE7002925
:102E5000EFD04FF0500383F31188BFF36F8FBFF3B0
:102E60004F8FFEE7039B012384F8463000949DF8C2
:102E700018306046FFF7A8FF204604B010BDF0B53B
:102E800085B0019288B10F461D460446B1B1022DAE
:102E900020D1E36B012B1DD04FF0500383F3118839
:102EA000BFF36F8FBFF34F8FFEE74FF0500383F3F5
:102EB0001188BFF36F8FBFF34F8FFEE7036C002BBA
:102EC000E5D04FF0500383F31188BFF36F8FBFF34A
:102ED0004F8FFEE700F0B0FE064658B9019B002B6D
:102EE00048D04FF0500383F31188BFF36F8FBFF3C7
:102EF0004F8FFEE700263DE02A4639462046FFF781
:102F00009DFE636A7BB948B14FF0E0234FF08052D9
:102F1000C3F8042DBFF34F8FBFF36F8FFDF754FF3E
:102F2000012005B0F0BD04F1240000F0EBFD002805
:102F3000F4D04FF0E0234FF08052C3F8042DBFF3DC
:102F40004F8FBFF36F8FE9E7FDF73EFF0020E8E703
:102F500002A800F01DFE012619E0002384F8443089
:102F600021E0002384F8453023E02046FFF7B3FE3C
:102F700000F07CFCFDF706FFA26BE36B9A42BBD32B
:102F8000022DB9D0019B002BDED0002EE0D0FDF742
:102F90001BFF00F0D1FBFDF7F5FE94F8442052B280
:102FA000B2F1FF3FD9D094F8452052B2B2F1FF3FC1
:102FB000D7D0FDF709FF01A902A800F0F5FDD8B9A7
:102FC0002046FFF71FFE0028CFD0019904F1100022
:102FD00000F064FD2046FFF77EFE00F047FC00286D
:102FE000C8D14FF0E0234FF08052C3F8042DBFF357
:102FF0004F8FBFF36F8FBDE72046FFF76CFE00F0E9
:1030000035FC00208DE72DE9F84390B10F461646B8
:103010001C460546B1B1022C20D1EB6B012B1DD013
:103020004FF0500383F31188BFF36F8FBFF34F8FBF
:10303000FEE74FF0500383F31188BFF36F8FBFF3A8
:103040004F8FFEE7036C002BE5D04FF0500383F366
:103050001188BFF36F8FBFF34F8FFEE7FDF7B8FF07
:10306000EFF311884FF0500383F31188BFF36F8F94
:10307000BFF34F8FAA6BEB6B9A4206D3022C04D09E
:10308000002088F31188BDE8F88395F845904FFA41
:1030900089F9AB6B224639462846FFF7CFFDB9F1D7
:1030A000FF3F06D009F101035BB285F845300120EE
:1030B000E7E76B6A0BB90120E3E705F1240000F0B4
:1030C00021FD18B126B101203060DAE70120D8E7F0
:1030D0000120D6E7F0B585B0019290B10F460446C5
:1030E000C1B100F0A9FD064600BB019B002B5ED0DC
:1030F0004FF0500383F31188BFF36F8FBFF34F8FEF
:10310000FEE74FF0500383F31188BFF36F8FBFF3D7
:103110004F8FFEE7036C002BE3D04FF0500383F397
:103120001188BFF36F8FBFF34F8FFEE700263EE09D
:1031300039462046FFF7BDFD013DA563236923B94C
:10314000FDF742FE012005B0F0BD04F1100000F0D3
:10315000D9FC0028F4D04FF0E0234FF08052C3F8A0
:10316000042DBFF34F8FBFF36F8FE9E7FDF72CFE00
:103170000020E8E702A800F00BFD012621E0002373
:1031800084F8443029E0002384F845302BE02046C1
:10319000FFF7A1FD00F06AFB09E02046FFF79BFD69
:1031A00000F064FB2046FFF73CFD00283FD1FDF70F
:1031B000E9FDA56B002DBBD1019B002BD6D0002EC5
:1031C000D8D0FDF701FE00F0B7FAFDF7DBFD94F86B
:1031D00044305BB2B3F1FF3FD1D094F845305BB2DD
:1031E000B3F1FF3FCFD0FDF7EFFD01A902A800F03A
:1031F000DBFC0028D1D12046FFF713FD0028C6D004
:10320000019904F1240000F049FC2046FFF763FD1A
:1032100000F02CFB0028CAD14FF0E0234FF0805281
:10322000C3F8042DBFF34F8FBFF36F8FBFE70020AC
:1032300089E700000023072B0CD8074A52F83320F7
:103240000AB10133F7E7044A42F8331002EBC30234
:1032500050607047704700BF7843002070B5044647
:103260000D461646FDF78EFD94F844305BB2B3F17F
:10327000FF3F0DD094F845305BB2B3F1FF3F0BD068
:10328000FDF7A2FDA36B5BB12046FFF724FD70BDE7
:10329000002384F84430EDE7002384F84530EFE75D
:1032A0003246294604F1240000F010FCECE700004F
:1032B000084B1B681B6823B9074B4FF0FF321A609D
:1032C0007047044B1B68DB68DB685A68024B1A6066
:1032D000704700BFBC430020644800202DE9F04740
:1032E00080460D4617469946089EDDF824A00A9CA4
:1032F0009200A521206B04F037FB236B07F180427D
:10330000013A03EB820727F00707A5B34FF0000C43
:10331000BCF10F0F09D815F80C3004EB0C0282F841
:10332000343013B10CF1010CF2E7002384F8433080
:10333000372E00D93726E662E66400252565201D74
:10334000FFF705FB04F11800FFF701FB2461C6F14C
:103350003806A6616462656584F858504A4641465D
:103360003846FDF7E5FC2060BAF1000F01D0CAF83D
:103370000040BDE8F087002384F83430D8E700002F
:1033800038B5002407E004EB840293000E4818448B
:10339000FFF7D2FA0134372CF5D90C4D2846FFF748
:1033A000CBFA0B4C2046FFF7C7FA0A48FFF7C4FADE
:1033B0000948FFF7C1FA0948FFF7BEFA084B1D603C
:1033C000084B1C6038BD00BFC443002038480020B3
:1033D0004C480020704800209C480020884800206D
:1033E000BC430020C043002010B50446FDF7CAFCD2
:1033F000224A136801331360214B1B685BB1214BD8
:103400001B686BB91E4B1B68DA6AE36A9A4207D8DD
:103410001B4B1C6004E01A4B1C601368012B29D065
:10342000194A1368013313606364E06A174B1B6821
:10343000984201D9154B186000EB8000211D144BF8
:1034400003EB8000FFF786FAFDF7BEFC0D4B1B680F
:103450007BB10B4B1B68DA6AE36A9A4209D24FF0E0
:10346000E0234FF08052C3F8042DBFF34F8FBFF31A
:103470006F8F10BDFFF784FFD2E700BF2448002004
:10348000B843002084480020304800203448002001
:10349000C443002010B5044690F8593063B1012BA5
:1034A00011D0022B0ED04FF0500383F31188BFF3DD
:1034B0006F8FBFF34F8FFEE7006BFFF765FB204672
:1034C000FFF762FB10BDFFF75FFBFBE70F4B1B68CD
:1034D000D3B110B5FDF756FC0D4BDB68DC68201D41
:1034E000FFF75CFA0B4A1368013B1360074A136845
:1034F000013B1360FDF768FC2046FFF7CBFF034B51
:103500001B68002BE6D110BD704700BF2848002083
:103510009C4800202448002008B5FFF7D7FF074B40
:103520001B68012BF9D94FF0E0234FF08052C3F80C
:10353000042DBFF34F8FBFF36F8FEEE7C44300201E
:1035400070B504460D46174B1E68174B18680430BB
:10355000FFF724FAB4F1FF3F0DD03444124B1B683F
:103560005C60A64210D9114B18680F4B19680431E2
:10357000FFF7FBF970BD002DEFD00B4B196804313C
:103580000B48FFF7E7F9F5E70A4B1868064B19688F
:103590000431FFF7EAF9084B1B68A342EAD9064B4E
:1035A0001C60E7E7B0480020B8430020C04300207B
:1035B00088480020BC4300206448002030B587B014
:1035C0000B9C7CB10C9DB5B15C250495049D5C2DD4
:1035D0001AD04FF0500383F31188BFF36F8FBFF3FE
:1035E0004F8FFEE74FF0500383F31188BFF36F8FC7
:1035F000BFF34F8FFEE74FF0500383F31188BFF303
:103600006F8FBFF34F8FFEE7049D0C9D2C63022448
:1036100085F8594000240394029505AC01940A9C56
:103620000094FFF75BFE0C98FFF7DEFE059807B0ED
:1036300030BD2DE9F04385B00746884614461E4646
:103640009000FFF723FA00B381465C20FFF71EFAD3
:103650000546B0B1C0F83090E5B1002385F8593087
:10366000039302950D9B01930C9B009333462246D6
:1036700041463846FFF732FE2846FFF7B5FE0120E7
:1036800005E04846FFF780FAE6E74FF0FF3005B067
:10369000BDE8F0834FF0FF30F9E7000010B588B0C7
:1036A00000240594069407AA06A905A8FFF72CF99B
:1036B000059B0293069B019300942346079A1849A1
:1036C0001848FFF77BFF184B186040B100F078FBFB
:1036D000012806D0B0F1FF3F18D008B010BD00207F
:1036E000F6E74FF0500383F31188BFF36F8FBFF3FA
:1036F0004F8F0E4B4FF0FF321A600D4B01221A60B4
:103700000C4B00221A60FDF7D7FBE6E74FF05003A1
:1037100083F31188BFF36F8FBFF34F8FFEE700BFB6
:10372000F47900081935000860480020644800203A
:1037300084480020B0480020024A13680133136017
:10374000704700BF2C480020014B1868704700BF2D
:10375000B0480020F8B53A4B1B68002B69D1394BB3
:103760001D6801351D60C5B9374B1B681B6843B127
:103770004FF0500383F31188BFF36F8FBFF34F8F68
:10378000FEE7314A1168314B186810601960304A01
:10379000136801331360FFF78BFD2E4B1B68AB42A0
:1037A0003DD900272C4B1B68DB6A03EB83039A008F
:1037B0002A4B9B58012B00D90127294B1B68002B52
:1037C0003CD001273AE001271F4B1B681B6843B31D
:1037D0001D4B1B68DB68DC6863689D4226D3261D91
:1037E0003046FFF7DBF8A36A1BB104F11800FFF7BE
:1037F000D5F8E36A1B4A1268934201D9194A13604B
:1038000003EB83039A00314614481044FFF7A2F8F3
:10381000E26A114B1B68DB6A9A42D4D2D4E70027D4
:10382000D2E70C4B4FF0FF321A60BBE7094A136036
:10383000B8E70D4A13680133136000273846F8BD16
:103840002C480020B0480020BC430020C04300208A
:103850006848002064480020B8430020C44300208A
:10386000B4480020344800206C48002038B5354B5F
:103870001B6843B94FF0500383F31188BFF36F8F78
:10388000BFF34F8FFEE7FDF77DFA2E4B1A68013A22
:103890001A601B68002B4FD12B4B1B680BB90024FF
:1038A0004BE00024294B1B681BB3284BDB68DC680A
:1038B00004F11800FFF772F8251D2846FFF76EF88F
:1038C000E06A234B1B68984201D9214B186000EB3A
:1038D000800029461F4B03EB8000FFF73BF8E26AAC
:1038E0001D4B1B68DB6A9A42DCD31C4B01221A6019
:1038F000D8E70CB1FFF7DCFC194B1C6884B9174BF7
:103900001C68D4B14FF0E0234FF08052C3F8042D6F
:10391000BFF34F8FBFF36F8F01240EE0013C07D040
:10392000FFF718FF0028F9D00C4B01221A60F5E7C9
:103930000B4B00221A60E2E70024FDF745FA20460F
:1039400038BD00BF2C4800202448002070480020CB
:1039500034480020C4430020B8430020B44800206D
:103960006C48002038B558B10C46054689B94FF06F
:10397000500383F31188BFF36F8FBFF34F8FFEE7C0
:103980004FF0500383F31188BFF36F8FBFF34F8F56
:10399000FEE71B4B1B6843B14FF0500383F31188C4
:1039A000BFF36F8FBFF34F8FFEE7FFF7C5FE154BD9
:1039B00018682B681C44834209D9A34201D82C60A3
:1039C0000EE0A04201D32C600AE02C6004E0A34288
:1039D00001D8A04212D22C600021201AFFF7B0FDBE
:1039E000FFF744FF48B94FF0E0234FF08052C3F88F
:1039F000042DBFF34F8FBFF36F8F38BD2C60EFE7FF
:103A00002C480020B04800201F4B1B681BB11F4BE7
:103A100001221A6070471D4B00221A601C4B1B6864
:103A200003EB83018A001B498A585AB90BB1013B49
:103A3000F6E74FF0500383F31188BFF36F8FBFF3A6
:103A40004F8FFEE703EB830082000A445068406812
:103A5000506003EB830C4FEA8C0208321144884219
:103A60000BD003EB830291000A4A0A445268D168E2
:103A7000094A1160064A1360704740686246910027
:103A8000044A0A445060ECE72C480020B448002067
:103A900034480020C4430020B843002058B110B57A
:103AA0000C46094A11681831FEF75FFF01212046D4
:103AB000FFF746FD10BD4FF0500383F31188BFF3AD
:103AC0006F8FBFF34F8FFEE7B843002038B570B15A
:103AD0000D4614460A4A11681831FEF73BFF0CB137
:103AE0004FF0FF3521462846FFF72AFD38BD4FF03D
:103AF000500383F31188BFF36F8FBFF34F8FFEE73F
:103B0000B843002038B5C368DC6824B304F1180555
:103B10002846FEF743FF184B1B682BBB251D284684
:103B2000FEF73CFFE06A154B1B68984201D9134B26
:103B3000186000EB80002946114B03EB8000FEF774
:103B400009FFE26A0F4B1B68DB6A9A4211D9012018
:103B50000D4B186038BD4FF0500383F31188BFF34D
:103B60006F8FBFF34F8FFEE729460848FEF7F2FE3E
:103B7000E7E70020EEE700BF2C4800203448002093
:103B8000C4430020B8430020B448002070480020FF
:103B9000034B1B680360034B1B684360704700BF07
:103BA00068480020B0480020F8B5C8B10C4605466A
:103BB000F9B1FDF7E7F81B4B19686B68C81A226862
:103BC000B2F1FF3F26D0184E36682F68B74201D0B9
:103BD0008B4224D9824215D80023236001241AE0A5
:103BE0004FF0500383F31188BFF36F8FBFF34F8FF4
:103BF000FEE74FF0500383F31188BFF36F8FBFF3DD
:103C00004F8FFEE75B1A134423602846FFF7C0FF7F
:103C1000002400E00024FDF7D7F82046F8BD012479
:103C2000F9E700BFB048002068480020014B01229E
:103C30001A607047B4480020054B1B6833B1054B30
:103C40001B680BB1002070470220704701207047AD
:103C5000844800202C48002000283BD038B504467A
:103C60001E4B1B68834208D04FF0500383F311882A
:103C7000BFF36F8FBFF34F8FFEE7036D43B94FF074
:103C8000500383F31188BFF36F8FBFF34F8FFEE7AD
:103C9000013B0365C16AC26C91421DD00BB100208B
:103CA00038BD051D2846FEF779FEE06CE062C0F1E4
:103CB0003803A3610A4B1B68984201D9084B18606E
:103CC00000EB80002946074B03EB8000FEF742FE25
:103CD0000120E5E7002070470020E1E7B84300201D
:103CE00034480020C4430020064B1A6813682BB9DF
:103CF0000123036023B9D368186870470023F8E7ED
:103D000000207047B848002008B54160006191422A
:103D10000CD8D21A83699A4201D3012008BD011D33
:103D2000094B1868FEF721FE0020F7E79A4201D2FE
:103D3000994206D2011D054B1868FEF716FE0020B9
:103D4000ECE70120EAE700BFBC480020B8480020AB
:103D500030B583B0FDF716F8114B1B681BB1FDF7AA
:103D600033F803B030BD0F4D2846FEF7E5FD0E4C8D
:103D70002046FEF7E1FD0D4B1D600D4B1C6000233E
:103D800000930C4B0C4A10210A20FFF72EF8044B2D
:103D900018600028E3D00949FFF74CFADFE700BFBD
:103DA000DC4900206049002074490020B848002008
:103DB000BC4800208C490020C0480020FC79000845
:103DC00010B588B0FFF7C4FF124B1B68CBB10024BD
:103DD0000594069407AA06A905A8FEF7A1FD059B70
:103DE0000293069B0193022300932346079A0A49F4
:103DF0000A48FFF7E3FB0A4B186010B1012008B036
:103E000010BD4FF0500383F31188BFF36F8FBFF3E2
:103E10004F8FFEE7DC490020047A000825410008A6
:103E2000E0490020B8B19C4603461848006858B3E2
:103E300000B585B000910192029305291CDCFFF7C3
:103E4000FBFE022810D000231A4669460F4800687E
:103E5000FFF715F815E04FF0500383F31188BFF317
:103E60006F8FBFF34F8FFEE70023069A694607481E
:103E70000068FFF704F804E0002362466946FFF794
:103E8000C2F805B05DF804FB00207047DC49002053
:103E900070B582B01B4B1B681A6862B3DB681E6882
:103EA000DC68251D2846FEF779FD236A20469847E1
:103EB00094F8283013F0040FECD0A36933449E42E9
:103EC00007D26360246129460E4B1868FEF74DFD4A
:103ED000E0E7002100910B4632462046FFF7A2FFA3
:103EE0000028D7D14FF0500383F31188BFF36F8FB1
:103EF000BFF34F8FFEE7044A106802490860136061
:103F000002B070BDB8480020BC48002038B5054656
:103F1000FFF71AFC0446074B1B68834205D80023B1
:103F20002B60044B1C60204638BDFFF7B1FF012316
:103F30002B60F6E78849002070B582B006460D4632
:103F400017490968C968CC68201DFEF727FD94F859
:103F500028C01CF0040F08D12CF0010C84F828C0F4
:103F6000236A2046984702B070BDA16933462A46AD
:103F700031442046FFF7C8FE0028F1D0002100910F
:103F80000B4632462046FFF74DFF0028E8D14FF0A0
:103F9000500383F31188BFF36F8FBFF34F8FFEE79A
:103FA000B848002070B582B006460C46FFF7C4FB47
:103FB00001A8FFF7ABFF019B33BB05460CB9B0422C
:103FC00019D224B1124A12681268DAB901242246C1
:103FD000711B104B1868FFF741F9FFF747FCA8B9B0
:103FE0004FF0E0234FF08052C3F8042DBFF34F8F02
:103FF000BFF36F8F0AE0FFF739FC29463046FFF721
:104000009BFF03E01C46E2E7FFF730FC02B070BD07
:10401000BC480020DC49002010B588B002E0049BB9
:10402000002B0FDA002204A93D4B1868FFF752F865
:10403000002873D0049B002BF1DA07990698059BA2
:104040009847ECE7069C636913B1201DFEF7A6FCB8
:1040500003A8FFF75BFF049B092BE3D8DFE803F01D
:104060000505053037500505303794F8283043F002
:10407000010384F82830059BA169024619442046B3
:10408000FFF742FE0028CDD0236A2046984794F8D7
:10409000283013F0040FC5D0A269002100910B460F
:1040A000059802442046FFF7BDFE0028BAD14FF024
:1040B000500383F31188BFF36F8FBFF34F8FFEE779
:1040C00094F8283023F0010384F82830AAE794F804
:1040D000283043F0010384F828300599A16131B1FB
:1040E0000346024601442046FFF70EFE9AE74FF0D2
:1040F000500383F31188BFF36F8FBFF34F8FFEE739
:1041000094F8283013F0020F04D023F0010384F850
:10411000283087E72046FEF737FD83E708B010BD5B
:10412000DC49002000B583B001A8FFF7DDFD01994F
:10413000FFF738FFFFF770FFF6E7000010B58AB011
:1041400001220892002306930792009301930293A1
:104150000393059304930E4C69462046FDF75EF8E1
:104160002046FDF7F7F802212046FDF744FA0E231A
:1041700009930593074C69462046FDF74FF8204602
:10418000FDF7E8F802212046FDF735FA0AB010BD28
:10419000404B0020184B002084B010B582B004467C
:1041A00005A880E80E000F9B13490C6000228A606E
:1041B000CA6008220A61114A93F901401470B3F9E8
:1041C0000040547093F903409470B3F90240D470E6
:1041D00093F905401471B3F90440547193F9074001
:1041E0009471B3F90630D37101ABFDF7E1F802B079
:1041F000BDE8104004B07047E4490020FC490020AD
:1042000030B405686C6944F040046C610568EC6882
:1042100044F01004EC60846B25682C6824F00104E1
:104220002C600C68256815F0010F06D0846B25689A
:104230002C6824F001042C60F3E705680435A560C0
:104240000C68E2600A6813610B68BDF808205A60C8
:104250000A68136843F480231360836B1A68136839
:1042600043F00103136030BC704708B50B46920061
:104270000146184603F06AFB08BD000000F17843D0
:10428000B3F5804F45D3A3F58043B3F5804F42D3B8
:1042900000F17843A3F50043B3F5804F3DD300F11F
:1042A0007843A3F54043B3F5804F38D300F177430B
:1042B00003F57F03B3F5803F33D300F1774303F574
:1042C0007E03B3F5003F2ED300F1774303F57C0363
:1042D000B3F5003F29D300F1774303F57A03B3F533
:1042E000003F24D300F1774303F57803B3F5003F93
:1042F0001FD300F1774303F57603B3F5003F1AD3DC
:1043000000F1774000F57400B0F5003F15D20C487D
:1043100070470C4870470C4870470C4870470C4871
:1043200070470C4870470C4870470C4870470C4861
:1043300070470C4870470C4870474FF00160704759
:1043400000000E08004000080080000800C00008BF
:104350000000010800000208000004080000060830
:104360000000080800000A0800000C0870B50546A7
:104370000E461446FDF75EFC184B1D602846FFF7FD
:104380007DFF174B1860174B1E60174B00221A60F9
:10439000124B1968124B1B68994215D8114B1B68B8
:1043A0001A6800230220FDF797FC88B90B4A1368AE
:1043B000043313600B4A1368043313600A4A13680A
:1043C00001331360A342E3D1FDF74CFC002070BD24
:1043D000FDF748FC4FF0FF30F9E700BF184A002016
:1043E000144A00200C4A0020104A002008B50D484D
:1043F0000D4B03600523436000238360C3604FF4CB
:10440000003202614FF48002426103764376837684
:10441000C37603774377FCF75BFE00B908BD01F074
:104420002BF8FBE7404B00200064004008B50D4826
:104430000D4B03600523436000238360C3604FF48A
:10444000003202614FF48002426103764376837644
:10445000C37603774377FCF73BFE00B908BD01F054
:104460000BF8FBE7184B00200068004010B58AB03D
:1044700000230593069307930893099303683F4A23
:10448000934204D03E4A934235D00AB010BD3D4A13
:10449000136801331360012B20D0002401943A4BA0
:1044A0001A6B42F008021A631B6B03F008030193B6
:1044B000019B032305930222069207940893092384
:1044C000099305A93148FDF745FC22460521142032
:1044D000FDF7E6F91420FDF71BFAD6E70023009359
:1044E000294B1A6C42F000721A641B6C03F00073C3
:1044F0000093009BD1E700230293234B1A6C42F0F8
:1045000080621A641B6C03F080630293029B1D4A55
:10451000136801331360012B22D0002404941A4B3A
:104520001A6B42F002021A631B6B03F0020304933E
:10453000049B4FF4405305930223069307940323EF
:1045400008930923099305A91148FDF703FC2246A6
:1045500005214020FDF7A4F94020FDF7D9F994E7A3
:1045600000230393084B1A6C42F000721A641B6C10
:1045700003F000730393039BCFE700BF0064004088
:10458000006800401C4A002000380240000C024035
:104590000004024010B58AB0044601AB03AA002112
:1045A000FCF784FF23684B4A934204D04A4A934263
:1045B00064D00AB010BD039B484A5268934221D090
:1045C000464A126E934229D0444AD2F8BC20934204
:1045D00030D0424AD2F81821934237D0404A52682C
:1045E00093423FD03F4A52689342E2D13D4C21462C
:1045F00001A800F08BFC3C49606801F0B7F83B4B28
:104600001870D6E7354C214601A800F07FFC3649EA
:10461000606801F0ABF8354B1870CAE7344C21469E
:1046200001A800F073FC3049606801F09FF82F4B3F
:104630001870BEE72F4C214601A800F067FC2A49FC
:10464000606801F093F8294B1870B2E72A4C2146B4
:1046500001A800F05BFC2449606801F087F8234B57
:104660001870A6E71E4C214601A800F04FFC1E4919
:10467000606801F07BF81D4B18709AE7039B40F2CD
:104680001122934213D040F26662934216D040F654
:10469000991293428DD1194901A801F001F81849E6
:1046A00040F6991001F062F8164B187081E7144932
:1046B000104601F05BF8134B18707AE70F4901A818
:1046C00000F0B4FF0E4940F2666001F04FF80D4B68
:1046D00018706EE70064004000680040104E002033
:1046E000584D0020F44C002014000020244A0020E3
:1046F0006C4E0020C84E0020244F0020D44C0020D7
:1047000034000020254A002000B583B0054B242248
:104710000092A3F1240204490448FFF771FD03B09D
:104720005DF804FB8C4B002028590020885900209C
:10473000002800F0C0800346002900F0BC80F0B4DF
:104740005D485E4C2568D4F804C0A768E66805603B
:10475000C0F804C08760C66025690561A48A8482A8
:104760005748584CD4F800C06768A668E568C0F898
:1047700000C047608660C560247C04741F78587848
:1047800047EA0027C7F30A070F805E789878F60893
:1047900046EA4016C6F30A064E809878DC7880090F
:1047A00040EA84001C7940EA8420C0F30A00888033
:1047B0001C795D79640844EAC514C4F30A04CC800A
:1047C0005D79C5F30115CD725D79AD098D729D7965
:1047D00093F807C045EA0C258D811D7A93F809C02E
:1047E00045EA0C25CD819D7A93F80BC045EA0C254E
:1047F0000D821D7B8D745D7BCD7493F80EC0DD7BC7
:104800004CEA052CA1F814C01D7C5B7C45EA03230F
:104810001BB2A7F580670F80A6F580664E80A0F5D5
:1048200080608880A4F58064CC80A3F580630B81D0
:104830000CF0010353708B8AC3F34003D3708B8A4F
:10484000C3F3800393708B8AC3F3C00313718B8A05
:10485000C3F3001313728B8AC3F34013D3718B8A93
:10486000C3F3801353718B8AC3F3C01393718B8A84
:10487000C3F3002353728B8AC3F3402393728B8A52
:10488000C3F38023D3728B8AC3F3C02313738B8A41
:10489000C3F3003353738B8AC3F3403393738B8A10
:1048A000C3F38033D3738B8ADB0B1374064B012263
:1048B0001A70F0BC70477047DC4B0020C44B0020DE
:1048C000B04B0020F44B0020204A002000B583B0FC
:1048D000274B1B681A6812F0200F09D000220092A3
:1048E0001A6800925B680093009B03B05DF804FBBC
:1048F0001A6812F0100FF8D0002201921A68019283
:104900005B680193019B1B4B1A685368C3F1240336
:104910009BB219490B8024215160116811F4002FBA
:1049200011D1116841F400211160124A11680A681E
:1049300042F001020A60122BD7D1104A10491148E7
:10494000FFF7F6FED1E7104A136823F40023136043
:10495000084B1A68136843F001031360064B1B8869
:10496000122BC2D1054A06490848FFF7E1FEBCE711
:104970008859002028590020224A0020F44B0020AA
:10498000C44B0020684B0020406402408C4B002048
:1049900010B582B000240094164B1A6B42F48002CA
:1049A0001A631A6B02F480020092009A01941A6B47
:1049B00042F400121A631B6B03F400130193019B72
:1049C000224605210C20FCF76BFF0C20FCF7A0FF12
:1049D000224605210E20FCF763FF0E20FCF798FF0E
:1049E000224605213A20FCF75BFF3A20FCF790FFB6
:1049F00002B010BD0038024008B51C4A00211C4816
:104A0000FDF70CFF1B4B18601B4A00211B48FDF7EC
:104A100005FF1B4B18601B4A00211B48FDF7FEFEDB
:104A20001A4B18601A4A00211A48FDF7F7FE1A4B74
:104A300018601A4A00211A48FDF7F0FE194B186059
:104A4000194A00211948FDF7E9FE194B1860194A67
:104A500000211948FDF7E2FE184B1860184A0021A2
:104A60001848FDF7DBFE184B186008BD507B0008A6
:104A7000B96200081C4C0020087B00089957000808
:104A8000144C00202C7B0008715A0008104C0020A8
:104A9000E47A000821560008244C00209C7A000883
:104AA00025570008204C0020787A00080D56000891
:104AB0000C4C0020C07A000817560008084C002053
:104AC000747B0008915F0008184C002010B58AB074
:104AD00000240894099401941E4B1A6B42F00102C1
:104AE0001A631A6B02F001020192019A02941A6B86
:104AF00042F002021A631A6B02F002020292029A58
:104B000003941A6B42F008021A631A6B02F008024F
:104B10000392039A04941A6B42F080021A631B6B8F
:104B200003F080030493049B4FF4805305934FF4E8
:104B300044130693079405A90748FDF70BF922468D
:104B400005212820FCF7ACFE2820FCF7E1FE0AB086
:104B500010BD00BF00380240000C02400346104662
:104B60004A1E31B113F8011B41400248405C114616
:104B7000F6E77047987B000870B138B50546022902
:104B80000CD94C1EFF222146FFF7E8FF2B5D834224
:104B900014BF0020012038BD002070470020FAE734
:104BA000034698B1481E99B110B413F8011B514047
:104BB000C9B2084C34F8111081EA122201460138BA
:104BC0000029F2D110465DF8044B70474FF6FF7292
:104BD00010467047987C0008D8B170B50C46064660
:104BE000022918D98D1E0D4B1A882946FFF7D8FFC8
:104BF000C2B2735D9A4201D0002070BDC0F30F2095
:104C0000344414F8013C984201D00020F5E701201B
:104C1000F3E7002070470020EFE700BF0C00002002
:104C200003460160501E084458609A600020D86016
:104C30001961596170472DE9F843EFF3108872B696
:104C4000002932D004460F46856875B3436946682B
:104C5000B34201D9036843619542A8BF1546606914
:104C6000361A0136B54211DC2A46394602F06EFE8C
:104C700063692B446361A3685B1BA360E3682B44F7
:104C8000E36088F310882846BDE8F883A5EB0609A1
:104C90003246394602F05AFE4A46B919206802F0F7
:104CA00055FE22684A446261E5E788F310884FF0B8
:104CB000FF35E8E70346EFF3108172B600695A68E2
:104CC000904201D91A681A611A6912F8010B1A6127
:104CD0009A6801329A60DA68013ADA6081F31088E2
:104CE0007047C0687047000030B599B0044601298C
:104CF00023D002293AD091B15C252A46002101A88F
:104D000002F032FE264B0493264B05934FF07E5360
:104D100009932A4601A9204602F018FE0AE05C2504
:104D20002A46214901A802F011FE2A4601A920467F
:104D300002F00CFE204619B030BD5C252A46002149
:104D400001A802F011FE01238DF80430144B0493E6
:104D5000144B0593154B0693154B0793154B09936D
:104D60002A4601A9204602F0F1FDE3E75C252A4628
:104D7000002101A802F0F8FD02238DF80430084B51
:104D80000493084B05930C4B06930C4B07934FF081
:104D90007E5309932A4601A9204602F0D7FDC9E7B0
:104DA000000034C3000034439079000800A08C4612
:104DB00000401C4600001042000096430060EA4696
:104DC00010B50C4692F9283092F924108B4207D086
:104DD000002B0CDB8B420ADA013382F8283009E021
:104DE000DFED070AB7EE000A00F04EF902E00023FB
:104DF00082F82830B7EE000A204600F0C9F810BD4E
:104E00000000964370EE607AF4EEC10AF1EE10FAFB
:104E100004D8B4EEC10AF1EE10FA1DDAB4EEC10AFC
:104E2000F1EE10FA09D531EE671AB4EEC10AF1EECF
:104E300010FAF8D4B0EE410A7047F4EEC10AF1EE70
:104E400010FA0CDD31EE271AF4EEC10AF1EE10FA79
:104E5000F8DCB0EE410A7047B0EE410A7047B0EEA0
:104E6000410A704710B52DED028B044690ED0C8A77
:104E7000D0ED0B7A78EE677AC0ED0B7A9FED1E7A53
:104E8000F4EEC77AF1EE10FA1BDD9FED1C7A77EE97
:104E9000C77AC0ED0B7A94ED087AD4ED0B6AC6EEB2
:104EA000877AC4ED0B7A6378012B18D194ED101A30
:104EB00031EE271A84ED101A84ED0B8ABDEC028BBB
:104EC00010BD9FED0F7AF4EEC77AF1EE10FAE2D53D
:104ED0009FED0A7A77EE877AC0ED0B7ADBE794EDE7
:104EE000101A37EE811ADFED070A9FED070AFFF768
:104EF00089FF84ED100ADFE7000016430000B44389
:104F0000000016C3000034C30000344338B52DED53
:104F1000028B05460C468B7808EE103AB8EE488AAC
:104F2000F6EE007A38EE678AB1EE488A38EE088AE3
:104F30000278437843EA02231BB207EE903AF8EE78
:104F4000E77A9FED117A67EE877ADFED106A87EED8
:104F5000A67A67EE087AC1ED0C7A0846FFF782FF61
:104F6000AA78EB7843EA02231BB2D4ED086A07EE75
:104F7000903AF8EEE77A87EEA67A27EE088A84ED73
:104F8000118ABDEC028B38BD0000B44300F8FF4528
:104F9000D0ED035AC0ED025AD0ED007A90ED017ABF
:104FA00077EEC77AC0ED037A90ED046A27EE866A41
:104FB00090ED057A27EE877A27EE007AD0ED086A21
:104FC00037EE267AD0ED066A77EEE57A66EEA77AB6
:104FD00027EE800AD0ED0A6AF1EE667AB4EEE76A4F
:104FE000F1EE10FA06D4B4EEE66AF1EE10FA3EDD08
:104FF000F0EE667AC0ED077A90ED0B6AF1EE466A44
:10500000B4EEE67AF1EE10FA06D4B4EEC67AF1EE1A
:1050100010FA2FDDF0EE466AC0ED086A90ED0C6ADA
:10502000B1EE467AB4EEC70AF1EE10FA06D4B4EE49
:10503000C60AF1EE10FA20DDB0EE467A80ED097A6C
:1050400077EEA67A77EE877AD0ED0E6AB1EE667AC1
:10505000F4EEC77AF1EE10FA06D4F4EEE67AF1EE49
:1050600010FA0DDDB0EE667A80ED0D7A7047F0EE45
:10507000467ABFE7F0EE476ACEE7B0EE407ADDE76A
:10508000B0EE677AF0E70000D0ED035AC0ED025AA7
:10509000D0ED007A90ED017A77EEC77AC0ED037A11
:1050A000F4EEE07AF1EE10FA6ADD9FED427A77EEE7
:1050B000C77AC0ED037A90ED046AD0ED036A26EE5C
:1050C000266A90ED057A26EE877A27EE007AD0EDF3
:1050D000087A37EE277AD0ED067A76EEE56A67EE43
:1050E000A67A27EE800AD0ED0A6AF1EE667AB4EE6F
:1050F000E76AF1EE10FA06D4B4EEE66AF1EE10FAC1
:105100004CDDF0EE667AC0ED077A90ED0B6AF1EEB9
:10511000466AB4EEE67AF1EE10FA06D4B4EEC67A38
:10512000F1EE10FA3DDDF0EE466AC0ED086A90ED52
:105130000C6AB1EE467AB4EEC70AF1EE10FA06D464
:10514000B4EEC60AF1EE10FA2EDDB0EE467A80ED2E
:10515000097A77EEA67A77EE877AD0ED0E6AB1EE0D
:10516000667AF4EEC77AF1EE10FA06D4F4EEE67A37
:10517000F1EE10FA1BDDB0EE667A80ED0D7A704725
:10518000F1EE600AF4EEE07AF1EE10FA93D59FEDBD
:10519000097A77EE877AC0ED037A8CE7F0EE467AEB
:1051A000B1E7F0EE476AC0E7B0EE407ACFE7B0EE85
:1051B000677AE2E70000B4431F4A002313601371CB
:1051C0001E4A136013711E4A138093701D4A137098
:1051D0001D4A136053609360D36013615361936100
:1051E0001A4A13601A4A13601A4A138093701A4AB3
:1051F00013801A4A136053609360D3601361536144
:10520000C2F81730164A136053609360D360154A92
:10521000136053609360D360134A1370134A138072
:10522000134A1370134A13609380134A1370134A7E
:105230001360536093607047644C0020C44C00209E
:10524000584C00209C4C0020784C0020604C0020E2
:10525000944C0020984C0020544C0020A04C00207E
:105260002C4C0020444C00205C4C0020C04C002002
:10527000284C00203C4C0020BC4C00206C4C0020F2
:1052800030B4564B02681A6002791A71B0F80530D2
:10529000B3F5027F39D8B3F5007F2CD8B3F5827F00
:1052A00027D8B3F5807F07D9A3F20113032B20D8A9
:1052B000DFE803F03C41464D022B33D0032B10D1E5
:1052C000474B50F8074F41688268C5681C605960B9
:1052D0009A60DD600469416982691C6159619A6163
:1052E00007E0012B05D13F4B30F8071F827819806A
:1052F0009A7030BC7047A3F20123072BF9D8DFE87E
:1053000003F02B3E4954585D616840F201329342EC
:10531000EFD1354B50F8074F416882681C605960E7
:105320009A60E6E7C279314B1A70E2E7D0F80720BD
:105330002F4B1A60DDE7D0F807202E4B1A60D8E714
:105340002D4B30F8071F827819809A70D1E7B0F89A
:1053500007202A4B1A80CCE7294B50F8071F4268D8
:105360008568C46819605A609D60DC6001694269A3
:1053700019615A61018B827E19839A76B9E7214BB4
:1053800050F8075F44688168C2681D605C6099607E
:10539000DA60AEE71C4B50F8075F44688168C2686A
:1053A0001D605C609960DA60A3E7C279174B1A70E0
:1053B0009FE7B0F80720164B1A809AE7C279154B81
:1053C0001A7096E7144B50F8072F1A6082889A805B
:1053D0008FE7C279114B1A708BE700BF644C002035
:1053E000784C0020584C00206C4C00209C4C002035
:1053F000604C0020944C0020984C0020544C00201D
:10540000A04C00202C4C0020444C00205C4C002080
:10541000C04C0020284C00203C4C0020BC4C0020FC
:1054200010B40A4B5C6804601B8907EE903AF8EEF2
:10543000677AC1ED007A064B1B8B07EE903AF8EEC7
:10544000677AC2ED007A5DF8044B70472C4C00205F
:10545000A04C0020014B1878704700BFA04C0020E2
:10546000034B1B890380034B5B890B80704700BF94
:10547000A04C00202C4C002072B6FEE700B595B081
:105480003022002108A802F06FFA0023039304934E
:105490000593069307930193234A116C41F08051C1
:1054A0001164126C02F080520192019A02931F4B18
:1054B0001A6842F440421A601B6803F440430293A6
:1054C000029B012308934FF48033099302230E9328
:1054D0004FF480020F9206221092B422119212937E
:1054E0000823139308A8FCF78DFDB0B9FCF74CFD19
:1054F000A8B90F23039302230493002305934FF4C9
:10550000A05306934FF480530793052103A8FCF79B
:10551000C9FF30B915B05DF804FBFFF7ADFFFFF729
:10552000ABFFFFF7A9FF00BF00380240007000404A
:1055300008B5FBF7A1FDFFF7A1FFFFF7C7FAFFF7DB
:1055400027FAFEF753FFFEF771FF00F0CBFE00F0E5
:10555000E5FE00F079FDFDF733F9FFF74DFAFDF7B1
:1055600041F9FEE700B583B0002200920D4B596C63
:1055700041F480415964596C01F4804100910099D3
:105580000192196C41F0805119641B6C03F0805337
:105590000193019B0F216FF00100FCF781F903B02B
:1055A0005DF804FB00380240FEE7FEE7FEE7FEE799
:1055B000FEE7704708B5FBF779FDFEF73DFB0128D4
:1055C00000D108BDFBF74EFCFBE7000008B5024820
:1055D000FCF72FF808BD00BF404B002008B54FF482
:1055E0008050FCF7C3FC08BD08B50248FCF721F861
:1055F00008BD00BF184B0020034AD2F8883043F49E
:105600007003C2F88830704700ED00E008B5322022
:10561000FDF762F9FBE708B56420FDF75DF9FBE7EC
:1056200008B50220FDF758F9FBE70000027843783F
:1056300043EA02231BB207EE903AF8EEE77A82784B
:10564000C37843EA02231BB207EE103AF8EEC76AAA
:105650000279437943EA02231BB207EE103AB8EE0F
:10566000C77A8279C37943EA02231BB206EE103A65
:10567000B8EEC66ADFED095AF4EE657AF1EE10FA7B
:105680000AD176EE877AB4EE676AF1EE10FA03D1AA
:10569000C1ED006A81ED017A704700BF0042864685
:1056A0000278437843EA02231BB207EE903AF8EE01
:1056B000E77AC1ED047A8278C37843EA02231BB209
:1056C00007EE903AF8EEE77AC1ED057A70470000F0
:1056D0000346034A92E8030098619983704700BF2C
:1056E000084E00200E4A137E43F408530380517E77
:1056F000937E43EA01234380D17E137F43EA012353
:105700008380137E517E0B44917E0B44D17E0B44EB
:10571000127F13441B0243F03303C380704700BF62
:10572000D44C002000B589B00D48FFF7D1FF0D4CD7
:105730002046FFF7D7FF0C4E07946C4606F10C0588
:105740000FCD0FC495E8070084E8070096E80E0027
:1057500040F23320FEF720FD3220FDF7BDF8E3E7ED
:10576000D44C0020CC4C0020184B0020002301E03A
:1057700001335BB2072B09DC51F823208242F7D1B9
:1057800001229A4003490B7813430B70014B1878A0
:10579000704700BF264A002008B503E04FF47A7036
:1057A000FDF79AF80A4B1B78FF2BF7D1094B1B78B2
:1057B000062BF3D1084B93F90030012BEED10023D7
:1057C000034A1370034A1370034A1370E6E700BFDD
:1057D000244A0020254A0020204A0020F0B59BB032
:1057E00004460D4602216846FFF77EFA5C273A46DA
:1057F0006946284602F0AAF840F205236B60174B71
:105800002B62012219A91648FEF72FFD9DF864208E
:105810009DF8653043EA02231BB207EE903AF8EE9A
:10582000E77AC5ED027A032685F8246002216846EE
:10583000FFF75AFA3A466946204602F087F840F2E6
:1058400006236360074B2362074BE360074B23612A
:1058500084F824600123A3701BB0F0BDABAAAA3F5B
:1058600000000E08000020400000A0C1000010420F
:1058700030B4204C04610024446184611E4DD5ED98
:10588000056A95ED087AC6EE877AC0ED0E7AC0ED0E
:105890000A7AC0ED0B7AC0ED0C7A184808614C61A9
:1058A0008C611748D0ED056A90ED087AC6EE877ACC
:1058B000C1ED0E7AC1ED0A7AC1ED0B7AC1ED0C7A19
:1058C000104911611049516110499161A9699163B1
:1058D0000F4991620F4DD56215630F4A1A610F4A45
:1058E0005A619C6182699A6399620D49D9621A630F
:1058F00030BC704700004040F44C00200000A04045
:10590000584D0020000020430AD7A33B0000484226
:1059100000401C460000FA44000002436F12833925
:105920000080BB45F8B50C46264DAE6906602E6C6E
:105930004660436B0B606B6C4B60FFF741FA95ED73
:10594000107AF1EE047A37EE277ADFED1F6AC7EEA0
:10595000267A77EEA77A9FED1D7A67EE877A17EEA3
:10596000900AFAF7D3FE41EC100B00F0F5FD51EC74
:10597000100B0022164BFAF73BFC06460F4695ED3E
:105980000F7ADFED147A67EE277A17EE900AFAF7AE
:10599000BDFE02460B4630463946FAF759FD06462B
:1059A0000F46606BFAF7B2FE32463B46FAF74EFD01
:1059B000FAF7B4FF07EE900AF1EE677AC4ED0D7ABC
:1059C000F8BD00BFBC4D00200000B443560E494056
:1059D00000407F400000F04270B50C46124D2E6929
:1059E0000660AE6B4660436B0B60EB6B4B60FFF782
:1059F000E7F9D4ED0D7AF5EEC07AF1EE10FA06DD96
:105A00009FED0A7A77EE877AC4ED0D7A70BDF5EED8
:105A1000C07AF1EE10FAF9D59FED047A77EEC77AE5
:105A2000C4ED0D7AF2E700BFBC4D002000007A44BF
:105A30000C4B93F84F30012B03D00023038043809D
:105A40007047094BD3ED0D7AFDEEE77A17EE903AE9
:105A50000380064BD3ED0D7AFDEEE77A17EE903A10
:105A600043807047BC4D0020DC4A0020644A00207F
:105A700000B589B014E01D4E1D4B07936C4606F12E
:105A80000C050FCD0FC495E8070084E8070096E8E1
:105A90000E0040F2FF10FEF77FFB0220FCF71CFF18
:105AA000144A15491548FFF797FF154A1549164836
:105AB000FFF738FF1548FFF7BBFF154B93F84F3042
:105AC000002BD8D0094E114B07936C4606F10C05FC
:105AD0000FCD0FC495E8070084E8070096E80E0094
