:020000040800F2
:10000000000002201DCE0108C5720108C772010858
:10001000C9720108CB720108CD720108000000000E
:10002000000000000000000000000000712B01082B
:10003000CF72010800000000312C0108D1720108C4
:100040006DCE01086DCE01086DCE01086DCE0108A0
:100050006DCE01086DCE0108E77201086DCE010872
:100060006DCE0108F1720108FB7201086DCE010826
:100070006DCE01086DCE01086DCE01086DCE010870
:100080006DCE01086DCE01086DCE01086DCE010860
:10009000057301086DCE01086DCE010815730108C6
:1000A0006DCE01086DCE01086DCE01086DCE010840
:1000B0006DCE01086DCE01086DCE01086DCE010830
:1000C0006DCE01086DCE01086DCE01086DCE010820
:1000D0006DCE0108ADA901086DCE01086DCE0108F5
:1000E0006DCE01086DCE01086DCE01086DCE010800
:1000F0006DCE01086DCE01086DCE01086DCE0108F0
:100100006DCE01086DCE01086DCE01086DCE0108DF
:100110006DCE01086DCE01086DCE01086DCE0108CF
:100120006DCE01086DCE0108F1BE01086DCE01084B
:100130006DCE01086DCE01086DCE01086DCE0108AF
:10014000217301086DCE01086DCE01086DCE010846
:100150006DCE01086DCE01086DCE01086DCE01088F
:100160006DCE01086DCE01086DCE01086DCE01087F
:100170006DCE01086DCE01086DCE010800000000B3
:080180006DCE01086DCE0108EF
:1001900010B5054C237833B9044B13B10448AFF3C1
:1001A00000800123237010BD4C01002000000000DE
:1001B00044D7010808B5034B1BB103490348AFF30B
:1001C000008008BD000000005001002044D7010855
:1001D000154B002B08BF134B9D46A3F5803A002119
:1001E0008B460F461348144A121A1DF0A1FA0F4B02
:1001F000002B00D098470E4B002B00D098470020D2
:10020000002104000D000D48002802D00C48AFF377
:1002100000801DF05BFA2000290016F02BFF1DF076
:1002200041FA00BF000008000000000000000000CC
:10023000000000004C010020FC52002000000000E3
:1002400000000000B8D90108000000204C01002087
:100250004C010020FC52002070B54FF0FF0C4CF414
:10026000E06C1CEA11541DBF1CEA135594EA0C0FF4
:1002700095EA0C0F00F0DEF82C4481EA030621EA2F
:100280004C5123EA4C5350EA013518BF52EA03356A
:1002900041F4801143F4801338D0A0FB02CE4FF01C
:1002A0000005E1FB02E506F00042E0FB03E54FF04C
:1002B0000006E1FB03569CF0000F18BF4EF0010E44
:1002C000A4F1FF04B6F5007F64F5407404D25FEA40
:1002D0004E0E6D4146EB060642EAC62141EA5551F3
:1002E0004FEAC52040EA5E504FEACE2EB4F1FD0C35
:1002F00088BFBCF5E06F1ED8BEF1004F08BF5FEAB3
:10030000500E50F1000041EB045170BD06F0004664
:1003100046EA010140EA020081EA0301B4EB5C0411
:10032000C2BFD4EB0C0541EA045170BD41F4801109
:100330004FF0000E013C00F3AB8014F1360FDEBF2E
:10034000002001F0004170BDC4F10004203C35DA0A
:100350000C341BDC04F11404C4F1200500FA05F38D
:1003600020FA04F001FA05F240EA020001F000422E
:1003700021F0004110EBD37021FA04F642EB0601A4
:100380005EEA430E08BF20EAD37070BDC4F10C04CE
:10039000C4F1200500FA04F320FA05F001FA04F292
:1003A00040EA020001F0004110EBD37041F100017E
:1003B0005EEA430E08BF20EAD37070BDC4F1200589
:1003C00000FA05F24EEA020E20FA04F301FA05F2F1
:1003D00043EA020321FA04F001F0004121FA04F299
:1003E00020EA020000EBD3705EEA430E08BF20EA69
:1003F000D37070BD94F0000F0FD101F000464000A3
:1004000041EB010111F4801F08BF013CF7D041EA24
:10041000060195F0000F18BF704703F00046520028
:1004200043EB030313F4801F08BF013DF7D043EAF9
:100430000603704794EA0C0F0CEA135518BF95EAAF
:100440000C0F0CD050EA410618BF52EA4306D1D136
:1004500081EA030101F000414FF0000070BD50EA55
:10046000410606BF1046194652EA430619D094EADF
:100470000C0F02D150EA013613D195EA0C0F05D1C9
:1004800052EA03361CBF104619460AD181EA03011D
:1004900001F0004141F0FE4141F470014FF00000D5
:1004A00070BD41F0FE4141F4780170BD81F0004122
:1004B00002E000BF83F0004330B54FEA41044FEA49
:1004C000430594EA050F08BF90EA020F1FBF54EAE4
:1004D000000C55EA020C7FEA645C7FEA655C00F080
:1004E000E2804FEA5454D4EB5555B8BF6D420CDD51
:1004F0002C4480EA020281EA030382EA000083EAD4
:10050000010180EA020281EA0303362D88BF30BD73
:1005100011F0004F4FEA01314FF4801C4CEA1131C9
:1005200002D0404261EB410113F0004F4FEA033328
:100530004CEA133302D0524263EB430394EA050FB3
:1005400000F0A780A4F10104D5F1200E0DDB02FA22
:100550000EFC22FA05F2801841F1000103FA0EF2B6
:10056000801843FA05F359410EE0A5F120050EF17C
:10057000200E012A03FA0EFC28BF4CF0020C43FAAD
:1005800005F3C01851EBE37101F0004507D54FF0BA
:10059000000EDCF1000C7EEB00006EEB0101B1F50A
:1005A000801F1BD3B1F5001F0CD349085FEA300050
:1005B0004FEA3C0C04F101044FEA445212F5800F5B
:1005C00080F09A80BCF1004F08BF5FEA500C50F1F8
:1005D000000041EB045141EA050130BD5FEA4C0CDB
:1005E000404141EB0101013C28BFB1F5801FE9D238
:1005F00091F0000F04BF01460020B1FA81F308BF5B
:100600002033A3F10B03B3F120020CDA0C3208DD26
:1006100002F1140CC2F10C0201FA0CF021FA02F101
:100620000CE002F11402D8BFC2F1200C01FA02F171
:1006300020FA0CFCDCBF41EA0C019040E41AA2BF96
:1006400001EB0451294330BD6FEA04041F3C1CDA5E
:100650000C340EDC04F11404C4F1200220FA04F07E
:1006600001FA02F340EA030021FA04F345EA030128
:1006700030BDC4F10C04C4F1200220FA02F001FAEA
:1006800004F340EA0300294630BD21FA04F029466C
:1006900030BD94F0000F83F4801306BF81F4801105
:1006A0000134013D4EE77FEA645C18BF7FEA655C78
:1006B00029D094EA050F08BF90EA020F05D054EA4A
:1006C000000C04BF1946104630BD91EA030F1EBF4F
:1006D0000021002030BD5FEA545C05D14000494153
:1006E00028BF41F0004130BD14F580043CBF01F546
:1006F000801130BD01F0004545F0FE4141F470012C
:100700004FF0000030BD7FEA645C1ABF1946104606
:100710007FEA655C1CBF0B46024650EA013406BF07
:1007200052EA033591EA030F41F4002130BD00BFC6
:1007300090F0000F04BF0021704730B54FF4806483
:1007400004F132044FF000054FF0000150E700BF04
:1007500090F0000F04BF0021704730B54FF4806463
:1007600004F1320410F0004548BF40424FF0000150
:100770003EE700BF42004FEAE2014FEA31014FEA93
:1007800002701FBF12F07F4393F07F4F81F06051E2
:10079000704732F07F4208BF704793F07F4F04BF2D
:1007A00041F40021704730B54FF4607401F000450A
:1007B00021F000411CE700BF50EA010208BF70476A
:1007C00030B54FF000050AE050EA010208BF70475B
:1007D00030B511F0004502D5404261EB41014FF4C4
:1007E000806404F132045FEA915C3FF4D8AE4FF0CC
:1007F00003025FEADC0C18BF03325FEADC0C18BFAF
:10080000033202EBDC02C2F1200300FA03FC20FAFF
:1008100002F001FA03FE40EA0E0021FA02F114444C
:10082000BDE600BF70B54FF0FF0C4CF4E06C1CEA65
:1008300011541DBF1CEA135594EA0C0F95EA0C0FD6
:1008400000F0DEF82C4481EA030621EA4C5123EA49
:100850004C5350EA013518BF52EA033541F4801178
:1008600043F4801338D0A0FB02CE4FF00005E1FB2B
:1008700002E506F00042E0FB03E54FF00006E1FB75
:1008800003569CF0000F18BF4EF0010EA4F1FF04B8
:10089000B6F5007F64F5407404D25FEA4E0E6D41F8
:1008A00046EB060642EAC62141EA55514FEAC52009
:1008B00040EA5E504FEACE2EB4F1FD0C88BFBCF585
:1008C000E06F1ED8BEF1004F08BF5FEA500E50F136
:1008D000000041EB045170BD06F0004646EA0101FC
:1008E00040EA020081EA0301B4EB5C04C2BFD4EB2E
:1008F0000C0541EA045170BD41F480114FF0000E27
:10090000013C00F3AB8014F1360FDEBF002001F094
:10091000004170BDC4F10004203C35DA0C341BDC0E
:1009200004F11404C4F1200500FA05F320FA04F0E0
:1009300001FA05F240EA020001F0004221F0004114
:1009400010EBD37021FA04F642EB06015EEA430E87
:1009500008BF20EAD37070BDC4F10C04C4F12005B7
:1009600000FA04F320FA05F001FA04F240EA02006A
:1009700001F0004110EBD37041F100015EEA430E3B
:1009800008BF20EAD37070BDC4F1200500FA05F25B
:100990004EEA020E20FA04F301FA05F243EA0203DA
:1009A00021FA04F001F0004121FA04F220EA0200E9
:1009B00000EBD3705EEA430E08BF20EAD37070BD2F
:1009C00094F0000F0FD101F00046400041EB01010F
:1009D00011F4801F08BF013CF7D041EA060195F0F1
:1009E000000F18BF704703F00046520043EB0303AB
:1009F00013F4801F08BF013DF7D043EA0603704798
:100A000094EA0C0F0CEA135518BF95EA0C0F0CD0A2
:100A100050EA410618BF52EA4306D1D181EA0301E8
:100A200001F000414FF0000070BD50EA410606BFE2
:100A30001046194652EA430619D094EA0C0F02D127
:100A400050EA013613D195EA0C0F05D152EA03366C
:100A50001CBF104619460AD181EA030101F000418A
:100A600041F0FE4141F470014FF0000070BD41F0D3
:100A7000FE4141F4780170BD70B54FF0FF0C4CF4AD
:100A8000E06C1CEA11541DBF1CEA135594EA0C0FCC
:100A900095EA0C0F00F0A7F8A4EB050481EA030E19
:100AA00052EA03354FEA013100F088804FEA033300
:100AB0004FF0805545EA131343EA12634FEA0222CE
:100AC00045EA111545EA10654FEA00260EF000418F
:100AD0009D4208BF964244F1FD0404F5407402D2E1
:100AE0005B084FEA3202B61A65EB03055B084FEA72
:100AF00032024FF480104FF4002CB6EB020E75EB6F
:100B0000030E22BFB61A754640EA0C005B084FEA96
:100B10003202B6EB020E75EB030E22BFB61A754613
:100B200040EA5C005B084FEA3202B6EB020E75EB5E
:100B3000030E22BFB61A754640EA9C005B084FEAD6
:100B40003202B6EB020E75EB030E22BFB61A7546E3
:100B500040EADC0055EA060E18D04FEA051545EAD2
:100B600016754FEA06164FEAC30343EA52734FEA7B
:100B7000C2025FEA1C1CC0D111F4801F0BD141EAF4
:100B800000014FF000004FF0004CB6E711F4801F59
:100B900004BF01430020B4F1FD0C88BFBCF5E06F39
:100BA0003FF6AFAEB5EB030C04BFB6EB020C5FEA49
:100BB000500C50F1000041EB045170BD0EF0004E9E
:100BC0004EEA113114EB5C04C2BFD4EB0C0541EAD0
:100BD000045170BD41F480114FF0000E013C90E6CD
:100BE00045EA060E8DE60CEA135594EA0C0F08BF91
:100BF00095EA0C0F3FF43BAF94EA0C0F0AD150EA90
:100C000001347FF434AF95EA0C0F7FF425AF104622
:100C100019462CE795EA0C0F06D152EA03353FF44A
:100C2000FDAE1046194622E750EA410618BF52EAC7
:100C300043067FF4C5AE50EA41047FF40DAF52EA9B
:100C400043057FF4EBAE12E74FF0FF3C06E000BF38
:100C50004FF0010C02E000BF4FF0010C4DF804CD45
:100C60004FEA410C7FEA6C5C4FEA430C18BF7FEA05
:100C70006C5C1BD001B050EA410C0CBF52EA430C33
:100C800091EA030F02BF90EA020F0020704710F1B3
:100C9000000F91EA030F58BF994208BF90422CBF42
:100CA000D8176FEAE37040F0010070474FEA410C3B
:100CB0007FEA6C5C02D150EA013C07D14FEA430C59
:100CC0007FEA6C5CD6D152EA033CD3D05DF8040BCA
:100CD000704700BF8446104662468C4619466346FC
:100CE00000E000BF01B5FFF7B7FF002848BF10F1D3
:100CF000000F01BD4DF808EDFFF7F4FF0CBF012018
:100D000000205DF808FB00BF4DF808EDFFF7EAFF93
:100D100034BF012000205DF808FB00BF4DF808ED4E
:100D2000FFF7E0FF94BF012000205DF808FB00BF43
:100D30004DF808EDFFF7CEFF94BF012000205DF8CD
:100D400008FB00BF4DF808EDFFF7C4FF34BF0120DA
:100D500000205DF808FB00BF4FEA410C7FEA6C5CA5
:100D600002D150EA013C0AD14FEA430C7FEA6C5CA5
:100D700002D152EA033C02D14FF0000070474FF01D
:100D8000010070474FEA4102B2F1E04324BFB3F5DE
:100D9000001CDCF1FE5C0DD901F0004C4FEAC002F2
:100DA0004CEA5070B2F1004F40EB830008BF20F0D6
:100DB0000100704711F0804F21D113F13872BCBF90
:100DC00001F00040704741F480114FEA5252C2F1E5
:100DD0001802C2F1200C10FA0CF320FA02F018BF2E
:100DE00040F001004FEAC1234FEAD32303FA0CFC81
:100DF00040EA0C0023FA02F34FEA4303CCE77FEA10
:100E0000625307D150EA01331EBF4FF0FE4040F459
:100E10004000704701F0004040F0FE4040F4000008
:100E2000704700BF53B94AB9002908BF00281CBF4A
:100E30004FF0FF314FF0FF3000F06EB9ADF1080C0C
:100E40006DE904CE00F006F8DDF804E0DDE90223E8
:100E500004B070472DE9F047089D04468C46002BEE
:100E600040F083808A42174647D9B2FA82F242B1F3
:100E7000C2F1200024FA00F09140974040EA010CB2
:100E800094404FEA1748230CBCFBF8F61FFA87FE84
:100E900008FB16C143EA014306FB0EF1994209D94A
:100EA000FB1806F1FF3080F01981994240F216815B
:100EB000023E3B445B1AA4B2B3FBF8F008FB1033CC
:100EC00044EA034400FB0EFEA64509D93C1900F193
:100ED000FF3380F00581A64540F2028102383C4490
:100EE00040EA0640A4EB0E0400261DB1D4400023C6
:100EF000C5E900433146BDE8F08702B9FFDEB2FA2A
:100F000082F2002A50D1CB1B4FEA174E1FFA87F806
:100F10000126B3FBFEFC210C0EFB1C3341EA03410E
:100F200008FB0CF38B4207D979180CF1FF3002D281
:100F30008B4200F2E9808446C91AA3B2B1FBFEF0ED
:100F40000EFB101143EA014408FB00F8A04507D945
:100F50003C1900F1FF3302D2A04500F2D9801846B7
:100F6000A4EB080440EA0C40BFE78B4209D9002DEE
:100F700000F0B1800026C5E9000130463146BDE8E9
:100F8000F087B3FA83F6002E4AD18B4202D3824215
:100F900000F2B880841A61EB030101208C46002D19
:100FA000A8D0C5E9004CA5E7C2F1200320FA03F65A
:100FB000974001FA02F04FEA174ED9403043030C34
:100FC000B1FBFEF61FFA87F80EFB161143EA014348
:100FD00006FB08F1994204FA02F409D9FB1806F15C
:100FE000FF3C80F08D80994240F28A80023E3B4473
:100FF0005B1A81B2B3FBFEF00EFB103341EA0341F2
:1010000000FB08F38B4207D9791800F1FF3C73D23B
:101010008B4271D902383944CB1A40EA064678E748
:10102000C6F1200C03FA06F422FA0CF31C4320FA52
:101030000CF701FA06F34FEA144E21FA0CF11F43A4
:101040003B0CB1FBFEF91FFA84F80EFB191143EAC1
:10105000014109FB08FA8A4502FA06F200FA06F392
:1010600008D9611809F1FF3048D28A4546D9A9F15B
:1010700002092144A1EB0A01BFB2B1FBFEF00EFB55
:10108000101147EA014700FB08F8B84507D9E719EE
:1010900000F1FF312ED2B8452CD90238274440EA5E
:1010A0000940A7EB0807A0FB02894F45C646494601
:1010B0001AD317D05DB1B3EB0E0267EB010707FA45
:1010C0000CFCF2404CEA0202F740C5E9002700267A
:1010D0003146BDE8F0872E4628460BE70646E9E68E
:1010E0001846FDE64345E5D2B8EB020E69EB040174
:1010F0000138DFE70846D2E760468DE78146B9E769
:10110000664675E730464AE7ACF1020C394413E70E
:1011100002383C4424E700BF704700BF034613F881
:10112000012B002AFBD1181A01387047704770470D
:1011300010B5094B4FF0FF321A6200241C625A624C
:101140005C621A611C615A615C619A619C61FFF783
:10115000EEFF204610BD00BF0038024010B5044627
:101160000E4B18784FF47A73B3FBF0F30C4A106807
:10117000B0FBF3F000F072FE68B90F2C01D901202A
:101180000AE0002221464FF0FF3000F001FE054B3F
:101190001C60002000E0012010BD00BF0400002002
:1011A000100000200800002008B50B4B1A6842F41C
:1011B00000721A601A6842F480621A601A6842F477
:1011C00080721A60032000F0D1FD0F20FFF7C6FFE8
:1011D00016F056F8002008BD003C0240034A116892
:1011E000034B1B780B441360704700BF684C002012
:1011F00004000020014B1868704700BF684C0020B5
:10120000014B1868704700BF0800002010B5084B5C
:101210001C78844201D1002010BD1870054B18685D
:10122000FFF79CFF0028F7D0014B1C70F4E700BFCC
:101230000400002008000020014B1878704700BF10
:101240000400002038B50446FFF7D4FF0546B4F18A
:10125000FF3F02D0044B1B781C44FFF7CBFF401B21
:10126000A042FAD338BD00BF04000020024A136830
:1012700023F002031360704710E000E0024A136895
:1012800043F002031360704710E000E0004870472D
:1012900000010801014B1868000C7047002004E0B1
:1012A000024B1868C0F30B00704700BF002004E039
:1012B000024A536843F0010353607047002004E082
:1012C000024A536823F0010353607047002004E092
:1012D000024A536843F0020353607047002004E061
:1012E000024A536823F0020353607047002004E071
:1012F000024A536843F0040353607047002004E03F
:10130000024A536823F0040353607047002004E04E
:10131000014B01221A60704700042742014B002252
:101320001A60704700042742014B1868704700BFDD
:10133000107AFF1F014B1868704700BF147AFF1F17
:10134000014B1868704700BF187AFF1F70470028CC
:1013500000F0A18038B5044690F82030D3B122685F
:10136000136843F001031360FFF744FF0546236849
:101370005A6812F0010F10D1FFF73CFF401B0A28FA
:10138000F5D9636A43F400336362052384F820309F
:10139000012038BD15F048FBE1E71A6822F002028F
:1013A0001A60FFF727FF054623685A6812F0020FFC
:1013B0000DD0FFF71FFF401B0A28F5D9636A43F4DD
:1013C00000336362052384F820300120E1E7227EA8
:1013D000012A3DD01A6822F080021A60637E012B38
:1013E0003BD02268136823F040031360A37E012BD7
:1013F00039D02268136823F020031360E37E012BA9
:1014000037D02268136843F010031360237F012B49
:1014100035D02268136823F008031360637F012B23
:1014200033D02268136823F004031360A368E268D2
:10143000134322691343626913436268013A2168C6
:101440001343CB6100206062012384F82030A0E7C1
:101450001A6842F080021A60C0E72268136843F0FD
:1014600040031360C2E72268136843F0200313604F
:10147000C4E72268136823F010031360C6E72268EC
:10148000136843F008031360C8E72268136843F049
:1014900004031360CAE701207047704790F82030BA
:1014A000013BDBB2012B05D9436A43F4802343623D
:1014B0000120704770B4444BD3F8002242F001027F
:1014C000C3F80022D3F8002222F47C52C3F8002291
:1014D000D3F80022486A42EA0022C3F800224A698F
:1014E00002F01F02012000FA02F2D3F81C02D443DA
:1014F00020EA0200C3F81C02CB69B3B9324BD3F81F
:101500000C022040C3F80C02CE688D88486945EA79
:101510000645483043F830508E6808884D6940EAE7
:101520000640483503EBC5035860CB69012B1DD03D
:101530008B69002B32D12448D0F804322340C0F804
:1015400004320B698BBB204BD3F814020440C3F860
:1015500014420B6A012B2FD01B4AD2F8003223F021
:101560000103C2F80032002070BC7047164BD3F85C
:101570000C021043C3F80C020E688D88486945EAD6
:101580000645483043F830508E6888894D6940EAF6
:101590000640483503EBC5035860C9E70A48D0F850
:1015A00004321343C0F80432CBE70748D0F81432B2
:1015B0001343C0F81432CCE70349D1F81C321A4364
:1015C000C1F81C22C8E700BF0064004070B50446A3
:1015D00090F82050EDB2012D06D0436A43F4002369
:1015E00043620125284670BD022380F8203002683E
:1015F000136823F001031360FFF7FCFD0646236820
:101600005B6813F0010F0CD0FFF7F4FD831B0A2B6E
:10161000F5D9636A43F400336362052384F820300C
:10162000E0E700256562DDE738B5044690F8203034
:10163000DBB2022B05D0436A43F4801343620120DE
:1016400038BD0268136843F001031360FFF7D2FD51
:10165000054623685A6812F0010F0DD1FFF7CAFD45
:10166000431B0A2BF5D9636A43F4003363620523F5
:1016700084F820300120E3E71A6822F002021A60A1
:10168000012384F820300020DAE780B110B5044649
:10169000FFF7CAFF204615F059FA2268136843F491
:1016A000004313600020606284F8200010BD012018
:1016B000704790F82030013BDBB2012B05D9436A1B
:1016C00043F480234362012070470268136843F0AB
:1016D000020313600020704782B00023019390F84A
:1016E0002030013BDBB2012B18D80268136823F0CD
:1016F00002031360019B01330193019A0B4B9A4241
:1017000006D803685B6813F0020FF3D100200AE0EB
:10171000436A43F400334362012004E0436A43F424
:1017200080234362012002B0704700BF40420F0097
:1017300090F82030013BDBB2012B01D9002070472B
:101740000368586810F0020000D17047012070470C
:1017500070B490F820400568AD68013CE4B2012CFB
:1017600065D815F0E05F5CD0C5F30164022C05D9A3
:10177000436A43F40003436201205DE00125A54074
:101780001D608B68002B39D10E68CB68056843EA71
:10179000465604F118031B01EE5003680D6904F16D
:1017A000180603EB06135D600B7D012B31D0D17958
:1017B00093791B0443EA0163517943EA01231579C4
:1017C00001682B4301EB0411C1F88C31D178937877
:1017D0001B0443EA0163517843EA0123117802684C
:1017E0000B4302EB0412C2F888310268183424015A
:1017F000135943F00103135100201DE04D6843EAE3
:10180000C503CD6806682B4304F118052D017351FB
:10181000C3E7036803EB0613596841F4807159600C
:10182000C5E7436A43F400134362012004E0436ABE
:1018300043F480234362012070BC704790F820304D
:10184000013BDBB2012B05D9436A43F48023436299
:101850000120704711F0010F04D00268936843F033
:101860008003936011F0020F04D00268936843F480
:101870000043936011F0040F04D00268936843F4AE
:10188000000393600020704790F82030013BDBB2EA
:10189000012B01D9002070470368986810F0806020
:1018A00000D001209A6812F0006F00D001309B68D0
:1018B00013F0805FEFD00130704790F82030013B8B
:1018C000DBB2012B01D90020704703689B6803EA53
:1018D0008163B3EB816F01D0012070470020704716
:1018E00090F82030013BDBB2012B01D9002070477A
:1018F00091FAA1F1B1FA81F10368183103EB0111FA
:101900004868000C704730B490F82040013CE4B2C5
:10191000012C00F2918051B90468E46814F0030FBF
:1019200010D1436A43F400134362012089E0046844
:10193000246914F0030F05D1436A43F40013436292
:1019400001207EE0056801F11B0424012C5904F0FC
:1019500004049460002C61D1056801F11B0424018A
:101960002C59640D1460056801F11B0424012D59E4
:1019700005F00205D560056825446D6805F00F0582
:101980001561056825446D68C5F3072595610568EF
:101990002C446468240C5461026802EB0112D2F8F2
:1019A000B8211A70026802EB0112D2F8B821C2F312
:1019B00007225A70026802EB0112D2F8B821C2F372
:1019C00007429A70026802EB0112D2F8B821120E97
:1019D000DA70026802EB0112D2F8BC211A710268B7
:1019E00002EB0112D2F8BC21C2F307225A7102683D
:1019F00002EB0112D2F8BC21C2F307429A710268CD
:101A000002EB0112D2F8BC21120EDA7171B9026830
:101A1000D36843F02003D360002012E0056801F191
:101A20001B0424012C59E40854609CE702681369E4
:101A300043F020031361EFE7436A43F480234362DA
:101A4000012030BC704790F82030013BDBB2012B05
:101A500001D90020704721B90368D86800F003005D
:101A600070470368186900F00300704790F8203051
:101A7000013BDBB2012B05D9436A43F48023436267
:101A80000120704702685369194351610020704773
:101A900090F82030013BDBB2012B05D9436A43F4B7
:101AA00080234362012070470268536923EA0101E1
:101AB000516100207047704770477047704770470A
:101AC000704770477047704770477047704770475E
:101AD0002DE9F84F054603685C69D3F804809F68D8
:101AE000D3F80CB0D3F810A0D3F8189014F0010676
:101AF0003BD017F0010616D001229A6017F0020FB2
:101B000008D117F0040F0CD117F0080606D04FF4D7
:101B1000805608E0FFF7CFFF002604E0FFF7CEFF76
:101B200001E04FF4006617F4807F0DD02B684FF46E
:101B300080729A6017F4007F40F0868017F4806FFF
:101B400000F0868046F4005617F4803F0DD02B68D5
:101B50004FF480329A6017F4003F40F0838017F40E
:101B6000802F00F0838046F4004614F0080F07D061
:101B70001BF0100F04D046F400762B681022DA60B8
:101B800014F0040F02D01BF0080F79D114F0020FEB
:101B900004D02B68DB6813F0030F78D114F0400FEA
:101BA00007D01AF0100F04D046F480662B6810227C
:101BB0001A6114F0200F02D01AF0080F6BD114F044
:101BC000100F04D02B681B6913F0030F6AD114F4B3
:101BD000003F02D018F0100F68D114F4803F02D0FB
:101BE00018F0080F69D114F4004F7AD018F0040FE0
:101BF00074D014F4807F04D019F0010F01D046F0A6
:101C0000010614F4007F04D019F0020F01D046F051
:101C1000020614F4806F04D019F0040F01D046F0CE
:101C2000040614F4006F59D019F0700956D0B9F1B8
:101C3000400F65D058D8B9F1200F5ED0B9F1300F00
:101C400042D146F0200644E02846FFF735FF7BE707
:101C500017F4006F02D046F4804675E72846FFF778
:101C60002EFF71E72846FFF728FF7EE717F4002FC5
:101C700002D046F4803678E72846FFF721FF74E764
:101C80002B680822DA602846FFF71CFF7EE728460B
:101C900018F0C0FC82E72B6808221A612846FFF77B
:101CA00013FF8CE72846FFF70EFF90E72B68102202
:101CB0005A602846FFF709FF8FE72B6808225A6011
:101CC0002846FFF703FF8EE7B9F1100F01D146F068
:101CD00008062A68936923F0700393612B68042235
:101CE0005A609EB9BDE8F88FB9F1500F0BD0B9F129
:101CF000600FEED146F48076EBE746F01006E8E799
:101D000046F04006E5E746F08006E2E76B6A1E43D0
:101D10006E622846FFF7DBFEE4E7024690F82030CB
:101D2000D8B2013BDBB2012B00D9704713685A6867
:101D300012F0020F05D11B6813F0020FF5D003203B
:101D4000F3E704207047406A704790F82030013B69
:101D5000DBB2012B05D9436A43F48023436201209F
:101D6000704700234362184670470000074AD36853
:101D700023F4E0631B041B0C000200F4E060034347
:101D800043F0BF6343F40033D360704700ED00E0DD
:101D900030B4174BDB68C3F30223C3F10704042CF0
:101DA00028BF04241D1D062D18D9033B4FF0FF3515
:101DB00005FA04F421EA0401994005FA03F322EA42
:101DC0000303194300280BDB0901C9B200F160408D
:101DD00000F5614080F8001330BC70470023E5E750
:101DE00000F00F000901C9B2024B1954F4E700BF1B
:101DF00000ED00E014ED00E0002807DB00F01F021A
:101E0000400901239340024A42F82030704700BF46
:101E100000E100E000280CDB00F01F024009012374
:101E200093402030034A42F82030BFF34F8FBFF376
:101E30006F8F704700E100E0BFF34F8F0549CA681C
:101E400002F4E062044B1343CB60BFF34F8F00BF3B
:101E5000FDE700BF00ED00E00400FA050138B0F135
:101E6000807F0AD2064B5860064AF02182F8231080
:101E70000020986007221A6070470120704700BF59
:101E800010E000E000ED00E0BFF35F8F044A536A0A
:101E900023F480335362034B00225A60704700BF23
:101EA00000ED00E090ED00E040F00100054B5860CF
:101EB000054A536A43F480335362BFF34F8FBFF335
:101EC0006F8F704790ED00E000ED00E04278134B1B
:101ED0009A600378EBB14368104AD360017BC37A00
:101EE0001B0643EA0173817A43EAC143417B43EA1B
:101EF0008143817B43EA4143C17B43EA0143417A09
:101F000043EA0123017A43EA410301780B43136159
:101F10007047024B0022DA601A61704790ED00E0D2
:101F2000024BD868C0F30220704700BF00ED00E00C
:101F300070B4002821DB00F1604000F5614090F8AA
:101F40000003000901F00701C1F10704042C28BFB8
:101F500004240D1D062D16D9033920FA01F64FF081
:101F6000FF3505FA04F426EA0404146005FA01F1C9
:101F700020EA0100186070BC704700F00F00034CAD
:101F8000205C0009DEE70021E7E700BF14ED00E078
:101F9000002808DB00F01F02400901239340403075
:101FA000014A42F82030704700E100E000280BDBD6
:101FB00043094033054A52F8233000F01F0023FA4A
:101FC00000F000F0010070470020704700E100E0E1
:101FD000002808DB00F01F02400901239340603015
:101FE000014A42F82030704700E100E000280BDB96
:101FF00043098033054A52F8233000F01F0023FACA
:1020000000F000F0010070470020704700E100E0A0
:10201000042805D0054A136823F0040313607047B1
:10202000024A136843F004031360704710E000E0B5
:10203000704708B5FFF7FCFF08BD30B405682C6891
:1020400024F480242C60046863608368402B05D0EE
:10205000036899600368DA6030BC704703689A606F
:102060000368D960F8E7000010B40368D9B21039EA
:102070000C4AA2FB014212090B4CA25CC2655F290B
:1020800009D923F47F7323F0030304338365806D40
:102090005DF8044B704723F47F7323F003038365DB
:1020A000F5E700BFABAAAAAACCD70108836A826968
:1020B00092B9012B0AD0022B02D00BB1002070473D
:1020C000C36A13F0807F28D100207047C36AB3F140
:1020D000C07F24D000207047B2F5005F09D0022BEA
:1020E00025D9032B25D1C36A13F0807F23D100208B
:1020F0007047032B03D8DFE803F01404140A002010
:102100007047C36A13F0807F0DD100207047C36A07
:10211000B3F1C07F09D00020704701207047012033
:10212000704701207047012070470120704701204F
:1021300070470020704701207047000070B50446CA
:10214000FFF758F8002C5BD00546022384F83530A1
:10215000002384F834302268136823F001031360ED
:1021600023681A6812F0010F0AD0FFF743F8431BE7
:10217000052BF5D920236365032084F8350070BD55
:102180001A68204810406168A2680A43E1680A435F
:1021900021690A4361690A43A1690A43E1690A4363
:1021A000216A0A430243616A04291ED01A60266824
:1021B000756925F00705636A1D43042B07D1A36ADF
:1021C0001D43E36A1BB12046FFF770FF90B97561AC
:1021D0002046FFF749FFE26D3F23934083600020D4
:1021E0006065012384F83530C9E7E16A206B01435B
:1021F0000A43DBE740236365012084F83500BEE72E
:102200000120BCE73F8010F000282DD038B50546EE
:1022100090F83500C0B2022825D02A68136823F050
:10222000010313602B6800241C602B685C602B6822
:102230009C602B68DC602B681C612B6821225A6132
:102240002846FFF711FFEC632C646C64AC64EC640B
:102250002C65EA6D3F23934083606C6585F83540BB
:1022600085F83440204638BD0120704738B5044613
:1022700090F8340001281BD0012084F8340094F831
:102280003500C0B2012804D0002384F83430022085
:1022900038BD022084F83500002565652046FFF72B
:1022A000CCFE2268136843F0010313602846EFE771
:1022B0000220EDE738B50446856D90F8340001281A
:1022C0002BD0012084F8340094F83500C0B20128E6
:1022D00004D0002384F83430022038BD022084F872
:1022E0003500002060652046FFF7A7FEE26D3F2322
:1022F0009340AB602268136843F016031360236CAD
:1023000023B12268136843F008031360226813683E
:1023100043F0010313600020DFE70220DDE770B522
:102320000446866DFEF766FF94F83530DBB2022B6B
:1023300006D080236365002384F83430012070BD0B
:1023400005462268136823F0160313602268536958
:1023500023F080035361236CE3B12268136823F0F8
:10236000080313602268136823F0010313602368D5
:102370001B6813F0010F11D0FEF73CFF431B052B28
:10238000F5D920236365032084F83500002384F801
:102390003430D4E7A36C002BDFD1E3E7E26D3F23B9
:1023A0009340B360012384F83530002084F8340072
:1023B000C5E790F83530DBB2022B03D080234365AC
:1023C00001207047052380F835300268136823F038
:1023D00001031360002070472DE9F047044688464A
:1023E0001646FEF707FF94F83530DBB2022B07D014
:1023F00080236365002384F834300120BDE8F08732
:10240000814623681B6813F4807F3BD1B8F1000F2D
:102410003DD1E36D4FF0200A0AFA03FAA76D3B683D
:102420001AEA030F43D1636D13F0010F3FD1B6F1E8
:10243000FF3F07D0002E30D0FEF7DCFEA0EB0900F6
:10244000B0422AD83B68E16D08228A401A4204D083
:10245000616D41F001016165BA60E16D01228A4060
:102460001A4204D0616D41F002016165BA60E26D0B
:10247000042595401D42D3D0626D42F0040262658E
:10248000BD60CDE74FF4807363650120B6E7E36D6F
:102490004FF0100A0AFA03FAC0E72023636501230C
:1024A00084F83530002384F834300320A6E7636DC8
:1024B0001BB1636D13F0010F0ED1B8F1000F19D1EC
:1024C000E26D30239340BB60012384F83530002354
:1024D00084F83430404691E72046FFF720FFE26D54
:1024E00030239340BB60012084F83500002384F83A
:1024F000343083E7E26D10239340BB6000207DE71A
:10250000F0B583B0044600230193724B1D68724BF3
:10251000A3FB0535AD0A876D3E68C26D0823934065
:10252000334210D003681A6812F0040F0BD01A68F7
:1025300022F004021A60C26D08239340BB60436D11
:1025400043F001034365E26D01239340334209D018
:102550002268526912F0800F04D0BB60636D43F0B3
:1025600002036365E26D04239340334209D022687D
:10257000126812F0020F04D0BB60636D43F00403D5
:102580006365E26D10239340334224D022681268C1
:1025900012F0080F1FD0BB6023681A6812F4802F56
:1025A0000DD01B6813F4002F04D1236C9BB120467F
:1025B000984710E0A36C73B1204698470BE01A6867
:1025C00012F4807F03D11A6822F008021A60236C8B
:1025D0000BB120469847E26D20239340334255D0FB
:1025E0002268126812F0100F50D0BB6094F835309A
:1025F000DBB2052B0ED023681A6812F4802F33D07B
:102600001B6813F4002F2AD1636C002B3ED02046A8
:1026100098473BE02268136823F016031360226892
:10262000536923F080035361236CA3B122681368BC
:1026300023F008031360E26D3F239340BB60012346
:1026400084F83530002384F83430236D002B3FD0DC
:10265000204698473CE0A36C002BE7D1EBE7E36B07
:10266000A3B12046984711E01A6812F4807F09D17F
:102670001A6822F010021A60012384F83530002312
:1026800084F83430E36B0BB120469847636DFBB19F
:10269000636D13F0010F17D0052384F835302268DD
:1026A000136823F001031360019B01330193AB42D4
:1026B00004D823681B6813F0010FF5D1012384F8B7
:1026C0003530002384F83430E36C0BB12046984752
:1026D00003B0F0BD10000020B5814E1B034690F8FA
:1026E0003400012822D093F83500C0B2012804D06C
:1026F0000120002283F8342070470529F9D8DFE84B
:1027000001F00306090C0F12DA630846F1E71A64B8
:102710000020EEE75A640020EBE79A640020E8E727
:10272000DA640020E5E71A650020E2E7022070473E
:10273000034690F83420012A2FD0012280F834205B
:1027400090F83500C0B2904204D00120002283F8F6
:10275000342070470629F9D8DFE801F004080B0E91
:10276000111417000022DA630846EFE7002018640E
:10277000ECE700205864E9E700209864E6E70020D1
:10278000D864E3E700201865E0E70020D863186408
:1027900058649864D8641865D8E70220704790F8A8
:1027A00035007047406D704710B4046863608368FB
:1027B000402B06D0036899600368DA605DF8044B2B
:1027C000704703689A600368D960F7E738B5044634
:1027D000806880280DD094F83400012823D001208F
:1027E00084F8340094F83500C0B2012806D00220E5
:1027F00038BD4FF4807363650120F9E7022084F847
:1028000035002568286840F480202860206803612E
:10281000049B2046FFF7C8FF2268136843F00103BA
:1028200013600020E4E70220E2E7000038B5044628
:102830008068802817D0E06BD0B1606CC0B1E06CCC
:10284000B0B194F83400012800F06087012084F8CA
:10285000340094F83500C0B201280DD0002384F86C
:102860003430022007E04FF480736365012002E0FA
:1028700040236365012038BD022084F83500002024
:1028800060652568286840F480202860206803611E
:10289000049B2046FFF788FF2368C64A934240F214
:1028A0009880A2F58962934231D002F5806293420A
:1028B00074D0A2F56872934272D002F5806293429E
:1028C00070D0A2F5896293426ED002F58062934285
:1028D0006DD0A2F5687293426CD002F5806293428B
:1028E0006BD0A2F5896293426AD002F5806293426E
:1028F00069D0A2F56872934268D002F58062934273
:1029000002D04FF0006203E04FF4001200E02022FA
:10291000A94BDA602368A74A934240F2CE81A2F520
:102920008962934200F0678102F58062934200F071
:10293000A981A2F56872934200F0A68102F5806237
:10294000934200F0A381A2F58962934200F0A08136
:1029500002F58062934200F09E81A2F56872934274
:1029600000F09C8102F58062934200F09A81A2F50A
:102970008962934200F0988102F58062934200F0F0
:102980009681A2F56872934200F0948102F580620C
:10299000934200F02D814FF080622DE12022B7E7B5
:1029A0002022B5E72022B3E74FF40062B0E74FF4EE
:1029B0000062ADE74FF40062AAE74FF40062A7E7B8
:1029C0004FF40012A4E74FF40012A1E74FF40012F5
:1029D0009EE77A4A934253D9A83A934231D002F5FE
:1029E0008062934231D0A2F5687293422FD002F5F3
:1029F000806293422DD0A2F5896293422BD002F5DA
:102A0000806293422AD0A2F56872934229D002F5DF
:102A10008062934228D0A2F58962934227D002F5C2
:102A20008062934226D0A2F56872934225D002F5C7
:102A30008062934202D04FF0006303E04FF4001332
:102A400000E020235C4A936064E72023FAE7202318
:102A5000F8E72023F6E74FF40063F3E74FF4006351
:102A6000F0E74FF40063EDE74FF40063EAE74FF45B
:102A70000013E7E74FF40013E4E74FF40013E1E736
:102A80004F4A934253D9483A934231D002F580627B
:102A9000934231D0A2F5687293422FD002F5806242
:102AA00093422DD0A2F5896293422BD002F5806229
:102AB00093422AD0A2F56872934229D002F580622F
:102AC000934228D0A2F58962934227D002F5806212
:102AD000934226D0A2F56872934225D002F5806217
:102AE000934202D04FF0006303E04FF4001300E084
:102AF0002023344AD3600DE72023FAE72023F8E7A8
:102B00002023F6E74FF40063F3E74FF40063F0E7A8
:102B10004FF40063EDE74FF40063EAE74FF400136E
:102B2000E7E74FF40013E4E74FF40013E1E7264A28
:102B3000934231D002F58062934231D0A2F568729F
:102B400093422FD002F5806293422DD0A2F5896284
:102B500093422BD002F58062934237D0A2F568727F
:102B6000934236D002F58062934235D0A2F5896255
:102B7000934234D002F58062934233D0A2F568725A
:102B8000934232D002F58062934202D04FF000634C
:102B900003E04FF4001300E020230A4A9360B9E6F3
:102BA0002023FAE72023F8E72023F6E74FF4006319
:102BB000F3E700BF5864024000640240B86002407E
:102BC0005860024000600240106002404FF4006311
:102BD000E3E74FF40063E0E74FF40063DDE74FF411
:102BE0000013DAE74FF40013D7E74FF40013D4E7EC
:102BF0004FF4801200E01022B24BDA602368B24A30
:102C0000934240F2CD81A2F58962934200F0668141
:102C100002F58062934200F0A881A2F568729342A7
:102C200000F0A58102F58062934200F0A281A2F536
:102C30008962934200F09F8102F58062934200F026
:102C40009D81A2F56872934200F09B8102F580623B
:102C5000934200F09981A2F58962934200F0978136
:102C600002F58062934200F09581A2F5687293426A
:102C700000F0938102F58062934200F020814FF0D2
:102C800000722CE11022B7E71022B5E71022B3E75B
:102C90004FF48062B0E74FF48062ADE74FF480629A
:102CA000AAE74FF48062A7E74FF48012A4E74FF43D
:102CB0008012A1E74FF480129EE7844A934253D9D1
:102CC000A83A934231D002F58062934231D0A2F506
:102CD000687293422FD002F5806293422DD0A2F504
:102CE000896293422BD002F5806293422AD0A2F5EA
:102CF0006872934229D002F58062934228D0A2F5EF
:102D00008962934227D002F58062934226D0A2F5D1
:102D10006872934225D002F58062934202D04FF050
:102D2000806303E04FF4801300E01023654A936052
:102D300064E71023FAE71023F8E71023F6E74FF4CF
:102D40008063F3E74FF48063F0E74FF48063EDE7CF
:102D50004FF48063EAE74FF48013E7E74FF4801302
:102D6000E4E74FF48013E1E7594A934253D9483AD4
:102D7000934231D002F58062934231D0A2F568725D
:102D800093422FD002F5806293422DD0A2F5896242
:102D900093422BD002F5806293422AD0A2F568724A
:102DA000934229D002F58062934228D0A2F589622D
:102DB000934227D002F58062934226D0A2F5687232
:102DC000934225D002F58062934202D04FF0806397
:102DD00003E04FF4801300E010233E4AD3600DE778
:102DE0001023FAE71023F8E71023F6E74FF4806387
:102DF000F3E74FF48063F0E74FF48063EDE74FF4BF
:102E00008063EAE74FF48013E7E74FF48013E4E7C9
:102E10004FF48013E1E7304A934231D002F58062EB
:102E2000934231D0A2F5687293422FD002F58062AE
:102E300093422DD0A2F5896293422BD002F5806295
:102E400093422AD0A2F56872934229D002F580629B
:102E5000934228D0A2F58962934227D002F580627E
:102E6000934226D0A2F56872934225D002F5806283
:102E7000934202D04FF0806303E04FF4801300E0F0
:102E80001023144A9360B9E61023FAE71023F8E7F9
:102E90001023F6E74FF48063F3E74FF48063F0E725
:102EA0004FF48063EDE74FF48063EAE74FF480135B
:102EB000E7E74FF48013E4E74FF48013E1E74FF4C2
:102EC00000220CE00064024058640240B8600240F6
:102ED0005860024000600240106002400822B34B7C
:102EE000DA602368B24A934240F2CE81A2F5896249
:102EF000934200F0678102F58062934200F0A9815D
:102F0000A2F56872934200F0A68102F580629342B6
:102F100000F0A381A2F58962934200F0A08102F53E
:102F20008062934200F09E81A2F56872934200F0A5
:102F30009C8102F58062934200F09A81A2F5896239
:102F4000934200F0988102F58062934200F09681EE
:102F5000A2F56872934200F0948102F58062934278
:102F600000F020814FF080722DE10822B7E708229F
:102F7000B5E70822B3E74FF40072B0E74FF40072F0
:102F8000ADE74FF40072AAE74FF40072A7E74FF4E1
:102F90000022A4E74FF40022A1E74FF400229EE7AD
:102FA000844A934253D9A83A934231D002F58062C1
:102FB000934231D0A2F5687293422FD002F580621D
:102FC00093422DD0A2F5896293422BD002F5806204
:102FD00093422AD0A2F56872934229D002F580620A
:102FE000934228D0A2F58962934227D002F58062ED
:102FF000934226D0A2F56872934225D002F58062F2
:10300000934202D04FF0007303E04FF4002300E03E
:103010000823664A936064E70823FAE70823F8E781
:103020000823F6E74FF40073F3E74FF40073F0E77B
:103030004FF40073EDE74FF40073EAE74FF4002319
:10304000E7E74FF40023E4E74FF40023E1E75A4AAF
:10305000934253D9483A934231D002F58062934269
:1030600031D0A2F5687293422FD002F5806293426C
:103070002DD0A2F5896293422BD002F58062934253
:103080002AD0A2F56872934229D002F58062934259
:1030900028D0A2F58962934227D002F5806293423C
:1030A00026D0A2F56872934225D002F58062934241
:1030B00002D04FF0007303E04FF4002300E0082338
:1030C0003E4AD3600DE70823FAE70823F8E7082310
:1030D000F6E74FF40073F3E74FF40073F0E74FF4B3
:1030E0000073EDE74FF40073EAE74FF40023E7E7DE
:1030F0004FF40023E4E74FF40023E1E7304A934222
:1031000031D002F58062934231D0A2F568729342C9
:103110002FD002F5806293422DD0A2F589629342AE
:103120002BD002F5806293422AD0A2F568729342B6
:1031300029D002F58062934228D0A2F58962934299
:1031400027D002F58062934226D0A2F5687293429E
:1031500025D002F58062934202D04FF0007303E065
:103160004FF4002300E00823144A9360B9E60823D3
:10317000FAE70823F8E70823F6E74FF40073F3E7CC
:103180004FF40073F0E74FF40073EDE74FF4007372
:10319000EAE74FF40023E7E74FF40023E4E74FF4B6
:1031A0000023E1E74FF480220DE000BF00640240FD
:1031B00058640240B860024058600240006002401B
:1031C000106002400422C24BDA602368C14A934275
:1031D00040F2A181A2F58962934200F05A8102F582
:1031E0008062934200F08081A2F56872934200F001
:1031F0007D8102F58062934200F07A81A2F58962B6
:10320000934200F0778102F58062934200F074816E
:10321000A2F56872934200F0718102F580629342D8
:1032200000F06E81A2F58962934200F06B8102F595
:103230008062934200F06981A2F56872934200F0C7
:10324000678102F58062934200F020814FF4800292
:1032500020E10422B7E70422B5E70422B3E74FF4E4
:103260008072B0E74FF48072ADE74FF48072AAE746
:103270004FF48072A7E74FF48022A4E74FF4802236
:10328000A1E74FF480229EE7934A934253D9A83A8C
:10329000934231D002F58062934231D0A2F5687238
:1032A00093422FD002F5806293422DD0A2F589621D
:1032B00093422BD002F5806293422AD0A2F5687225
:1032C000934229D002F58062934228D0A2F5896208
:1032D000934227D002F58062934226D0A2F568720D
:1032E000934225D002F58062934202D04FF0807362
:1032F00003E04FF4802300E00423754A936064E701
:103300000423FAE70423F8E70423F6E74FF4807375
:10331000F3E74FF48073F0E74FF48073EDE74FF479
:103320008073EAE74FF48023E7E74FF48023E4E774
:103330004FF48023E1E7694A934253D9483A9342D4
:1033400031D002F58062934231D0A2F56872934287
:103350002FD002F5806293422DD0A2F5896293426C
:103360002BD002F5806293422AD0A2F56872934274
:1033700029D002F58062934228D0A2F58962934257
:1033800027D002F58062934226D0A2F5687293425C
:1033900025D002F58062934202D04FF0807303E0A3
:1033A0004FF4802300E004234D4AD3600DE704234B
:1033B000FAE70423F8E70423F6E74FF48073F3E712
:1033C0004FF48073F0E74FF48073EDE74FF48073B0
:1033D000EAE74FF48023E7E74FF48023E4E74FF474
:1033E0008023E1E73F4A934231D002F58062934265
:1033F00031D0A2F5687293422FD002F580629342D9
:103400002DD0A2F5896293422BD002F580629342BF
:103410002AD0A2F56872934229D002F580629342C5
:1034200028D0A2F58962934227D002F580629342A8
:1034300026D0A2F56872934225D002F580629342AD
:1034400002D04FF0807303E04FF4802300E00423A8
:10345000234A9360B9E60423FAE70423F8E7042338
:10346000F6E74FF48073F3E74FF48073F0E74FF41F
:103470008073EDE74FF48073EAE74FF48023E7E7CA
:103480004FF48023E4E74FF48023E1E74FF48032E8
:1034900000E001220E4BDA602268136843F0160345
:1034A00013602268536943F080035361236C002B3F
:1034B00000F027812268136843F008031360226834
:1034C000136843F0010313600020FFF7D4B900BF75
:1034D0000064024058640240B860024058600240F4
:1034E00000600240106002400122D3E70122D1E7D0
:1034F0000122CFE74022CDE74022CBE74022C9E7B7
:103500004022C7E74FF48032C4E74FF48032C1E76E
:103510004FF48032BEE77F4A93424FD9A83A934294
:1035200031D002F58062934231D0A2F568729342A5
:103530002FD002F5806293422DD0A2F5896293428A
:103540002BD002F58062934229D0A2F56872934293
:1035500027D002F58062934225D0A2F5896293427A
:1035600023D002F58062934222D0A2F56872934282
:1035700021D002F58062934202D04FF4800303E031
:103580004FF4803300E00123634A936084E7012312
:10359000FAE70123F8E70123F6E74023F4E74023A5
:1035A000F2E74023F0E74023EEE74FF48033EBE708
:1035B0004FF48033E8E74FF48033E5E7574A93420E
:1035C0004FD9483A934231D002F58062934231D0CC
:1035D000A2F5687293422FD002F5806293422DD0FB
:1035E000A2F5896293422BD002F58062934229D0E2
:1035F000A2F56872934227D002F58062934225D0EB
:10360000A2F58962934223D002F58062934222D0D0
:10361000A2F56872934221D002F58062934202D0F3
:103620004FF4800303E04FF4803300E001233C4A71
:10363000D36031E70123FAE70123F8E70123F6E736
:103640004023F4E74023F2E74023F0E74023EEE78E
:103650004FF48033EBE74FF48033E8E74FF48033E7
:10366000E5E7304A934231D002F58062934231D08F
:10367000A2F5687293422FD002F5806293422DD05A
:10368000A2F5896293422BD002F58062934229D041
:10369000A2F56872934227D002F58062934225D04A
:1036A000A2F58962934223D002F58062934222D030
:1036B000A2F56872934221D002F58062934202D053
:1036C0004FF4800303E04FF4803300E00123144AF9
:1036D0009360E1E60123FAE70123F8E70123F6E727
:1036E0004023F4E74023F2E74023F0E74023EEE7EE
:1036F0004FF48033EBE74FF48033E8E74FF4803347
:10370000E5E7A36C002B7FF4D5AED8E60220FFF7E7
:10371000B2B800BFB8600240006402405860024086
:1037200000600240106002401AB90368D9600020AE
:10373000704703681961FAE7002860D0002960D05B
:1037400070B40B68036003F01F020120904013F077
:10375000007F15D08C6814F0010F24D02A4DAC687E
:103760000443AC608C6814F0020F22D0264DEC6844
:103770000443EC600C6804F0C064B4F1C06F1ED068
:103780004B6813F0010F2DD01F4A136803431360D9
:103790004B6813F0020F2BD01B4A5368184350603C
:1037A000002070BC7047184DAC6824EA0004AC607F
:1037B000D8E7154DEC6824EA0004EC60DAE79208DB
:1037C000124E023256F8225003F003039B000F24DE
:1037D0009C4025EA0405CC6804FA03F32B4346F821
:1037E0002230CDE7084A136823EA00031360CFE7CD
:1037F000054A536823EA000050600020D1E7012009
:1038000070470120704700BF003C01400038014074
:10381000002844D0002944D010B40068086000F0AB
:103820001F040123A340224A12681A4224D0012215
:103830004A601F4A52681A4203D04A6842F00202A4
:103840004A6000228A60CA6010F0007F2BD0184ABC
:1038500092681A4201D001228A60154AD2681A423F
:1038600003D08B6843F002038B6000F0C063B3F1B8
:10387000C06F04D0002017E000224A60D9E7A308F7
:1038800002330C4A52F823201204E34303F00303EB
:103890009B0002FA03F31B0FCB60002004E0012021
:1038A00070470120704700205DF8044B704700BF4F
:1038B000003C014000380140002834D070B4044678
:1038C000066806F01F0001238340194A1168DD4392
:1038D00021EA03011160516821EA03035360236860
:1038E00013F0007F21D0134692682A409A60DA686C
:1038F0001540DD60236803F0C063B3F1C06F01D0F1
:10390000002013E080080B49023051F8203006F007
:103910000306B6000F2202FA06F623EA060641F86D
:103920002060002002E001207047002070BC70473A
:10393000003C0140003801400346084609B95A607E
:1039400070470120704710B10160002070470120CE
:103950007047000008B5036803F01F02012393407D
:10396000044A52691A4204D0024A5361436803B1BF
:10397000984708BD003C0140036803F01F03012085
:1039800000FA03F2024948691040D840704700BF6E
:10399000003C0140026802F01F0201239340014AEB
:1039A00053617047003C0140026802F01F0201238E
:1039B0009340014A13617047003C014010B40A492A
:1039C0000C6924F440740C610C6944F440740C617B
:1039D0000C6944F001040C610260BFF36F8F436017
:1039E0005DF8044B704700BF003C0240074B1A696A
:1039F00022F440721A611A6942F400721A611A695B
:103A000042F001021A610160704700BF003C0240B1
:103A1000074B1A6922F440721A611A6942F48072E3
:103A20001A611A6942F001021A610180704700BFF1
:103A3000003C0240064B1A6922F440721A611A696E
:103A40001A611A6942F001021A610170704700BFE1
:103A5000003C0240204BDB6813F0100F07D01F4AD8
:103A6000D36943F01003D3611B4B1022DA601A4B69
:103A7000DB6813F0200F07D0184AD36943F008031E
:103A8000D361154B2022DA60134BDB6813F0400F33
:103A900007D0124AD36943F00403D3610E4B40228E
:103AA000DA600D4BDB6813F0800F07D00B4AD36947
:103AB00043F00203D361084B8022DA60064BDB68D7
:103AC00013F0020F07D0054AD36943F02003D361F6
:103AD000014B0222DA607047003C02406C4C00202F
:103AE000F8B5174D2D7E012D28D004460846144EFA
:103AF00001213176134D2F6947F080772F612F69AF
:103B000047F000772F610321317070613CB1012CC7
:103B10000AD0022C0DD0FFF751FF0020F8BDD1B222
:103B2000FFF788FF0020F9E791B2FFF771FF00204F
:103B3000F4E71146FFF75AFF0020EFE70220EDE718
:103B40006C4C0020003C02407047704710B53A4B67
:103B5000DB6813F0F20F13D0384B1B78DBB2012B6C
:103B60003BD0364B1B78DBB2022B3CD0334B5C692D
:103B7000FFF770FF2046FFF7E8FF304B00221A7076
:103B80002D4BDB6813F0010F13D02B4B0122DA60B1
:103B90002A4B1B78DBB2934228D0284B1B78DBB230
:103BA000022B41D0254B5869FFF7CEFF234B002253
:103BB0001A70224B1B787BB91F4B1A6922F0FF0247
:103BC0001A611A6922F080721A611A6922F0007271
:103BD0001A611A4B00221A7610BD184BDC684FF0A0
:103BE000FF32DA60C4E7154B1C69C1E7134B5A6812
:103BF000013A5A605B685BB1104CE068FFF7A4FFC4
:103C0000E3680133E360E068217A00F0B3F9D0E7BC
:103C10000A4B4FF0FF34DC6000221A7000F00CFAFF
:103C20002046FFF791FFC4E700F006FA034B18693E
:103C3000FFF78AFFBAE700BF003C02406C4C00204F
:103C4000094B1B69002B01DB00207047064B074A1C
:103C50005A6002F188325A601B69002B01DB002098
:103C600070470120704700BF003C024023016745B8
:103C7000034A136943F0004313610020704700BFFB
:103C8000003C0240074B5B6913F0010F07D0054B66
:103C9000054A9A6002F144329A6000207047012080
:103CA000704700BF003C02403B2A1908034A536991
:103CB00043F0010353610020704700BF003C024005
:103CC000014BD869704700BF6C4C002038B50446E2
:103CD000144B0022DA61FDF78DFA0546124BDB68C2
:103CE00013F4803F0AD0B4F1FF3FF7D024B1FDF7C1
:103CF00081FA401BA042F1D903200DE00A4BDB689A
:103D000013F0010F02D0084B0122DA60064BDB688A
:103D100013F0F20F01D1002038BDFFF79BFE012008
:103D2000FAE700BF6C4C0020003C0240F8B5164694
:103D30001B4A127E012A30D004460D461F46184BFE
:103D400001221A764CF25030FFF7C0FF90B9ACB1A7
:103D5000012C18D0022C1BD032463B462846FFF7D8
:103D60002DFE4CF25030FFF7B1FF0E4A136923F0DD
:103D7000010313610A4B00221A76F8BDF1B22846FE
:103D8000FFF758FEEDE7B1B22846FFF741FEE8E73E
:103D900031462846FFF72AFEE3E70220EDE700BFA1
:103DA0006C4C0020003C024008B5054A137843F0F3
:103DB000020313704CF25030FFF788FF08BD00BFBC
:103DC000143C0240074B196921F4407119611969CB
:103DD00041F0040119611A6942EA002242F480327A
:103DE0001A617047003C0240044B197801F0F3015E
:103DF00019701A7802431A7000207047143C024070
:103E0000024B586900F0E000704700BF003C0240E0
:103E1000014B188880B27047163C0240054B187859
:103E2000C0B2CC2804D01878C0B2AA2800D055203F
:103E3000704700BF153C0240024B187800F00C00A0
:103E4000704700BF143C024010B504464CF250309D
:103E5000FFF73CFF28B9034A13889BB223EA040406
:103E6000148010BD163C024010B504464CF2503090
:103E7000FFF72CFF28B9034A13889BB2A4B21C4356
:103E8000148010BD163C024010B504464CF2503070
:103E9000FFF71CFF08B9014B1C7010BD153C024018
:103EA000F8B504460E4615464CF25030FFF70EFFAB
:103EB00048B9054F3B7803F01F0343EA060141EA86
:103EC000050222433A70F8BD143C02401F4B1B7E92
:103ED000012B38D010B504461C4B01221A7603681A
:103EE00013F0010F0CD04368934204D0C16880687E
:103EF000FFF7BAFF05E0C1688068FFF7A5FF00E0A3
:103F00000120236813F0020F0BD1236813F0040F74
:103F10000BD1236813F0080F11D10C4B00221A7635
:103F200010BD207CFFF7B0FFEFE7207E00F080029D
:103F300000F0400100F02000FFF7B2FFE9E7207D2C
:103F4000FFF752FFE9E70220704700BF6C4C0020EA
:103F500010B504460F230360FFF75AFFA060FFF778
:103F60005DFF2061FFF74CFF2076FFF765FF606182
:103F700010BD000010B449B1012921D0022902D09E
:103F80004FF4407403E04FF4007400E000240E4B43
:103F9000196921F4407119611A6922431A611A6979
:103FA00022F0F8021A611A6942EAC00040F00200E9
:103FB00018611A6942F480321A615DF8044B704747
:103FC0004FF48074E3E700BF003C024008B5184B93
:103FD0001B7E012B29D0164B01221A76154B1A692C
:103FE00042F080721A611A6942F000721A61F3227B
:103FF000DA600368012B0DD00D4B01221A70C268E4
:104000005A608268DA60017C19728068FFF7B2FF3B
:10401000002008BD064B02221A7042681A614168EE
:10402000007CFFF7CFFE0020F3E70220F1E700BF9E
:104030006C4C0020003C0240164B1B6813F4007FC0
:1040400010D0144B1A6822F400721A601A6842F4F5
:1040500000621A601A6822F400621A601A6842F458
:1040600000721A600B4B1B6813F4806F10D0094B61
:104070001A6822F480621A601A6842F480521A6048
:104080001A6822F480521A601A6842F480621A6038
:10409000704700BF003C0240F8B5224B1B7E012B4D
:1040A0003ED004460E461F4B01221A764CF2503089
:1040B000FFF70CFE074670BB4FF0FF3333602368F9
:1040C000012B16D0A568E368A2681344AB4220D93F
:1040D000217C2846FFF74EFF4CF25030FFF7F6FDEB
:1040E000114A136923F0FA031361074680B90135B9
:1040F000E9E76168207CFFF765FE4CF25030FFF77E
:10410000E5FD0746084A136923F00403136100E044
:104110003560FFF791FF034B00221A763846F8BD51
:104120000227FBE76C4C0020003C024000230F2BD1
:1041300000F2DD80F0B482B05DE086685F000324A9
:10414000BC4026EA0406CC68BC4034438460466820
:1041500026EA02064C68C4F300129A4032434260D9
:1041600057E0DC08083450F8247003F0070296008A
:104170000F22B24027EA02070A69B2403A4340F8E8
:1041800024205AE0072200E00022B2403A430234E1
:10419000574E46F82420574A9468EA4324EA050615
:1041A0004F6817F4801F01D045EA0406514CA66001
:1041B000E46802EA04064F6817F4001F01D045EADC
:1041C00004064C4CE660646802EA04064F6817F483
:1041D000003F01D045EA0406464C66602468224050
:1041E0004E6816F4803F01D045EA0402414C22603B
:1041F00001330F2B78D801229A400C6804EA02059B
:1042000032EA0404F4D14C6804F00304013C012CAC
:1042100093D94A6802F00302032A09D0C4685E00F9
:104220000322B24024EA02048A68B2402243C260F8
:104230004A6802F00302022A93D004685E00032257
:10424000B24024EA02044A6802F00302B240224368
:1042500002604A6812F4403FCAD000220192264A06
:10426000546C44F480445464526C02F480420192D1
:10427000019A9C08A61C1E4A52F8267003F00302FD
:1042800096000F22B24027EA02071C4A90423FF4F0
:104290007BAF02F5806290421AD002F580629042B4
:1042A00018D002F58062904216D002F580629042EA
:1042B00014D002F58062904212D002F580629042E2
:1042C00010D002F5806290423FF45CAF08225CE7B8
:1042D00001225AE7022258E7032256E7042254E754
:1042E000052252E7062250E702B0F0BC7047704743
:1042F00000380140003C014000380240000002400C
:1043000000230F2B00F28F80F0B52DE0072600E090
:10431000002606FA04F4AC4269D005685C00032666
:1043200006FA04F425EA0405056023FA06F50835C3
:1043300050F8256003F007074FEA870C0F2707FAAC
:104340000CF726EA070640F82560C56825EA04054B
:10435000C560456825EA02024260826822EA0404D8
:10436000846001330F2B5DD801229A4002EA0107D5
:1043700032EA0104F5D14FEA930C0CF102052A4C04
:1043800054F8255003F00304A4000F2606FA04FE97
:104390000EEA0505254EB042BAD006F58066B04259
:1043A00019D006F58066B04217D006F58066B04297
:1043B00015D006F58066B04213D006F58066B0428F
:1043C00011D006F58066B0420FD006F58066B04287
:1043D0009CD008269DE701269BE7022699E7032645
:1043E00097E7042695E7052693E7062691E7104C04
:1043F000256825EA07052560656825EA07056560E3
:10440000E56825EA0705E560A56825EA0707A760CE
:10441000054D0CF1020455F8246026EA0E0645F815
:1044200024607AE7F0BD7047003801400000024088
:10443000003C01400369194201D00120704700206F
:1044400070470AB18161704709048161704743690F
:1044500001EA030221EA030141EA02418161704756
:1044600082B04FF480330193019B0B430193019B76
:10447000C361C161019BC361C3690193C36913F443
:10448000803F02D0002002B070470120FBE7704758
:1044900008B5054B5B69034200D108BD024B58616A
:1044A00017F0BEFCF9E700BF003C014090F83E3039
:1044B000DBB2402B10D00369B3F5804F1BD0036DE6
:1044C000002B39D1436CC3F3C813026803F0060311
:1044D00043F0F00313617047036D2BB9436C02681E
:1044E00003F0FE0313617047436C026843F001035D
:1044F000DBB21361704790F83D30DBB2212B0FD057
:10450000436C026843F00103DBB21361436B6BB190
:10451000DB6B5BB10268536843F400635360704720
:10452000436C026803F0FE031361EFE7836B33B162
:10453000DB6B002BEED102E0036D012B00D0704746
:10454000436CC3F3C813026803F0060343F0F1039E
:104550001361F4E7436C0268DBB21361436B3BB158
:10456000DB6B2BB10268536843F400635360704700
:10457000836B002BFBD0DB6B002BF3D1F7E710B480
:104580008BB090F83E30DAB2C16A046B90F83D30DF
:10459000DBB2222B0BD00023099303685A690992DE
:1045A0009B690993099B0BB05DF8044B7047036D41
:1045B0000BB9402A17D0036D1BB90369B3F5404FFF
:1045C00019D0438D9BB2002B25D1029303685A6901
:1045D00002929A690292029A1A6842F400721A6070
:1045E00000230365DFE7009303685A6900929B6923
:1045F0000093009BD7E70023019303685A69019257
:104600009A690192019A1A6842F480721A60036DE5
:1046100001330365C7E7438D9BB2012B25D0438D42
:104620009BB2022B7BD00268136843F48063136053
:1046300003685A6812F4006F0ED011F5803F07D05E
:10464000012905D0082903D0102901D0202903D140
:104650005A6842F480525A600023089303685A69EA
:1046600008929B690893089BBAE711F5803F11D027
:10467000082934D0202932D0122C2ED0042940D041
:1046800002293ED010293CD00268136823F48063CD
:1046900013603BE00268136823F4806313600368CF
:1046A0005A6812F4006F0CD01A6822F480621A6003
:1046B0000023039303685A6903929B690393039B46
:1046C0008EE7002204925A6904929A690492049A2D
:1046D0001A6842F400721A6082E70129CED002689B
:1046E000136823F4806313600023069303685A69F8
:1046F00006929A690692069A1A6842F400721A6043
:104700006EE70268136843F4806313600023059327
:1047100003685A6905929B690593059B60E7042924
:104720000ED002290CD010290AD00268136823F495
:10473000806313600268136843F40063136004E04D
:104740000268136843F48063136003685A6812F4C4
:10475000006F0ED011F5803F07D0012905D0082940
:1047600003D0102901D0202903D15A6842F4805285
:104770005A600023079303685A6907929B6907935D
:10478000079B2DE7438D9BB25BB1426A03681278A9
:104790001A61436A01334362438D9BB2013B9BB272
:1047A00043857047438D9BB25BB103681A69436AC6
:1047B0001A70436A01334362438D9BB2013B9BB243
:1047C0004385704782B0002301930E4B1B68DB08C2
:1047D0000D4AA2FB03231B0A03EB83030193019BF6
:1047E000013B0193019B33B103681B6813F4007F05
:1047F000F5D1002004E0036C43F0200303640120A2
:1048000002B070471000002089B5F81403685A6997
:1048100012F4806F01D1002070476FF480625A61FA
:1048200000230363202280F83D2080F83E30026C94
:1048300042F00402026480F83C3001207047C36AF1
:10484000B3F52A0F04D0C36AB3F12A4F03D07047DF
:104850000123C36270470823C362F8E72DE9F041E2
:1048600007460D4690461E4622E0FCF7C3FC069B19
:10487000C01AB04200D8DEB900233B63202287F87B
:104880003D2087F83E303A6C42F020023A6487F8C7
:104890003C3001201AE03B689C6925EA0404A4B27C
:1048A000B4FA84F46409A0450FD1B6F1FF3FDCD11E
:1048B000C5F30743012BEED13B685C6925EA04048C
:1048C000A4B2B4FA84F46409EDE70020BDE8F081F5
:1048D0002DE9F04105460E46174698463DE01A6818
:1048E00042F400721A602B686FF480625A610023F0
:1048F0002B63202285F83D2085F83E302A6C42F05B
:1049000004022A6485F83C30012034E0FCF772FC94
:10491000A0EB0800B84200D8FFB900232B63202287
:1049200085F83D2085F83E302A6C42F020022A644A
:1049300085F83C3001201EE02B689C6926EA0404BF
:10494000A4B2003C18BF0124A4B12B685A6912F428
:10495000806FC4D1B7F1FF3FD8D1C6F30743012B15
:10496000EAD12B685C6926EA0404A4B2003C18BFB3
:104970000124E9E70020BDE8F0810000F0B583B034
:1049800004460D4616461F46C36A082B0DD0012B60
:104990000BD013F5803F08D0036B122B0AD10268AD
:1049A000136843F48073136004E02268136843F4CF
:1049B000807313600097334600224FF001112046A8
:1049C000FFF74CFF80B92369B3F5804F16D12368F8
:1049D00005F0FE051D613B46324613492046FFF7B0
:1049E00077FFF8B903B0F0BD23681B6813F4807F2C
:1049F00002D04FF4007323640320F3E7EB11226825
:104A000003F0060343F0F00313613B4632460749C7
:104A10002046FFF75DFF18B92368EDB21D61DAE7A4
:104A20000120DFE70120DDE70200010008000100AE
:104A30002DE9F04184B004460D4616461F46C26A71
:104A400001680B6843F480630B60082A0DD0012ACB
:104A50000BD012F5803F08D0036B112B0AD10268EE
:104A6000136843F48073136004E02268136843F40E
:104A7000807313600097334600224FF001112046E7
:104A8000FFF7ECFE98B92369B3F5804F19D123687D
:104A900045F00105EDB21D613B4632462A492046EC
:104AA000FFF716FF00284CD104B0BDE8F081236861
:104AB0001B6813F4807F02D04FF40073236403203B
:104AC000F2E74FEAE51808F00608236848F0F0021C
:104AD0001A613B4632461D492046FFF7F9FE08B1F0
:104AE0000120E1E72368EDB21D613B4632461649DD
:104AF0002046FFF7EDFE08B10120D5E70022039222
:104B0000236859690391996903910399196841F4DC
:104B100080711960009733464FF001112046FFF76E
:104B20009DFE20B9226848F0F1031361B4E72368C1
:104B30001B6813F4807F02D04FF4007323640320BA
:104B4000B2E70120B0E700BF020001000800010049
:104B500070B504460D46164623685B6913F0800F56
:104B60001CD12046FFF752FED0B9B5F1FF3FF3D07C
:104B7000FCF740FB801BA84201D8002DECD100239C
:104B80002363202284F83D2084F83E30226C42F0DA
:104B90002002226484F83C30012000E0002070BD37
:104BA0000120FCE72DE9F04385B004460D4691460F
:104BB0001F46DDF830800D9E0368196841F480714E
:104BC00019600096434600224FF00111FFF746FEA0
:104BD00060B9236805F0FE051D613346424626494B
:104BE0002046FFF775FE68B1012008E023681B68C6
:104BF00013F4807F02D04FF400732364032005B0C8
:104C0000BDE8F0830023039323685A6903929B69EC
:104C10000393039B324641462046FFF799FF30B984
:104C2000012F0FD123685FFA89F61E61E7E7236C35
:104C3000042B01D00120E2E72268136843F40073DB
:104C40001360F7E723684FEA19221A61324641469A
:104C50002046FFF77DFF20B923685FFA89F61E61C1
:104C6000CDE7236C042B01D00120C8E7226813682C
:104C700043F400731360F7E7020001002DE9F047E9
:104C800084B004460D46164699460C9FDDF83480E4
:104C90000268136843F4806313600368196841F481
:104CA00080711960CDF800803B4600224FF0011161
:104CB000FFF7D4FD70B95FFA85FA236805F0FE05A9
:104CC0001D6143463A4641492046FFF701FE68B15F
:104CD000012008E023681B6813F4807F02D04FF4A2
:104CE00000732364032004B0BDE8F087002303931E
:104CF00023685A6903929B690393039B4246394692
:104D00002046FFF725FF80B9B9F1010F18D12368BC
:104D1000F6B21E61424639462046FFF719FF68B3D6
:104D2000236C042B24D00120DDE7236C042B01D05D
:104D30000120D8E72268136843F400731360F7E793
:104D40002368320A1A61424639462046FFF700FFBF
:104D500018B92368F6B21E61DCE7236C042B01D07E
:104D60000120C0E72268136843F400731360F7E77B
:104D70002268136843F400731360D4E72268136851
:104D800043F480731360CDF800803B4600224FF05F
:104D900001112046FFF762FD68B922684AF001035D
:104DA000136143463A4609492046FFF791FD002822
:104DB00099D0012097E723681B6813F4807F02D005
:104DC0004FF40073236403208DE700BF020001004D
:104DD00070B504460D46164623685B6913F0040F50
:104DE0001CD12046FFF712FDD0B9B5F1FF3FF3D03B
:104DF000FCF700FA801BA84201D8002DECD100235B
:104E00002363202284F83D2084F83E30226C42F057
:104E10002002226484F83C30012000E0002070BDB4
:104E20000120FCE770B505460C4616462B6859690B
:104E300011F0400F29D1596911F0100F15D1FCF76D
:104E4000D9F9801BA04201D8002CEFD100232B639D
:104E5000202285F83D2085F83E302A6C42F0200261
:104E60002A6485F83C30012070BD6FF010025A6151
:104E700000232B63202285F83D2085F83E302A6CE4
:104E80002A6485F83C300120EEE70020ECE770B59D
:104E900004460D46164623685B6913F0100F19D1BE
:104EA0002046FFF7B3FCB8B9FCF7A4F9801BA84271
:104EB00001D8002DEFD100232363202284F83D2068
:104EC00084F83E30226C42F02002226484F83C30A8
:104ED000012070BD0020FCE70120FAE770470000C8
:104EE000002800F0CC80F8B5044690F83D30002B47
:104EF00077D0242384F83D302268136823F001031F
:104F000013602268136843F4004313602268136837
:104F100023F40043136004F009F862685A4B9A4284
:104F200064D85A4B98428CBF00230123002B40F0D9
:104F3000A880574DA5FB0035AF0C2668716821F09D
:104F40003F0141EA9541716021680B6A23F03F03FC
:104F500065684D4A95424FD87A1C13430B62256809
:104F6000E96921F44F4121F0FF016368464A934209
:104F70004CD801385B00B0FBF3F0013040F6FC7315
:104F8000184278D0C0F30B030B43EB6121680B6828
:104F900023F0C003E269206A024313430B602168D7
:104FA0008B6823F4034323F0FF032269E068024384
:104FB00013438B602168CB6823F0FF036269A0690B
:104FC00002431343CB602268136843F0010313606C
:104FD00000202064202384F83D30206384F83E00C4
:104FE000F8BD80F83C3011F075FF82E7294B9842FC
:104FF0008CBF0023012399E74FF4967202FB07F25E
:10500000254DA5FB025292090132A6E7A268BAB962
:10501000461E03EB4307B6FBF7F60136C6F30B0655
:10502000B6FA86F6760946BBC2B9421E03EB4303C5
:10503000B2FBF3F20132C2F30B0242F40043A3E7E6
:10504000461E03EB830707EB8707B6FBF7F601362F
:10505000C6F30B06B6FA86F67609E4E7421E03EBC2
:10506000830303EB8303B2FBF3F20132C2F30B02BF
:1050700042F4404388E7042386E7012384E70120C4
:1050800070470120ACE700BFA08601007F841E00AE
:1050900083DE1B43FF083D00D34D62107047A8B16B
:1050A00010B50446242380F83D300268136823F0CD
:1050B0000103136011F068FF0020206484F83D00B4
:1050C000206384F83E0084F83C0010BD0120704746
:1050D0002DE9F04385B004460F46914698460C9E54
:1050E000FCF788F8054694F83D00C0B2202804D0AB
:1050F0000227384605B0BDE8F08300951923012248
:105100004F492046FFF7AAFB002840F0928094F810
:105110003C30012B00F08F80012384F83C30236861
:105120001A6812F0010F03D11A6842F001021A60E6
:105130002268136823F400631360212384F83D3050
:10514000102384F83E3000232364C4F82490A4F88C
:105150002A80638D23853B4BE3622B4632463946DA
:105160002046FFF70BFC0746002866D10023039377
:1051700023685A6903929B690393039B11E0236C94
:10518000042B01D00127B4E72268136843F40073AD
:105190001360F7E72A4631462046FFF719FE00283C
:1051A0002ED1238D002B36D02A4631462046FFF7DC
:1051B000CFFC0028E3D1626A236812781A61616A21
:1051C0004B1C6362638D9BB2013B9BB26385238D55
:1051D000013B9BB223852268506910F0040FD9D09F
:1051E000002BD7D04B781361636A01336362638D00
:1051F0009BB2013B9BB26385238D013B2385C9E7AD
:10520000236C042B01D0012773E72268136843F451
:1052100000731360F7E72268136843F400731360A8
:10522000202384F83D30002384F83E3084F83C305D
:105230005FE702275DE702275BE7012759E700BF29
:10524000020010000000FFFF2DE9F04387B0044684
:105250000F46914698460E9EFBF7CCFF054694F804
:105260003D00C0B2202804D00227384607B0BDE870
:10527000F0830095192301229E492046FFF7EEFA9C
:10528000002840F0468194F83C30012B00F0438127
:10529000012384F83C3023681A6812F0010F03D10F
:1052A0001A6842F001021A602268136823F400634E
:1052B0001360222384F83D30102384F83E3000230D
:1052C0002364C4F82490A4F82A80638D23858A4B34
:1052D000E3622B46324639462046FFF7A9FB0746D4
:1052E000002840F01A81238D5BB9029323685A6924
:1052F00002929A690292029A1A6842F400721A6043
:105300009DE0012B0FD0022B1FD02268136843F4BD
:10531000806313600023059323685A6905929B6993
:105320000593059B8BE02268136823F48063136068
:105330000023039323685A6903929A690392039A9C
:105340001A6842F400721A6079E02268136823F444
:10535000806313602268136843F4006313600023C2
:10536000049323685A6904929B690493049B66E042
:105370002A4631462046FFF755FD002840F0CF80F1
:1053800023681A69636A1A70636A01336362238D42
:10539000013B2385638D9BB2013B9BB263854EE04D
:1053A00000953346002255492046FFF757FA00285A
:1053B00040F0B7802268136843F4007313602368D9
:1053C0001A69636A1A70626A531C6362238D013B17
:1053D0002385638D9BB2013B9BB2638523681B6968
:1053E0005370636A01336362238D013B2385638DB0
:1053F0009BB2013B9BB2638521E02268136843F4B2
:105400000073136023681A69636A1A70626A531C16
:105410006362238D013B2385638D9BB2013B9BB26D
:10542000638523681B695370636A01336362238D4C
:10543000013B2385638D9BB2013B9BB26385238D2A
:10544000002B5DD0032B2BD8012B91D0022BA7D0A2
:1054500000953346002229492046FFF7FFF900282E
:1054600061D12268136823F48063136023681A698A
:10547000636A1A70636A01336362238D013B23857B
:10548000638D9BB2013B9BB263850095334600223E
:105490001A492046FFF7E2F90028AED00127E4E6DA
:1054A0002A4631462046FFF7BDFC00283DD123683F
:1054B0001A69636A1A70626A531C6362238D013B26
:1054C0002385638D9BB2013B9BB263852368596939
:1054D00011F0040FB3D01B695370636A0133636228
:1054E000238D013B2385638D9BB2013B9BB263857A
:1054F000A5E700BF020010000000FFFF040001004C
:10550000202384F83D30002384F83E3084F83C307A
:10551000ABE60227A9E60227A7E60127A5E60127B1
:10552000A3E60127A1E601279FE601279DE600BF2C
:105530002DE9F04184B004460F4690461D46FBF726
:1055400059FE94F83D30DBB2202B40F0A98006468E
:10555000002F00F0A980B8F1000F00F0A78094F8A8
:105560003C30012B00F0A480012384F83C302368F8
:105570001A6812F0010F03D11A6842F001021A6092
:105580002268136823F400631360212384F83D30FC
:10559000202384F83E30002222646762A4F82A8027
:1055A000638D2385464BE36221680B6843F4806377
:1055B0000B6000962B4643492046FFF74FF9002821
:1055C00078D10023029323685A6902929B6902935F
:1055D000029B2369B3F5404F2ED0238D002B44D07E
:1055E000324629462046FFF7B3FA002836D1626AD0
:1055F000236812781A61616A4B1C6362628D92B2F1
:10560000013A92B26285228D013A92B222852368D4
:10561000586910F0040FE0D0002ADED04A781A61F1
:10562000636A01336362638D9BB2013B9BB2638506
:10563000238D013B2385D0E700962B46002221498C
:105640002046FFF70BF9002836D100230393236887
:105650005A6903929B690393039BBEE72268136810
:1056600023F48063136001201BE000962B46002288
:105670004FF482312046FFF7F1F8F8B923686FF450
:1056800080625A612268136823F4806313602023C8
:1056900084F83D30002384F83E3084F83C3000E04C
:1056A000022004B0BDE8F0810120FAE70120F8E70C
:1056B0000220F6E70120F4E70120F2E70120F0E7FD
:1056C0000000FFFF020001002DE9F04184B0044614
:1056D0000F4690461D46FBF78DFD94F83D30DBB23A
:1056E000202B40F09B800646002F00F09B80B8F1F5
:1056F000000F00F0998094F83C30012B00F0968068
:10570000012384F83C3023681A6812F0010F03D19A
:105710001A6842F001021A602268136823F40063D9
:105720001360222384F83D30202384F83E30002289
:1057300022646762A4F82A80638D23853D4BE3626F
:1057400021680B6843F480630B6000962B463A494E
:105750002046FFF783F800286AD1002302932368CC
:105760005A6902929B690293029B238D002B31D0D0
:10577000324629462046FFF755FB20BB23681A69AD
:10578000636A1A70636A5A1C6262218D013989B298
:105790002185628D92B2013A92B262852268506987
:1057A00010F0040FE1D00029DFD012695A70636A4B
:1057B00001336362238D013B2385638D9BB2013BE3
:1057C0009BB26385D1E72268136823F4806313607A
:1057D000012024E0324629462046FFF758FB30B12D
:1057E0002268136823F480631360012017E000230C
:1057F0000393226851690391116841F0010111601E
:10580000039A21680A6822F480620A60202284F8E0
:105810003D2084F83E3084F83C3000E0022004B0A3
:10582000BDE8F0810120FAE70120F8E70220F6E761
:105830000120F4E70000FFFF0200010030B482B055
:105840000024019490F83D40E4B2202C56D12E4C17
:105850002468E4082D4DA5FB0454240A04EB8404B9
:1058600004EB84040194019C013C0194019C002CF4
:1058700035D00468A56915F0020FF4D190F83C50BA
:10588000012D3FD0012580F83C50256815F0010F0F
:1058900003D1256845F00105256005682C6824F4CE
:1058A00000642C60212480F83D40102480F83E40A4
:1058B0000024046442624385438D0385144BC36214
:1058C000416480F83C400268536843F4E0635360ED
:1058D0000268136843F48073136020460FE00023CE
:1058E0000363202280F83D2080F83E30026C42F0B5
:1058F0002002026480F83C30012000E0022002B067
:1059000030BC70470220FAE71000002089B5F81477
:105910000000FFFF30B482B00024019490F83D40B5
:10592000E4B2202C5BD1314C2468E408304DA5FB57
:105930000454240A04EB840404EB84040194019CC1
:10594000013C0194019C002C3AD00468A56915F033
:10595000020FF4D190F83C50012D44D0012580F87D
:105960003C50256815F0010F03D1256845F001056D
:10597000256005682C6824F400642C60222480F8DB
:105980003D40102480F83E40002404644262438578
:10599000438D0385174BC362416480F83C40026825
:1059A000536843F4E06353600268136843F4806310
:1059B00013600268136843F48073136020460FE09D
:1059C00000230363202280F83D2080F83E30026CE3
:1059D00042F02002026480F83C30012000E0022006
:1059E00002B030BC70470220FAE700BF1000002070
:1059F00089B5F8140000FFFF90F83D30DBB2202B92
:105A000037D1002937D0002A37D090F83C30012B0D
:105A100035D010B4012380F83C3003681C6814F0C2
:105A2000010F03D11C6844F001041C600468236862
:105A300023F400632360212380F83D30202380F885
:105A40003E300023036441624285428D02850D4A47
:105A5000C26201680A6842F480620A6080F83C30E1
:105A600001684A6842F4E0624A6018465DF8044BF7
:105A700070470220704701207047012070470220C4
:105A8000704700BF0000FFFF90F83D30DBB2202BD5
:105A900037D1002937D0002A37D090F83C30012B7D
:105AA00035D010B4012380F83C3003681C6814F032
:105AB000010F03D11C6844F001041C6004682368D2
:105AC00023F400632360222380F83D30202380F8F4
:105AD0003E300023036441624285428D02850D4AB7
