:020000040800F2
:100000000000022045A80008115C0008135C0008ED
:10001000155C0008175C0008195C0008000000006F
:100020000000000000000000000000007137000820
:100030001B5C000800000000113800081D5C00086F
:1000400095A8000895A8000895A8000895A800089C
:1000500095A8000895A80008335C000895A800083A
:1000600095A800083D5C0008475C000895A80008BA
:1000700095A8000895A8000895A8000895A800086C
:1000800095A8000895A8000895A8000895A800085C
:10009000515C000895A8000895A80008615C00085C
:1000A00095A8000895A8000895A8000895A800083C
:1000B00095A8000895A8000895A8000895A800082C
:1000C00095A8000895A8000895A8000895A800081C
:1000D00095A8000895A8000895A8000895A800080C
:1000E00095A8000895A8000895A8000895A80008FC
:1000F00095A8000895A8000895A8000895A80008EC
:1001000095A8000895A8000895A8000895A80008DB
:1001100095A8000895A8000895A8000895A80008CB
:1001200095A8000895A80008B59C000895A80008A7
:1001300095A8000895A8000895A8000895A80008AB
:100140006D5C000895A8000895A8000895A800080F
:1001500095A8000895A8000895A8000895A800088B
:1001600095A8000895A8000895A8000895A800087B
:1001700095A8000895A8000895A8000800000000B0
:0801800095A8000895A80008ED
:1001900010B5054C237833B9044B13B10448AFF3C1
:1001A00000800123237010BD080100200000000022
:1001B00040B1000808B5034B1BB103490348AFF336
:1001C000008008BD000000000C01002040B10008C4
:1001D00081F0004102E000BF83F0004330B54FEAF8
:1001E00041044FEA430594EA050F08BF90EA020F65
:1001F0001FBF54EA000C55EA020C7FEA645C7FEAF8
:10020000655C00F0E2804FEA5454D4EB5555B8BF1A
:100210006D420CDD2C4480EA020281EA030382EA8B
:10022000000083EA010180EA020281EA0303362D1D
:1002300088BF30BD11F0004F4FEA01314FF4801CF0
:100240004CEA113102D0404261EB410113F0004F02
:100250004FEA03334CEA133302D0524263EB4303B9
:1002600094EA050F00F0A780A4F10104D5F1200E57
:100270000DDB02FA0EFC22FA05F2801841F10001B2
:1002800003FA0EF2801843FA05F359410EE0A5F186
:1002900020050EF1200E012A03FA0EFC28BF4CF0B7
:1002A000020C43FA05F3C01851EBE37101F000456D
:1002B00007D54FF0000EDCF1000C7EEB00006EEB7A
:1002C0000101B1F5801F1BD3B1F5001F0CD3490804
:1002D0005FEA30004FEA3C0C04F101044FEA44525B
:1002E00012F5800F80F09A80BCF1004F08BF5FEAE2
:1002F000500C50F1000041EB045141EA050130BDC2
:100300005FEA4C0C404141EB0101013C28BFB1F5D3
:10031000801FE9D291F0000F04BF01460020B1FA1E
:1003200081F308BF2033A3F10B03B3F120020CDAF1
:100330000C3208DD02F1140CC2F10C0201FA0CF0CF
:1003400021FA02F10CE002F11402D8BFC2F1200C34
:1003500001FA02F120FA0CFCDCBF41EA0C019040EA
:10036000E41AA2BF01EB0451294330BD6FEA040433
:100370001F3C1CDA0C340EDC04F11404C4F120021E
:1003800020FA04F001FA02F340EA030021FA04F330
:1003900045EA030130BDC4F10C04C4F1200220FA87
:1003A00002F001FA04F340EA0300294630BD21FAC5
:1003B00004F0294630BD94F0000F83F4801306BF8B
:1003C00081F480110134013D4EE77FEA645C18BF7F
:1003D0007FEA655C29D094EA050F08BF90EA020F16
:1003E00005D054EA000C04BF1946104630BD91EA0E
:1003F000030F1EBF0021002030BD5FEA545C05D111
:100400004000494128BF41F0004130BD14F580044F
:100410003CBF01F5801130BD01F0004545F0FE41C3
:1004200041F470014FF0000030BD7FEA645C1ABFF8
:10043000194610467FEA655C1CBF0B46024650EA2F
:10044000013406BF52EA033591EA030F41F400215B
:1004500030BD00BF90F0000F04BF0021704730B5E1
:100460004FF4806404F132044FF000054FF00001B6
:1004700050E700BF90F0000F04BF0021704730B577
:100480004FF4806404F1320410F0004548BF40424C
:100490004FF000013EE700BF42004FEAE2014FEAA1
:1004A00031014FEA02701FBF12F07F4393F07F4F7C
:1004B00081F06051704732F07F4208BF704793F07F
:1004C0007F4F04BF41F40021704730B54FF4607492
:1004D00001F0004521F000411CE700BF50EA010295
:1004E00008BF704730B54FF000050AE050EA01023E
:1004F00008BF704730B511F0004502D5404261EBAE
:1005000041014FF4806404F132045FEA915C3FF4EE
:10051000D8AE4FF003025FEADC0C18BF03325FEA8B
:10052000DC0C18BF033202EBDC02C2F1200300FA3C
:1005300003FC20FA02F001FA03FE40EA0E0021FA61
:1005400002F11444BDE600BF70B54FF0FF0C4CF44F
:10055000E06C1CEA11541DBF1CEA135594EA0C0F01
:1005600095EA0C0F00F0DEF82C4481EA030621EA3C
:100570004C5123EA4C5350EA013518BF52EA033577
:1005800041F4801143F4801338D0A0FB02CE4FF029
:100590000005E1FB02E506F00042E0FB03E54FF059
:1005A0000006E1FB03569CF0000F18BF4EF0010E51
:1005B000A4F1FF04B6F5007F64F5407404D25FEA4D
:1005C0004E0E6D4146EB060642EAC62141EA555100
:1005D0004FEAC52040EA5E504FEACE2EB4F1FD0C42
:1005E00088BFBCF5E06F1ED8BEF1004F08BF5FEAC0
:1005F000500E50F1000041EB045170BD06F0004672
:1006000046EA010140EA020081EA0301B4EB5C041E
:10061000C2BFD4EB0C0541EA045170BD41F4801116
:100620004FF0000E013C00F3AB8014F1360FDEBF3B
:10063000002001F0004170BDC4F10004203C35DA17
:100640000C341BDC04F11404C4F1200500FA05F39A
:1006500020FA04F001FA05F240EA020001F000423B
:1006600021F0004110EBD37021FA04F642EB0601B1
:100670005EEA430E08BF20EAD37070BDC4F10C04DB
:10068000C4F1200500FA04F320FA05F001FA04F29F
:1006900040EA020001F0004110EBD37041F100018B
:1006A0005EEA430E08BF20EAD37070BDC4F1200596
:1006B00000FA05F24EEA020E20FA04F301FA05F2FE
:1006C00043EA020321FA04F001F0004121FA04F2A6
:1006D00020EA020000EBD3705EEA430E08BF20EA76
:1006E000D37070BD94F0000F0FD101F000464000B0
:1006F00041EB010111F4801F08BF013CF7D041EA32
:10070000060195F0000F18BF704703F00046520035
:1007100043EB030313F4801F08BF013DF7D043EA06
:100720000603704794EA0C0F0CEA135518BF95EABC
:100730000C0F0CD050EA410618BF52EA4306D1D143
:1007400081EA030101F000414FF0000070BD50EA62
:10075000410606BF1046194652EA430619D094EAEC
:100760000C0F02D150EA013613D195EA0C0F05D1D6
:1007700052EA03361CBF104619460AD181EA03012A
:1007800001F0004141F0FE4141F470014FF00000E2
:1007900070BD41F0FE4141F4780170BD70B54FF07D
:1007A000FF0C4CF4E06C1CEA11541DBF1CEA1355FD
:1007B00094EA0C0F95EA0C0F00F0A7F8A4EB0504DF
:1007C00081EA030E52EA03354FEA013100F08880D6
:1007D0004FEA03334FF0805545EA131343EA12639F
:1007E0004FEA022245EA111545EA10654FEA002654
:1007F0000EF000419D4208BF964244F1FD0404F50D
:10080000407402D25B084FEA3202B61A65EB030568
:100810005B084FEA32024FF480104FF4002CB6EB25
:10082000020E75EB030E22BFB61A754640EA0C00A5
:100830005B084FEA3202B6EB020E75EB030E22BFE5
:10084000B61A754640EA5C005B084FEA3202B6EB26
:10085000020E75EB030E22BFB61A754640EA9C00E5
:100860005B084FEA3202B6EB020E75EB030E22BFB5
:10087000B61A754640EADC0055EA060E18D04FEA73
:10088000051545EA16754FEA06164FEAC30343EA13
:1008900052734FEAC2025FEA1C1CC0D111F4801FE0
:1008A0000BD141EA00014FF000004FF0004CB6E7D9
:1008B00011F4801F04BF01430020B4F1FD0C88BF78
:1008C000BCF5E06F3FF6AFAEB5EB030C04BFB6EB83
:1008D000020C5FEA500C50F1000041EB045170BD76
:1008E0000EF0004E4EEA113114EB5C04C2BFD4EBA3
:1008F0000C0541EA045170BD41F480114FF0000E27
:10090000013C90E645EA060E8DE60CEA135594EAA2
:100910000C0F08BF95EA0C0F3FF43BAF94EA0C0FA5
:100920000AD150EA01347FF434AF95EA0C0F7FF41A
:1009300025AF104619462CE795EA0C0F06D152EA6E
:1009400003353FF4FDAE1046194622E750EA410652
:1009500018BF52EA43067FF4C5AE50EA41047FF463
:100960000DAF52EA43057FF4EBAE12E74FF0FF3CC8
:1009700006E000BF4FF0010C02E000BF4FF0010C99
:100980004DF804CD4FEA410C7FEA6C5C4FEA430C12
:1009900018BF7FEA6C5C1BD001B050EA410C0CBF61
:1009A00052EA430C91EA030F02BF90EA020F0020C3
:1009B000704710F1000F91EA030F58BF994208BF2A
:1009C00090422CBFD8176FEAE37040F001007047E7
:1009D0004FEA410C7FEA6C5C02D150EA013C07D13E
:1009E0004FEA430C7FEA6C5CD6D152EA033CD3D089
:1009F0005DF8040B704700BF8446104662468C4683
:100A00001946634600E000BF01B5FFF7B7FF0028B5
:100A100048BF10F1000F01BD4DF808EDFFF7F4FFDE
:100A20000CBF012000205DF808FB00BF4DF808ED69
:100A3000FFF7EAFF34BF012000205DF808FB00BF8C
:100A40004DF808EDFFF7E0FF94BF012000205DF8AE
:100A500008FB00BF4DF808EDFFF7CEFF94BF012063
:100A600000205DF808FB00BF4DF808EDFFF7C4FF5C
:100A700034BF012000205DF808FB00BF4FEA410CA5
:100A80007FEA6C5C02D150EA013C0AD14FEA430C88
:100A90007FEA6C5C02D152EA033C02D14FF00000C5
:100AA00070474FF0010070474FEA4102B2F1E04356
:100AB00024BFB3F5001CDCF1FE5C0DD901F0004C45
:100AC0004FEAC0024CEA5070B2F1004F40EB830095
:100AD00008BF20F00100704711F0804F21D113F1C1
:100AE0003872BCBF01F00040704741F480114FEAFA
:100AF0005252C2F11802C2F1200C10FA0CF320FA83
:100B000002F018BF40F001004FEAC1234FEAD3239F
:100B100003FA0CFC40EA0C0023FA02F34FEA430309
:100B2000CCE77FEA625307D150EA01331EBF4FF092
:100B3000FE4040F44000704701F0004040F0FE40AD
:100B400040F40000704700BF53B94AB9002908BFFC
:100B500000281CBF4FF0FF314FF0FF3000F06EB99E
:100B6000ADF1080C6DE904CE00F006F8DDF804E004
:100B7000DDE9022304B070472DE9F047089D0446E3
:100B80008C46002B40F083808A42174647D9B2FA40
:100B900082F242B1C2F1200024FA00F09140974065
:100BA00040EA010C94404FEA1748230CBCFBF8F6CE
:100BB0001FFA87FE08FB16C143EA014306FB0EF14C
:100BC000994209D9FB1806F1FF3080F0198199424A
:100BD00040F21681023E3B445B1AA4B2B3FBF8F02C
:100BE00008FB103344EA034400FB0EFEA64509D976
:100BF0003C1900F1FF3380F00581A64540F20281E7
:100C000002383C4440EA0640A4EB0E0400261DB125
:100C1000D4400023C5E900433146BDE8F08702B95E
:100C2000FFDEB2FA82F2002A50D1CB1B4FEA174EF8
:100C30001FFA87F80126B3FBFEFC210C0EFB1C33C8
:100C400041EA034108FB0CF38B4207D979180CF1F8
:100C5000FF3002D28B4200F2E9808446C91AA3B267
:100C6000B1FBFEF00EFB101143EA014408FB00F853
:100C7000A04507D93C1900F1FF3302D2A04500F28C
:100C8000D9801846A4EB080440EA0C40BFE78B4229
:100C900009D9002D00F0B1800026C5E900013046D9
:100CA0003146BDE8F087B3FA83F6002E4AD18B4275
:100CB00002D3824200F2B880841A61EB0301012062
:100CC0008C46002DA8D0C5E9004CA5E7C2F1200351
:100CD00020FA03F6974001FA02F04FEA174ED94086
:100CE0003043030CB1FBFEF61FFA87F80EFB16111A
:100CF00043EA014306FB08F1994204FA02F409D9D8
:100D0000FB1806F1FF3C80F08D80994240F28A800A
:100D1000023E3B445B1A81B2B3FBFEF00EFB103384
:100D200041EA034100FB08F38B4207D9791800F12F
:100D3000FF3C73D28B4271D902383944CB1A40EA56
:100D4000064678E7C6F1200C03FA06F422FA0CF303
:100D50001C4320FA0CF701FA06F34FEA144E21FA6D
:100D60000CF11F433B0CB1FBFEF91FFA84F80EFB9C
:100D7000191143EA014109FB08FA8A4502FA06F211
:100D800000FA06F308D9611809F1FF3048D28A4504
:100D900046D9A9F102092144A1EB0A01BFB2B1FB76
:100DA000FEF00EFB101147EA014700FB08F8B845BA
:100DB00007D9E71900F1FF312ED2B8452CD90238F6
:100DC000274440EA0940A7EB0807A0FB02894F45EA
:100DD000C64649461AD317D05DB1B3EB0E0267EB96
:100DE000010707FA0CFCF2404CEA0202F740C5E9A1
:100DF000002700263146BDE8F0872E4628460BE73F
:100E00000646E9E61846FDE64345E5D2B8EB020E94
:100E100069EB04010138DFE70846D2E760468DE759
:100E20008146B9E7664675E730464AE7ACF1020C01
:100E3000394413E702383C4424E700BF704700BF41
:100E4000034613F8012B002AFBD1181A013870470A
:100E500010B504460E4B18784FF47A73B3FBF0F3D9
:100E60000C4A1068B0FBF3F000F05EFC68B90F2C80
:100E700001D901200AE0002221464FF0FF3000F0A6
:100E800011FC054B1C60002000E0012010BD00BFDC
:100E9000000000200C0000200400002008B50B4BCF
:100EA0001A6842F400721A601A6842F480621A608A
:100EB0001A6842F480721A60032000F0E1FB0F20F0
:100EC000FFF7C6FF04F082FE002008BD003C024090
:100ED000034A1168034B1B780B441360704700BF33
:100EE000144C002000000020014B1868704700BF20
:100EF000144C0020002800F0A18038B5044690F87A
:100F00002030D3B12268136843F001031360FFF768
:100F1000EBFF054623685A6812F0010F10D1FFF766
:100F2000E3FF401B0A28F5D9636A43F40033636288
:100F3000052384F82030012038BD04F0DBFAE1E716
:100F40001A6822F002021A60FFF7CEFF05462368F6
:100F50005A6812F0020F0DD0FFF7C6FF401B0A2897
:100F6000F5D9636A43F400336362052384F82030C3
:100F70000120E1E7227E012A3DD01A6822F080029A
:100F80001A60637E012B3BD02268136823F0400374
:100F90001360A37E012B39D02268136823F020034D
:100FA0001360E37E012B37D02268136843F01003EF
:100FB0001360237F012B35D02268136823F00803C8
:100FC0001360637F012B33D02268136823F004037E
:100FD0001360A368E26813432269134362691343F1
:100FE0006268013A21681343CB61002060620123EB
:100FF00084F82030A0E71A6842F080021A60C0E747
:101000002268136843F040031360C2E72268136844
:1010100043F020031360C4E72268136823F0100331
:101020001360C6E72268136843F008031360C8E73B
:101030002268136843F004031360CAE70120704775
:1010400090F82030013BDBB2012B05D9436A43F411
:10105000802343620120704770B4444BD3F80022D0
:1010600042F00102C3F80022D3F8002222F47C529D
:10107000C3F80022D3F80022486A42EA0022C3F8EB
:1010800000224A6902F01F02012000FA02F2D3F89E
:101090001C02D44320EA0200C3F81C02CB69B3B996
:1010A000324BD3F80C022040C3F80C02CE688D8876
:1010B000486945EA0645483043F830508E6808884C
:1010C0004D6940EA0640483503EBC5035860CB69DB
:1010D000012B1DD08B69002B32D12448D0F804326B
:1010E0002340C0F804320B698BBB204BD3F81402A9
:1010F0000440C3F814420B6A012B2FD01B4AD2F8CC
:10110000003223F00103C2F80032002070BC7047A7
:10111000164BD3F80C021043C3F80C020E688D88EE
:10112000486945EA0645483043F830508E6888895A
:101130004D6940EA0640483503EBC5035860C9E7EE
:101140000A48D0F804321343C0F80432CBE707480A
:10115000D0F814321343C0F81432CCE70349D1F865
:101160001C321A43C1F81C22C8E700BF00640040CB
:1011700070B5044690F82050EDB2012D06D0436AB8
:1011800043F4002343620125284670BD022380F802
:1011900020300268136823F001031360FFF7A4FEF8
:1011A000064623685B6813F0010F0CD0FFF79CFE26
:1011B000831B0A2BF5D9636A43F40033636205236A
:1011C00084F82030E0E700256562DDE770B490F830
:1011D00020400568AD68013CE4B2012C65D815F0EB
:1011E000E05F5CD0C5F30164022C05D9436A43F487
:1011F0000003436201205DE00125A5401D608B686E
:10120000002B39D10E68CB68056843EA465604F1D5
:1012100018031B01EE5003680D6904F1180603EB77
:1012200006135D600B7D012B31D0D17993791B04BE
:1012300043EA0163517943EA0123157901682B439D
:1012400001EB0411C1F88C31D17893781B0443EA87
:101250000163517843EA0123117802680B4302EBE2
:101260000412C2F88831026818342401135943F07B
:101270000103135100201DE04D6843EAC503CD680A
:1012800006682B4304F118052D017351C3E7036869
:1012900003EB0613596841F480715960C5E7436A4E
:1012A00043F400134362012004E0436A43F48023C3
:1012B0004362012070BC704730B490F82040013C7C
:1012C000E4B2012C00F2918051B90468E46814F092
:1012D000030F10D1436A43F400134362012089E0F5
:1012E0000468246914F0030F05D1436A43F4001322
:1012F000436201207EE0056801F11B0424012C59A2
:1013000004F004049460002C61D1056801F11B0411
:1013100024012C59640D1460056801F11B0424019B
:101320002D5905F00205D560056825446D6805F066
:101330000F051561056825446D68C5F3072595619E
:1013400005682C446468240C5461026802EB0112A5
:10135000D2F8B8211A70026802EB0112D2F8B82153
:10136000C2F307225A70026802EB0112D2F8B821C8
:10137000C2F307429A70026802EB0112D2F8B82158
:10138000120EDA70026802EB0112D2F8BC211A7157
:10139000026802EB0112D2F8BC21C2F307225A7193
:1013A000026802EB0112D2F8BC21C2F307429A7123
:1013B000026802EB0112D2F8BC21120EDA7171B987
:1013C0000268D36843F02003D360002012E0056870
:1013D00001F11B0424012C59E40854609CE70268C5
:1013E000136943F020031361EFE7436A43F480235A
:1013F0004362012030BC704790F82030013BDBB2E3
:10140000012B05D9436A43F48023436201207047CE
:101410000268536919435161002070477047704753
:101420007047704770477047704770477047704704
:10143000704770472DE9F84F054603685C69D3F89B
:1014400004809F68D3F80CB0D3F810A0D3F818909C
:1014500014F001063BD017F0010616D001229A6065
:1014600017F0020F08D117F0040F0CD117F008067F
:1014700006D04FF4805608E0FFF7D0FF002604E0C6
:10148000FFF7CFFF01E04FF4006617F4807F0DD027
:101490002B684FF480729A6017F4007F40F08680CA
:1014A00017F4806F00F0868046F4005617F4803FF2
:1014B0000DD02B684FF480329A6017F4003F40F053
:1014C000838017F4802F00F0838046F4004614F0E8
:1014D000080F07D01BF0100F04D046F400762B68DD
:1014E0001022DA6014F0040F02D01BF0080F79D13B
:1014F00014F0020F04D02B68DB6813F0030F78D1CF
:1015000014F0400F07D01AF0100F04D046F4806694
:101510002B6810221A6114F0200F02D01AF0080F65
:101520006BD114F0100F04D02B681B6913F0030F5C
:101530006AD114F4003F02D018F0100F68D114F4EF
:10154000803F02D018F0080F69D114F4004F7AD010
:1015500018F0040F74D014F4807F04D019F0010F38
:1015600001D046F0010614F4007F04D019F0020FF8
:1015700001D046F0020614F4806F04D019F0040F75
:1015800001D046F0040614F4006F59D019F0700928
:1015900056D0B9F1400F65D058D8B9F1200F5ED0C0
:1015A000B9F1300F42D146F0200644E02846FFF75B
:1015B00036FF7BE717F4006F02D046F4804675E7EC
:1015C0002846FFF72FFF71E72846FFF729FF7EE740
:1015D00017F4002F02D046F4803678E72846FFF74C
:1015E00022FF74E72B680822DA602846FFF71CFF09
:1015F0007EE7284607F01CF982E72B6808221A616B
:101600002846FFF713FF8CE72846FFF70EFF90E709
:101610002B6810225A602846FFF709FF8FE72B68D6
:1016200008225A602846FFF703FF8EE7B9F1100F32
:1016300001D146F008062A68936923F0700393618C
:101640002B6804225A609EB9BDE8F88FB9F1500F9B
:101650000BD0B9F1600FEED146F48076EBE746F09F
:101660001006E8E746F04006E5E746F08006E2E7C8
:101670006B6A1E436E622846FFF7DBFEE4E700005C
:10168000074AD36823F4E0631B041B0C000200F438
:10169000E060034343F0BF6343F40033D36070471B
:1016A00000ED00E030B4174BDB68C3F30223C3F155
:1016B0000704042C28BF04241D1D062D18D9033B44
:1016C0004FF0FF3505FA04F421EA0401994005FAC8
:1016D00003F322EA0303194300280BDB0901C9B213
:1016E00000F1604000F5614080F8001330BC7047A5
:1016F0000023E5E700F00F000901C9B2024B1954BD
:10170000F4E700BF00ED00E014ED00E0002807DB87
:1017100000F01F02400901239340024A42F82030A2
:10172000704700BF00E100E00138B0F1807F0AD2CD
:10173000064B5860064AF02182F82310002098607A
:1017400007221A6070470120704700BF10E000E0D8
:1017500000ED00E010B40368D9B210390C4AA2FBC6
:10176000014212090B4CA25CC2655F2909D923F41E
:101770007F7323F0030304338365806D5DF8044BAE
:10178000704723F47F7323F003038365F5E700BFFD
:10179000ABAAAAAA64B20008836A826992B9012B33
:1017A0000AD0022B02D00BB100207047C36A13F09D
:1017B000807F28D100207047C36AB3F1C07F24D056
:1017C00000207047B2F5005F09D0022B25D9032B0A
:1017D00025D1C36A13F0807F23D100207047032BEB
:1017E00003D8DFE803F01404140A00207047C36A2A
:1017F00013F0807F0DD100207047C36AB3F1C07F22
:1018000009D0002070470120704701207047012057
:101810007047012070470120704701207047002069
:10182000704701207047000070B50446FFF75CFB6D
:10183000002C5BD00546022384F83530002384F861
:1018400034302268136823F00103136023681A6898
:1018500012F0010F0AD0FFF747FB431B052BF5D908
:1018600020236365032084F8350070BD1A68204882
:1018700010406168A2680A43E1680A4321690A438B
:1018800061690A43A1690A43E1690A43216A0A437B
:101890000243616A04291ED01A602668756925F022
:1018A0000705636A1D43042B07D1A36A1D43E36A3E
:1018B0001BB12046FFF770FF90B975612046FFF716
:1018C00049FFE26D3F239340836000206065012360
:1018D00084F83530C9E7E16A206B01430A43DBE74E
:1018E00040236365012084F83500BEE70120BCE792
:1018F0003F8010F000230F2B00F2DD80F0B482B0A7
:101900005DE086685F000324BC4026EA0406CC68DC
:10191000BC4034438460466826EA02064C68C4F33F
:1019200000129A403243426057E0DC08083450F815
:10193000247003F0070296000F22B24027EA020744
:101940000A69B2403A4340F824205AE0072200E0F6
:101950000022B2403A430234574E46F82420574AF8
:101960009468EA4324EA05064F6817F4801F01D003
:1019700045EA0406514CA660E46802EA04064F6892
:1019800017F4001F01D045EA04064C4CE660646879
:1019900002EA04064F6817F4003F01D045EA040646
:1019A000464C6660246822404E6816F4803F01D0A1
:1019B00045EA0402414C226001330F2B78D8012202
:1019C0009A400C6804EA020532EA0404F4D14C6837
:1019D00004F00304013C012C93D94A6802F003028D
:1019E000032A09D0C4685E000322B24024EA02043C
:1019F0008A68B2402243C2604A6802F00302022AA7
:101A000093D004685E000322B24024EA02044A68CC
:101A100002F00302B240224302604A6812F4403FDF
:101A2000CAD000220192264A546C44F48044546483
:101A3000526C02F480420192019A9C08A61C1E4A34
:101A400052F8267003F0030296000F22B24027EAF4
:101A500002071C4A90423FF47BAF02F5806290423D
:101A60001AD002F58062904218D002F5806290424E
:101A700016D002F58062904214D002F58062904246
:101A800012D002F58062904210D002F5806290423E
:101A90003FF45CAF08225CE701225AE7022258E7D4
:101AA000032256E7042254E7052252E7062250E7B4
:101AB00002B0F0BC7047704700380140003C014064
:101AC00000380240000002400AB1816170470904F9
:101AD0008161704708B5054B5B69034200D108BDC1
:101AE000024B586108F07EF8F9E700BF003C014066
:101AF00003685A6912F4806F01D1002070476FF4B7
:101B000080625A6100230363202280F83D2080F820
:101B10003E30026C42F00402026480F83C30012046
:101B200070472DE9F04107460D4690461E4622E0DB
:101B3000FFF7DAF9069BC01AB04200D8DEB90023DD
:101B40003B63202287F83D2087F83E303A6C42F014
:101B500020023A6487F83C3001201AE03B689C6917
:101B600025EA0404A4B2B4FA84F46409A0450FD1B0
:101B7000B6F1FF3FDCD1C5F30743012BEED13B6843
:101B80005C6925EA0404A4B2B4FA84F46409EDE7BC
:101B90000020BDE8F0812DE9F04105460E461746CC
:101BA00098463DE01A6842F400721A602B686FF4A0
:101BB00080625A6100232B63202285F83D2085F83E
:101BC0003E302A6C42F004022A6485F83C30012041
:101BD00034E0FFF789F9A0EB0800B84200D8FFB95C
:101BE00000232B63202285F83D2085F83E302A6CA7
:101BF00042F020022A6485F83C3001201EE02B6868
:101C00009C6926EA0404A4B2003C18BF0124A4B1D4
:101C10002B685A6912F4806FC4D1B7F1FF3FD8D155
:101C2000C6F30743012BEAD12B685C6926EA04045A
:101C3000A4B2003C18BF0124E9E70020BDE8F08110
:101C400070B504460D46164623685B6913F0800F95
:101C50001CD12046FFF74CFFD0B9B5F1FF3FF3D0C0
:101C6000FFF742F9801BA84201D8002DECD10023D8
:101C70002363202284F83D2084F83E30226C42F019
:101C80002002226484F83C30012000E0002070BD76
:101C90000120FCE72DE9F04385B004460D4691464E
:101CA0001F46DDF830800D9E0368196841F480718D
:101CB00019600096434600224FF00111FFF731FFF3
:101CC00060B9236805F0FE051D613346424626498A
:101CD0002046FFF760FF68B1012008E023681B6819
:101CE00013F4807F02D04FF400732364032005B007
:101CF000BDE8F0830023039323685A6903929B692C
:101D00000393039B324641462046FFF799FF30B9C3
:101D1000012F0FD123685FFA89F61E61E7E7236C74
:101D2000042B01D00120E2E72268136843F400731A
:101D30001360F7E723684FEA19221A6132464146D9
:101D40002046FFF77DFF20B923685FFA89F61E6100
:101D5000CDE7236C042B01D00120C8E7226813686B
:101D600043F400731360F7E7020001002DE9F04728
:101D700084B004460D46164699460C9FDDF8348023
:101D80000268136843F4806313600368196841F4C0
:101D900080711960CDF800803B4600224FF00111A0
:101DA000FFF7BFFE70B95FFA85FA236805F0FE05FC
:101DB0001D6143463A4641492046FFF7ECFE68B1B3
:101DC000012008E023681B6813F4807F02D04FF4E1
:101DD00000732364032004B0BDE8F087002303935D
:101DE00023685A6903929B690393039B42463946D1
:101DF0002046FFF725FF80B9B9F1010F18D12368FC
:101E0000F6B21E61424639462046FFF719FF68B315
:101E1000236C042B24D00120DDE7236C042B01D09C
:101E20000120D8E72268136843F400731360F7E7D2
:101E30002368320A1A61424639462046FFF700FFFE
:101E400018B92368F6B21E61DCE7236C042B01D0BD
:101E50000120C0E72268136843F400731360F7E7BA
:101E60002268136843F400731360D4E72268136890
:101E700043F480731360CDF800803B4600224FF09E
:101E800001112046FFF74DFE68B922684AF00103B0
:101E9000136143463A4609492046FFF77CFE002875
:101EA00099D0012097E723681B6813F4807F02D044
:101EB0004FF40073236403208DE700BF020001008C
:101EC00070B504460D46164623685B6913F0040F8F
:101ED0001CD12046FFF70CFED0B9B5F1FF3FF3D07F
:101EE000FFF702F8801BA84201D8002DECD1002397
:101EF0002363202284F83D2084F83E30226C42F097
:101F00002002226484F83C30012000E0002070BDF3
:101F10000120FCE770B505460C4616462B6859694A
:101F200011F0400F29D1596911F0100F15D1FEF7AA
:101F3000DBFF801BA04201D8002CEFD100232B63D4
:101F4000202285F83D2085F83E302A6C42F02002A0
:101F50002A6485F83C30012070BD6FF010025A6190
:101F600000232B63202285F83D2085F83E302A6C23
:101F70002A6485F83C300120EEE70020ECE7000001
:101F8000002800F0CC80F8B5044690F83D30002BD6
:101F900077D0242384F83D302268136823F00103AE
:101FA00013602268136843F40043136022681368C7
:101FB00023F40043136000F0E7FD62685A4B9A4235
:101FC00064D85A4B98428CBF00230123002B40F069
:101FD000A880574DA5FB0035AF0C2668716821F02D
:101FE0003F0141EA9541716021680B6A23F03F038C
:101FF00065684D4A95424FD87A1C13430B62256899
:10200000E96921F44F4121F0FF016368464A934298
:102010004CD801385B00B0FBF3F0013040F6FC73A4
:10202000184278D0C0F30B030B43EB6121680B68B7
:1020300023F0C003E269206A024313430B60216866
:102040008B6823F4034323F0FF032269E068024313
:1020500013438B602168CB6823F0FF036269A0699A
:1020600002431343CB602268136843F001031360FB
:1020700000202064202384F83D30206384F83E0053
:10208000F8BD80F83C3003F017FC82E7294B9842FA
:102090008CBF0023012399E74FF4967202FB07F2ED
:1020A000254DA5FB025292090132A6E7A268BAB9F2
:1020B000461E03EB4307B6FBF7F60136C6F30B06E5
:1020C000B6FA86F6760946BBC2B9421E03EB430355
:1020D000B2FBF3F20132C2F30B0242F40043A3E776
:1020E000461E03EB830707EB8707B6FBF7F60136BF
:1020F000C6F30B06B6FA86F67609E4E7421E03EB52
:10210000830303EB8303B2FBF3F20132C2F30B024E
:1021100042F4404388E7042386E7012384E7012053
:1021200070470120ACE700BFA08601007F841E003D
:1021300083DE1B43FF083D00D34D62102DE9F043C1
:1021400083B004460F46904699460C9EFEF7CCFE9F
:10215000054694F83D00C0B2202803D0022003B009
:10216000BDE8F0830095192301224B492046FFF773
:10217000D8FC002840F0898094F83C30012B00F016
:102180008680012384F83C3023681A6812F0010F1E
:1021900003D11A6842F001021A602268136823F41E
:1021A00000631360212384F83D30402384F83E30DF
:1021B000002323640A9B6362BDF82C306385638D22
:1021C0002385364BE362019500964B4642463946DD
:1021D0002046FFF75FFD00285BD1238D002B35D013
:1021E0002A4631462046FFF72BFD20BB626A236852
:1021F00012781A61616A4B1C6362228D013A92B2B5
:102200002285638D9BB2013B9BB26385236858692D
:1022100010F0040FE1D0002ADFD04A781A61636A17
:1022200001336362238D013B2385638D9BB2013BA8
:102230009BB26385D1E7236C042B01D001208EE78C
:102240002268136843F400731360F7E72A463146A7
:102250002046FFF735FE50B1236C042B01D001203E
:102260007DE72268136843F400731360F7E7226880
:10227000136843F400731360202384F83D30002377
:1022800084F83E3084F83C3069E7022067E702209A
:1022900065E7012063E700BF020010000000FFFFB8
:1022A0002DE9F04387B004460F4690469946109EAC
:1022B000FEF71AFE054694F83D00C0B2202804D06F
:1022C0000227384607B0BDE8F083009519230122A4
:1022D0009D492046FFF725FC002840F0448194F8F2
:1022E0003C30012B00F04181012384F83C3023680D
:1022F0001A6812F0010F03D11A6842F001021A6045
:102300002268136823F400631360222384F83D30AD
:10231000402384F83E30002323640E9B6362BDF8A3
:102320003C306385638D2385884BE362019500967D
:102330004B46424639462046FFF718FD074600281F
:1023400040F01581238D5BB9029323685A6902928C
:102350009A690292029A1A6842F400721A6098E02E
:10236000012B0AD0022B1AD00023059323685A6947
:1023700005929B690593059B8BE02268136823F403
:10238000806313600023039323685A6903929A6958
:102390000392039A1A6842F400721A6079E0226884
:1023A000136823F4806313602268136843F40063A6
:1023B00013600023049323685A6904929B69049371
:1023C000049B66E02A4631462046FFF7A3FD00281D
:1023D00040F0CF8023681A69636A1A70636A013318
:1023E0006362238D013B2385638D9BB2013B9BB2CE
:1023F00063854EE000953346002255492046FFF79D
:1024000090FB002840F0B7802268136843F4007303
:10241000136023681A69636A1A70626A531C6362E4
:10242000238D013B2385638D9BB2013B9BB263856A
:1024300023681B695370636A01336362238D013B18
:102440002385638D9BB2013B9BB2638521E02268AB
:10245000136843F40073136023681A69636A1A707F
:10246000626A531C6362238D013B2385638D9BB29B
:10247000013B9BB2638523681B695370636A013318
:102480006362238D013B2385638D9BB2013B9BB22D
:102490006385238D002B5DD0032B2BD8012B91D08E
:1024A000022BA7D000953346002229492046FFF78A
:1024B00038FB002861D12268136823F4806313601D
:1024C00023681A69636A1A70636A01336362238D31
:1024D000013B2385638D9BB2013B9BB263850095D5
:1024E000334600221A492046FFF71BFB0028AED0D6
:1024F0000127E6E62A4631462046FFF70BFD002875
:102500003DD123681A69636A1A70626A531C636258
:10251000238D013B2385638D9BB2013B9BB2638579
:102520002368596911F0040FB3D01B695370636AB3
:1025300001336362238D013B2385638D9BB2013B95
:102540009BB26385A5E700BF020010000000FFFFFB
:1025500004000100202384F83D30002384F83E303D
:1025600084F83C30ADE60227ABE60227A9E6012756
:10257000A7E60127A5E60127A3E60127A1E6012793
:102580009FE600BF002800F0DF8170B582B00446EE
:10259000036813F0010F3BD0A64B9B6803F00C03BC
:1025A000042B2CD0A34B9B6803F00C03082B21D0E9
:1025B0006368B3F5803F4FD0B3F5A02F52D09D4B49
:1025C0001A6822F480321A601A6822F480221A6093
:1025D0006368002B50D0FEF787FC0546954B1B68BF
:1025E00013F4003F14D1FEF77FFC401B6428F5D99B
:1025F0000320B0E18F4B5B6813F4800FD8D08D4B74
:102600001B6813F4003F03D06368002B00F09E8129
:10261000236813F0020F54D0864B9B6813F00C0F05
:102620003ED0844B9B6803F00C03082B33D0E36847
:10263000002B67D0804B01221A60FEF755FC05463F
:102640007C4B1B6813F0020F53D1FEF74DFC401B6F
:102650000228F5D903207EE1764A136843F48033DB
:102660001360B5E7734B1A6842F480221A601A6847
:1026700042F480321A60ABE7FEF736FC05466D4B3C
:102680001B6813F4003FC3D0FEF72EFC401B6428E8
:10269000F5D903205FE1674B5B6813F4800FC6D167
:1026A000644B1B6813F0020F03D0E368012B40F06A
:1026B0004F81604A136823F0F803216943EAC1039C
:1026C0001360236813F0080F40D0636963B35B4B5A
:1026D00001221A60FEF708FC0546564B5B6F13F0AB
:1026E000020F33D1FEF700FC401B0228F5D903206E
:1026F00031E1504A136823F0F803216943EAC1032A
:102700001360DEE74C4B00221A60FEF7EDFB054636
:10271000484B1B6813F0020FD3D0FEF7E5FB401BBC
:102720000228F5D9032016E1444B00221A60FEF777
:10273000DBFB05463F4B5B6F13F0020F06D0FEF745
:10274000D3FB401B0228F5D9032004E1236813F0D2
:10275000040F78D0374B1B6C13F0805F0DD1002332
:102760000193344B1A6C42F080521A641B6C03F0D4
:1027700080530193019B012500E00025304B1B682D
:1027800013F4807F21D0A368012B32D0052B36D0E3
:10279000284B1A6F22F001021A671A6F22F0040206
:1027A0001A67A368002B34D0FEF79EFB0646214B28
:1027B0001B6F13F0020F45D1FEF796FB801B41F211
:1027C00088339842F3D90320C5E01D4A136843F4C7
:1027D00080731360FEF788FB0646194B1B6813F4E1
:1027E000807FD0D1FEF780FB801B0228F5D9032023
:1027F000B1E0104A136F43F001031367D1E70D4BAB
:102800001A6F42F004021A671A6F42F001021A6747
:10281000C7E7FEF769FB0646064B1B6F13F0020F76
:1028200010D0FEF761FB801B41F288339842F3D948
:10283000032090E00038024000004742800E4742EB
:1028400000700040EDB9A369002B00F08380494A75
:10285000926802F00C02082A51D0022B17D0464B86
:1028600000221A60FEF740FB0446424B1B6813F03F
:10287000007F42D0FEF738FB001B0228F5D9032069
:1028800069E03C4A136C23F080531364DBE73A4B56
:1028900000221A60FEF728FB0546364B1B6813F032
:1028A000007F06D0FEF720FB401B0228F5D903204D
:1028B00051E0E369226A1343626A43EA8213A26A1F
:1028C0005208013A43EA0243E26A43EA0263294AB0
:1028D0005360294B01221A60FEF706FB0446254B84
:1028E0001B6813F0007F06D1FEF7FEFA001B0228DA
:1028F000F5D903202FE000202DE000202BE0012B54
:102900002BD01C4B5B6803F48001E269914226D115
:1029100003F03F02216A8A4223D1616A47F6C072FE
:102920001A40B2EB811F1ED103F44031A26A520853
:10293000013AB1EB024F18D103F07063E26AB3EBD6
:10294000026F14D1002006E001207047012002E050
:10295000012000E0002002B070BD0120FBE7012053
:10296000F9E70120F7E70120F5E70120F3E701206F
:10297000F1E700BF0038024060004742F8B5244B41
:102980009B6803F00C03042B3DD0082B3DD1204B5A
:102990005A6802F03F025B6813F4800F12D01C4BA0
:1029A0005968C1F3881100231A48A1FB0001FEF702
:1029B000CBF8174B5B68C3F3014301335B00B0FBFB
:1029C000F3F023E0124B5B68C3F388135C0100252E
:1029D000E41A65F10005AE0146EA9466A701381BCA
:1029E00066EB0501CC0044EA5074C500E81844F1D8
:1029F00000018B0243EA90538402204619460023CB
:102A0000FEF7A2F8D5E7034800E00348F8BD00BF91
:102A100000380240001BB7000024F400002800F03A
:102A20009B8070B50D4604464F4B1B6803F00703AF
:102A30008B4208D2CBB24C4A1370136803F00703E1
:102A40008B4240F08B80236813F0020F17D013F0F5
:102A5000040F04D0454A936843F4E053936023681D
:102A600013F0080F04D0414A936843F46043936025
:102A70003E4A936823F0F003A1680B4393602368F8
:102A800013F0010F32D06368012B21D09A1E012A66
:102A900025D9364A126812F0020F61D033498A688C
:102AA00022F0030213438B60FEF71EFA06462F4BFB
:102AB0009B6803F00C036268B3EB820F16D0FEF73D
:102AC00013FA801B41F288339842F0D9032042E088
:102AD000264A126812F4003FE0D101203BE0234A6D
:102AE000126812F0007FD9D1012034E01E4B1B6820
:102AF00003F00703AB4207D9EAB21B4B1A701B68FD
:102B000003F00703AB422DD1236813F0040F06D066
:102B1000164A936823F4E053E1680B4393602368FB
:102B200013F0080F07D0114A936823F4604321691A
:102B300043EAC1039360FFF721FF0C4B9B68C3F38B
:102B400003130B4AD35CD8400A4B18600A4B186831
:102B5000FEF77EF9002070BD012070470120FAE7E2
:102B60000120F8E70120F6E7003C0240003802406F
:102B700080B300080C00002004000020014B1868FE
:102B8000704700BF0C00002008B5FFF7F7FF044BAB
:102B90009B68C3F38223034AD35CD84008BD00BFBF
:102BA0000038024090B300082DE9F04782B0054696
:102BB000884617461E46FEF797F90A9B1B1A03EB39
:102BC0000609FEF791F982462A4B1B68C3F3CB3303
:102BD00009FB03F301932B689C6838EA04030CBFDC
:102BE00001240024BC4240D0B6F1FF3FF3D0FEF7F1
:102BF0007BF9A0EB0A0048450AD2B9F1000F07D0D3
:102C0000019A02B14A46019B013B01939146E2E7DA
:102C10002A68536823F0E00353606B68B3F5827F42
:102C20000BD0AB6AB3F5005F14D0012385F85130A7
:102C3000002385F85030032018E0AB68B3F5004F4F
:102C400002D0B3F5806FECD12A68136823F04003FB
:102C50001360E6E72A68136823F4005313602A68B8
:102C6000136843F400531360DFE7002002B0BDE8AF
:102C7000F08700BF0C00002030B585B00446164B2D
:102C80001868164BA3FB0030400D4FF47A7505FB16
:102C900000F003906368B3F5827F0BD0039BBBB158
:102CA000039B013B039323689B6813F0800FF5D1CE
:102CB00000200EE000920B46002280212046FFF704
:102CC00073FF30B1636D43F020036365032000E0C0
:102CD000002005B030BD00BF0C000020819F5E16B3
:102CE00000285AD010B50446436A33B94368B3F597
:102CF000827F05D00023C36102E0002303614361AA
:102D00000023A36294F85130002B40D0022384F8B2
:102D100051302268136823F040031360636803F4A2
:102D20008273A26802F404421343E26802F4006270
:102D30001343226902F002021343626902F00102A6
:102D40001343A26902F400721343E26902F03802ED
:102D50001343226A02F080021343A26A02F4005273
:102D6000216813430B60638B03F00403626A02F073
:102D70001002216813434B602268D36923F4006377
:102D8000D36100206065012384F8513010BD84F8C0
:102D90005030204602F082FEB8E7012070472DE94E
:102DA000F04383B01F460A9D90F85030012B00F08D
:102DB0001081044688469146012380F85030FEF782
:102DC00093F8064694F85130DBB26268012B0AD0C2
:102DD000B2F5827F40F0E380A268002A40F0E980EB
:102DE000042B40F0E880B8F1000F00F0E680B9F164
:102DF000000F00F0E480002F00F0E38094F85130E1
:102E0000DBB2042B02D0052384F851300023636524
:102E1000C4F83890E787A787C4F83080E786A7868C
:102E20002364636423681A6812F0400F03D11A68A0
:102E300042F040021A60E368B3F5006F11D0636896
:102E40000BB1012F0BD1226B236812781A73236BFD
:102E500001332363E38E9BB2013B9BB2E3860127E0
:102E60006BE063680BB1012F0BD1226B23681288D2
:102E7000DA60236B02332363E38E9BB2013B9BB288
:102E8000E38601271CE023689A6812F0010F0ED038
:102E9000E28F92B25AB1DA68A36B1A80A36B023345
:102EA000A363E38F9BB2013B9BB2E3870127FEF74D
:102EB0001BF8801BA84203D3B5F1FF3F40F083808D
:102EC000E38E9BB21BB9E38F9BB2002B53D02368D8
:102ED0009A6812F0020FD6D0E28E92B2002AD2D0B7
:102EE000002FD0D0226B1288DA60236B0233236369
:102EF000E38E9BB2013B9BB2E3860027C3E72368C6
:102F00009A6812F0010F0ED0E28F92B25AB1DA68CD
:102F1000A36B1A70A36B0133A363E38F9BB2013BD6
:102F20009BB2E3870127FDF7DFFF831BAB4202D390
:102F3000B5F1FF3F49D1002D49D0E38E9BB213B9C3
:102F4000E38F9BB2BBB123689A6812F0020FD6D010
:102F5000E28E92B2002AD2D0002FD0D0226B12780B
:102F60001A73236B01332363E38E9BB2013B9BB245
:102F7000E3860027C3E7324629462046FFF77CFE5A
:102F800048B9A36863B901932368DA6801929B6822
:102F90000193019B04E020236365012000E00220EF
:102FA000012384F85130002384F8503003B0BDE889
:102FB000F0830220F4E70220F2E70120F0E701208D
:102FC000EEE70120ECE70320EAE70320E8E703202F
:102FD000E6E70220EAE7000030B4036A23F00103C9
:102FE0000362056A4268846924F073040B681C4319
:102FF00025F002058B682B43104DA84203D005F540
:103000008065A84205D123F00803CD682B4323F047
:1030100004030A4DA84203D005F58065A84205D1F6
:1030200022F440724D6915438A692A4342608461E3
:103030004A684263036230BC704700BF0000014031
:1030400030B4036A23F480730362036A4268C4697C
:1030500024F073040D682C4323F400738D6843EA55
:103060000523124DA84203D005F58065A84206D17C
:1030700023F40063CD6843EA052323F480630B4DFA
:10308000A84203D005F58065A84207D122F440523A
:103090004D6942EA05128D6942EA05124260C46137
:1030A0004A68C263036230BC704700BF0000014041
:1030B00030B4036A23F480530362036A4468C2692C
:1030C00022F4E6420D6842EA052223F400538D689B
:1030D00043EA0533094DA84203D005F58065A842AF
:1030E00004D124F480444D6944EA85144460C261EB
:1030F0004A680264036230BC704700BF00000140B0
:103100000368304A904212D0B0F1804F0FD0A2F540
:103110007C4290420BD002F58062904207D002F5CB
:103120008062904203D002F57842904203D123F0AE
:1031300070034A681343234A90422AD0B0F1804F6B
:1031400027D0A2F57C42904223D002F580629042C3
:103150001FD002F5806290421BD002F57842904267
:1031600017D002F57052904213D002F5806290425F
:103170000FD002F5806290420BD0A2F598329042B7
:1031800007D002F58062904203D002F5806290423F
:1031900003D123F44073CA68134323F080034A69C0
:1031A000134303608B68C3620B688362054B9842CC
:1031B00003D003F58063984201D10B6903630123B7
:1031C000436170470000014040B310B5044690F8D9
:1031D0003D30F3B1022384F83D30214651F8040B11
:1031E000FFF78EFF012384F8463084F83E3084F8E0
:1031F0003F3084F8403084F8413084F8423084F81D
:10320000433084F8443084F8453084F83D30002061
:1032100010BD80F83C3002F053FDDBE70120704721
:1032200040B310B5044690F83D30F3B1022384F862
:103230003D30214651F8040BFFF762FF012384F86B
:10324000463084F83E3084F83F3084F8403084F8CB
:10325000413084F8423084F8433084F8443084F8B4
:10326000453084F83D30002010BD80F83C3002F03D
:103270000FFDDBE70120704730B4036A23F0100331
:103280000362036A4468826922F4E6420D6842EAF6
:10329000052223F020038D6843EA0513114DA8424F
:1032A00003D005F58065A84206D123F08003CD68E0
:1032B00043EA051323F040030A4DA84203D005F565
:1032C0008065A84207D124F440644D6944EA85042E
:1032D0008D6944EA8504446082614A6882630362BE
:1032E00030BC70470000014038B590F83C30012BED
:1032F00066D004460D46012380F83C300C2A5AD88B
:10330000DFE802F0075959591B5959593059595991
:1033100044000068FFF760FE2268936943F00803E9
:1033200093612268936923F004039361226893698F
:1033300029690B43936100203EE00068FFF79CFF82
:103340002268936943F4006393612268936923F4CC
:103350008063936122689369296943EA0123936139
:10336000002029E00068FFF76BFE2268D36943F074
:103370000803D3612268D36923F00403D361226870
:10338000D36929690B43D361002015E00068FFF77A
:103390008FFE2268D36943F40063D3612268D36946
:1033A00023F48063D3612268D369296943EA012346
:1033B000D361002000E00120002384F83C3038BDB8
:1033C0000220FCE790F83C30012B3BD030B40123C5
:1033D00080F83C30022380F83D3003685C689D68CB
:1033E00024F070040A6822435A600368164A934224
:1033F0001AD0B3F1804F17D0A2F57C42934213D07C
:1034000002F5806293420FD002F5806293420BD0A6
:1034100002F57842934207D002F57052934203D0EE
:10342000A2F59432934204D125F080054A681543F1
:103430009D60012380F83D30002380F83C30184621
:1034400030BC7047022070470000014090F83C30CB
:10345000012B22D0012380F83C30CB6823F4407349
:103460008A68134323F480634A68134323F4006398
:103470000A68134323F480530A69134323F4005367
:103480004A69134323F48043CA69134302685364AF
:10349000002380F83C301846704702207047000037
:1034A000EFF305832BB9064B186828B901221A607F
:1034B00070476FF0050070474FF0FF30704700BF56
:1034C00080030020EFF3058373B90A4B1B68012BBF
:1034D0000DD110B50024084BDC77064B02221A6090
:1034E00001F044F9204610BD6FF0050070474FF021
:1034F000FF3070478003002000ED00E0F0B587B09A
:1035000000240594EFF3058474BB68B322B31568F7
:10351000936903B918235C1E372C49D8546814F0FA
:10352000010F47D156696EB14FEA960C94682CB1E1
:10353000D7685B2F02D9176907B1C6B92CB14FF014
:10354000FF340EE04FF0800CF0E7D4688CB91469BA
:1035500094B14FF0FF3404E01546002418234FF0D7
:10356000800C012C0AD0ACB1059807B0F0BD012445
:10357000F7E74FF0FF34F4E70024F2E714699268AC
:103580000292019400930B466246294601F080F8AE
:103590000590E9E705AA019200930B461FFA8CF209
:1035A000294601F0AFF80128DED000230593DBE7C0
:1035B0000020DAE70020D8E708B5EFF3058333B938
:1035C00008B9002008BD01F099FA0020FAE76FF071
:1035D0000500F7E7EFF3058373B910B582B0044631
:1035E00001F016F90190211A002908DD01A801F067
:1035F00033FA002002B010BD6FF0050070476FF085
:103600000300F7E7034B0360034B0B608023136059
:10361000704700BF2403002024010020034B0360F7
:10362000034B0B604FF480731360704784070020D6
:103630008403002000F1080343604FF0FF328260F2
:10364000C360036100230360704700230361704778
:1036500043684B609A688A605160996008610368AA
:1036600001330360704730B40D68B5F1FF3F11D0EE
:1036700000F108031C465B681A68AA42FAD963681D
:103680004B6099608C60616008610368013303607E
:1036900030BC70470469F2E70369416882688A6058
:1036A000416851605A68824206D0002202611A685D
:1036B000013A1A601868704782685A60F5E700009E
:1036C00082B0002301930D4B1B68B3F1FF3F08D07C
:1036D0004FF0500383F31188BFF36F8FBFF34F8F09
:1036E000FEE74FF0500383F31188BFF36F8FBFF3F2
:1036F0004F8F019B002BFCD002B0704708000020C8
:1037000008480068006880F308884FF0000080F3E4
:10371000148862B661B6BFF34F8FBFF36F8F00DFBF
:1037200000BF000008ED00E0DFF80C00016841F484
:10373000700101607047000088ED00E04FF0807379
:1037400040F8043C21F0010140F8081C054B40F80A
:103750000C3C40F8202C6FF0020340F8243C443825
:10376000704700BFC13600080000000000000000E4
:10377000074B19680868B0E8F04F80F30988BFF379
:103780006F8F4FF0000080F311887047AFF3008017
:10379000084400204FF0500383F31188BFF36F8F6C
:1037A000BFF34F8F0A4A136801331360012B00D017
:1037B0007047084B1B6813F0FF0FF9D04FF0500310
:1037C00083F31188BFF36F8FBFF34F8FFEE700BF06
:1037D0000800002004ED00E0094B1B6843B94FF0DE
:1037E000500383F31188BFF36F8FBFF34F8FFEE752
:1037F000013B034A13600BB983F31188704700BF84
:103800000800002000000000000000000000000090
:10381000EFF30980BFF36F8F154B1A681EF0100F7E
:1038200008BF20ED108A20E9F04F10602DE9090053
:103830004FF0500080F31188BFF34F8FBFF36F8FAD
:1038400001F0CEF94FF0000080F3118809BC19682F
:103850000868B0E8F04F1EF0100F08BFB0EC108AF7
:1038600080F30988BFF36F8F704700BFAFF300800C
:103870000844002008B54FF0500383F31188BFF3CC
:103880006F8FBFF34F8F00F0DDFF18B1034B4FF088
:1038900080521A60002383F3118808BD04ED00E014
:1038A000084A0023136008490B60084B1B6808494D
:1038B000A1FB03139B09013B06490B60072313601F
:1038C000704700BF10E000E018E000E00C000020AE
:1038D000D34D621014E000E03A4B1A683A4B9A421A
:1038E00029D0384B1A68394B9A422DD010B582B086
:1038F000374B1A78D2B20192FF221A701B78DBB2D2
:103900008DF803309DF8033003F05003314A1370F3
:10391000314B07221A609DF8033013F0800F1CD042
:103920002D4A1368013B13609DF803305B00DBB246
:103930008DF80330EFE74FF0500383F31188BFF3A6
:103940006F8FBFF34F8FFEE74FF0500383F3118863
:10395000BFF36F8FBFF34F8FFEE71F4B1B68032B27
:1039600008D04FF0500383F31188BFF36F8FBFF37C
:103970004F8FFEE71B0203F4E063174A1360019BBD
:10398000DBB2134A1370154B1A6842F470021A60C6
:103990001A6842F070421A60FFF782FF0024104B51
:1039A0001C60FFF7C1FE0F4A136843F040431360E9
:1039B000FFF7A6FE01F014F9FFF782FE204602B0E1
:1039C00010BD00BF00ED00E071C20F4170C20F4199
:1039D00000E400E0E0070020E407002020ED00E024
:1039E0000800002034EF00E0EFF305830F2B0FD920
:1039F000104A9B5CDBB2104A12789A4208D94FF009
:103A0000500383F31188BFF36F8FBFF34F8FFEE72F
:103A10000A4B1B6803F4E063094A1268934208D911
:103A20004FF0500383F31188BFF36F8FBFF34F8FB5
:103A3000FEE77047F0E300E0E00700200CED00E057
:103A4000E4070020124A12F0070F1ED0D11D21F00A
:103A50000701C1F5705313440A460E480260002165
:103A600041601344083B23F007030B48036059608F
:103A70001960991A51601360084B1960084B19605E
:103A8000084B4FF000421A6070474FF47053E4E760
:103A9000EC07002000440020E8070020F443002049
:103AA000F0430020EC43002010B4134B1A461B686F
:103AB0008342FBD35168541884420AD041684418A9
:103AC000A3420BD00360904200D010605DF8044B1D
:103AD00070474068014451601046EFE7074C246886
:103AE000A34206D05B681944416013681B680360F9
:103AF000E9E70460E7E700BF00440020E807002092
:103B000070B5044600F07CFE364B1B68A3B1364B03
:103B10001B681C424ED134B1083414F0070F02D098
:103B200024F007040834002C46D0304B1B68A34215
:103B300051D32F4B1D6804E0FFF784FFE7E72B46C6
:103B400015466A68A24202D22A68002AF7D1254A9D
:103B50001268AA4241D01E6808362A681A606B684B
:103B60001B1B102B10D9281910F0070F08D04FF08D
:103B7000500383F31188BFF36F8FBFF34F8FFEE7BE
:103B800043606C60FFF790FF6A6818490B689B1AE6
:103B90000B60184909688B4201D216490B60124B21
:103BA0001B6813436B6000232B60134A13680133B7
:103BB000136002E0002600E0002600F0D1FE16F0BF
:103BC000070F0CD04FF0500383F31188BFF36F8FB2
:103BD000BFF34F8FFEE70026EFE70026EDE7304604
:103BE00070BD00BFE8070020EC430020F043002038
:103BF00000440020F4430020F8430020002834D083
:103C000038B50446A0F1080550F8043C174A12687C
:103C1000134208D14FF0500383F31188BFF36F8F25
:103C2000BFF34F8FFEE750F8081C41B14FF050032F
:103C300083F31188BFF36F8FBFF34F8FFEE723EA43
:103C4000020340F8043C00F0DBFD54F8041C084A71
:103C500013680B4413602846FFF726FF054A1368D4
:103C60000133136000F07CFE38BD7047EC43002048
:103C7000F0430020FC43002010B50446FFF78AFD06
:103C8000A26BE36B9A4204D00024FFF7A5FD204607
:103C900010BD0124F9E710B50446FFF77BFDA36BC7
:103CA00023B90124FFF798FD204610BD0024F9E751
:103CB00070B504461546866B026C5AB903681BB191
:103CC00000200136A66370BD806801F0C1F80023B2
:103CD000A360F6E76DB9406807F01CFA226C6368D0
:103CE00013446360A268934219D323686360284633
:103CF000E7E7C06807F00EFA226C5142E3689B1AAE
:103D0000E3602268934202D2A3680B44E360022D71
:103D100001D00020D5E726B1013E0020D1E728469A
:103D2000CFE70020CDE70346026C6AB110B5084624
:103D3000D9681144D9609C68A14201D31968D9603F
:103D4000D96807F0E7F910BD704738B50546FFF7A9
:103D500021FD95F8454064B203E001F063F8013CB1
:103D600064B2002C08DD6B6A33B105F1240000F069
:103D7000B7FF0028F3D0F0E7FF2385F84530FFF7C1
:103D80002BFDFFF707FD95F8444064B203E001F016
:103D900049F8013C64B2002C08DD2B6933B105F110
:103DA000100000F09DFF0028F3D0F0E7FF2385F816
:103DB0004430FFF711FD38BD38B5E0B10D4604467B
:103DC000FFF7E8FC2168E26B236C03FB0210A060A4
:103DD0000020A0636160013A02FB0313E360FF234C
:103DE00084F8443084F84530EDB9236963B9FFF7AE
:103DF000F3FC012038BD4FF0500383F31188BFF36B
:103E00006F8FBFF34F8FFEE704F1100000F068FFE3
:103E10000028ECD0084B4FF080521A60BFF34F8F50
:103E2000BFF36F8FE3E704F11000FFF703FC04F129
:103E30002400FFF7FFFBDAE704ED00E038B51D468C
:103E4000049C0B4649B92460E063236401212046A9
:103E5000FFF7B2FF84F84C5038BD2260F4E740B958
:103E60004FF0500383F31188BFF36F8FBFF34F8F71
:103E7000FEE730B585B01C46054653B192B189B90D
:103E80004FF0500383F31188BFF36F8FBFF34F8F51
:103E9000FEE74FF0500383F31188BFF36F8FBFF33A
:103EA0004F8FFEE76AB150230393039B502B13D02F
:103EB0004FF0500383F31188BFF36F8FBFF34F8F21
:103EC000FEE70029EFD04FF0500383F31188BFF3D2
:103ED0006F8FBFF34F8FFEE7039B012384F84630BB
:103EE00000949DF820302846FFF7A8FF204605B033
:103EF00030BD0000F0B585B0019288B10E461D4678
:103F00000446B1B1022D20D1E36B012B1DD04FF03F
:103F1000500383F31188BFF36F8FBFF34F8FFEE71A
:103F20004FF0500383F31188BFF36F8FBFF34F8FB0
:103F3000FEE7036C002BE5D04FF0500383F31188AC
:103F4000BFF36F8FBFF34F8FFEE700F071FF07469F
:103F500058B9019B002B44D04FF0500383F31188D4
:103F6000BFF36F8FBFF34F8FFEE7002739E02A467C
:103F700031462046FFF79CFE626A6AB938B13C4B75
:103F80004FF080521A60BFF34F8FBFF36F8FFFF770
:103F900023FC012005B0F0BD04F1240000F0A0FED8
:103FA0000028F4D0324B4FF080521A60BFF34F8F8D
:103FB000BFF36F8FEBE7FFF70FFC0020EAE702A8E3
:103FC00000F0D4FE012719E0002384F8443021E0FA
:103FD000002384F8453023E02046FFF7B6FE00F0CA
:103FE000BFFCFFF7D7FBA26BE36B9A42BFD3022D56
:103FF000BDD0019B002BDED0002FE0D0FFF7ECFB03
:1040000000F0FEFBFFF7C6FB94F844305BB2B3F15F
:10401000FF3FD9D094F845305BB2B3F1FF3FD7D022
:10402000FFF7DAFB01A902A800F0ACFEC8B92046F0
:10403000FFF722FE0028CFD0019904F1100000F014
:104040001BFE2046FFF781FE00F08AFC0028C8D145
:10405000074B4FF080521A60BFF34F8FBFF36F8F43
:10406000BFE72046FFF771FE00F07AFC002091E7E1
:1040700004ED00E02DE9F84390B1894690461F46D3
:104080000446B1B1022F20D1E36B012B1DD04FF0BC
:10409000500383F31188BFF36F8FBFF34F8FFEE799
:1040A0004FF0500383F31188BFF36F8FBFF34F8F2F
:1040B000FEE7036C002BE5D04FF0500383F311882B
:1040C000BFF36F8FBFF34F8FFEE7FFF78DFCEFF36A
:1040D00011864FF0500383F31188BFF36F8FBFF346
:1040E0004F8FA26BE36B9A4206D3022F04D00020BD
:1040F00086F31188BDE8F88394F845506DB2A36B40
:104100003A4649462046FFF7D3FDB5F1FF3F05D0BB
:104110006B1C5BB284F845300120E9E7636A0BB998
:104120000120E5E704F1240000F0DAFD30B1B8F138
:10413000000F05D00120C8F80000D9E70120D7E71B
:104140000120D5E7F0B585B0019290B10E46044646
:10415000C1B100F06DFE074600BB019B002B5CD097
:104160004FF0500383F31188BFF36F8FBFF34F8F6E
:10417000FEE74FF0500383F31188BFF36F8FBFF357
:104180004F8FFEE7036C002BE3D04FF0500383F317
:104190001188BFF36F8FBFF34F8FFEE700273CE01E
:1041A00031462046FFF7BFFD013DA563236923B9D2
:1041B000FFF712FB012005B0F0BD04F1100000F084
:1041C0008FFD0028F4D0354B4FF080521A60BFF3BA
:1041D0004F8FBFF36F8FEBE7FFF7FEFA0020EAE7A0
:1041E00002A800F0C3FD012721E0002384F8443039
:1041F00029E0002384F845302BE02046FFF7A5FD99
:1042000000F0AEFB09E02046FFF79FFD00F0A8FBA1
:104210002046FFF740FD00283DD1FFF7BBFAA56B14
:10422000002DBDD1019B002BD6D0002FD8D0FFF799
:10423000D3FA00F0E5FAFFF7ADFA94F844305BB238
:10424000B3F1FF3FD1D094F845305BB2B3F1FF3FFB
:10425000CFD0FFF7C1FA01A902A800F093FD002812
:10426000D1D12046FFF717FD0028C6D0019904F1EF
:10427000240000F001FD2046FFF767FD00F070FB11
:104280000028CAD1054B4FF080521A60BFF34F8F00
:10429000BFF36F8FC1E700208DE700BF04ED00E0A2
:1042A000002300E00133072B0BD8064A52F83320D5
:1042B000002AF7D1034A42F8331002EBC3035860D7
:1042C00070477047184C002070B504460D461646DE
:1042D000FFF760FA94F844305BB2B3F1FF3F0DD0C2
:1042E00094F845305BB2B3F1FF3F0BD0FFF774FA9F
:1042F000A36B5BB12046FFF728FD70BD002384F857
:104300004430EDE7002384F84530EFE73246294694
:1043100004F1240000F0C8FCECE703685BB3F0B4E0
:10432000064643685B68436000F10807BB4204D05F
:104330007368D3F80CC0002014E05B684360F7E7B3
:104340005B68736013E001330F2B08D8EA1892F80A
:104350003420CC5C944202D1002AF4D1284660B9C2
:10436000AC450AD073685B6873609F42E8D073689D
:10437000DD680023E8E700207047F0BC70470000CC
:10438000084B1B681B6823B9074B4FF0FF321A60BC
:104390007047044B1B68DB68DB685A68024B1A6085
:1043A000704700BF0C440020B04800202DE9F047C2
:1043B00080460D4617469946089EDDF824A00A9CC3
:1043C0009200A521206B06F0B3FE236B07F180421B
:1043D000013A03EB820727F0070795B300220F2A63
:1043E00007D8A95CA31883F83410AB5C0BB1013279
:1043F000F5E7002384F84330372E00D93726E662EC
:10440000E66400252565201DFFF71FF904F118005B
:10441000FFF71BF92461C6F13806A6616462656581
:1044200084F8585084F85A504A4641463846FFF7B7
:1044300085F92060BAF1000F01D0CAF80040BDE84C
:10444000F087002384F83430D6E7000038B5002424
:10445000372C08D804EB840293000E481844FFF769
:10446000E9F80134F4E70C4D2846FFF7E3F80B4C6C
:104470002046FFF7DFF80A48FFF7DCF80948FFF7A6
:10448000D9F80948FFF7D6F8084B1D60084B1C60A7
:1044900038BD00BF14440020884800209C480020FC
:1044A000BC480020E8480020D44800200C440020EC
:1044B0001044002010B50446FFF76CF9214A136838
:1044C00001331360204B1B685BB1204B1B686BB939
:1044D0001D4B1B68DA6AE36A9A4207D81A4B1C60C4
:1044E00004E0194B1C601368012B27D0184A13688D
:1044F000013313606364E06A164B1B68984201D96C
:10450000144B186000EB8000211D134B03EB80005F
:10451000FFF79EF8FFF760F90C4B1B686BB10A4B75
:104520001B68DA6AE36A9A4207D20C4B4FF080525A
:104530001A60BFF34F8FBFF36F8F10BDFFF786FF79
:10454000D4E700BF7448002008440020D048002071
:1045500080480020844800201444002004ED00E03E
:1045600010B5044690F8593063B1012B11D0022BDD
:104570000ED04FF0500383F31188BFF36F8FBFF35A
:104580004F8FFEE7006BFFF739FB2046FFF736FB46
:1045900010BDFFF733FBFBE70F4B1B68D3B110B522
:1045A000FFF7F8F80D4BDB68DC68201DFFF774F8A7
:1045B0000B4A1368013B1360074A1368013B136001
:1045C000FFF70AF92046FFF7CBFF034B1B68002BD0
:1045D000E6D110BD704700BF78480020E8480020B1
:1045E0007448002008B5FFF7D7FF064B1B68012B66
:1045F000F9D9054B4FF080521A60BFF34F8FBFF3CC
:104600006F8FF0E71444002004ED00E070B505461C
:104610000C46194B1E68194B1A68002182F85A1073
:1046200018680430FFF738F8B5F1FF3F0DD0354476
:10463000124B1B685D60AE4210D9114B18680F4BCE
:1046400019680431FFF70FF870BD002CEFD00B4B49
:10465000196804310B48FEF7FBFFF5E70A4B1868B1
:10466000064B19680431FEF7FEFF084B1B68AB428E
:10467000EAD9064B1D60E7E7FC480020084400200B
:1046800010440020D44800200C440020B0480020F2
:1046900070B586B00B9D0C9C75B1B4B15C260496C8
:1046A000049E5C2E1AD04FF0500383F31188BFF3A1
:1046B0006F8FBFF34F8FFEE74FF0500383F31188E6
:1046C000BFF36F8FBFF34F8FFEE74FF0500383F3BD
:1046D0001188BFF36F8FBFF34F8FFEE7049E2563F2
:1046E000022584F8595000250395029405AD0195E3
:1046F0000A9D0095FFF75AFE2046FFF7DBFE05985E
:1047000006B070BD2DE9F04385B0074688461446D3
:104710001E469000FFF7F4F900B381465C20FFF7D6
:10472000EFF90546B0B1C0F83090E5B1002385F847
:104730005930039302950D9B01930C9B00933346D4
:10474000224641463846FFF731FE2846FFF7B2FEC3
:10475000012005E04846FFF751FAE6E74FF0FF3049
:1047600005B0BDE8F0834FF0FF30F9E710B588B031
:1047700000240594069407AA06A905A8FEF742FF9F
:10478000059B0293069B019300942346079A1749C1
:104790001748FFF77DFF48B100F0B2FC0346012B3C
:1047A00006D0B3F1FF3F18D008B010BD0023F6E7E4
:1047B0004FF0500383F31188BFF36F8FBFF34F8F18
:1047C0000C4B4FF0FF321A600B4B01221A600B4B5F
:1047D00000221A60FFF780F8E6E74FF0500383F3FA
:1047E0001188BFF36F8FBFF34F8FFEE76CB20008E5
:1047F000E5450008B0480020D0480020FC480020D3
:10480000024A136801331360704700BF7C480020E0
:10481000014B1868704700BFFC480020034618B1E0
:104820002BB103F134007047054B1B68F8E74FF0DC
:10483000500383F31188BFF36F8FBFF34F8FFEE7F1
:1048400008440020F8B53B4B1B68002B6AD13A4B5B
:104850001D6801351D60C5B9384B1B681B6843B125
:104860004FF0500383F31188BFF36F8FBFF34F8F67
:10487000FEE7324A1168324B186810601960314AFD
:10488000136801331360FFF77BFD2F4B1B68AB42AE
:1048900011D900242D4B1B68DB6A03EB83039A00BC
:1048A0002B4B9B58012B00D901242A4B1B68002B52
:1048B0003DD001243BE0002416E0234B4FF0FF32B3
:1048C0001A60E7E7204A1360E4E703EB83039A00EA
:1048D00039461F481044FEF7BBFEF26A1B4B1B68AB
:1048E000DB6A9A4200D30124144B1B681B68002B1F
:1048F000E3D0124B1B68DB68DE6873689D42E1D32E
:10490000371D3846FEF7C8FEB36A1BB106F1180022
:10491000FEF7C2FEF36A104A12689342D5D90E4AD6
:104920001360D2E70D4A1368013313600024204658
:10493000F8BD00BF7C480020FC4800200C4400204B
:1049400010440020B4480020B04800200844002053
:10495000144400200049002084480020B84800206A
:1049600038B5344B1B6843B94FF0500383F31188BB
:10497000BFF36F8FBFF34F8FFEE7FEF70BFF2D4B9B
:104980001A68013A1A601B68002B4DD12A4B1B682C
:104990000BB9002449E00024284B1B681BB3274BAC
:1049A000DB68DC6804F11800FEF776FE251D28465A
:1049B000FEF772FEE06A224B1B68984201D9204B39
:1049C000186000EB800029461E4B03EB8000FEF7C9
:1049D0003FFEE26A1C4B1B68DB6A9A42DCD31B4B2E
:1049E00001221A60D8E70CB1FFF7CAFC184B1C680B
:1049F00074B9164B1C68C4B1164B4FF080521A6044
:104A0000BFF34F8FBFF36F8F01240EE0013C07D03F
:104A1000FFF718FF0028F9D00C4B01221A60F5E7C8
:104A20000B4B00221A60E4E70024FEF7D5FE204677
:104A300038BD00BF7C48002074480020BC480020DE
:104A4000844800201444002008440020004900202D
:104A5000B848002004ED00E038B558B10C460546D2
:104A600089B94FF0500383F31188BFF36F8FBFF301
:104A70004F8FFEE74FF0500383F31188BFF36F8F22
:104A8000BFF34F8FFEE71A4B1B6843B14FF0500343
:104A900083F31188BFF36F8FBFF34F8FFEE7FFF7EC
:104AA000AFFE144B18682A681444824209D9A24206
:104AB00001D82C600EE0A04201D32C600AE02C60EB
:104AC00004E0A24201D8A04210D22C600021201A9A
:104AD000FFF79CFDFFF744FF38B9074B4FF08052BA
:104AE0001A60BFF34F8FBFF36F8F38BD2C60F1E7B3
:104AF0007C480020FC48002004ED00E010B5A8B17F
:104B000004460F4B1B6843B14FF0500383F31188E9
:104B1000BFF36F8FBFF34F8FFEE7FFF771FE0021EA
:104B20002046FFF773FDFFF71BFF38B9054B4FF029
:104B300080521A60BFF34F8FBFF36F8F10BD00BF5D
:104B40007C48002004ED00E070B50546FCF778F9DC
:104B50000F2808D94FF0500383F31188BFF36F8FEC
:104B6000BFF34F8FFEE7FFF74BFE3826013E06EB03
:104B700086002946154B03EB8000FFF7CEFB044669
:104B800008B9002EF2D134B164B194B1BCB1FFF7D1
:104B9000E7FE204670BD0E4B18682946FFF7BDFBA7
:104BA0000446F1E70B4B18682946FFF7B6FB0446AD
:104BB000EBE729460848FFF7B0FB0446E6E729463D
:104BC0000648FFF7AAFB0446E1E700BF14440020B3
:104BD0000C44002010440020D4480020E848002065
:104BE000204B1B681BB1204B01221A6070471E4BE3
:104BF00000221A601D4B1B6803EB83018A001C49CD
:104C00008A585AB90BB1013BF6E74FF0500383F3D2
:104C10001188BFF36F8FBFF34F8FFEE710B403EB24
:104C2000830082000A4450684068506003EB8304AC
:104C3000A20014460832114488420DD003EB8302CF
:104C400091000B4A0A445268D1680A4A1160074A27
:104C500013605DF8044B70474068054A2244506079
:104C6000ECE700BF7C480020004900208448002079
:104C7000144400200844002058B110B50C46094BDC
:104C800019681831FEF7EFFC01212046FFF7BEFC42
:104C900010BD4FF0500383F31188BFF36F8FBFF344
:104CA0004F8FFEE70844002038B570B10C4615461A
:104CB0000A4B19681831FEF7CBFC0DB14FF0FF34E9
:104CC00029462046FFF7A2FC38BD4FF0500383F37E
:104CD0001188BFF36F8FBFF34F8FFEE708440020AA
:104CE00038B5C368DC6824B304F118052846FEF71C
:104CF000D3FC184B1B682BBB251D2846FEF7CCFCAC
:104D0000E06A154B1B68984201D9134B186000EB01
:104D100080002946114B03EB8000FEF799FCE26A04
:104D20000F4B1B68DB6A9A4211D901200D4B1860AA
:104D30000EE04FF0500383F31188BFF36F8FBFF382
:104D40004F8FFEE729460848FEF782FCE7E7002080
:104D500038BD00BF7C480020844800201444002057
:104D60000844002000490020BC480020034B1B6879
:104D70000360034B1B684360704700BFB4480020CA
:104D8000FC480020F8B5B8B10C460546E9B1FEF77D
:104D900001FD214B19686B68C81A204A126892F805
:104DA0005A20DAB11D4B1B68002283F85A200124D7
:104DB000FEF712FD2046F8BD4FF0500383F3118833
:104DC000BFF36F8FBFF34F8FFEE74FF0500383F3B6
:104DD0001188BFF36F8FBFF34F8FFEE72268B2F1E8
:104DE000FF3F14D02F680E4E3668B74201D08B4279
:104DF0000FD9824203D8002323600124D8E75B1A2D
:104E0000134423602846FFF7B1FF0024D0E70024B5
:104E1000CEE70124CCE700BFFC4800200844002076
:104E2000B4480020014B01221A607047004900205D
:104E3000054B1B6833B1054B1B680BB10020704755
:104E40000220704701207047D04800207C48002095
:104E500000283BD038B504461E4B1B68834208D05F
:104E60004FF0500383F31188BFF36F8FBFF34F8F61
:104E7000FEE7036D43B94FF0500383F31188BFF38E
:104E80006F8FBFF34F8FFEE7013B0365C16AC26CB2
:104E900091421DD00BB1002038BD051D2846FEF7FC
:104EA000FBFBE06CE062C0F13803A3610A4B1B68B6
:104EB000984201D9084B186000EB80002946074B47
:104EC00003EB8000FEF7C4FB0120E5E700207047FC
:104ED0000020E1E70844002084480020144400201A
:104EE00038B505460C46FEF755FC194B1B685B6D43
:104EF0002BB9174B1B68012283F85820ACB9FEF779
:104F00006BFCFEF747FC124B1B685C6D24B1CDB106
:104F10000F4B1B6800225A650D4B1B68002283F85B
:104F20005820FEF759FC204638BD11462046FFF7B1
:104F30006DFB084B4FF080521A60BFF34F8FBFF3E9
:104F40006F8FDCE7024B1B68621E5A65E4E700BF07
:104F50000844002004ED00E0F8B5D8B10D46044641
:104F6000FEF742FDEFF311864FF0500383F31188F3
:104F7000BFF36F8FBFF34F8F94F85830DBB202222C
:104F800084F85820626D01326265012B0BD086F3E4
:104F90001188F8BD4FF0500383F31188BFF36F8F72
:104FA000BFF34F8FFEE7A36A43B14FF0500383F383
:104FB0001188BFF36F8FBFF34F8FFEE7144B1B6851
:104FC000FBB9271D3846FEF767FBE06A114B1B68EB
:104FD000984201D90F4B186000EB800039460E4B08
:104FE00003EB8000FEF734FBE26A0C4B1B68DB6AC4
:104FF0009A42CCD90DB101232B60094B01221A60D2
:10500000C5E704F118010748FEF722FBECE700BFF3
:105010007C480020844800201444002008440020DC
:1050200000490020BC480020064B1A6813682BB9C1
:105030000123036023B9D368186870470023F8E799
:10504000002070470449002008B54160006191428A
:105050000CD8D21A83699A4201D3012008BD011DE0
:10506000094B1868FEF7FFFA0020F7E79A4201D2D1
:10507000994206D2011D054B1868FEF7F4FA00208C
:10508000ECE70120EAE700BF0849002004490020BE
:1050900030B583B0FEF77EFB114B1B681BB1FEF7EA
:1050A0009BFB03B030BD0F4D2846FEF7C3FA0E4CF4
:1050B0002046FEF7BFFA0D4B1D600D4B1C60002310
:1050C00000930C4B0C4A10210A20FEF7C8FE044B3B
:1050D00018600028E3D00949FFF7E2F8DFE700BFD6
:1050E000284A0020AC490020C04900200449002083
:1050F00008490020D84900200C49002074B200085B
:1051000010B588B0FFF7C4FF124B1B68CBB1002469
:105110000594069407AA06A905A8FEF77FFA059B41
:105120000293069B0193022300932346079A0A49A0
:105130000A48FFF7ADFA0A4A106010B1012008B022
:1051400010BD4FF0500383F31188BFF36F8FBFF38F
:105150004F8FFEE7284A00207CB200086554000803
:105160002C4A0020C0B110B584B014461A4603463C
:105170001648006838B300910194029305291CDC9D
:10518000FFF756FE022810D000231A4669460F4842
:105190000068FEF7AFFE14E04FF0500383F3118870
:1051A000BFF36F8FBFF34F8FFEE70023069A694668
:1051B00006480068FEF79EFE03E000236946FEF7FE
:1051C00059FF04B010BD0020FBE700BF284A0020B3
:1051D00070B582B01B4B1B681A6862B3DB681E682F
:1051E000DC68251D2846FEF757FA236A20469847B3
:1051F00094F8283013F0040FECD0A36933449E4296
:1052000007D26360246129460E4B1868FEF72BFA1B
:10521000E0E7002100910B4632462046FFF7A2FF4F
:105220000028D7D14FF0500383F31188BFF36F8F5D
:10523000BFF34F8FFEE7044A10680249086013600D
:1052400002B070BD044900200849002038B5054669
:10525000FFF7DEFA0446074B1B68834205D800239C
:105260002B60044B1C60204638BDFFF7B1FF0123C3
:105270002B60F6E7D449002070B582B005460E4693
:10528000174B1B68DB68DC68201DFEF705FA94F8F5
:10529000283013F0040F08D123F0010384F82830DC
:1052A000236A2046984702B070BDA1692B4632465A
:1052B00029442046FFF7C8FE0028F1D000210091C4
:1052C0000B462A462046FFF74DFF0028E8D14FF055
:1052D000500383F31188BFF36F8FBFF34F8FFEE747
:1052E0000449002070B582B006460C46FFF788FAE4
:1052F00001A8FFF7ABFF019B23BB05460CB9B042E9
:1053000017D224B1114A12681268CAB90124224680
:10531000711B0F4B1868FEF7D7FFFFF721FB98B9F9
:105320000C4B4FF080521A60BFF34F8FBFF36F8F5B
:105330000AE0FFF715FB29463046FFF79DFF03E023
:105340001C46E4E7FFF70CFB02B070BD08490020E3
:10535000284A002004ED00E010B588B006E0079967
:105360000698059B9847049B002B0BDA002204A9A2
:105370003B4B1868FEF7E6FE00286FD0049B002B1D
:10538000F1DAECE7069C636913B1201DFEF784F99E
:1053900003A8FFF75BFF049B092BE7D8DFE803F0C6
:1053A0000505053037500505303794F8283043F0AF
:1053B000010384F82830059BA16902461944204660
:1053C000FFF742FE0028D1D0236A2046984794F880
:1053D000283013F0040FC9D0A269002100910B46B8
:1053E000059802442046FFF7BDFE0028BED14FF0CD
:1053F000500383F31188BFF36F8FBFF34F8FFEE726
:1054000094F8283023F0010384F82830AEE794F8AC
:10541000283043F0010384F828300599A16131B1A7
:105420000346024601442046FFF70EFE9EE74FF07A
:10543000500383F31188BFF36F8FBFF34F8FFEE7E5
:1054400094F8283013F0020F04D023F0010384F8FD
:1054500028308BE72046FEF7D1FB87E708B010BD68
:10546000284A002000B583B001A8FFF7DDFD0199AF
:10547000FFF738FFFFF770FFF6E7000008B50D48AB
:105480000D4B03600323436000238360C3604FF42C
:10549000102202614FF40012426103764376837654
:1054A000C37603774377FBF725FD00B908BD00F00D
:1054B0005DFAFBE7804C00200064004008B50B4813
:1054C0000B4B03601023436000238360C3600361C0
:1054D0004361037643768376C37603774377FBF79E
:1054E00009FD00B908BD00F041FAFBE7584C002067
:1054F0000068004010B58AB0002305930693079317
:105500000893099303683E4A934204D03D4A93426C
:1055100035D00AB010BD3C4A136801331360012B2B
:1055200020D000240194394B1A6B42F008021A6310
:105530001B6B03F008030193019B032305930222D5
:105540000692079408930923099305A93048FCF7AC
:10555000D1F9224605211420FCF7A4F81420FCF709
:10556000D5F8D6E700230093284B1A6C42F000725E
:105570001A641B6C03F000730093009BD1E70023B7
:105580000293224B1A6C42F080621A641B6C03F087
:1055900080630293029B1C4A136801331360012B42
:1055A00021D000240494194B1A6B42F002021A63B2
:1055B0001B6B03F002030493049B602305930223F7
:1055C00006930794032308930923099305A9114817
:1055D000FCF790F9224605214020FCF763F84020B3
:1055E000FCF794F895E700230393084B1A6C42F0FC
:1055F00000721A641B6C03F000730393039BD0E7E3
:105600000064004000680040304A0020003802403A
:10561000000C02400004024010B582B00024019446
:105620000D4B1A6B42F480021A631B6B03F4800368
:105630000193019B224605213A20FCF733F83A20DA
:10564000FCF764F8224605213B20FCF72BF83B20B1
:10565000FCF75CF802B010BD0038024008B5124AF1
:1056600000211248FDF74AFF114B1860114A002132
:105670001148FDF743FF114B1860114A00211148F2
:10568000FDF73CFF104B1860104A00211048FDF751
:1056900035FF104B1860104A00211048FDF72EFF0F
:1056A0000F4B186008BD00BFCCB20008719900080C
:1056B000AC4C002014B30008E1A30008B84C002053
:1056C000F0B200084DA70008B04C002038B3000825
:1056D00059A40008A84C00205CB30008EDA4000801
:1056E000B44C00202DE9F0478EB0002409940A94B0
:1056F0000B940C940D9401945B4B1A6B42F00202D4
:105700001A631A6B02F002020192019A02941A6B58
:1057100042F001021A631A6B02F001020292029A2D
:1057200003941A6B42F008021A631A6B02F0080223
:105730000392039A04941A6B42F004021A631A6BE0
:1057400002F004020492049A05941A6B42F080025B
:105750001A631A6B02F080020592059A06941A6B7E
:1057600042F040021A631A6B02F040020692069A57
:1057700007941A6B42F020021A631A6B02F020029F
:105780000792079A08941A6B42F010021A631B6B77
:1057900003F010030893089B344F01224021384640
:1057A000FCF792F9DFF8CCA0012210215046FCF75B
:1057B0008BF9DFF8C480012211464046FCF784F9DA
:1057C0004023099301250A950B950C9509A93846A4
:1057D000FCF790F8092609964FF40419CDF82890A3
:1057E0000B9509A93846FCF785F8102309930A950B
:1057F0000B9502270C9709A95046FCF77BF830233C
:105800000993CDF828900B9509A91948FCF772F86F
:1058100009950A950B950C9709A94046FCF76AF87B
:10582000224606210846FBF73DFF0620FBF76EFFE8
:10583000224605213046FBF735FF3046FBF766FF71
:10584000224605210A20FBF72DFF0A20FBF75EFF09
:10585000224605211720FBF725FF1720FBF756FFEF
:105860000EB0BDE8F08700BF0038024000180240CB
:1058700000080240000002400004024008B50B4846
:105880000B4B03600B4B436000238360C3604FF4FA
:105890008042026143618361C3610362FCF770FB74
:1058A00000B908BD00F062F8FBE700BFBC4C002067
:1058B000005C0040801A06002DE9F04389B0002307
:1058C000039304930593069307930268234B9A422C
:1058D00002D009B0BDE8F08300250095204C236B71
:1058E00043F004032363236B03F004030093009B42
:1058F0000195236B43F001032363236B03F0010342
:105900000193019B4FF4007303934FF01209CDF8FC
:1059100010904FF00108CDF8148003270697042655
:10592000079603A90F48FBF7E5FF4FF48073039335
:10593000CDF81090CDF814800697079603A90A4871
:10594000FBF7D8FF0295236C43F400032364236C18
:1059500003F400030293029BBBE700BF005C00401E
:1059600000380240000802400000024072B6FEE724
:1059700000B595B03022002108A805F0D9FB00231E
:10598000039304930593069307930193204A116CA4
:1059900041F080511164126C02F080520192019A20
:1059A00002931C4B1A6842F480421A601B6803F48D
:1059B00080430293029B012308934FF480330993A1
:1059C00002230E934FF480020F9206221092A82217
:1059D000119212930423139308A8FCF7D3FD98B9EE
:1059E0000F23039302230493002305934FF4A05342
:1059F00006934FF480530793052103A8FDF70EF893
:105A000020B915B05DF804FBFFF7B0FFFFF7AEFF5C
:105A1000003802400070004008B5FBF73FFAFFF77E
:105A2000A7FFFFF75FFEFFF7F7FDFFF727FF00F087
:105A300013F800F00BFAFFF721FDFFF73FFD00F030
:105A4000A7F900F03DFA04F075FDFDF729FDFFF719
:105A500005FEFDF737FDFEE708B50E480E4B036067
:105A60004FF48273436000238360C360036143612A
:105A70004FF4007282613822C26103624362836222
:105A80000A23C362FDF72CF900B908BDFFF76EFFCA
:105A9000FBE700BF104D0020003001402DE9F0432E
:105AA00089B0002303930493059306930793026838
:105AB0003F4B9A4202D009B0BDE8F083044600256E
:105AC000009503F584335A6C42F480525A645A6C40
:105AD00002F480520092009A01951A6B42F0020281
